{
    "contractName": "ERC20ToERC20",
    "abi": [
        {
            "inputs": [],
            "stateMutability": "nonpayable",
            "type": "constructor"
        },
        {
            "anonymous": false,
            "inputs": [
                {
                    "indexed": true,
                    "internalType": "address",
                    "name": "owner",
                    "type": "address"
                },
                {
                    "indexed": true,
                    "internalType": "address",
                    "name": "spender",
                    "type": "address"
                },
                {
                    "indexed": false,
                    "internalType": "uint256",
                    "name": "value",
                    "type": "uint256"
                }
            ],
            "name": "Approval",
            "type": "event"
        },
        {
            "anonymous": false,
            "inputs": [
                {
                    "indexed": true,
                    "internalType": "address",
                    "name": "from",
                    "type": "address"
                },
                {
                    "indexed": true,
                    "internalType": "address",
                    "name": "to",
                    "type": "address"
                },
                {
                    "indexed": false,
                    "internalType": "uint256",
                    "name": "value",
                    "type": "uint256"
                }
            ],
            "name": "Transfer",
            "type": "event"
        },
        {
            "inputs": [
                {
                    "internalType": "address",
                    "name": "owner",
                    "type": "address"
                },
                {
                    "internalType": "address",
                    "name": "spender",
                    "type": "address"
                }
            ],
            "name": "allowance",
            "outputs": [
                {
                    "internalType": "uint256",
                    "name": "",
                    "type": "uint256"
                }
            ],
            "stateMutability": "view",
            "type": "function"
        },
        {
            "inputs": [
                {
                    "internalType": "address",
                    "name": "spender",
                    "type": "address"
                },
                {
                    "internalType": "uint256",
                    "name": "amount",
                    "type": "uint256"
                }
            ],
            "name": "approve",
            "outputs": [
                {
                    "internalType": "bool",
                    "name": "",
                    "type": "bool"
                }
            ],
            "stateMutability": "nonpayable",
            "type": "function"
        },
        {
            "inputs": [
                {
                    "internalType": "address",
                    "name": "account",
                    "type": "address"
                }
            ],
            "name": "balanceOf",
            "outputs": [
                {
                    "internalType": "uint256",
                    "name": "",
                    "type": "uint256"
                }
            ],
            "stateMutability": "view",
            "type": "function"
        },
        {
            "inputs": [],
            "name": "decimals",
            "outputs": [
                {
                    "internalType": "uint8",
                    "name": "",
                    "type": "uint8"
                }
            ],
            "stateMutability": "view",
            "type": "function"
        },
        {
            "inputs": [
                {
                    "internalType": "address",
                    "name": "spender",
                    "type": "address"
                },
                {
                    "internalType": "uint256",
                    "name": "subtractedValue",
                    "type": "uint256"
                }
            ],
            "name": "decreaseAllowance",
            "outputs": [
                {
                    "internalType": "bool",
                    "name": "",
                    "type": "bool"
                }
            ],
            "stateMutability": "nonpayable",
            "type": "function"
        },
        {
            "inputs": [
                {
                    "internalType": "string",
                    "name": "_pair",
                    "type": "string"
                },
                {
                    "internalType": "uint256",
                    "name": "_token1Amount",
                    "type": "uint256"
                },
                {
                    "internalType": "uint256",
                    "name": "_token2Amount",
                    "type": "uint256"
                }
            ],
            "name": "depositErcToErc",
            "outputs": [],
            "stateMutability": "nonpayable",
            "type": "function"
        },
        {
            "inputs": [
                {
                    "internalType": "string",
                    "name": "_pair",
                    "type": "string"
                },
                {
                    "internalType": "uint256",
                    "name": "_tokenAmount",
                    "type": "uint256"
                },
                {
                    "internalType": "bool",
                    "name": "_t1ToT2",
                    "type": "bool"
                }
            ],
            "name": "ercToErcSwap",
            "outputs": [],
            "stateMutability": "nonpayable",
            "type": "function"
        },
        {
            "inputs": [
                {
                    "internalType": "string",
                    "name": "_pair",
                    "type": "string"
                },
                {
                    "internalType": "uint256",
                    "name": "_amount",
                    "type": "uint256"
                },
                {
                    "internalType": "bool",
                    "name": "_t1ToT2",
                    "type": "bool"
                }
            ],
            "name": "ercToErcWithdraw",
            "outputs": [],
            "stateMutability": "nonpayable",
            "type": "function"
        },
        {
            "inputs": [
                {
                    "internalType": "string",
                    "name": "_pair",
                    "type": "string"
                },
                {
                    "internalType": "uint256",
                    "name": "_tokenAmount",
                    "type": "uint256"
                },
                {
                    "internalType": "bool",
                    "name": "_t1ToT2",
                    "type": "bool"
                }
            ],
            "name": "estimateErcToErcDeposit",
            "outputs": [
                {
                    "internalType": "uint256[2]",
                    "name": "",
                    "type": "uint256[2]"
                }
            ],
            "stateMutability": "view",
            "type": "function"
        },
        {
            "inputs": [
                {
                    "internalType": "address",
                    "name": "spender",
                    "type": "address"
                },
                {
                    "internalType": "uint256",
                    "name": "addedValue",
                    "type": "uint256"
                }
            ],
            "name": "increaseAllowance",
            "outputs": [
                {
                    "internalType": "bool",
                    "name": "",
                    "type": "bool"
                }
            ],
            "stateMutability": "nonpayable",
            "type": "function"
        },
        {
            "inputs": [],
            "name": "name",
            "outputs": [
                {
                    "internalType": "string",
                    "name": "",
                    "type": "string"
                }
            ],
            "stateMutability": "view",
            "type": "function"
        },
        {
            "inputs": [
                {
                    "internalType": "string",
                    "name": "_pair",
                    "type": "string"
                }
            ],
            "name": "poolExists",
            "outputs": [
                {
                    "internalType": "bool",
                    "name": "",
                    "type": "bool"
                }
            ],
            "stateMutability": "view",
            "type": "function"
        },
        {
            "inputs": [],
            "name": "symbol",
            "outputs": [
                {
                    "internalType": "string",
                    "name": "",
                    "type": "string"
                }
            ],
            "stateMutability": "view",
            "type": "function"
        },
        {
            "inputs": [],
            "name": "totalSupply",
            "outputs": [
                {
                    "internalType": "uint256",
                    "name": "",
                    "type": "uint256"
                }
            ],
            "stateMutability": "view",
            "type": "function"
        },
        {
            "inputs": [
                {
                    "internalType": "address",
                    "name": "to",
                    "type": "address"
                },
                {
                    "internalType": "uint256",
                    "name": "amount",
                    "type": "uint256"
                }
            ],
            "name": "transfer",
            "outputs": [
                {
                    "internalType": "bool",
                    "name": "",
                    "type": "bool"
                }
            ],
            "stateMutability": "nonpayable",
            "type": "function"
        },
        {
            "inputs": [
                {
                    "internalType": "address",
                    "name": "from",
                    "type": "address"
                },
                {
                    "internalType": "address",
                    "name": "to",
                    "type": "address"
                },
                {
                    "internalType": "uint256",
                    "name": "amount",
                    "type": "uint256"
                }
            ],
            "name": "transferFrom",
            "outputs": [
                {
                    "internalType": "bool",
                    "name": "",
                    "type": "bool"
                }
            ],
            "stateMutability": "nonpayable",
            "type": "function"
        }
    ],
    "bytecode": "60806040523480156200001157600080fd5b506040518060400160405280600c81526020016b04552433230546f45524332360a41b815250604051806040016040528060048152602001631155115560e21b815250816003908162000065919062000122565b50600462000074828262000122565b505050620001ee565b634e487b7160e01b600052604160045260246000fd5b600181811c90821680620000a857607f821691505b602082108103620000c957634e487b7160e01b600052602260045260246000fd5b50919050565b601f8211156200011d57600081815260208120601f850160051c81016020861015620000f85750805b601f850160051c820191505b81811015620001195782815560010162000104565b5050505b505050565b81516001600160401b038111156200013e576200013e6200007d565b62000156816200014f845462000093565b84620000cf565b602080601f8311600181146200018e5760008415620001755750858301515b600019600386901b1c1916600185901b17855562000119565b600085815260208120601f198616915b82811015620001bf578886015182559484019460019091019084016200019e565b5085821015620001de5787850151600019600388901b60f8161c191681555b5050505050600190811b01905550565b612ae880620001fe6000396000f3fe608060405234801561001057600080fd5b50600436106101005760003560e01c806370a0823111610097578063bad2b95311610066578063bad2b9531461020c578063dd62ed3e1461022c578063e72d02e81461023f578063f0ad345d1461025257600080fd5b806370a08231146101b557806395d89b41146101de578063a457c2d7146101e6578063a9059cbb146101f957600080fd5b80632af1eedc116100d35780632af1eedc1461016b578063313ce56714610180578063395093511461018f57806347df9bf1146101a257600080fd5b806306fdde0314610105578063095ea7b31461012357806318160ddd1461014657806323b872dd14610158575b600080fd5b61010d610265565b60405161011a919061255e565b60405180910390f35b6101366101313660046125ad565b6102f7565b604051901515815260200161011a565b6002545b60405190815260200161011a565b6101366101663660046125d7565b610311565b61017e6101793660046126b6565b610337565b005b6040516012815260200161011a565b61013661019d3660046125ad565b6105d0565b6101366101b0366004612704565b6105f2565b61014a6101c3366004612739565b6001600160a01b031660009081526020819052604090205490565b61010d610629565b6101366101f43660046125ad565b610638565b6101366102073660046125ad565b6106be565b61021f61021a366004612765565b6106cc565b60405161011a91906127c0565b61014a61023a3660046127f1565b6106e7565b61017e61024d366004612765565b610712565b61017e610260366004612765565b610725565b60606003805461027490612824565b80601f01602080910402602001604051908101604052809291908181526020018280546102a090612824565b80156102ed5780601f106102c2576101008083540402835291602001916102ed565b820191906000526020600020905b8154815290600101906020018083116102d057829003601f168201915b5050505050905090565b600033610305818585610d24565b60019150505b92915050565b60003361031f858285610e48565b61032a858585610ec2565b60019150505b9392505050565b82610340611090565b60010181604051610351919061285e565b908152604051908190036020019020600a015460ff166103de5760405162461bcd60e51b815260206004820152603b60248201527f5468657265206973206e6f207375636820746f6b656e20636f6e74726163742060448201527f594554206465706c6f79656420696e206f75722073797374656d2e000000000060648201526084015b60405180910390fd5b8360018460006103ec611090565b600101846040516103fd919061285e565b908152604051908190036020019020600201546001600160a01b03166040516370a0823160e01b815233600482015290915082906001600160a01b038316906370a0823190602401602060405180830381865afa158015610462573d6000803e3d6000fd5b505050506040513d601f19601f82011682018060405250810190610486919061287a565b10156104d05760405162461bcd60e51b815260206004820152601960248201527824b739bab33334b1b4b2b73a1022a921991810333ab732399760391b60448201526064016103d5565b8760028760006104de611090565b600101846040516104ef919061285e565b908152604051908190036020019020600301546001600160a01b03166040516370a0823160e01b815233600482015290915082906001600160a01b038316906370a0823190602401602060405180830381865afa158015610554573d6000803e3d6000fd5b505050506040513d601f19601f82011682018060405250810190610578919061287a565b10156105c25760405162461bcd60e51b815260206004820152601960248201527824b739bab33334b1b4b2b73a1022a921991810333ab732399760391b60448201526064016103d5565b505050505050505050505050565b6000336103058185856105e383836106e7565b6105ed91906128a9565b610d24565b60006105fc611090565b6001018260405161060d919061285e565b908152604051908190036020019020600a015460ff1692915050565b60606004805461027490612824565b6000338161064682866106e7565b9050838110156106a65760405162461bcd60e51b815260206004820152602560248201527f45524332303a2064656372656173656420616c6c6f77616e63652062656c6f77604482015264207a65726f60d81b60648201526084016103d5565b6106b38286868403610d24565b506001949350505050565b600033610305818585610ec2565b6106d461251c565b6106df8484846110b3565b949350505050565b6001600160a01b03918216600090815260016020908152604080832093909416825291909152205490565b610720833384846000611680565b505050565b806107c25781610733611090565b60010184604051610744919061285e565b908152604051908190036020018120600301546370a0823160e01b82523360048301526001600160a01b0316906370a0823190602401602060405180830381865afa158015610797573d6000803e3d6000fd5b505050506040513d601f19601f820116820180604052508101906107bb919061287a565b1015610856565b816107cb611090565b600101846040516107dc919061285e565b908152604051908190036020018120600201546370a0823160e01b82523360048301526001600160a01b0316906370a0823190602401602060405180830381865afa15801561082f573d6000803e3d6000fd5b505050506040513d601f19601f82011682018060405250810190610853919061287a565b10155b6108a25760405162461bcd60e51b815260206004820152601b60248201527f496e73756666696369656e742045524332302062616c616e63652e000000000060448201526064016103d5565b60006108ac611090565b600101846040516108bd919061285e565b9081526020016040518091039020604051806101600160405290816000820180546108e790612824565b80601f016020809104026020016040519081016040528092919081815260200182805461091390612824565b80156109605780601f1061093557610100808354040283529160200191610960565b820191906000526020600020905b81548152906001019060200180831161094357829003601f168201915b5050505050815260200160018201805461097990612824565b80601f01602080910402602001604051908101604052809291908181526020018280546109a590612824565b80156109f25780601f106109c7576101008083540402835291602001916109f2565b820191906000526020600020905b8154815290600101906020018083116109d557829003601f168201915b505050918352505060028201546001600160a01b03908116602083015260038301541660408201526004820154606082015260058201546080820152600682015460a0820152600782015460c0820152600882015460e08201526009820154610100820152600a9091015460ff1615156101209091015290506000610a796101f4856128bc565b905060008260a001518360800151610a9191906128de565b905060008060008615610add57878660800151610aae91906128a9565b9250610aba85846128f5565b610ac490856128bc565b9150818660a00151610ad691906128f5565b9050610b18565b878660a00151610aed91906128a9565b9150610af985836128f5565b610b0390856128bc565b9250828660800151610b1591906128f5565b90505b6080860183905260a0860182905285610b2f611090565b6001018a604051610b40919061285e565b90815260405190819003602001902081518190610b5d9082612956565b5060208201516001820190610b729082612956565b5060408201516002820180546001600160a01b039283166001600160a01b03199182161790915560608401516003840180549190931691161790556080820151600482015560a0820151600582015560c0820151600682015560e082015160078201556101008201516008820155610120820151600982015561014090910151600a909101805491151560ff19909216919091179055600087610c19578660600151610c1f565b86604001515b9050600088610c32578760400151610c38565b87606001515b6040516323b872dd60e01b8152336004820152306024820152604481018c90529091506001600160a01b038316906323b872dd906064016020604051808303816000875af1158015610c8e573d6000803e3d6000fd5b505050506040513d601f19601f82011682018060405250810190610cb29190612a16565b5060405163a9059cbb60e01b8152336004820152602481018490526001600160a01b0382169063a9059cbb906044016020604051808303816000875af1158015610d00573d6000803e3d6000fd5b505050506040513d601f19601f820116820180604052508101906105c29190612a16565b6001600160a01b038316610d865760405162461bcd60e51b8152602060048201526024808201527f45524332303a20617070726f76652066726f6d20746865207a65726f206164646044820152637265737360e01b60648201526084016103d5565b6001600160a01b038216610de75760405162461bcd60e51b815260206004820152602260248201527f45524332303a20617070726f766520746f20746865207a65726f206164647265604482015261737360f01b60648201526084016103d5565b6001600160a01b0383811660008181526001602090815260408083209487168084529482529182902085905590518481527f8c5be1e5ebec7d5bd14f71427d1e84f3dd0314c0f7b2291e5b200ac8c7c3b925910160405180910390a3505050565b6000610e5484846106e7565b90506000198114610ebc5781811015610eaf5760405162461bcd60e51b815260206004820152601d60248201527f45524332303a20696e73756666696369656e7420616c6c6f77616e636500000060448201526064016103d5565b610ebc8484848403610d24565b50505050565b6001600160a01b038316610f265760405162461bcd60e51b815260206004820152602560248201527f45524332303a207472616e736665722066726f6d20746865207a65726f206164604482015264647265737360d81b60648201526084016103d5565b6001600160a01b038216610f885760405162461bcd60e51b815260206004820152602360248201527f45524332303a207472616e7366657220746f20746865207a65726f206164647260448201526265737360e81b60648201526084016103d5565b6001600160a01b038316600090815260208190526040902054818110156110005760405162461bcd60e51b815260206004820152602660248201527f45524332303a207472616e7366657220616d6f756e7420657863656564732062604482015265616c616e636560d01b60648201526084016103d5565b6001600160a01b038085166000908152602081905260408082208585039055918516815290812080548492906110379084906128a9565b92505081905550826001600160a01b0316846001600160a01b03167fddf252ad1be2c89b69c2b068fc378daa952ba7f163c4a11628f55a4df523b3ef8460405161108391815260200190565b60405180910390a3610ebc565b7e5661492dcd9d3c02dbd3b7e7855c55a879f698c500b1c9587676404c7e9c7490565b6110bb61251c565b60006110c5611090565b600101856040516110d6919061285e565b90815260200160405180910390206040518061016001604052908160008201805461110090612824565b80601f016020809104026020016040519081016040528092919081815260200182805461112c90612824565b80156111795780601f1061114e57610100808354040283529160200191611179565b820191906000526020600020905b81548152906001019060200180831161115c57829003601f168201915b5050505050815260200160018201805461119290612824565b80601f01602080910402602001604051908101604052809291908181526020018280546111be90612824565b801561120b5780601f106111e05761010080835404028352916020019161120b565b820191906000526020600020905b8154815290600101906020018083116111ee57829003601f168201915b505050918352505060028201546001600160a01b03908116602083015260038301541660408201526004820154606082015260058201546080820152600682015460a0820152600782015460c0820152600882015460e08201526009820154610100820152600a9091015460ff16151561012090910152905061128d85611a0c565b61152c57826113df5760405180604001604052806112a9611090565b60060154866112b6611090565b5460408681015190516341976e0960e01b81526001600160a01b0391821660048201529116906341976e0990602401602060405180830381865afa158015611302573d6000803e3d6000fd5b505050506040513d601f19601f82011682018060405250810190611326919061287a565b61132e611090565b5460608701516040516341976e0960e01b81526001600160a01b0391821660048201529116906341976e0990602401602060405180830381865afa15801561137a573d6000803e3d6000fd5b505050506040513d601f19601f8201168201806040525081019061139e919061287a565b6113a6611090565b600601546113b491906128de565b6113be91906128bc565b6113c891906128de565b6113d291906128bc565b8152602001859052611524565b60405180604001604052808581526020016113f8611090565b6006015486611405611090565b5460608601516040516341976e0960e01b81526001600160a01b0391821660048201529116906341976e0990602401602060405180830381865afa158015611451573d6000803e3d6000fd5b505050506040513d601f19601f82011682018060405250810190611475919061287a565b61147d611090565b5460408781015190516341976e0960e01b81526001600160a01b0391821660048201529116906341976e0990602401602060405180830381865afa1580156114c9573d6000803e3d6000fd5b505050506040513d601f19601f820116820180604052508101906114ed919061287a565b6114f5611090565b6006015461150391906128de565b61150d91906128bc565b61151791906128de565b61152191906128bc565b90525b915050610330565b82156115d95760008160c001518260e00151611546611090565b6006015461155491906128de565b61155e91906128bc565b9050600061156a611090565b60060154611576611090565b600601548460a0015161158991906128de565b8388866080015161159a91906128a9565b6115a491906128de565b6115ae91906128f5565b6115b891906128bc565b90506040518060400160405280878152602001828152509350505050610330565b60008160e001518260c001516115ed611090565b600601546115fb91906128de565b61160591906128bc565b90506000611611611090565b6006015461161d611090565b60060154846080015161163091906128de565b83888660a0015161164191906128a9565b61164b91906128de565b61165591906128f5565b61165f91906128bc565b90506040518060400160405280828152602001878152509350505050610330565b6000826116ee5761168f611090565b600201866040516116a0919061285e565b90815260408051602092819003830190206001600160a01b03881660009081529252902060010154846116d1611090565b600601546116df91906128de565b6116e991906128bc565b61174d565b6116f6611090565b60020186604051611707919061285e565b90815260408051602092819003830190206001600160a01b0388166000908152925290205484611735611090565b6006015461174391906128de565b61174d91906128bc565b9050600080846117bb5761175f611090565b6006015461176b611090565b6002018960405161177c919061285e565b90815260408051602092819003830190206001600160a01b038b16600090815292529020546117ab90856128de565b6117b591906128bc565b8661181d565b856117c4611090565b600601546117d0611090565b6002018a6040516117e1919061285e565b90815260408051602092819003830190206001600160a01b038c166000908152925290206001015461181390866128de565b61181d91906128bc565b915091506000806118318a8a8a6001611a77565b915091506000806118428c8c611ff2565b915091508161184f611090565b6001018d604051611860919061285e565b9081526020016040518091039020600801600082825461188091906128f5565b9091555081905061188f611090565b6001018d6040516118a0919061285e565b908152602001604051809103902060090160008282546118c091906128f5565b909155508690506118cf611090565b6002018d6040516118e0919061285e565b90815260408051602092819003830190206001600160a01b038f1660009081529252812080549091906119149084906128f5565b90915550859050611923611090565b6002018d604051611934919061285e565b908152602001604051809103902060008d6001600160a01b03166001600160a01b03168152602001908152602001600020600101600082825461197791906128f5565b90915550849050611986611090565b6001018d604051611997919061285e565b908152602001604051809103902060040160008282546119b791906128f5565b909155508390506119c6611090565b6001018d6040516119d7919061285e565b908152602001604051809103902060050160008282546119f791906128f5565b909155506105c290508c898d878787876120ac565b600080611a17611090565b90508060010183604051611a2b919061285e565b90815260200160405180910390206006015460001415801561033057508060010183604051611a5a919061285e565b908152602001604051809103902060070154600014159392505050565b6000806000611a84611090565b60010187604051611a95919061285e565b908152602001604051809103902060060154611aaf611090565b60010188604051611ac0919061285e565b908152602001604051809103902060070154611ada611090565b60060154611ae891906128de565b611af291906128bc565b90506000611afe611090565b60010188604051611b0f919061285e565b908152602001604051809103902060070154611b29611090565b60010189604051611b3a919061285e565b908152602001604051809103902060060154611b54611090565b60060154611b6291906128de565b611b6c91906128bc565b905060008086611b9c57611b7e611090565b60060154611b8c848a6128de565b611b9691906128bc565b88611bbd565b87611ba5611090565b60060154611bb3868b6128de565b611bbd91906128bc565b909250905081611bcb611090565b6001018b604051611bdc919061285e565b9081526020016040518091039020600401541015611dd5576000611c3483611c02611090565b6001018d604051611c13919061285e565b908152602001604051809103902060040154611c2f9190612a33565b6122c4565b9050611c3e611090565b6001018b604051611c4f919061285e565b9081526020016040518091039020600401549250600088611cd157611c72611090565b6002018c604051611c83919061285e565b90815260408051602092819003830190206001600160a01b038e16600090815292529020600101548a611cb4611090565b60060154611cc291906128de565b611ccc91906128bc565b611d30565b611cd9611090565b6002018c604051611cea919061285e565b90815260408051602092819003830190206001600160a01b038e16600090815292529020548a611d18611090565b60060154611d2691906128de565b611d3091906128bc565b90506000611d3c611090565b60060154611d48611090565b6002018e604051611d59919061285e565b908152602001604051809103902060008e6001600160a01b03166001600160a01b031681526020019081526020016000206001015483611d9991906128de565b611da391906128bc565b9050611dad611090565b60060154611dbb88856128de565b611dc591906128bc565b611dcf90826128a9565b93505050505b80611dde611090565b6001018b604051611def919061285e565b9081526020016040518091039020600501541015611fe3576000611e4282611e15611090565b6001018d604051611e26919061285e565b908152602001604051809103902060050154611c2f9190612a33565b9050611e4c611090565b6001018b604051611e5d919061285e565b9081526020016040518091039020600501549150600088611edf57611e80611090565b6002018c604051611e91919061285e565b90815260408051602092819003830190206001600160a01b038e16600090815292529020600101548a611ec2611090565b60060154611ed091906128de565b611eda91906128bc565b611f3e565b611ee7611090565b6002018c604051611ef8919061285e565b90815260408051602092819003830190206001600160a01b038e16600090815292529020548a611f26611090565b60060154611f3491906128de565b611f3e91906128bc565b90506000611f4a611090565b60060154611f56611090565b6002018e604051611f67919061285e565b908152602001604051809103902060008e6001600160a01b03166001600160a01b031681526020019081526020016000206000015483611fa791906128de565b611fb191906128bc565b9050611fbb611090565b60060154611fc987856128de565b611fd391906128bc565b611fdd90826128a9565b94505050505b90999098509650505050505050565b60008060008061200286866122e0565b909250905061200f611090565b600601548261201c611090565b6001018860405161202d919061285e565b90815260200160405180910390206008015461204991906128de565b61205391906128bc565b61205b611090565b6006015482612068611090565b60010189604051612079919061285e565b90815260200160405180910390206009015461209591906128de565b61209f91906128bc565b9350935050509250929050565b8515612150576000336120bf84876128a9565b604051600081818185875af1925050503d80600081146120fb576040519150601f19603f3d011682016040523d82523d6000602084013e612100565b606091505b505090508061214a5760405162461bcd60e51b815260206004820152601660248201527522b93937b9103932b33ab73234b7339032ba3432b91760511b60448201526064016103d5565b50612206565b612158611090565b60010187604051612169919061285e565b908152604051908190036020019020600201546001600160a01b031663a9059cbb8661219585886128a9565b6040516001600160e01b031960e085901b1681526001600160a01b03909216600483015260248201526044016020604051808303816000875af11580156121e0573d6000803e3d6000fd5b505050506040513d601f19601f820116820180604052508101906122049190612a16565b505b61220e611090565b6001018760405161221f919061285e565b908152604051908190036020019020600301546001600160a01b031663a9059cbb8661224b84876128a9565b6040516001600160e01b031960e085901b1681526001600160a01b03909216600483015260248201526044016020604051808303816000875af1158015612296573d6000803e3d6000fd5b505050506040513d601f19601f820116820180604052508101906122ba9190612a16565b5050505050505050565b6000808212156122dc576122d782612a5a565b61030b565b5090565b6000806000806122ef866123ca565b90925090506000826122ff611090565b60020188604051612310919061285e565b90815260408051602092819003830190206001600160a01b038a166000908152925290205461233d611090565b6006015461234b91906128de565b61235591906128bc565b9050600082612362611090565b60020189604051612373919061285e565b90815260408051602092819003830190206001600160a01b038b16600090815292529020600101546123a3611090565b600601546123b191906128de565b6123bb91906128bc565b91989197509095505050505050565b60008060008060005b6123db611090565b600301866040516123ec919061285e565b908152604051908190036020019020546001600160801b0382161015612511576000612416611090565b60030187604051612427919061285e565b9081526020016040518091039020826001600160801b03168154811061244f5761244f612a76565b6000918252602090912001546001600160a01b0316905061246e611090565b6002018760405161247f919061285e565b90815260408051602092819003830190206001600160a01b038416600090815292529020546124ae90856128a9565b93506124b8611090565b600201876040516124c9919061285e565b90815260408051602092819003830190206001600160a01b038416600090815292529020600101546124fb90846128a9565b925050808061250990612a8c565b9150506123d3565b509094909350915050565b60405180604001604052806002906020820280368337509192915050565b60005b8381101561255557818101518382015260200161253d565b50506000910152565b602081526000825180602084015261257d81604085016020870161253a565b601f01601f19169190910160400192915050565b80356001600160a01b03811681146125a857600080fd5b919050565b600080604083850312156125c057600080fd5b6125c983612591565b946020939093013593505050565b6000806000606084860312156125ec57600080fd5b6125f584612591565b925061260360208501612591565b9150604084013590509250925092565b634e487b7160e01b600052604160045260246000fd5b600082601f83011261263a57600080fd5b813567ffffffffffffffff8082111561265557612655612613565b604051601f8301601f19908116603f0116810190828211818310171561267d5761267d612613565b8160405283815286602085880101111561269657600080fd5b836020870160208301376000602085830101528094505050505092915050565b6000806000606084860312156126cb57600080fd5b833567ffffffffffffffff8111156126e257600080fd5b6126ee86828701612629565b9660208601359650604090950135949350505050565b60006020828403121561271657600080fd5b813567ffffffffffffffff81111561272d57600080fd5b6106df84828501612629565b60006020828403121561274b57600080fd5b61033082612591565b801515811461276257600080fd5b50565b60008060006060848603121561277a57600080fd5b833567ffffffffffffffff81111561279157600080fd5b61279d86828701612629565b9350506020840135915060408401356127b581612754565b809150509250925092565b60408101818360005b60028110156127e85781518352602092830192909101906001016127c9565b50505092915050565b6000806040838503121561280457600080fd5b61280d83612591565b915061281b60208401612591565b90509250929050565b600181811c9082168061283857607f821691505b60208210810361285857634e487b7160e01b600052602260045260246000fd5b50919050565b6000825161287081846020870161253a565b9190910192915050565b60006020828403121561288c57600080fd5b5051919050565b634e487b7160e01b600052601160045260246000fd5b8082018082111561030b5761030b612893565b6000826128d957634e487b7160e01b600052601260045260246000fd5b500490565b808202811582820484141761030b5761030b612893565b8181038181111561030b5761030b612893565b601f82111561072057600081815260208120601f850160051c8101602086101561292f5750805b601f850160051c820191505b8181101561294e5782815560010161293b565b505050505050565b815167ffffffffffffffff81111561297057612970612613565b6129848161297e8454612824565b84612908565b602080601f8311600181146129b957600084156129a15750858301515b600019600386901b1c1916600185901b17855561294e565b600085815260208120601f198616915b828110156129e8578886015182559484019460019091019084016129c9565b5085821015612a065787850151600019600388901b60f8161c191681555b5050505050600190811b01905550565b600060208284031215612a2857600080fd5b815161033081612754565b8181036000831280158383131683831282161715612a5357612a53612893565b5092915050565b6000600160ff1b8201612a6f57612a6f612893565b5060000390565b634e487b7160e01b600052603260045260246000fd5b60006001600160801b03808316818103612aa857612aa8612893565b600101939250505056fea26469706673582212203aae50ea1c3ea0c06f7abbeb8ea3cc0d16c82e4de85472a218455a1d72efd95164736f6c63430008110033",
    "sourcePath": "/home/viktor/Dev/Blockchain/Liquidity-Providers/contracts/ERC20ToERC20.sol",
    "compiler": {
        "name": "solc",
        "version": "0.8.17+commit.8df45f5f"
    },
    "functionHashes": {
        "allowance(address,address)": "dd62ed3e",
        "approve(address,uint256)": "095ea7b3",
        "balanceOf(address)": "70a08231",
        "decimals()": "313ce567",
        "decreaseAllowance(address,uint256)": "a457c2d7",
        "depositErcToErc(string,uint256,uint256)": "2af1eedc",
        "ercToErcSwap(string,uint256,bool)": "f0ad345d",
        "ercToErcWithdraw(string,uint256,bool)": "e72d02e8",
        "estimateErcToErcDeposit(string,uint256,bool)": "bad2b953",
        "increaseAllowance(address,uint256)": "39509351",
        "name()": "06fdde03",
        "poolExists(string)": "47df9bf1",
        "symbol()": "95d89b41",
        "totalSupply()": "18160ddd",
        "transfer(address,uint256)": "a9059cbb",
        "transferFrom(address,address,uint256)": "23b872dd"
    },
    "gasEstimates": {
        "creation": {
            "codeDepositCost": "2196800",
            "executionCost": "infinite",
            "totalCost": "infinite"
        },
        "external": {
            "allowance(address,address)": "infinite",
            "approve(address,uint256)": "24651",
            "balanceOf(address)": "2563",
            "decimals()": "222",
            "decreaseAllowance(address,uint256)": "27017",
            "depositErcToErc(string,uint256,uint256)": "infinite",
            "ercToErcSwap(string,uint256,bool)": "infinite",
            "ercToErcWithdraw(string,uint256,bool)": "infinite",
            "estimateErcToErcDeposit(string,uint256,bool)": "infinite",
            "increaseAllowance(address,uint256)": "infinite",
            "name()": "infinite",
            "poolExists(string)": "infinite",
            "symbol()": "infinite",
            "totalSupply()": "2349",
            "transfer(address,uint256)": "infinite",
            "transferFrom(address,address,uint256)": "infinite"
        }
    }
}