{
  "address": "0x809d550fca64d94Bd9F66E60752A544199cfAC3D",
  "abi": [
    {
      "inputs": [
        {
          "internalType": "address[]",
          "name": "_tokenPools",
          "type": "address[]"
        },
        {
          "internalType": "string[]",
          "name": "_tokenSymbols",
          "type": "string[]"
        },
        {
          "internalType": "address",
          "name": "_priceFeed",
          "type": "address"
        },
        {
          "internalType": "uint256",
          "name": "_feeDivisor",
          "type": "uint256"
        },
        {
          "internalType": "uint256",
          "name": "_precisionMult",
          "type": "uint256"
        }
      ],
      "name": "ethToERCInit",
      "outputs": [],
      "stateMutability": "nonpayable",
      "type": "function"
    }
  ],
  "transactionHash": "0x5647bcd76dea4aa5f2be8fa142587c87ab8c68e82ebf36623448138e0d4a717d",
  "args": [],
  "numDeployments": 1,
  "solcInputHash": "c2e49921604f081b9a16f2cbcb720461",
  "bytecode": "0x608060405234801561001057600080fd5b506108af806100206000396000f3fe608060405234801561001057600080fd5b506004361061002b5760003560e01c8063d367031214610030575b600080fd5b61004361003e366004610491565b610045565b005b7e5661492dcd9d3c02dbd3b7e7855c55a879f698c500b1c9587676404c7e9c748061007183600a61066e565b60068301556100898468056bc75e2d63100000610681565b600583015581546001600160a01b0319166001600160a01b03861617825560005b875181101561031a5760008882815181106100c7576100c76106a3565b602002602001015190506000898360016100e191906106b9565b815181106100f1576100f16106a3565b60200260200101519050600089848151811061010f5761010f6106a3565b60200260200101518a85600161012591906106b9565b81518110610135576101356106a3565b602002602001015160405160200161014e9291906106fc565b60408051601f19818403018152919052600487018054600181018255600091825260209091209192500161018282826107ae565b506040518061016001604052808b86815181106101a1576101a16106a3565b602002602001015181526020018b8660016101bc91906106b9565b815181106101cc576101cc6106a3565b60200260200101518152602001846001600160a01b03168152602001836001600160a01b0316815260200160008152602001600081526020016000815260200160008152602001600081526020016000815260200160011515815250866001018260405161023a919061086d565b9081526040519081900360200190208151819061025790826107ae565b506020820151600182019061026c90826107ae565b506040820151600280830180546001600160a01b039384166001600160a01b0319918216179091556060850151600385018054919094169116179091556080830151600483015560a0830151600583015560c0830151600683015560e083015160078301556101008301516008830155610120830151600983015561014090920151600a909101805491151560ff19909216919091179055610313935091508390506106b9565b90506100aa565b5050505050505050565b634e487b7160e01b600052604160045260246000fd5b604051601f8201601f191681016001600160401b038111828210171561036257610362610324565b604052919050565b60006001600160401b0382111561038357610383610324565b5060051b60200190565b80356001600160a01b03811681146103a457600080fd5b919050565b6000601f83818401126103bb57600080fd5b823560206103d06103cb8361036a565b61033a565b82815260059290921b850181019181810190878411156103ef57600080fd5b8287015b848110156104855780356001600160401b03808211156104135760008081fd5b818a0191508a603f8301126104285760008081fd5b8582013560408282111561043e5761043e610324565b61044f828b01601f1916890161033a565b92508183528c818386010111156104665760008081fd5b81818501898501375060009082018701528452509183019183016103f3565b50979650505050505050565b600080600080600060a086880312156104a957600080fd5b85356001600160401b03808211156104c057600080fd5b818801915088601f8301126104d457600080fd5b813560206104e46103cb8361036a565b82815260059290921b8401810191818101908c84111561050357600080fd5b948201945b83861015610528576105198661038d565b82529482019490820190610508565b9950508901359250508082111561053e57600080fd5b5061054b888289016103a9565b94505061055a6040870161038d565b94979396509394606081013594506080013592915050565b634e487b7160e01b600052601160045260246000fd5b600181815b808511156105c35781600019048211156105a9576105a9610572565b808516156105b657918102915b93841c939080029061058d565b509250929050565b6000826105da57506001610668565b816105e757506000610668565b81600181146105fd576002811461060757610623565b6001915050610668565b60ff84111561061857610618610572565b50506001821b610668565b5060208310610133831016604e8410600b8410161715610646575081810a610668565b6106508383610588565b806000190482111561066457610664610572565b0290505b92915050565b600061067a83836105cb565b9392505050565b60008261069e57634e487b7160e01b600052601260045260246000fd5b500490565b634e487b7160e01b600052603260045260246000fd5b8082018082111561066857610668610572565b6000815160005b818110156106ed57602081850181015186830152016106d3565b50600093019283525090919050565b600061070882856106cc565b602f60f81b815261071c60018201856106cc565b95945050505050565b600181811c9082168061073957607f821691505b60208210810361075957634e487b7160e01b600052602260045260246000fd5b50919050565b601f8211156107a957600081815260208120601f850160051c810160208610156107865750805b601f850160051c820191505b818110156107a557828155600101610792565b5050505b505050565b81516001600160401b038111156107c7576107c7610324565b6107db816107d58454610725565b8461075f565b602080601f83116001811461081057600084156107f85750858301515b600019600386901b1c1916600185901b1785556107a5565b600085815260208120601f198616915b8281101561083f57888601518255948401946001909101908401610820565b508582101561085d5787850151600019600388901b60f8161c191681555b5050505050600190811b01905550565b600061067a82846106cc56fea26469706673582212206ca438a8dacb94f5629d1be860b76354c3094ef1cdbf40d4590b097331369d5164736f6c63430008110033",
  "devdoc": {
    "kind": "dev",
    "methods": {},
    "version": 1
  },
  "userdoc": {
    "kind": "user",
    "methods": {},
    "version": 1
  },
  "storageLayout": {
    "storage": [],
    "types": null
  }
}