{
  "address": "0x53DaB165b879542E9aDFC41c6474A9d797B9b042",
  "abi": [
    {
      "inputs": [
        {
          "internalType": "address[]",
          "name": "_tokenPools",
          "type": "address[]"
        },
        {
          "internalType": "string[]",
          "name": "_tokenSymbols",
          "type": "string[]"
        },
        {
          "internalType": "address",
          "name": "_priceFeed",
          "type": "address"
        }
      ],
      "stateMutability": "nonpayable",
      "type": "constructor"
    },
    {
      "anonymous": false,
      "inputs": [
        {
          "indexed": true,
          "internalType": "address",
          "name": "owner",
          "type": "address"
        },
        {
          "indexed": true,
          "internalType": "address",
          "name": "spender",
          "type": "address"
        },
        {
          "indexed": false,
          "internalType": "uint256",
          "name": "value",
          "type": "uint256"
        }
      ],
      "name": "Approval",
      "type": "event"
    },
    {
      "anonymous": false,
      "inputs": [
        {
          "indexed": true,
          "internalType": "address",
          "name": "from",
          "type": "address"
        },
        {
          "indexed": true,
          "internalType": "address",
          "name": "to",
          "type": "address"
        },
        {
          "indexed": false,
          "internalType": "uint256",
          "name": "value",
          "type": "uint256"
        }
      ],
      "name": "Transfer",
      "type": "event"
    },
    {
      "inputs": [
        {
          "internalType": "address",
          "name": "owner",
          "type": "address"
        },
        {
          "internalType": "address",
          "name": "spender",
          "type": "address"
        }
      ],
      "name": "allowance",
      "outputs": [
        {
          "internalType": "uint256",
          "name": "",
          "type": "uint256"
        }
      ],
      "stateMutability": "view",
      "type": "function"
    },
    {
      "inputs": [
        {
          "internalType": "address",
          "name": "spender",
          "type": "address"
        },
        {
          "internalType": "uint256",
          "name": "amount",
          "type": "uint256"
        }
      ],
      "name": "approve",
      "outputs": [
        {
          "internalType": "bool",
          "name": "",
          "type": "bool"
        }
      ],
      "stateMutability": "nonpayable",
      "type": "function"
    },
    {
      "inputs": [
        {
          "internalType": "address",
          "name": "account",
          "type": "address"
        }
      ],
      "name": "balanceOf",
      "outputs": [
        {
          "internalType": "uint256",
          "name": "",
          "type": "uint256"
        }
      ],
      "stateMutability": "view",
      "type": "function"
    },
    {
      "inputs": [],
      "name": "decimals",
      "outputs": [
        {
          "internalType": "uint8",
          "name": "",
          "type": "uint8"
        }
      ],
      "stateMutability": "view",
      "type": "function"
    },
    {
      "inputs": [
        {
          "internalType": "address",
          "name": "spender",
          "type": "address"
        },
        {
          "internalType": "uint256",
          "name": "subtractedValue",
          "type": "uint256"
        }
      ],
      "name": "decreaseAllowance",
      "outputs": [
        {
          "internalType": "bool",
          "name": "",
          "type": "bool"
        }
      ],
      "stateMutability": "nonpayable",
      "type": "function"
    },
    {
      "inputs": [
        {
          "internalType": "string",
          "name": "_pair",
          "type": "string"
        },
        {
          "internalType": "uint256",
          "name": "_token1Amount",
          "type": "uint256"
        },
        {
          "internalType": "uint256",
          "name": "_token2Amount",
          "type": "uint256"
        }
      ],
      "name": "deposit",
      "outputs": [],
      "stateMutability": "nonpayable",
      "type": "function"
    },
    {
      "inputs": [
        {
          "internalType": "string",
          "name": "_pair",
          "type": "string"
        },
        {
          "internalType": "uint256",
          "name": "_tokenAmount",
          "type": "uint256"
        },
        {
          "internalType": "bool",
          "name": "_t1ToT2",
          "type": "bool"
        }
      ],
      "name": "estimateDeposit",
      "outputs": [
        {
          "internalType": "uint256",
          "name": "",
          "type": "uint256"
        }
      ],
      "stateMutability": "view",
      "type": "function"
    },
    {
      "inputs": [
        {
          "internalType": "string",
          "name": "_pair",
          "type": "string"
        }
      ],
      "name": "getPool",
      "outputs": [
        {
          "components": [
            {
              "internalType": "string",
              "name": "token1",
              "type": "string"
            },
            {
              "internalType": "string",
              "name": "token2",
              "type": "string"
            },
            {
              "internalType": "address",
              "name": "token1Con",
              "type": "address"
            },
            {
              "internalType": "address",
              "name": "token2Con",
              "type": "address"
            },
            {
              "internalType": "uint256",
              "name": "token1Amount",
              "type": "uint256"
            },
            {
              "internalType": "uint256",
              "name": "token2Amount",
              "type": "uint256"
            },
            {
              "internalType": "uint256",
              "name": "token1Seed",
              "type": "uint256"
            },
            {
              "internalType": "uint256",
              "name": "token2Seed",
              "type": "uint256"
            },
            {
              "internalType": "bool",
              "name": "created",
              "type": "bool"
            }
          ],
          "internalType": "struct ERC20ToERC20.pairPool",
          "name": "",
          "type": "tuple"
        }
      ],
      "stateMutability": "view",
      "type": "function"
    },
    {
      "inputs": [],
      "name": "getPools",
      "outputs": [
        {
          "internalType": "string[]",
          "name": "",
          "type": "string[]"
        }
      ],
      "stateMutability": "view",
      "type": "function"
    },
    {
      "inputs": [
        {
          "internalType": "string",
          "name": "_pair",
          "type": "string"
        },
        {
          "internalType": "uint256",
          "name": "_tokenAmount",
          "type": "uint256"
        },
        {
          "internalType": "bool",
          "name": "_t1ToT2",
          "type": "bool"
        }
      ],
      "name": "getRelativePrice",
      "outputs": [
        {
          "internalType": "uint256",
          "name": "",
          "type": "uint256"
        },
        {
          "internalType": "uint256",
          "name": "",
          "type": "uint256"
        }
      ],
      "stateMutability": "view",
      "type": "function"
    },
    {
      "inputs": [
        {
          "internalType": "address",
          "name": "spender",
          "type": "address"
        },
        {
          "internalType": "uint256",
          "name": "addedValue",
          "type": "uint256"
        }
      ],
      "name": "increaseAllowance",
      "outputs": [
        {
          "internalType": "bool",
          "name": "",
          "type": "bool"
        }
      ],
      "stateMutability": "nonpayable",
      "type": "function"
    },
    {
      "inputs": [],
      "name": "name",
      "outputs": [
        {
          "internalType": "string",
          "name": "",
          "type": "string"
        }
      ],
      "stateMutability": "view",
      "type": "function"
    },
    {
      "inputs": [
        {
          "internalType": "string",
          "name": "_pair",
          "type": "string"
        }
      ],
      "name": "poolExists",
      "outputs": [
        {
          "internalType": "bool",
          "name": "",
          "type": "bool"
        }
      ],
      "stateMutability": "view",
      "type": "function"
    },
    {
      "inputs": [
        {
          "internalType": "string",
          "name": "_pair",
          "type": "string"
        },
        {
          "internalType": "uint256",
          "name": "_tokenAmount",
          "type": "uint256"
        },
        {
          "internalType": "bool",
          "name": "_t1ToT2",
          "type": "bool"
        }
      ],
      "name": "swap",
      "outputs": [],
      "stateMutability": "nonpayable",
      "type": "function"
    },
    {
      "inputs": [],
      "name": "symbol",
      "outputs": [
        {
          "internalType": "string",
          "name": "",
          "type": "string"
        }
      ],
      "stateMutability": "view",
      "type": "function"
    },
    {
      "inputs": [],
      "name": "totalSupply",
      "outputs": [
        {
          "internalType": "uint256",
          "name": "",
          "type": "uint256"
        }
      ],
      "stateMutability": "view",
      "type": "function"
    },
    {
      "inputs": [
        {
          "internalType": "address",
          "name": "to",
          "type": "address"
        },
        {
          "internalType": "uint256",
          "name": "amount",
          "type": "uint256"
        }
      ],
      "name": "transfer",
      "outputs": [
        {
          "internalType": "bool",
          "name": "",
          "type": "bool"
        }
      ],
      "stateMutability": "nonpayable",
      "type": "function"
    },
    {
      "inputs": [
        {
          "internalType": "address",
          "name": "from",
          "type": "address"
        },
        {
          "internalType": "address",
          "name": "to",
          "type": "address"
        },
        {
          "internalType": "uint256",
          "name": "amount",
          "type": "uint256"
        }
      ],
      "name": "transferFrom",
      "outputs": [
        {
          "internalType": "bool",
          "name": "",
          "type": "bool"
        }
      ],
      "stateMutability": "nonpayable",
      "type": "function"
    }
  ],
  "transactionHash": "0xacebe487a57d1c184b90d261eb17c45a2bcd9510adf8c7db6d174be44f4db276",
  "args": [
    [
      "0x1f9c84B161b2c7FFB540BC5354543108cCE37df1",
      "0x8659DF1C638CDA8E475CD3C6481730C2b4f85873"
    ],
    [
      "UTMC",
      "UCMC"
    ],
    "0x1E2e9190Cea3A97b5Aa85d9757117F499D31C47d"
  ],
  "numDeployments": 1,
  "solcInputHash": "4ed41ab0eda3dde3c45c6ab3358f0d01",
  "bytecode": "0x60806040523480156200001157600080fd5b5060405162002c9b38038062002c9b8339810160408190526200003491620004fd565b6040518060400160405280600c81526020016b04552433230546f45524332360a41b815250604051806040016040528060048152602001631155115560e21b81525081600390816200008791906200066e565b5060046200009682826200066e565b50505060005b835181101562000327576000848281518110620000bd57620000bd6200073a565b60200260200101519050600085836001620000d9919062000750565b81518110620000ec57620000ec6200073a565b6020026020010151905060008584815181106200010d576200010d6200073a565b60200260200101518685600162000125919062000750565b815181106200013857620001386200073a565b60200260200101516040516020016200015392919062000778565b60408051601f19818403018152919052600780546001810182556000919091529091507fa66cc928b5edb82af9bd49922954155ab7b0942694bea4ce44661d9a8736c68801620001a482826200066e565b50604051806101200160405280878681518110620001c657620001c66200073a565b6020026020010151815260200187866001620001e3919062000750565b81518110620001f657620001f66200073a565b60200260200101518152602001846001600160a01b03168152602001836001600160a01b031681526020016000815260200160008152602001600081526020016000815260200160011515815250600682604051620002569190620007b8565b908152604051908190036020019020815181906200027590826200066e565b50602082015160018201906200028c90826200066e565b506040820151600280830180546001600160a01b039384166001600160a01b0319918216179091556060850151600385018054919094169116179091556080830151600483015560a0830151600583015560c0830151600683015560e08301516007830155610100909201516008909101805491151560ff199092169190911790556200031f9350915083905062000750565b90506200009c565b50600580546001600160a01b0319166001600160a01b039290921691909117905550620007d69050565b634e487b7160e01b600052604160045260246000fd5b604051601f8201601f191681016001600160401b038111828210171562000392576200039262000351565b604052919050565b60006001600160401b03821115620003b657620003b662000351565b5060051b60200190565b80516001600160a01b0381168114620003d857600080fd5b919050565b60005b83811015620003fa578181015183820152602001620003e0565b50506000910152565b6000601f83818401126200041657600080fd5b825160206200042f62000429836200039a565b62000367565b82815260059290921b850181019181810190878411156200044f57600080fd5b8287015b84811015620004f15780516001600160401b0380821115620004755760008081fd5b818a0191508a603f8301126200048b5760008081fd5b85820151604082821115620004a457620004a462000351565b620004b7828b01601f1916890162000367565b92508183528c81838601011115620004cf5760008081fd5b620004e082898501838701620003dd565b505084525091830191830162000453565b50979650505050505050565b6000806000606084860312156200051357600080fd5b83516001600160401b03808211156200052b57600080fd5b818601915086601f8301126200054057600080fd5b815160206200055362000429836200039a565b82815260059290921b8401810191818101908a8411156200057357600080fd5b948201945b838610156200059c576200058c86620003c0565b8252948201949082019062000578565b91890151919750909350505080821115620005b657600080fd5b50620005c58682870162000403565b925050620005d660408501620003c0565b90509250925092565b600181811c90821680620005f457607f821691505b6020821081036200061557634e487b7160e01b600052602260045260246000fd5b50919050565b601f8211156200066957600081815260208120601f850160051c81016020861015620006445750805b601f850160051c820191505b81811015620006655782815560010162000650565b5050505b505050565b81516001600160401b038111156200068a576200068a62000351565b620006a2816200069b8454620005df565b846200061b565b602080601f831160018114620006da5760008415620006c15750858301515b600019600386901b1c1916600185901b17855562000665565b600085815260208120601f198616915b828110156200070b57888601518255948401946001909101908401620006ea565b50858210156200072a5787850151600019600388901b60f8161c191681555b5050505050600190811b01905550565b634e487b7160e01b600052603260045260246000fd5b808201808211156200077257634e487b7160e01b600052601160045260246000fd5b92915050565b600083516200078c818460208801620003dd565b602f60f81b9083019081528351620007ac816001840160208801620003dd565b01600101949350505050565b60008251620007cc818460208701620003dd565b9190910192915050565b6124b580620007e66000396000f3fe608060405234801561001057600080fd5b50600436106100e65760003560e01c806306fdde03146100eb578063095ea7b31461010957806318160ddd1461012c57806323b872dd1461013e578063313ce56714610151578063395093511461016057806341d7b0261461017357806343c692391461019357806347df9bf1146101bb578063673a2a1f146101ce57806370a08231146101e35780638343deda1461020c57806395d89b411461021f578063a457c2d714610227578063a7829ffa1461023a578063a9059cbb1461024f578063cd434f2614610262578063dd62ed3e14610275575b600080fd5b6100f3610288565b6040516101009190611e73565b60405180910390f35b61011c610117366004611ea2565b61031a565b6040519015158152602001610100565b6002545b604051908152602001610100565b61011c61014c366004611ecc565b610334565b60405160128152602001610100565b61011c61016e366004611ea2565b61035a565b610186610181366004611faa565b61037c565b6040516101009190611ff3565b6101a66101a13660046120af565b61058b565b60408051928352602083019190915201610100565b61011c6101c9366004611faa565b6109c1565b6101d66109ef565b6040516101009190612109565b6101306101f136600461216b565b6001600160a01b031660009081526020819052604090205490565b61013061021a3660046120af565b610ac8565b6100f3610f7c565b61011c610235366004611ea2565b610f8b565b61024d610248366004612186565b611016565b005b61011c61025d366004611ea2565b611420565b61024d6102703660046120af565b61142e565b6101306102833660046121d3565b6119f1565b60606003805461029790612206565b80601f01602080910402602001604051908101604052809291908181526020018280546102c390612206565b80156103105780601f106102e557610100808354040283529160200191610310565b820191906000526020600020905b8154815290600101906020018083116102f357829003601f168201915b5050505050905090565b600033610328818585611a1c565b60019150505b92915050565b600033610342858285611b40565b61034d858585611bba565b60019150505b9392505050565b60003361032881858561036d83836119f1565b6103779190612256565b611a1c565b6103df604051806101200160405280606081526020016060815260200160006001600160a01b0316815260200160006001600160a01b03168152602001600081526020016000815260200160008152602001600081526020016000151581525090565b6006826040516103ef9190612269565b90815260200160405180910390206040518061012001604052908160008201805461041990612206565b80601f016020809104026020016040519081016040528092919081815260200182805461044590612206565b80156104925780601f1061046757610100808354040283529160200191610492565b820191906000526020600020905b81548152906001019060200180831161047557829003601f168201915b505050505081526020016001820180546104ab90612206565b80601f01602080910402602001604051908101604052809291908181526020018280546104d790612206565b80156105245780601f106104f957610100808354040283529160200191610524565b820191906000526020600020905b81548152906001019060200180831161050757829003601f168201915b505050918352505060028201546001600160a01b03908116602083015260038301541660408201526004820154606082015260058201546080820152600682015460a0820152600782015460c082015260089091015460ff16151560e09091015292915050565b60008060006006866040516105a09190612269565b9081526020016040518091039020604051806101200160405290816000820180546105ca90612206565b80601f01602080910402602001604051908101604052809291908181526020018280546105f690612206565b80156106435780601f1061061857610100808354040283529160200191610643565b820191906000526020600020905b81548152906001019060200180831161062657829003601f168201915b5050505050815260200160018201805461065c90612206565b80601f016020809104026020016040519081016040528092919081815260200182805461068890612206565b80156106d55780601f106106aa576101008083540402835291602001916106d5565b820191906000526020600020905b8154815290600101906020018083116106b857829003601f168201915b505050918352505060028201546001600160a01b03908116602083015260038301541660408201526004820154606082015260058201546080820152600682015460a0820152600782015460c082015260089091015460ff16151560e090910152905061074186611d88565b61085f5760055460408083015190516341976e0960e01b81526001600160a01b03909216916341976e099161077891600401612285565b602060405180830381865afa158015610795573d6000803e3d6000fd5b505050506040513d601f19601f820116820180604052508101906107b99190612299565b6107cd9069021e19e0c9bab24000006122b2565b60055460608301516040516341976e0960e01b81526001600160a01b03909216916341976e099161080091600401612285565b602060405180830381865afa15801561081d573d6000803e3d6000fd5b505050506040513d601f19601f820116820180604052508101906108419190612299565b6108559069021e19e0c9bab24000006122b2565b92509250506109b9565b600061086d6101f4876122c9565b905060008260a00151836080015161088591906122b2565b90506000866108b85782888560a0015161089f9190612256565b6108a991906122eb565b6108b390836122c9565b6108c8565b8784608001516108c89190612256565b90506000876108f0578885608001516108e19190612256565b6108eb90846122c9565b610900565b888560a001516109009190612256565b905061090f8560800151611db5565b61091c8560a00151611db5565b61092582611db5565b61092e81611db5565b6080850151600090610942846127106122b2565b61094c91906122eb565b90506000828760a0015161271061096391906122b2565b61096d91906122eb565b9050816109848269021e19e0c9bab24000006122b2565b61098e91906122c9565b816109a38469021e19e0c9bab24000006122b2565b6109ad91906122c9565b98509850505050505050505b935093915050565b60006006826040516109d39190612269565b9081526040519081900360200190206008015460ff1692915050565b60606007805480602002602001604051908101604052809291908181526020016000905b82821015610abf578382906000526020600020018054610a3290612206565b80601f0160208091040260200160405190810160405280929190818152602001828054610a5e90612206565b8015610aab5780601f10610a8057610100808354040283529160200191610aab565b820191906000526020600020905b815481529060010190602001808311610a8e57829003601f168201915b505050505081526020019060010190610a13565b50505050905090565b600080600685604051610adb9190612269565b908152602001604051809103902060405180610120016040529081600082018054610b0590612206565b80601f0160208091040260200160405190810160405280929190818152602001828054610b3190612206565b8015610b7e5780601f10610b5357610100808354040283529160200191610b7e565b820191906000526020600020905b815481529060010190602001808311610b6157829003601f168201915b50505050508152602001600182018054610b9790612206565b80601f0160208091040260200160405190810160405280929190818152602001828054610bc390612206565b8015610c105780601f10610be557610100808354040283529160200191610c10565b820191906000526020600020905b815481529060010190602001808311610bf357829003601f168201915b505050918352505060028201546001600160a01b03908116602083015260038301541660408201526004820154606082015260058201546080820152600682015460a0820152600782015460c082015260089091015460ff16151560e0909101529050610c7c85611d88565b610eae5782610d985760055460408083015190516341976e0960e01b815286926001600160a01b0316916341976e0991610cb99190600401612285565b602060405180830381865afa158015610cd6573d6000803e3d6000fd5b505050506040513d601f19601f82011682018060405250810190610cfa9190612299565b60055460608401516040516341976e0960e01b81526001600160a01b03909216916341976e0991610d2d91600401612285565b602060405180830381865afa158015610d4a573d6000803e3d6000fd5b505050506040513d601f19601f82011682018060405250810190610d6e9190612299565b610d7f90662386f26fc100006122b2565b610d8991906122c9565b610d9391906122b2565b610ea6565b60055460608201516040516341976e0960e01b815286926001600160a01b0316916341976e0991610dcc9190600401612285565b602060405180830381865afa158015610de9573d6000803e3d6000fd5b505050506040513d601f19601f82011682018060405250810190610e0d9190612299565b60055460408085015190516341976e0960e01b81526001600160a01b03909216916341976e0991610e4091600401612285565b602060405180830381865afa158015610e5d573d6000803e3d6000fd5b505050506040513d601f19601f82011682018060405250810190610e819190612299565b610e9290662386f26fc100006122b2565b610e9c91906122c9565b610ea691906122b2565b915050610353565b8215610f275760008160c001518260e00151662386f26fc10000610ed291906122b2565b610edc91906122c9565b90506000858360800151610ef09190612256565b9050662386f26fc100008360a00151610f0991906122b2565b610f1383836122b2565b610f1d91906122eb565b9350505050610353565b60008160e001518260c00151662386f26fc10000610f4591906122b2565b610f4f91906122c9565b90506000858360a00151610f639190612256565b9050662386f26fc100008360800151610f0991906122b2565b60606004805461029790612206565b60003381610f9982866119f1565b905083811015610ffe5760405162461bcd60e51b815260206004820152602560248201527f45524332303a2064656372656173656420616c6c6f77616e63652062656c6f77604482015264207a65726f60d81b60648201526084015b60405180910390fd5b61100b8286868403611a1c565b506001949350505050565b826006816040516110279190612269565b9081526040519081900360200190206008015460ff166110ad5760405162461bcd60e51b815260206004820152603b60248201527f5468657265206973206e6f207375636820746f6b656e20636f6e74726163742060448201527a2ca2aa103232b83637bcb2b21034b71037bab91039bcb9ba32b69760291b6064820152608401610ff5565b6006846040516110bd9190612269565b908152604051908190036020018120600201546370a0823160e01b82526001600160a01b0316908490819083906370a08231906110fe903390600401612285565b602060405180830381865afa15801561111b573d6000803e3d6000fd5b505050506040513d601f19601f8201168201806040525081019061113f9190612299565b101561115d5760405162461bcd60e51b8152600401610ff5906122fe565b60068660405161116d9190612269565b908152604051908190036020018120600301546370a0823160e01b82526001600160a01b0316908590819083906370a08231906111ae903390600401612285565b602060405180830381865afa1580156111cb573d6000803e3d6000fd5b505050506040513d601f19601f820116820180604052508101906111ef9190612299565b101561120d5760405162461bcd60e51b8152600401610ff5906122fe565b8660068960405161121e9190612269565b9081526020016040518091039020600401600082825461123e9190612256565b92505081905550856006896040516112569190612269565b908152602001604051809103902060050160008282546112769190612256565b909155505060405160069061128c908a90612269565b9081526020016040518091039020600601546000036112f057866006896040516112b69190612269565b908152602001604051809103902060060181905550856006896040516112dc9190612269565b908152604051908190036020019020600701555b6006886040516113009190612269565b908152604051908190036020018120600201546323b872dd60e01b82526001600160a01b0316906323b872dd9061133f90339030908c90600401612331565b6020604051808303816000875af115801561135e573d6000803e3d6000fd5b505050506040513d601f19601f820116820180604052508101906113829190612355565b506006886040516113939190612269565b908152604051908190036020018120600301546323b872dd60e01b82526001600160a01b0316906323b872dd906113d290339030908b90600401612331565b6020604051808303816000875af11580156113f1573d6000803e3d6000fd5b505050506040513d601f19601f820116820180604052508101906114159190612355565b505050505050505050565b600033610328818585611bba565b806114c757816006846040516114449190612269565b908152604051908190036020018120600301546370a0823160e01b82526001600160a01b0316906370a082319061147f903390600401612285565b602060405180830381865afa15801561149c573d6000803e3d6000fd5b505050506040513d601f19601f820116820180604052508101906114c09190612299565b1015611557565b816006846040516114d89190612269565b908152604051908190036020018120600201546370a0823160e01b82526001600160a01b0316906370a0823190611513903390600401612285565b602060405180830381865afa158015611530573d6000803e3d6000fd5b505050506040513d601f19601f820116820180604052508101906115549190612299565b10155b6115a15760405162461bcd60e51b815260206004820152601b60248201527a24b739bab33334b1b4b2b73a1022a9219918103130b630b731b29760291b6044820152606401610ff5565b60006006846040516115b39190612269565b9081526020016040518091039020604051806101200160405290816000820180546115dd90612206565b80601f016020809104026020016040519081016040528092919081815260200182805461160990612206565b80156116565780601f1061162b57610100808354040283529160200191611656565b820191906000526020600020905b81548152906001019060200180831161163957829003601f168201915b5050505050815260200160018201805461166f90612206565b80601f016020809104026020016040519081016040528092919081815260200182805461169b90612206565b80156116e85780601f106116bd576101008083540402835291602001916116e8565b820191906000526020600020905b8154815290600101906020018083116116cb57829003601f168201915b505050918352505060028201546001600160a01b03908116602083015260038301541660408201526004820154606082015260058201546080820152600682015460a0820152600782015460c082015260089091015460ff16151560e090910152905060006117596101f4856122c9565b905060008260a00151836080015161177191906122b2565b9050600080600086156117bd5787866080015161178e9190612256565b925061179a85846122eb565b6117a490856122c9565b9150818660a001516117b691906122eb565b90506117f8565b878660a001516117cd9190612256565b91506117d985836122eb565b6117e390856122c9565b92508286608001516117f591906122eb565b90505b6080860183905260a086018290526040518690600690611819908c90612269565b9081526040519081900360200190208151819061183690826123c0565b506020820151600182019061184b90826123c0565b5060408201516002820180546001600160a01b039283166001600160a01b03199182161790915560608401516003840180549190931691161790556080820151600482015560a0820151600582015560c0820151600682015560e08201516007820155610100909101516008909101805491151560ff199092169190911790556000876118dc5786606001516118e2565b86604001515b90506000886118f55787604001516118fb565b87606001515b6040516323b872dd60e01b81529091506001600160a01b038316906323b872dd9061192e90339030908f90600401612331565b6020604051808303816000875af115801561194d573d6000803e3d6000fd5b505050506040513d601f19601f820116820180604052508101906119719190612355565b5060405163a9059cbb60e01b8152336004820152602481018490526001600160a01b0382169063a9059cbb906044016020604051808303816000875af11580156119bf573d6000803e3d6000fd5b505050506040513d601f19601f820116820180604052508101906119e39190612355565b505050505050505050505050565b6001600160a01b03918216600090815260016020908152604080832093909416825291909152205490565b6001600160a01b038316611a7e5760405162461bcd60e51b8152602060048201526024808201527f45524332303a20617070726f76652066726f6d20746865207a65726f206164646044820152637265737360e01b6064820152608401610ff5565b6001600160a01b038216611adf5760405162461bcd60e51b815260206004820152602260248201527f45524332303a20617070726f766520746f20746865207a65726f206164647265604482015261737360f01b6064820152608401610ff5565b6001600160a01b0383811660008181526001602090815260408083209487168084529482529182902085905590518481527f8c5be1e5ebec7d5bd14f71427d1e84f3dd0314c0f7b2291e5b200ac8c7c3b925910160405180910390a3505050565b6000611b4c84846119f1565b90506000198114611bb45781811015611ba75760405162461bcd60e51b815260206004820152601d60248201527f45524332303a20696e73756666696369656e7420616c6c6f77616e63650000006044820152606401610ff5565b611bb48484848403611a1c565b50505050565b6001600160a01b038316611c1e5760405162461bcd60e51b815260206004820152602560248201527f45524332303a207472616e736665722066726f6d20746865207a65726f206164604482015264647265737360d81b6064820152608401610ff5565b6001600160a01b038216611c805760405162461bcd60e51b815260206004820152602360248201527f45524332303a207472616e7366657220746f20746865207a65726f206164647260448201526265737360e81b6064820152608401610ff5565b6001600160a01b03831660009081526020819052604090205481811015611cf85760405162461bcd60e51b815260206004820152602660248201527f45524332303a207472616e7366657220616d6f756e7420657863656564732062604482015265616c616e636560d01b6064820152608401610ff5565b6001600160a01b03808516600090815260208190526040808220858503905591851681529081208054849290611d2f908490612256565b92505081905550826001600160a01b0316846001600160a01b03167fddf252ad1be2c89b69c2b068fc378daa952ba7f163c4a11628f55a4df523b3ef84604051611d7b91815260200190565b60405180910390a3611bb4565b6000600682604051611d9a9190612269565b90815260405190819003602001902060060154151592915050565b611dfa81604051602401611dcb91815260200190565b60408051601f198184030181529190526020810180516001600160e01b031663f82c50f160e01b179052611e02565b50565b505050565b80516a636f6e736f6c652e6c6f67602083016000808483855afa5050505050565b60005b83811015611e3e578181015183820152602001611e26565b50506000910152565b60008151808452611e5f816020860160208601611e23565b601f01601f19169290920160200192915050565b6020815260006103536020830184611e47565b80356001600160a01b0381168114611e9d57600080fd5b919050565b60008060408385031215611eb557600080fd5b611ebe83611e86565b946020939093013593505050565b600080600060608486031215611ee157600080fd5b611eea84611e86565b9250611ef860208501611e86565b9150604084013590509250925092565b634e487b7160e01b600052604160045260246000fd5b600082601f830112611f2f57600080fd5b81356001600160401b0380821115611f4957611f49611f08565b604051601f8301601f19908116603f01168101908282118183101715611f7157611f71611f08565b81604052838152866020858801011115611f8a57600080fd5b836020870160208301376000602085830101528094505050505092915050565b600060208284031215611fbc57600080fd5b81356001600160401b03811115611fd257600080fd5b611fde84828501611f1e565b949350505050565b6001600160a01b03169052565b6020815260008251610120806020850152612012610140850183611e47565b91506020850151601f1985840301604086015261202f8382611e47565b92505060408501516120446060860182611fe6565b5060608501516120576080860182611fe6565b50608085015160a085015260a085015160c085015260c085015160e085015260e08501516101008181870152808701519150506120978286018215159052565b5090949350505050565b8015158114611dfa57600080fd5b6000806000606084860312156120c457600080fd5b83356001600160401b038111156120da57600080fd5b6120e686828701611f1e565b9350506020840135915060408401356120fe816120a1565b809150509250925092565b6000602080830181845280855180835260408601915060408160051b870101925083870160005b8281101561215e57603f1988860301845261214c858351611e47565b94509285019290850190600101612130565b5092979650505050505050565b60006020828403121561217d57600080fd5b61035382611e86565b60008060006060848603121561219b57600080fd5b83356001600160401b038111156121b157600080fd5b6121bd86828701611f1e565b9660208601359650604090950135949350505050565b600080604083850312156121e657600080fd5b6121ef83611e86565b91506121fd60208401611e86565b90509250929050565b600181811c9082168061221a57607f821691505b60208210810361223a57634e487b7160e01b600052602260045260246000fd5b50919050565b634e487b7160e01b600052601160045260246000fd5b8082018082111561032e5761032e612240565b6000825161227b818460208701611e23565b9190910192915050565b6001600160a01b0391909116815260200190565b6000602082840312156122ab57600080fd5b5051919050565b808202811582820484141761032e5761032e612240565b6000826122e657634e487b7160e01b600052601260045260246000fd5b500490565b8181038181111561032e5761032e612240565b60208082526019908201527824b739bab33334b1b4b2b73a1022a921991810333ab732399760391b604082015260600190565b6001600160a01b039384168152919092166020820152604081019190915260600190565b60006020828403121561236757600080fd5b8151610353816120a1565b601f821115611dfd57600081815260208120601f850160051c810160208610156123995750805b601f850160051c820191505b818110156123b8578281556001016123a5565b505050505050565b81516001600160401b038111156123d9576123d9611f08565b6123ed816123e78454612206565b84612372565b602080601f831160018114612422576000841561240a5750858301515b600019600386901b1c1916600185901b1785556123b8565b600085815260208120601f198616915b8281101561245157888601518255948401946001909101908401612432565b508582101561246f5787850151600019600388901b60f8161c191681555b5050505050600190811b0190555056fea26469706673582212207df087ac56623610b73fa93587396972d48b327077e0fd942981811f91dbce4864736f6c63430008110033",
  "devdoc": {
    "kind": "dev",
    "methods": {
      "allowance(address,address)": {
        "details": "See {IERC20-allowance}."
      },
      "approve(address,uint256)": {
        "details": "See {IERC20-approve}. NOTE: If `amount` is the maximum `uint256`, the allowance is not updated on `transferFrom`. This is semantically equivalent to an infinite approval. Requirements: - `spender` cannot be the zero address."
      },
      "balanceOf(address)": {
        "details": "See {IERC20-balanceOf}."
      },
      "decimals()": {
        "details": "Returns the number of decimals used to get its user representation. For example, if `decimals` equals `2`, a balance of `505` tokens should be displayed to a user as `5.05` (`505 / 10 ** 2`). Tokens usually opt for a value of 18, imitating the relationship between Ether and Wei. This is the value {ERC20} uses, unless this function is overridden; NOTE: This information is only used for _display_ purposes: it in no way affects any of the arithmetic of the contract, including {IERC20-balanceOf} and {IERC20-transfer}."
      },
      "decreaseAllowance(address,uint256)": {
        "details": "Atomically decreases the allowance granted to `spender` by the caller. This is an alternative to {approve} that can be used as a mitigation for problems described in {IERC20-approve}. Emits an {Approval} event indicating the updated allowance. Requirements: - `spender` cannot be the zero address. - `spender` must have allowance for the caller of at least `subtractedValue`."
      },
      "increaseAllowance(address,uint256)": {
        "details": "Atomically increases the allowance granted to `spender` by the caller. This is an alternative to {approve} that can be used as a mitigation for problems described in {IERC20-approve}. Emits an {Approval} event indicating the updated allowance. Requirements: - `spender` cannot be the zero address."
      },
      "name()": {
        "details": "Returns the name of the token."
      },
      "symbol()": {
        "details": "Returns the symbol of the token, usually a shorter version of the name."
      },
      "totalSupply()": {
        "details": "See {IERC20-totalSupply}."
      },
      "transfer(address,uint256)": {
        "details": "See {IERC20-transfer}. Requirements: - `to` cannot be the zero address. - the caller must have a balance of at least `amount`."
      },
      "transferFrom(address,address,uint256)": {
        "details": "See {IERC20-transferFrom}. Emits an {Approval} event indicating the updated allowance. This is not required by the EIP. See the note at the beginning of {ERC20}. NOTE: Does not update the allowance if the current allowance is the maximum `uint256`. Requirements: - `from` and `to` cannot be the zero address. - `from` must have a balance of at least `amount`. - the caller must have allowance for ``from``'s tokens of at least `amount`."
      }
    },
    "version": 1
  },
  "userdoc": {
    "kind": "user",
    "methods": {},
    "version": 1
  },
  "storageLayout": {
    "storage": [
      {
        "astId": 118,
        "contract": "contracts/ERC20ToERC20.sol:ERC20ToERC20",
        "label": "_balances",
        "offset": 0,
        "slot": "0",
        "type": "t_mapping(t_address,t_uint256)"
      },
      {
        "astId": 124,
        "contract": "contracts/ERC20ToERC20.sol:ERC20ToERC20",
        "label": "_allowances",
        "offset": 0,
        "slot": "1",
        "type": "t_mapping(t_address,t_mapping(t_address,t_uint256))"
      },
      {
        "astId": 126,
        "contract": "contracts/ERC20ToERC20.sol:ERC20ToERC20",
        "label": "_totalSupply",
        "offset": 0,
        "slot": "2",
        "type": "t_uint256"
      },
      {
        "astId": 128,
        "contract": "contracts/ERC20ToERC20.sol:ERC20ToERC20",
        "label": "_name",
        "offset": 0,
        "slot": "3",
        "type": "t_string_storage"
      },
      {
        "astId": 130,
        "contract": "contracts/ERC20ToERC20.sol:ERC20ToERC20",
        "label": "_symbol",
        "offset": 0,
        "slot": "4",
        "type": "t_string_storage"
      },
      {
        "astId": 823,
        "contract": "contracts/ERC20ToERC20.sol:ERC20ToERC20",
        "label": "priceFeed",
        "offset": 0,
        "slot": "5",
        "type": "t_contract(PriceFeed)2408"
      },
      {
        "astId": 828,
        "contract": "contracts/ERC20ToERC20.sol:ERC20ToERC20",
        "label": "tokenPools",
        "offset": 0,
        "slot": "6",
        "type": "t_mapping(t_string_memory_ptr,t_struct(pairPool)855_storage)"
      },
      {
        "astId": 831,
        "contract": "contracts/ERC20ToERC20.sol:ERC20ToERC20",
        "label": "pools",
        "offset": 0,
        "slot": "7",
        "type": "t_array(t_string_storage)dyn_storage"
      }
    ],
    "types": {
      "t_address": {
        "encoding": "inplace",
        "label": "address",
        "numberOfBytes": "20"
      },
      "t_array(t_string_storage)dyn_storage": {
        "base": "t_string_storage",
        "encoding": "dynamic_array",
        "label": "string[]",
        "numberOfBytes": "32"
      },
      "t_bool": {
        "encoding": "inplace",
        "label": "bool",
        "numberOfBytes": "1"
      },
      "t_contract(PriceFeed)2408": {
        "encoding": "inplace",
        "label": "contract PriceFeed",
        "numberOfBytes": "20"
      },
      "t_mapping(t_address,t_mapping(t_address,t_uint256))": {
        "encoding": "mapping",
        "key": "t_address",
        "label": "mapping(address => mapping(address => uint256))",
        "numberOfBytes": "32",
        "value": "t_mapping(t_address,t_uint256)"
      },
      "t_mapping(t_address,t_uint256)": {
        "encoding": "mapping",
        "key": "t_address",
        "label": "mapping(address => uint256)",
        "numberOfBytes": "32",
        "value": "t_uint256"
      },
      "t_mapping(t_string_memory_ptr,t_struct(pairPool)855_storage)": {
        "encoding": "mapping",
        "key": "t_string_memory_ptr",
        "label": "mapping(string => struct ERC20ToERC20.pairPool)",
        "numberOfBytes": "32",
        "value": "t_struct(pairPool)855_storage"
      },
      "t_string_memory_ptr": {
        "encoding": "bytes",
        "label": "string",
        "numberOfBytes": "32"
      },
      "t_string_storage": {
        "encoding": "bytes",
        "label": "string",
        "numberOfBytes": "32"
      },
      "t_struct(pairPool)855_storage": {
        "encoding": "inplace",
        "label": "struct ERC20ToERC20.pairPool",
        "members": [
          {
            "astId": 838,
            "contract": "contracts/ERC20ToERC20.sol:ERC20ToERC20",
            "label": "token1",
            "offset": 0,
            "slot": "0",
            "type": "t_string_storage"
          },
          {
            "astId": 840,
            "contract": "contracts/ERC20ToERC20.sol:ERC20ToERC20",
            "label": "token2",
            "offset": 0,
            "slot": "1",
            "type": "t_string_storage"
          },
          {
            "astId": 842,
            "contract": "contracts/ERC20ToERC20.sol:ERC20ToERC20",
            "label": "token1Con",
            "offset": 0,
            "slot": "2",
            "type": "t_address"
          },
          {
            "astId": 844,
            "contract": "contracts/ERC20ToERC20.sol:ERC20ToERC20",
            "label": "token2Con",
            "offset": 0,
            "slot": "3",
            "type": "t_address"
          },
          {
            "astId": 846,
            "contract": "contracts/ERC20ToERC20.sol:ERC20ToERC20",
            "label": "token1Amount",
            "offset": 0,
            "slot": "4",
            "type": "t_uint256"
          },
          {
            "astId": 848,
            "contract": "contracts/ERC20ToERC20.sol:ERC20ToERC20",
            "label": "token2Amount",
            "offset": 0,
            "slot": "5",
            "type": "t_uint256"
          },
          {
            "astId": 850,
            "contract": "contracts/ERC20ToERC20.sol:ERC20ToERC20",
            "label": "token1Seed",
            "offset": 0,
            "slot": "6",
            "type": "t_uint256"
          },
          {
            "astId": 852,
            "contract": "contracts/ERC20ToERC20.sol:ERC20ToERC20",
            "label": "token2Seed",
            "offset": 0,
            "slot": "7",
            "type": "t_uint256"
          },
          {
            "astId": 854,
            "contract": "contracts/ERC20ToERC20.sol:ERC20ToERC20",
            "label": "created",
            "offset": 0,
            "slot": "8",
            "type": "t_bool"
          }
        ],
        "numberOfBytes": "288"
      },
      "t_uint256": {
        "encoding": "inplace",
        "label": "uint256",
        "numberOfBytes": "32"
      }
    }
  }
}