{
  "address": "0xa82fF9aFd8f496c3d6ac40E2a0F282E47488CFc9",
  "abi": [
    {
      "inputs": [
        {
          "internalType": "address[]",
          "name": "_erc20Contracts",
          "type": "address[]"
        },
        {
          "internalType": "address",
          "name": "_priceFeed",
          "type": "address"
        }
      ],
      "stateMutability": "payable",
      "type": "constructor"
    },
    {
      "anonymous": false,
      "inputs": [
        {
          "indexed": true,
          "internalType": "address",
          "name": "owner",
          "type": "address"
        },
        {
          "indexed": true,
          "internalType": "address",
          "name": "spender",
          "type": "address"
        },
        {
          "indexed": false,
          "internalType": "uint256",
          "name": "value",
          "type": "uint256"
        }
      ],
      "name": "Approval",
      "type": "event"
    },
    {
      "anonymous": false,
      "inputs": [
        {
          "indexed": true,
          "internalType": "address",
          "name": "from",
          "type": "address"
        },
        {
          "indexed": true,
          "internalType": "address",
          "name": "to",
          "type": "address"
        },
        {
          "indexed": false,
          "internalType": "uint256",
          "name": "value",
          "type": "uint256"
        }
      ],
      "name": "Transfer",
      "type": "event"
    },
    {
      "inputs": [
        {
          "internalType": "address",
          "name": "_tokenContract",
          "type": "address"
        },
        {
          "internalType": "uint256",
          "name": "_tokenAmount",
          "type": "uint256"
        }
      ],
      "name": "ERC20ToEth",
      "outputs": [],
      "stateMutability": "nonpayable",
      "type": "function"
    },
    {
      "inputs": [
        {
          "internalType": "address",
          "name": "_tokenContract",
          "type": "address"
        },
        {
          "internalType": "uint256",
          "name": "_tokenAmount",
          "type": "uint256"
        }
      ],
      "name": "ERC20ToEthSwap",
      "outputs": [],
      "stateMutability": "nonpayable",
      "type": "function"
    },
    {
      "inputs": [
        {
          "internalType": "address",
          "name": "_erc20Contract",
          "type": "address"
        }
      ],
      "name": "addToken",
      "outputs": [],
      "stateMutability": "nonpayable",
      "type": "function"
    },
    {
      "inputs": [
        {
          "internalType": "address",
          "name": "owner",
          "type": "address"
        },
        {
          "internalType": "address",
          "name": "spender",
          "type": "address"
        }
      ],
      "name": "allowance",
      "outputs": [
        {
          "internalType": "uint256",
          "name": "",
          "type": "uint256"
        }
      ],
      "stateMutability": "view",
      "type": "function"
    },
    {
      "inputs": [
        {
          "internalType": "address",
          "name": "spender",
          "type": "address"
        },
        {
          "internalType": "uint256",
          "name": "amount",
          "type": "uint256"
        }
      ],
      "name": "approve",
      "outputs": [
        {
          "internalType": "bool",
          "name": "",
          "type": "bool"
        }
      ],
      "stateMutability": "nonpayable",
      "type": "function"
    },
    {
      "inputs": [
        {
          "internalType": "address",
          "name": "account",
          "type": "address"
        }
      ],
      "name": "balanceOf",
      "outputs": [
        {
          "internalType": "uint256",
          "name": "",
          "type": "uint256"
        }
      ],
      "stateMutability": "view",
      "type": "function"
    },
    {
      "inputs": [],
      "name": "decimals",
      "outputs": [
        {
          "internalType": "uint8",
          "name": "",
          "type": "uint8"
        }
      ],
      "stateMutability": "view",
      "type": "function"
    },
    {
      "inputs": [
        {
          "internalType": "address",
          "name": "spender",
          "type": "address"
        },
        {
          "internalType": "uint256",
          "name": "subtractedValue",
          "type": "uint256"
        }
      ],
      "name": "decreaseAllowance",
      "outputs": [
        {
          "internalType": "bool",
          "name": "",
          "type": "bool"
        }
      ],
      "stateMutability": "nonpayable",
      "type": "function"
    },
    {
      "inputs": [
        {
          "internalType": "address",
          "name": "_tokenContract",
          "type": "address"
        },
        {
          "internalType": "uint256",
          "name": "_tokenAmount",
          "type": "uint256"
        }
      ],
      "name": "depositEthToERC20",
      "outputs": [],
      "stateMutability": "payable",
      "type": "function"
    },
    {
      "inputs": [
        {
          "internalType": "address",
          "name": "_tokenContract",
          "type": "address"
        }
      ],
      "name": "estimateDepositValues",
      "outputs": [
        {
          "internalType": "uint256",
          "name": "",
          "type": "uint256"
        },
        {
          "internalType": "uint256",
          "name": "",
          "type": "uint256"
        }
      ],
      "stateMutability": "view",
      "type": "function"
    },
    {
      "inputs": [
        {
          "internalType": "address",
          "name": "_tokenContract",
          "type": "address"
        }
      ],
      "name": "ethToERC20Swap",
      "outputs": [],
      "stateMutability": "payable",
      "type": "function"
    },
    {
      "inputs": [],
      "name": "getContracts",
      "outputs": [
        {
          "internalType": "address[]",
          "name": "",
          "type": "address[]"
        }
      ],
      "stateMutability": "view",
      "type": "function"
    },
    {
      "inputs": [
        {
          "internalType": "address",
          "name": "_tokenContract",
          "type": "address"
        }
      ],
      "name": "getPool",
      "outputs": [
        {
          "components": [
            {
              "internalType": "string",
              "name": "symbol",
              "type": "string"
            },
            {
              "internalType": "uint256",
              "name": "ethAmount",
              "type": "uint256"
            },
            {
              "internalType": "uint256",
              "name": "tokenAmount",
              "type": "uint256"
            },
            {
              "internalType": "uint256",
              "name": "ethSeed",
              "type": "uint256"
            },
            {
              "internalType": "uint256",
              "name": "tokenSeed",
              "type": "uint256"
            },
            {
              "internalType": "bool",
              "name": "created",
              "type": "bool"
            }
          ],
          "internalType": "struct EthToERC20.pairPool",
          "name": "",
          "type": "tuple"
        }
      ],
      "stateMutability": "view",
      "type": "function"
    },
    {
      "inputs": [
        {
          "internalType": "address",
          "name": "_tokenContract",
          "type": "address"
        }
      ],
      "name": "getRelativePrice",
      "outputs": [
        {
          "internalType": "uint256",
          "name": "",
          "type": "uint256"
        },
        {
          "internalType": "uint256",
          "name": "",
          "type": "uint256"
        }
      ],
      "stateMutability": "view",
      "type": "function"
    },
    {
      "inputs": [
        {
          "internalType": "address",
          "name": "spender",
          "type": "address"
        },
        {
          "internalType": "uint256",
          "name": "addedValue",
          "type": "uint256"
        }
      ],
      "name": "increaseAllowance",
      "outputs": [
        {
          "internalType": "bool",
          "name": "",
          "type": "bool"
        }
      ],
      "stateMutability": "nonpayable",
      "type": "function"
    },
    {
      "inputs": [],
      "name": "name",
      "outputs": [
        {
          "internalType": "string",
          "name": "",
          "type": "string"
        }
      ],
      "stateMutability": "view",
      "type": "function"
    },
    {
      "inputs": [
        {
          "internalType": "address",
          "name": "_tokenContract",
          "type": "address"
        }
      ],
      "name": "poolIsSeeded",
      "outputs": [
        {
          "internalType": "bool",
          "name": "",
          "type": "bool"
        }
      ],
      "stateMutability": "view",
      "type": "function"
    },
    {
      "inputs": [],
      "name": "symbol",
      "outputs": [
        {
          "internalType": "string",
          "name": "",
          "type": "string"
        }
      ],
      "stateMutability": "view",
      "type": "function"
    },
    {
      "inputs": [],
      "name": "totalSupply",
      "outputs": [
        {
          "internalType": "uint256",
          "name": "",
          "type": "uint256"
        }
      ],
      "stateMutability": "view",
      "type": "function"
    },
    {
      "inputs": [
        {
          "internalType": "address",
          "name": "to",
          "type": "address"
        },
        {
          "internalType": "uint256",
          "name": "amount",
          "type": "uint256"
        }
      ],
      "name": "transfer",
      "outputs": [
        {
          "internalType": "bool",
          "name": "",
          "type": "bool"
        }
      ],
      "stateMutability": "nonpayable",
      "type": "function"
    },
    {
      "inputs": [
        {
          "internalType": "address",
          "name": "from",
          "type": "address"
        },
        {
          "internalType": "address",
          "name": "to",
          "type": "address"
        },
        {
          "internalType": "uint256",
          "name": "amount",
          "type": "uint256"
        }
      ],
      "name": "transferFrom",
      "outputs": [
        {
          "internalType": "bool",
          "name": "",
          "type": "bool"
        }
      ],
      "stateMutability": "nonpayable",
      "type": "function"
    },
    {
      "stateMutability": "payable",
      "type": "receive"
    }
  ],
  "transactionHash": "0x343ba18138c9994bf5538d1462ca069370982e5cd73676f62b7c57724d83576c",
  "args": [
    [
      "0xc5a5C42992dECbae36851359345FE25997F5C42d",
      "0x67d269191c92Caf3cD7723F116c85e6E9bf55933"
    ],
    "0x9E545E3C0baAB3E08CdfD552C960A1050f373042"
  ],
  "numDeployments": 1,
  "solcInputHash": "47cdb480977f5ca63609d889a1d31917",
  "bytecode": "0x608060405260405162002396380380620023968339810160408190526200002691620002a9565b6040518060400160405280600a8152602001690457468546f45524332360b41b815250604051806040016040528060048152602001634545524360e01b815250816003908162000077919062000405565b50600462000086828262000405565b50505060005b82518110156200021b576000838281518110620000ad57620000ad620004d1565b60209081029190910101516007805460018101825560009182527fa66cc928b5edb82af9bd49922954155ab7b0942694bea4ce44661d9a8736c6880180546001600160a01b0319166001600160a01b0384169081179091556040805160c081018083526395d89b4160e01b905290519394509283926395d89b419160c48086019291908187030181865afa1580156200014a573d6000803e3d6000fd5b505050506040513d6000823e601f3d908101601f19168201604052620001749190810190620004e7565b81526000602080830182905260408084018390526060840183905260808401839052600160a0909401939093526001600160a01b0385168252600690522081518190620001c2908262000405565b506020820151600182015560408201516002820155606082015160038201556080820151600482015560a0909101516005909101805460ff1916911515919091179055508062000212816200059d565b9150506200008c565b50600580546001600160a01b0319166001600160a01b039290921691909117905550620005c5565b634e487b7160e01b600052604160045260246000fd5b604051601f8201601f191681016001600160401b038111828210171562000284576200028462000243565b604052919050565b80516001600160a01b0381168114620002a457600080fd5b919050565b60008060408385031215620002bd57600080fd5b82516001600160401b0380821115620002d557600080fd5b818501915085601f830112620002ea57600080fd5b815160208282111562000301576200030162000243565b8160051b92506200031481840162000259565b82815292840181019281810190898511156200032f57600080fd5b948201945b84861015620003585762000348866200028c565b8252948201949082019062000334565b96506200036990508782016200028c565b9450505050509250929050565b600181811c908216806200038b57607f821691505b602082108103620003ac57634e487b7160e01b600052602260045260246000fd5b50919050565b601f8211156200040057600081815260208120601f850160051c81016020861015620003db5750805b601f850160051c820191505b81811015620003fc57828155600101620003e7565b5050505b505050565b81516001600160401b0381111562000421576200042162000243565b620004398162000432845462000376565b84620003b2565b602080601f831160018114620004715760008415620004585750858301515b600019600386901b1c1916600185901b178555620003fc565b600085815260208120601f198616915b82811015620004a25788860151825594840194600190910190840162000481565b5085821015620004c15787850151600019600388901b60f8161c191681555b5050505050600190811b01905550565b634e487b7160e01b600052603260045260246000fd5b60006020808385031215620004fb57600080fd5b82516001600160401b03808211156200051357600080fd5b818501915085601f8301126200052857600080fd5b8151818111156200053d576200053d62000243565b62000551601f8201601f1916850162000259565b915080825286848285010111156200056857600080fd5b60005b81811015620005885783810185015183820186015284016200056b565b50600090820190930192909252509392505050565b600060018201620005be57634e487b7160e01b600052601160045260246000fd5b5060010190565b611dc180620005d56000396000f3fe60806040526004361061012e5760003560e01c806370a08231116100ab578063a9059cbb1161006f578063a9059cbb14610337578063bbe4f6db14610357578063c3a2a93a14610384578063d48bfca7146103a6578063dd62ed3e146103c6578063f68e6aec146103e657600080fd5b806370a0823114610277578063729f20c7146102ad5780638457cc60146102e257806395d89b4114610302578063a457c2d71461031757600080fd5b8063313ce567116100f2578063313ce567146101f557806332d828f81461021157806339509351146102315780633b46419a146102515780635a6bace61461026457600080fd5b806306fdde031461013a578063095ea7b31461016557806318160ddd1461019557806323b872dd146101b457806330f6429e146101d457600080fd5b3661013557005b600080fd5b34801561014657600080fd5b5061014f610406565b60405161015c91906118bc565b60405180910390f35b34801561017157600080fd5b506101856101803660046118f2565b610498565b604051901515815260200161015c565b3480156101a157600080fd5b506002545b60405190815260200161015c565b3480156101c057600080fd5b506101856101cf36600461191c565b6104b2565b3480156101e057600080fd5b506101f36101ef3660046118f2565b5050565b005b34801561020157600080fd5b506040516012815260200161015c565b34801561021d57600080fd5b5061018561022c366004611958565b6104d6565b34801561023d57600080fd5b5061018561024c3660046118f2565b61051d565b6101f361025f3660046118f2565b61053f565b6101f3610272366004611958565b61075f565b34801561028357600080fd5b506101a6610292366004611958565b6001600160a01b031660009081526020819052604090205490565b3480156102b957600080fd5b506102cd6102c8366004611958565b6109e6565b6040805192835260208301919091520161015c565b3480156102ee57600080fd5b506102cd6102fd366004611958565b610b5f565b34801561030e57600080fd5b5061014f610d0b565b34801561032357600080fd5b506101856103323660046118f2565b610d1a565b34801561034357600080fd5b506101856103523660046118f2565b610d95565b34801561036357600080fd5b50610377610372366004611958565b610da3565b60405161015c9190611973565b34801561039057600080fd5b50610399610ed0565b60405161015c91906119cf565b3480156103b257600080fd5b506101f36103c1366004611958565b610f31565b3480156103d257600080fd5b506101a66103e1366004611a1c565b6110fc565b3480156103f257600080fd5b506101f36104013660046118f2565b611127565b60606003805461041590611a4f565b80601f016020809104026020016040519081016040528092919081815260200182805461044190611a4f565b801561048e5780601f106104635761010080835404028352916020019161048e565b820191906000526020600020905b81548152906001019060200180831161047157829003601f168201915b5050505050905090565b6000336104a68185856114fb565b60019150505b92915050565b6000336104c085828561161f565b6104cb858585611699565b506001949350505050565b6001600160a01b03811660009081526006602052604081206005015460ff1680156104ac5750506001600160a01b0316600090815260066020526040902060030154151590565b6000336104a681858561053083836110fc565b61053a9190611a9f565b6114fb565b6001600160a01b038216600090815260066020526040902060050154829060ff166105855760405162461bcd60e51b815260040161057c90611ab2565b60405180910390fd5b6040516370a0823160e01b81523360048201528390839081906001600160a01b038416906370a0823190602401602060405180830381865afa1580156105cf573d6000803e3d6000fd5b505050506040513d601f19601f820116820180604052508101906105f39190611b0f565b101561063d5760405162461bcd60e51b815260206004820152601960248201527824b739bab33334b1b4b2b73a1022a921991810333ab732399760391b604482015260640161057c565b6040516323b872dd60e01b81526001600160a01b038616906323b872dd9061066d90339030908990600401611b28565b6020604051808303816000875af115801561068c573d6000803e3d6000fd5b505050506040513d601f19601f820116820180604052508101906106b09190611b4c565b506001600160a01b038516600090815260066020526040812060010180543492906106dc908490611a9f565b90915550506001600160a01b0385166000908152600660205260408120600201805486929061070c908490611a9f565b90915550506001600160a01b0385166000908152600660205260408120600301549003610758576001600160a01b03851660009081526006602052604090203460038201556004018490555b5050505050565b6001600160a01b038116600090815260066020526040902060050154819060ff1661079c5760405162461bcd60e51b815260040161057c90611ab2565b6001600160a01b038216600090815260066020526040808220815160c081019092528054829082906107cd90611a4f565b80601f01602080910402602001604051908101604052809291908181526020018280546107f990611a4f565b80156108465780601f1061081b57610100808354040283529160200191610846565b820191906000526020600020905b81548152906001019060200180831161082957829003601f168201915b50505091835250506001820154602082015260028201546040820152600382015460608201526004820154608082015260059091015460ff16151560a090910152905060006108976101f434611b6e565b90506000826040015183602001516108af9190611b90565b905060003484602001516108c39190611a9f565b905060006108d18483611ba7565b6108db9084611b6e565b602080870184905260408088018390526001600160a01b038a166000908152600690925290208651919250869181906109149082611c1e565b50602082015160018201556040808301516002830155606083015160038301556080830151600483015560a0909201516005909101805460ff19169115159190911790558501516001600160a01b038816906323b872dd903090339061097b908690611ba7565b6040518463ffffffff1660e01b815260040161099993929190611b28565b6020604051808303816000875af11580156109b8573d6000803e3d6000fd5b505050506040513d601f19601f820116820180604052508101906109dc9190611b4c565b5050505050505050565b6001600160a01b038116600090815260066020526040808220815160c08101909252805483928392909182908290610a1d90611a4f565b80601f0160208091040260200160405190810160405280929190818152602001828054610a4990611a4f565b8015610a965780601f10610a6b57610100808354040283529160200191610a96565b820191906000526020600020905b815481529060010190602001808311610a7957829003601f168201915b5050509183525050600182015460208083019190915260028301546040830152600383015460608301526004830154608083015260059092015460ff16151560a09091015281015190915015610b5957600081602001518260400151670de0b6b3a7640000610b059190611b90565b610b0f9190611b6e565b905060008260400151670de0b6b3a7640000610b2b9190611b90565b6020840151610b4290670de0b6b3a7640000611b90565b610b4c9190611b6e565b9196919550909350505050565b50915091565b6001600160a01b038116600090815260066020526040808220815160c08101909252805483928392909182908290610b9690611a4f565b80601f0160208091040260200160405190810160405280929190818152602001828054610bc290611a4f565b8015610c0f5780601f10610be457610100808354040283529160200191610c0f565b820191906000526020600020905b815481529060010190602001808311610bf257829003601f168201915b50505050508152602001600182015481526020016002820154815260200160038201548152602001600482015481526020016005820160009054906101000a900460ff1615151515815250509050806060015181602001511115610cc157600081606001518260200151670de0b6b3a7640000610c8c9190611b90565b610c969190611b6e565b9050600082604001518360800151670de0b6b3a7640000610cb79190611b90565b610b4c9190611ba7565b600081602001518260600151670de0b6b3a7640000610ce09190611b90565b610cea9190611b6e565b9050600082608001518360400151670de0b6b3a7640000610cb79190611b90565b60606004805461041590611a4f565b60003381610d2882866110fc565b905083811015610d885760405162461bcd60e51b815260206004820152602560248201527f45524332303a2064656372656173656420616c6c6f77616e63652062656c6f77604482015264207a65726f60d81b606482015260840161057c565b6104cb82868684036114fb565b6000336104a6818585611699565b610dde6040518060c0016040528060608152602001600081526020016000815260200160008152602001600081526020016000151581525090565b6001600160a01b03821660009081526006602052604090819020815160c08101909252805482908290610e1090611a4f565b80601f0160208091040260200160405190810160405280929190818152602001828054610e3c90611a4f565b8015610e895780601f10610e5e57610100808354040283529160200191610e89565b820191906000526020600020905b815481529060010190602001808311610e6c57829003601f168201915b50505091835250506001820154602082015260028201546040820152600382015460608201526004820154608082015260059091015460ff16151560a09091015292915050565b6060600780548060200260200160405190810160405280929190818152602001828054801561048e57602002820191906000526020600020905b81546001600160a01b03168152600190910190602001808311610f0a575050505050905090565b6001600160a01b03811660009081526006602052604090206005015460ff1615610fb35760405162461bcd60e51b815260206004820152602d60248201527f5468697320746f6b656e20636f6e747261637420697320616c7265616479206960448201526c37103a34329039bcb9ba32b69760991b606482015260840161057c565b6007805460018101825560009182527fa66cc928b5edb82af9bd49922954155ab7b0942694bea4ce44661d9a8736c6880180546001600160a01b0319166001600160a01b0384169081179091556040805160c081018083526395d89b4160e01b9052905190928392916395d89b419160c480860192908187030181865afa158015611042573d6000803e3d6000fd5b505050506040513d6000823e601f3d908101601f1916820160405261106a9190810190611cde565b81526000602080830182905260408084018390526060840183905260808401839052600160a0909401939093526001600160a01b03851682526006905220815181906110b69082611c1e565b506020820151600182015560408201516002820155606082015160038201556080820151600482015560a0909101516005909101805460ff191691151591909117905550565b6001600160a01b03918216600090815260016020908152604080832093909416825291909152205490565b6001600160a01b038216600090815260066020526040902060050154829060ff166111645760405162461bcd60e51b815260040161057c90611ab2565b6040516370a0823160e01b815233600482015282906001600160a01b038516906370a0823190602401602060405180830381865afa1580156111aa573d6000803e3d6000fd5b505050506040513d601f19601f820116820180604052508101906111ce9190611b0f565b101561121c5760405162461bcd60e51b815260206004820152601b60248201527f496e73756666696369656e742045524332302062616c616e63652e0000000000604482015260640161057c565b6001600160a01b038316600090815260066020526040808220815160c0810190925280548290829061124d90611a4f565b80601f016020809104026020016040519081016040528092919081815260200182805461127990611a4f565b80156112c65780601f1061129b576101008083540402835291602001916112c6565b820191906000526020600020905b8154815290600101906020018083116112a957829003601f168201915b50505091835250506001820154602082015260028201546040820152600382015460608201526004820154608082015260059091015460ff16151560a090910152905060006113176101f485611b6e565b905060008260400151836020015161132f9190611b90565b905060008584604001516113439190611a9f565b905060006113518483611ba7565b61135b9084611b6e565b9050600081866020015161136f9190611ba7565b602080880184905260408089018690526001600160a01b038c166000908152600690925290208751919250879181906113a89082611c1e565b5060208201516001820155604080830151600283015560608301516003830155608083015160048084019190915560a0909301516005909201805460ff191692151592909217909155516323b872dd60e01b81526001600160a01b038b16916323b872dd9161141d91339130918e9101611b28565b6020604051808303816000875af115801561143c573d6000803e3d6000fd5b505050506040513d601f19601f820116820180604052508101906114609190611b4c565b50604051600090339083908381818185875af1925050503d80600081146114a3576040519150601f19603f3d011682016040523d82523d6000602084013e6114a8565b606091505b50509050806114ef5760405162461bcd60e51b815260206004820152601360248201527221b7bab632103737ba1039b2b7321032ba341760691b604482015260640161057c565b50505050505050505050565b6001600160a01b03831661155d5760405162461bcd60e51b8152602060048201526024808201527f45524332303a20617070726f76652066726f6d20746865207a65726f206164646044820152637265737360e01b606482015260840161057c565b6001600160a01b0382166115be5760405162461bcd60e51b815260206004820152602260248201527f45524332303a20617070726f766520746f20746865207a65726f206164647265604482015261737360f01b606482015260840161057c565b6001600160a01b0383811660008181526001602090815260408083209487168084529482529182902085905590518481527f8c5be1e5ebec7d5bd14f71427d1e84f3dd0314c0f7b2291e5b200ac8c7c3b925910160405180910390a3505050565b600061162b84846110fc565b9050600019811461169357818110156116865760405162461bcd60e51b815260206004820152601d60248201527f45524332303a20696e73756666696369656e7420616c6c6f77616e6365000000604482015260640161057c565b61169384848484036114fb565b50505050565b6001600160a01b0383166116fd5760405162461bcd60e51b815260206004820152602560248201527f45524332303a207472616e736665722066726f6d20746865207a65726f206164604482015264647265737360d81b606482015260840161057c565b6001600160a01b03821661175f5760405162461bcd60e51b815260206004820152602360248201527f45524332303a207472616e7366657220746f20746865207a65726f206164647260448201526265737360e81b606482015260840161057c565b6001600160a01b038316600090815260208190526040902054818110156117d75760405162461bcd60e51b815260206004820152602660248201527f45524332303a207472616e7366657220616d6f756e7420657863656564732062604482015265616c616e636560d01b606482015260840161057c565b6001600160a01b0380851660009081526020819052604080822085850390559185168152908120805484929061180e908490611a9f565b92505081905550826001600160a01b0316846001600160a01b03167fddf252ad1be2c89b69c2b068fc378daa952ba7f163c4a11628f55a4df523b3ef8460405161185a91815260200190565b60405180910390a3611693565b505050565b60005b8381101561188757818101518382015260200161186f565b50506000910152565b600081518084526118a881602086016020860161186c565b601f01601f19169290920160200192915050565b6020815260006118cf6020830184611890565b9392505050565b80356001600160a01b03811681146118ed57600080fd5b919050565b6000806040838503121561190557600080fd5b61190e836118d6565b946020939093013593505050565b60008060006060848603121561193157600080fd5b61193a846118d6565b9250611948602085016118d6565b9150604084013590509250925092565b60006020828403121561196a57600080fd5b6118cf826118d6565b602081526000825160c0602084015261198f60e0840182611890565b9050602084015160408401526040840151606084015260608401516080840152608084015160a084015260a0840151151560c08401528091505092915050565b6020808252825182820181905260009190848201906040850190845b81811015611a105783516001600160a01b0316835292840192918401916001016119eb565b50909695505050505050565b60008060408385031215611a2f57600080fd5b611a38836118d6565b9150611a46602084016118d6565b90509250929050565b600181811c90821680611a6357607f821691505b602082108103611a8357634e487b7160e01b600052602260045260246000fd5b50919050565b634e487b7160e01b600052601160045260246000fd5b808201808211156104ac576104ac611a89565b6020808252603b908201527f5468657265206973206e6f207375636820746f6b656e20636f6e74726163742060408201527f594554206465706c6f79656420696e206f75722073797374656d2e0000000000606082015260800190565b600060208284031215611b2157600080fd5b5051919050565b6001600160a01b039384168152919092166020820152604081019190915260600190565b600060208284031215611b5e57600080fd5b815180151581146118cf57600080fd5b600082611b8b57634e487b7160e01b600052601260045260246000fd5b500490565b80820281158282048414176104ac576104ac611a89565b818103818111156104ac576104ac611a89565b634e487b7160e01b600052604160045260246000fd5b601f82111561186757600081815260208120601f850160051c81016020861015611bf75750805b601f850160051c820191505b81811015611c1657828155600101611c03565b505050505050565b815167ffffffffffffffff811115611c3857611c38611bba565b611c4c81611c468454611a4f565b84611bd0565b602080601f831160018114611c815760008415611c695750858301515b600019600386901b1c1916600185901b178555611c16565b600085815260208120601f198616915b82811015611cb057888601518255948401946001909101908401611c91565b5085821015611cce5787850151600019600388901b60f8161c191681555b5050505050600190811b01905550565b600060208284031215611cf057600080fd5b815167ffffffffffffffff80821115611d0857600080fd5b818401915084601f830112611d1c57600080fd5b815181811115611d2e57611d2e611bba565b604051601f8201601f19908116603f01168101908382118183101715611d5657611d56611bba565b81604052828152876020848701011115611d6f57600080fd5b611d8083602083016020880161186c565b97965050505050505056fea26469706673582212208a0b79fb0de5b079f2dd36b08cd4c1256555f25666f3ce3a709dc6354a2c886764736f6c63430008110033",
  "devdoc": {
    "kind": "dev",
    "methods": {
      "allowance(address,address)": {
        "details": "See {IERC20-allowance}."
      },
      "approve(address,uint256)": {
        "details": "See {IERC20-approve}. NOTE: If `amount` is the maximum `uint256`, the allowance is not updated on `transferFrom`. This is semantically equivalent to an infinite approval. Requirements: - `spender` cannot be the zero address."
      },
      "balanceOf(address)": {
        "details": "See {IERC20-balanceOf}."
      },
      "decimals()": {
        "details": "Returns the number of decimals used to get its user representation. For example, if `decimals` equals `2`, a balance of `505` tokens should be displayed to a user as `5.05` (`505 / 10 ** 2`). Tokens usually opt for a value of 18, imitating the relationship between Ether and Wei. This is the value {ERC20} uses, unless this function is overridden; NOTE: This information is only used for _display_ purposes: it in no way affects any of the arithmetic of the contract, including {IERC20-balanceOf} and {IERC20-transfer}."
      },
      "decreaseAllowance(address,uint256)": {
        "details": "Atomically decreases the allowance granted to `spender` by the caller. This is an alternative to {approve} that can be used as a mitigation for problems described in {IERC20-approve}. Emits an {Approval} event indicating the updated allowance. Requirements: - `spender` cannot be the zero address. - `spender` must have allowance for the caller of at least `subtractedValue`."
      },
      "increaseAllowance(address,uint256)": {
        "details": "Atomically increases the allowance granted to `spender` by the caller. This is an alternative to {approve} that can be used as a mitigation for problems described in {IERC20-approve}. Emits an {Approval} event indicating the updated allowance. Requirements: - `spender` cannot be the zero address."
      },
      "name()": {
        "details": "Returns the name of the token."
      },
      "symbol()": {
        "details": "Returns the symbol of the token, usually a shorter version of the name."
      },
      "totalSupply()": {
        "details": "See {IERC20-totalSupply}."
      },
      "transfer(address,uint256)": {
        "details": "See {IERC20-transfer}. Requirements: - `to` cannot be the zero address. - the caller must have a balance of at least `amount`."
      },
      "transferFrom(address,address,uint256)": {
        "details": "See {IERC20-transferFrom}. Emits an {Approval} event indicating the updated allowance. This is not required by the EIP. See the note at the beginning of {ERC20}. NOTE: Does not update the allowance if the current allowance is the maximum `uint256`. Requirements: - `from` and `to` cannot be the zero address. - `from` must have a balance of at least `amount`. - the caller must have allowance for ``from``'s tokens of at least `amount`."
      }
    },
    "version": 1
  },
  "userdoc": {
    "kind": "user",
    "methods": {},
    "version": 1
  },
  "storageLayout": {
    "storage": [
      {
        "astId": 118,
        "contract": "contracts/EthToERC20.sol:EthToERC20",
        "label": "_balances",
        "offset": 0,
        "slot": "0",
        "type": "t_mapping(t_address,t_uint256)"
      },
      {
        "astId": 124,
        "contract": "contracts/EthToERC20.sol:EthToERC20",
        "label": "_allowances",
        "offset": 0,
        "slot": "1",
        "type": "t_mapping(t_address,t_mapping(t_address,t_uint256))"
      },
      {
        "astId": 126,
        "contract": "contracts/EthToERC20.sol:EthToERC20",
        "label": "_totalSupply",
        "offset": 0,
        "slot": "2",
        "type": "t_uint256"
      },
      {
        "astId": 128,
        "contract": "contracts/EthToERC20.sol:EthToERC20",
        "label": "_name",
        "offset": 0,
        "slot": "3",
        "type": "t_string_storage"
      },
      {
        "astId": 130,
        "contract": "contracts/EthToERC20.sol:EthToERC20",
        "label": "_symbol",
        "offset": 0,
        "slot": "4",
        "type": "t_string_storage"
      },
      {
        "astId": 823,
        "contract": "contracts/EthToERC20.sol:EthToERC20",
        "label": "priceFeed",
        "offset": 0,
        "slot": "5",
        "type": "t_contract(PriceFeed)1521"
      },
      {
        "astId": 828,
        "contract": "contracts/EthToERC20.sol:EthToERC20",
        "label": "erc20Contracts",
        "offset": 0,
        "slot": "6",
        "type": "t_mapping(t_address,t_struct(pairPool)844_storage)"
      },
      {
        "astId": 831,
        "contract": "contracts/EthToERC20.sol:EthToERC20",
        "label": "contractsArr",
        "offset": 0,
        "slot": "7",
        "type": "t_array(t_address)dyn_storage"
      }
    ],
    "types": {
      "t_address": {
        "encoding": "inplace",
        "label": "address",
        "numberOfBytes": "20"
      },
      "t_array(t_address)dyn_storage": {
        "base": "t_address",
        "encoding": "dynamic_array",
        "label": "address[]",
        "numberOfBytes": "32"
      },
      "t_bool": {
        "encoding": "inplace",
        "label": "bool",
        "numberOfBytes": "1"
      },
      "t_contract(PriceFeed)1521": {
        "encoding": "inplace",
        "label": "contract PriceFeed",
        "numberOfBytes": "20"
      },
      "t_mapping(t_address,t_mapping(t_address,t_uint256))": {
        "encoding": "mapping",
        "key": "t_address",
        "label": "mapping(address => mapping(address => uint256))",
        "numberOfBytes": "32",
        "value": "t_mapping(t_address,t_uint256)"
      },
      "t_mapping(t_address,t_struct(pairPool)844_storage)": {
        "encoding": "mapping",
        "key": "t_address",
        "label": "mapping(address => struct EthToERC20.pairPool)",
        "numberOfBytes": "32",
        "value": "t_struct(pairPool)844_storage"
      },
      "t_mapping(t_address,t_uint256)": {
        "encoding": "mapping",
        "key": "t_address",
        "label": "mapping(address => uint256)",
        "numberOfBytes": "32",
        "value": "t_uint256"
      },
      "t_string_storage": {
        "encoding": "bytes",
        "label": "string",
        "numberOfBytes": "32"
      },
      "t_struct(pairPool)844_storage": {
        "encoding": "inplace",
        "label": "struct EthToERC20.pairPool",
        "members": [
          {
            "astId": 833,
            "contract": "contracts/EthToERC20.sol:EthToERC20",
            "label": "symbol",
            "offset": 0,
            "slot": "0",
            "type": "t_string_storage"
          },
          {
            "astId": 835,
            "contract": "contracts/EthToERC20.sol:EthToERC20",
            "label": "ethAmount",
            "offset": 0,
            "slot": "1",
            "type": "t_uint256"
          },
          {
            "astId": 837,
            "contract": "contracts/EthToERC20.sol:EthToERC20",
            "label": "tokenAmount",
            "offset": 0,
            "slot": "2",
            "type": "t_uint256"
          },
          {
            "astId": 839,
            "contract": "contracts/EthToERC20.sol:EthToERC20",
            "label": "ethSeed",
            "offset": 0,
            "slot": "3",
            "type": "t_uint256"
          },
          {
            "astId": 841,
            "contract": "contracts/EthToERC20.sol:EthToERC20",
            "label": "tokenSeed",
            "offset": 0,
            "slot": "4",
            "type": "t_uint256"
          },
          {
            "astId": 843,
            "contract": "contracts/EthToERC20.sol:EthToERC20",
            "label": "created",
            "offset": 0,
            "slot": "5",
            "type": "t_bool"
          }
        ],
        "numberOfBytes": "192"
      },
      "t_uint256": {
        "encoding": "inplace",
        "label": "uint256",
        "numberOfBytes": "32"
      }
    }
  }
}