{
  "address": "0xAA292E8611aDF267e563f334Ee42320aC96D0463",
  "abi": [
    {
      "inputs": [
        {
          "internalType": "address[]",
          "name": "_tokenPools",
          "type": "address[]"
        },
        {
          "internalType": "string[]",
          "name": "_tokenSymbols",
          "type": "string[]"
        },
        {
          "internalType": "address",
          "name": "_priceFeed",
          "type": "address"
        }
      ],
      "stateMutability": "payable",
      "type": "constructor"
    },
    {
      "anonymous": false,
      "inputs": [
        {
          "indexed": true,
          "internalType": "address",
          "name": "owner",
          "type": "address"
        },
        {
          "indexed": true,
          "internalType": "address",
          "name": "spender",
          "type": "address"
        },
        {
          "indexed": false,
          "internalType": "uint256",
          "name": "value",
          "type": "uint256"
        }
      ],
      "name": "Approval",
      "type": "event"
    },
    {
      "anonymous": false,
      "inputs": [
        {
          "indexed": true,
          "internalType": "address",
          "name": "from",
          "type": "address"
        },
        {
          "indexed": true,
          "internalType": "address",
          "name": "to",
          "type": "address"
        },
        {
          "indexed": false,
          "internalType": "uint256",
          "name": "value",
          "type": "uint256"
        }
      ],
      "name": "Transfer",
      "type": "event"
    },
    {
      "inputs": [
        {
          "internalType": "address",
          "name": "_token1Contract",
          "type": "address"
        },
        {
          "internalType": "address",
          "name": "_token2Contract",
          "type": "address"
        },
        {
          "internalType": "uint256",
          "name": "_tokenAmount",
          "type": "uint256"
        }
      ],
      "name": "ERC20ToERC20Swap",
      "outputs": [],
      "stateMutability": "nonpayable",
      "type": "function"
    },
    {
      "inputs": [
        {
          "internalType": "address",
          "name": "_ethContract",
          "type": "address"
        },
        {
          "internalType": "address",
          "name": "_tokenContract",
          "type": "address"
        },
        {
          "internalType": "uint256",
          "name": "_token2Amount",
          "type": "uint256"
        }
      ],
      "name": "ERC20ToEthSwap",
      "outputs": [],
      "stateMutability": "nonpayable",
      "type": "function"
    },
    {
      "inputs": [
        {
          "internalType": "address",
          "name": "token1Contract",
          "type": "address"
        },
        {
          "internalType": "address",
          "name": "token2Contract",
          "type": "address"
        }
      ],
      "name": "addToken",
      "outputs": [],
      "stateMutability": "nonpayable",
      "type": "function"
    },
    {
      "inputs": [
        {
          "internalType": "address",
          "name": "owner",
          "type": "address"
        },
        {
          "internalType": "address",
          "name": "spender",
          "type": "address"
        }
      ],
      "name": "allowance",
      "outputs": [
        {
          "internalType": "uint256",
          "name": "",
          "type": "uint256"
        }
      ],
      "stateMutability": "view",
      "type": "function"
    },
    {
      "inputs": [
        {
          "internalType": "address",
          "name": "spender",
          "type": "address"
        },
        {
          "internalType": "uint256",
          "name": "amount",
          "type": "uint256"
        }
      ],
      "name": "approve",
      "outputs": [
        {
          "internalType": "bool",
          "name": "",
          "type": "bool"
        }
      ],
      "stateMutability": "nonpayable",
      "type": "function"
    },
    {
      "inputs": [
        {
          "internalType": "address",
          "name": "account",
          "type": "address"
        }
      ],
      "name": "balanceOf",
      "outputs": [
        {
          "internalType": "uint256",
          "name": "",
          "type": "uint256"
        }
      ],
      "stateMutability": "view",
      "type": "function"
    },
    {
      "inputs": [],
      "name": "decimals",
      "outputs": [
        {
          "internalType": "uint8",
          "name": "",
          "type": "uint8"
        }
      ],
      "stateMutability": "view",
      "type": "function"
    },
    {
      "inputs": [
        {
          "internalType": "address",
          "name": "spender",
          "type": "address"
        },
        {
          "internalType": "uint256",
          "name": "subtractedValue",
          "type": "uint256"
        }
      ],
      "name": "decreaseAllowance",
      "outputs": [
        {
          "internalType": "bool",
          "name": "",
          "type": "bool"
        }
      ],
      "stateMutability": "nonpayable",
      "type": "function"
    },
    {
      "inputs": [
        {
          "internalType": "address",
          "name": "_token1Contract",
          "type": "address"
        },
        {
          "internalType": "address",
          "name": "_token2Contract",
          "type": "address"
        },
        {
          "internalType": "uint256",
          "name": "_token1Amount",
          "type": "uint256"
        },
        {
          "internalType": "uint256",
          "name": "_token2Amount",
          "type": "uint256"
        }
      ],
      "name": "depositERC20ToERC20",
      "outputs": [],
      "stateMutability": "nonpayable",
      "type": "function"
    },
    {
      "inputs": [
        {
          "internalType": "address",
          "name": "_ethContract",
          "type": "address"
        },
        {
          "internalType": "address",
          "name": "_tokenContract",
          "type": "address"
        },
        {
          "internalType": "uint256",
          "name": "_tokenAmount",
          "type": "uint256"
        }
      ],
      "name": "depositEthToERC20",
      "outputs": [],
      "stateMutability": "payable",
      "type": "function"
    },
    {
      "inputs": [
        {
          "internalType": "address",
          "name": "_token1Contract",
          "type": "address"
        },
        {
          "internalType": "address",
          "name": "_token2Contract",
          "type": "address"
        }
      ],
      "name": "estimateFromToDeposit",
      "outputs": [
        {
          "internalType": "uint256",
          "name": "",
          "type": "uint256"
        },
        {
          "internalType": "uint256",
          "name": "",
          "type": "uint256"
        }
      ],
      "stateMutability": "view",
      "type": "function"
    },
    {
      "inputs": [
        {
          "internalType": "address",
          "name": "_ethContract",
          "type": "address"
        },
        {
          "internalType": "address",
          "name": "_tokenContract",
          "type": "address"
        }
      ],
      "name": "ethToERC20Swap",
      "outputs": [],
      "stateMutability": "payable",
      "type": "function"
    },
    {
      "inputs": [],
      "name": "getContracts",
      "outputs": [
        {
          "internalType": "address[]",
          "name": "",
          "type": "address[]"
        }
      ],
      "stateMutability": "view",
      "type": "function"
    },
    {
      "inputs": [
        {
          "internalType": "address",
          "name": "_token1Contract",
          "type": "address"
        },
        {
          "internalType": "address",
          "name": "_token2Contract",
          "type": "address"
        }
      ],
      "name": "getPool",
      "outputs": [
        {
          "components": [
            {
              "internalType": "string",
              "name": "token1",
              "type": "string"
            },
            {
              "internalType": "string",
              "name": "token2",
              "type": "string"
            },
            {
              "internalType": "uint256",
              "name": "token1Amount",
              "type": "uint256"
            },
            {
              "internalType": "uint256",
              "name": "token2Amount",
              "type": "uint256"
            },
            {
              "internalType": "uint256",
              "name": "token1Seed",
              "type": "uint256"
            },
            {
              "internalType": "uint256",
              "name": "token2Seed",
              "type": "uint256"
            },
            {
              "internalType": "bool",
              "name": "created",
              "type": "bool"
            }
          ],
          "internalType": "struct EthToERC20.pairPool",
          "name": "",
          "type": "tuple"
        }
      ],
      "stateMutability": "view",
      "type": "function"
    },
    {
      "inputs": [
        {
          "internalType": "address",
          "name": "_token1Contract",
          "type": "address"
        },
        {
          "internalType": "address",
          "name": "_token2Contract",
          "type": "address"
        }
      ],
      "name": "getRelativePrice",
      "outputs": [
        {
          "internalType": "uint256",
          "name": "",
          "type": "uint256"
        }
      ],
      "stateMutability": "view",
      "type": "function"
    },
    {
      "inputs": [
        {
          "internalType": "address",
          "name": "_tokenContract",
          "type": "address"
        }
      ],
      "name": "getSymbol",
      "outputs": [
        {
          "internalType": "string",
          "name": "",
          "type": "string"
        }
      ],
      "stateMutability": "view",
      "type": "function"
    },
    {
      "inputs": [
        {
          "internalType": "address",
          "name": "spender",
          "type": "address"
        },
        {
          "internalType": "uint256",
          "name": "addedValue",
          "type": "uint256"
        }
      ],
      "name": "increaseAllowance",
      "outputs": [
        {
          "internalType": "bool",
          "name": "",
          "type": "bool"
        }
      ],
      "stateMutability": "nonpayable",
      "type": "function"
    },
    {
      "inputs": [],
      "name": "name",
      "outputs": [
        {
          "internalType": "string",
          "name": "",
          "type": "string"
        }
      ],
      "stateMutability": "view",
      "type": "function"
    },
    {
      "inputs": [
        {
          "internalType": "address",
          "name": "_token1Contract",
          "type": "address"
        },
        {
          "internalType": "address",
          "name": "_token2Contract",
          "type": "address"
        }
      ],
      "name": "poolIsSeeded",
      "outputs": [
        {
          "internalType": "bool",
          "name": "",
          "type": "bool"
        }
      ],
      "stateMutability": "view",
      "type": "function"
    },
    {
      "inputs": [],
      "name": "symbol",
      "outputs": [
        {
          "internalType": "string",
          "name": "",
          "type": "string"
        }
      ],
      "stateMutability": "view",
      "type": "function"
    },
    {
      "inputs": [],
      "name": "totalSupply",
      "outputs": [
        {
          "internalType": "uint256",
          "name": "",
          "type": "uint256"
        }
      ],
      "stateMutability": "view",
      "type": "function"
    },
    {
      "inputs": [
        {
          "internalType": "address",
          "name": "to",
          "type": "address"
        },
        {
          "internalType": "uint256",
          "name": "amount",
          "type": "uint256"
        }
      ],
      "name": "transfer",
      "outputs": [
        {
          "internalType": "bool",
          "name": "",
          "type": "bool"
        }
      ],
      "stateMutability": "nonpayable",
      "type": "function"
    },
    {
      "inputs": [
        {
          "internalType": "address",
          "name": "from",
          "type": "address"
        },
        {
          "internalType": "address",
          "name": "to",
          "type": "address"
        },
        {
          "internalType": "uint256",
          "name": "amount",
          "type": "uint256"
        }
      ],
      "name": "transferFrom",
      "outputs": [
        {
          "internalType": "bool",
          "name": "",
          "type": "bool"
        }
      ],
      "stateMutability": "nonpayable",
      "type": "function"
    },
    {
      "stateMutability": "payable",
      "type": "receive"
    }
  ],
  "transactionHash": "0x8b1c65dab3ac2e4cb374d8976d49499aa99d102e0c3ab3b87e0fc677d627600d",
  "args": [
    [
      "0x49fd2BE640DB2910c2fAb69bB8531Ab6E76127ff",
      "0x7A9Ec1d04904907De0ED7b6839CcdD59c3716AC9",
      "0xA4899D35897033b927acFCf422bc745916139776",
      "0x49fd2BE640DB2910c2fAb69bB8531Ab6E76127ff",
      "0xA4899D35897033b927acFCf422bc745916139776",
      "0x7A9Ec1d04904907De0ED7b6839CcdD59c3716AC9"
    ],
    [
      "UTMC",
      "UCMC",
      "ETH",
      "UTMC",
      "ETH",
      "UCMC"
    ],
    "0xf953b3A269d80e3eB0F2947630Da976B896A8C5b"
  ],
  "numDeployments": 1,
  "solcInputHash": "fc6b0b49170a1035cc21710247ca9088",
  "bytecode": "0x6080604052604051620030a0380380620030a0833981016040819052620000269162000446565b6040518060400160405280600a8152602001690457468546f45524332360b41b815250604051806040016040528060048152602001634545524360e01b8152508160039081620000779190620005b7565b506004620000868282620005b7565b50505060005b83518110156200027f576000848281518110620000ad57620000ad62000683565b60200260200101519050600085836001620000c9919062000699565b81518110620000dc57620000dc62000683565b6020908102919091010151600780546001818101835560008390527fa66cc928b5edb82af9bd49922954155ab7b0942694bea4ce44661d9a8736c68891820180546001600160a01b038089166001600160a01b031992831617909255845492830190945591018054918416919092161790556040805160e08101909152865191925090819087908690811062000176576200017662000683565b602002602001015181526020018685600162000193919062000699565b81518110620001a657620001a662000683565b6020908102919091018101518252600082820181905260408084018290526060840182905260808401829052600160a0909401939093526001600160a01b03808716825260068352838220908616825290915220815181906200020a9082620005b7565b5060208201516001820190620002219082620005b7565b506040820151600282810191909155606083015160038301556080830151600483015560a0830151600583015560c0909201516006909101805460ff191691151591909117905562000277925090508262000699565b90506200008c565b50600580546001600160a01b0319166001600160a01b039290921691909117905550620006c19050565b634e487b7160e01b600052604160045260246000fd5b604051601f8201601f191681016001600160401b0381118282101715620002ea57620002ea620002a9565b604052919050565b60006001600160401b038211156200030e576200030e620002a9565b5060051b60200190565b80516001600160a01b03811681146200033057600080fd5b919050565b6000601f83818401126200034857600080fd5b82516020620003616200035b83620002f2565b620002bf565b82815260059290921b850181019181810190878411156200038157600080fd5b8287015b848110156200043a5780516001600160401b0380821115620003a75760008081fd5b818a0191508a603f830112620003bd5760008081fd5b8582015181811115620003d457620003d4620002a9565b620003e7818a01601f19168801620002bf565b915080825260408c81838601011115620004015760008081fd5b60005b8281101562000421578481018201518482018a0152880162000404565b5050600090820187015284525091830191830162000385565b50979650505050505050565b6000806000606084860312156200045c57600080fd5b83516001600160401b03808211156200047457600080fd5b818601915086601f8301126200048957600080fd5b815160206200049c6200035b83620002f2565b82815260059290921b8401810191818101908a841115620004bc57600080fd5b948201945b83861015620004e557620004d58662000318565b82529482019490820190620004c1565b91890151919750909350505080821115620004ff57600080fd5b506200050e8682870162000335565b9250506200051f6040850162000318565b90509250925092565b600181811c908216806200053d57607f821691505b6020821081036200055e57634e487b7160e01b600052602260045260246000fd5b50919050565b601f821115620005b257600081815260208120601f850160051c810160208610156200058d5750805b601f850160051c820191505b81811015620005ae5782815560010162000599565b5050505b505050565b81516001600160401b03811115620005d357620005d3620002a9565b620005eb81620005e4845462000528565b8462000564565b602080601f8311600181146200062357600084156200060a5750858301515b600019600386901b1c1916600185901b178555620005ae565b600085815260208120601f198616915b82811015620006545788860151825594840194600190910190840162000633565b5085821015620006735787850151600019600388901b60f8161c191681555b5050505050600190811b01905550565b634e487b7160e01b600052603260045260246000fd5b80820180821115620006bb57634e487b7160e01b600052601160045260246000fd5b92915050565b6129cf80620006d16000396000f3fe6080604052600436106101445760003560e01c80637c58591b116100b6578063c368b5be1161006f578063c368b5be1461039b578063c3a2a93a146103bb578063c526248c146103dd578063c9b2e522146103fd578063d2c04da51461041d578063dd62ed3e1461043d57600080fd5b80637c58591b146102f357806395d89b41146103135780639b56e6a714610328578063a457c2d714610348578063a9059cbb14610368578063b5e917351461038857600080fd5b80633950935111610108578063395093511461020657806343f075ec14610226578063531aa03e1461025b5780635476bd721461028857806368b5bd72146102aa57806370a08231146102bd57600080fd5b806306fdde0314610150578063095ea7b31461017b57806318160ddd146101ab57806323b872dd146101ca578063313ce567146101ea57600080fd5b3661014b57005b600080fd5b34801561015c57600080fd5b5061016561045d565b6040516101729190612422565b60405180910390f35b34801561018757600080fd5b5061019b610196366004612458565b6104ef565b6040519015158152602001610172565b3480156101b757600080fd5b506002545b604051908152602001610172565b3480156101d657600080fd5b5061019b6101e5366004612482565b610509565b3480156101f657600080fd5b5060405160128152602001610172565b34801561021257600080fd5b5061019b610221366004612458565b61052d565b34801561023257600080fd5b506102466102413660046124be565b61054f565b60408051928352602083019190915201610172565b34801561026757600080fd5b5061027b6102763660046124be565b610796565b60405161017291906124f1565b34801561029457600080fd5b506102a86102a33660046124be565b61096a565b005b6102a86102b8366004612482565b610bf3565b3480156102c957600080fd5b506101bc6102d836600461256c565b6001600160a01b031660009081526020819052604090205490565b3480156102ff57600080fd5b5061019b61030e3660046124be565b610e2b565b34801561031f57600080fd5b50610165610e5b565b34801561033457600080fd5b506101bc6103433660046124be565b610e6a565b34801561035457600080fd5b5061019b610363366004612458565b611096565b34801561037457600080fd5b5061019b610383366004612458565b611111565b6102a86103963660046124be565b61111f565b3480156103a757600080fd5b506102a86103b6366004612482565b611484565b3480156103c757600080fd5b506103d0611876565b6040516101729190612587565b3480156103e957600080fd5b506102a86103f83660046125d4565b6118d7565b34801561040957600080fd5b5061016561041836600461256c565b611bc5565b34801561042957600080fd5b506102a8610438366004612482565b611c2d565b34801561044957600080fd5b506101bc6104583660046124be565b612036565b60606003805461046c90612616565b80601f016020809104026020016040519081016040528092919081815260200182805461049890612616565b80156104e55780601f106104ba576101008083540402835291602001916104e5565b820191906000526020600020905b8154815290600101906020018083116104c857829003601f168201915b5050505050905090565b6000336104fd818585612061565b60019150505b92915050565b600033610517858285612185565b6105228585856121ff565b506001949350505050565b6000336104fd8185856105408383612036565b61054a9190612666565b612061565b6001600160a01b0380831660009081526006602090815260408083209385168352929052818120825160e081019093528054919283928392908290829061059590612616565b80601f01602080910402602001604051908101604052809291908181526020018280546105c190612616565b801561060e5780601f106105e35761010080835404028352916020019161060e565b820191906000526020600020905b8154815290600101906020018083116105f157829003601f168201915b5050505050815260200160018201805461062790612616565b80601f016020809104026020016040519081016040528092919081815260200182805461065390612616565b80156106a05780601f10610675576101008083540402835291602001916106a0565b820191906000526020600020905b81548152906001019060200180831161068357829003601f168201915b50505050508152602001600282015481526020016003820154815260200160048201548152602001600582015481526020016006820160009054906101000a900460ff161515151581525050905060008160800151826040015114610734576080820151604083015161071b82670de0b6b3a7640000612679565b6107259190612690565b61072f9190612679565b61073a565b81608001515b905060008260a001518360600151146107825760a0830151606084015161076982670de0b6b3a7640000612679565b6107739190612690565b61077d9190612679565b610788565b8260a001515b919791965090945050505050565b6107d86040518060e001604052806060815260200160608152602001600081526020016000815260200160008152602001600081526020016000151581525090565b6001600160a01b0380841660009081526006602090815260408083209386168352929052819020815160e0810190925280548290829061081790612616565b80601f016020809104026020016040519081016040528092919081815260200182805461084390612616565b80156108905780601f1061086557610100808354040283529160200191610890565b820191906000526020600020905b81548152906001019060200180831161087357829003601f168201915b505050505081526020016001820180546108a990612616565b80601f01602080910402602001604051908101604052809291908181526020018280546108d590612616565b80156109225780601f106108f757610100808354040283529160200191610922565b820191906000526020600020905b81548152906001019060200180831161090557829003601f168201915b50505091835250506002820154602082015260038201546040820152600482015460608201526005820154608082015260069091015460ff16151560a0909101529392505050565b6001600160a01b0380831660009081526006602081815260408084209486168452939052919020015460ff16156109fe5760405162461bcd60e51b815260206004820152602d60248201527f5468697320746f6b656e20636f6e747261637420697320616c7265616479206960448201526c37103a34329039bcb9ba32b69760991b60648201526084015b60405180910390fd5b600780546001818101835560008381527fa66cc928b5edb82af9bd49922954155ab7b0942694bea4ce44661d9a8736c68892830180546001600160a01b038089166001600160a01b031992831681179093558654948501909655929093018054948616949092169390931790556040805160e081018083526395d89b4160e01b9052905190928392916395d89b419160e480860192908187030181865afa158015610aad573d6000803e3d6000fd5b505050506040513d6000823e601f3d908101601f19168201604052610ad591908101906126c8565b8152602001826001600160a01b03166395d89b416040518163ffffffff1660e01b8152600401600060405180830381865afa158015610b18573d6000803e3d6000fd5b505050506040513d6000823e601f3d908101601f19168201604052610b4091908101906126c8565b81526000602080830182905260408084018390526060840183905260808401839052600160a0909401939093526001600160a01b03808716835260068252838320908616835290522081518190610b9790826127c3565b5060208201516001820190610bac90826127c3565b5060408201516002820155606082015160038201556080820151600482015560a0820151600582015560c0909101516006909101805460ff19169115159190911790555050565b6001600160a01b038084166000908152600660208181526040808420948716845293905291902001548390839060ff16610c3f5760405162461bcd60e51b81526004016109f590612883565b838380826001600160a01b03166370a08231336040518263ffffffff1660e01b8152600401610c6e91906128e0565b602060405180830381865afa158015610c8b573d6000803e3d6000fd5b505050506040513d601f19601f82011682018060405250810190610caf91906128f4565b1015610ccd5760405162461bcd60e51b81526004016109f59061290d565b6040516323b872dd60e01b81526001600160a01b038716906323b872dd90610cfd90339030908a90600401612940565b6020604051808303816000875af1158015610d1c573d6000803e3d6000fd5b505050506040513d601f19601f82011682018060405250810190610d409190612964565b506001600160a01b038088166000908152600660209081526040808320938a1683529290529081206002018054349290610d7b908490612666565b90915550506001600160a01b038088166000908152600660209081526040808320938a1683529290529081206003018054879290610dba908490612666565b90915550506001600160a01b038088166000908152600660209081526040808320938a168352929052908120600401549003610e22576001600160a01b038781166000908152600660209081526040808320938a168352929052203460048201556005018590555b50505050505050565b6001600160a01b039182166000908152600660209081526040808320939094168252919091522060040154151590565b60606004805461046c90612616565b6000610e768383610e2b565b610ec25760405162461bcd60e51b815260206004820152601d60248201527f506f6f6c20686173206e6f7420796574206265656e207365656465642e00000060448201526064016109f5565b6001600160a01b0380841660009081526006602090815260408083209386168352929052818120825160e08101909352805491929182908290610f0490612616565b80601f0160208091040260200160405190810160405280929190818152602001828054610f3090612616565b8015610f7d5780601f10610f5257610100808354040283529160200191610f7d565b820191906000526020600020905b815481529060010190602001808311610f6057829003601f168201915b50505050508152602001600182018054610f9690612616565b80601f0160208091040260200160405190810160405280929190818152602001828054610fc290612616565b801561100f5780601f10610fe45761010080835404028352916020019161100f565b820191906000526020600020905b815481529060010190602001808311610ff257829003601f168201915b50505050508152602001600282015481526020016003820154815260200160048201548152602001600582015481526020016006820160009054906101000a900460ff16151515158152505090506000816040015182606001516ec097ce7bc90715b34b9f10000000006110839190612679565b61108d9190612690565b95945050505050565b600033816110a48286612036565b9050838110156111045760405162461bcd60e51b815260206004820152602560248201527f45524332303a2064656372656173656420616c6c6f77616e63652062656c6f77604482015264207a65726f60d81b60648201526084016109f5565b6105228286868403612061565b6000336104fd8185856121ff565b6001600160a01b038083166000908152600660208181526040808420948616845293905291902001548290829060ff1661116b5760405162461bcd60e51b81526004016109f590612883565b6001600160a01b0380851660009081526006602090815260408083209387168352929052818120825160e081019093528054919291829082906111ad90612616565b80601f01602080910402602001604051908101604052809291908181526020018280546111d990612616565b80156112265780601f106111fb57610100808354040283529160200191611226565b820191906000526020600020905b81548152906001019060200180831161120957829003601f168201915b5050505050815260200160018201805461123f90612616565b80601f016020809104026020016040519081016040528092919081815260200182805461126b90612616565b80156112b85780601f1061128d576101008083540402835291602001916112b8565b820191906000526020600020905b81548152906001019060200180831161129b57829003601f168201915b50505091835250506002820154602082015260038201546040820152600482015460608201526005820154608082015260069091015460ff16151560a090910152905060006113096101f434612690565b90506000826060015183604001516113219190612679565b905060003484604001516113359190612666565b905060006113438483612986565b61134d9084612690565b905060008186606001516113619190612986565b6040808801859052606088018490526001600160a01b03808d16600090815260066020908152838220928e16825291909152208751919250879181906113a790826127c3565b50602082015160018201906113bc90826127c3565b50604082810151600283015560608301516003830155608083015160048084019190915560a0840151600584015560c0909301516006909201805460ff1916921515929092179091555163a9059cbb60e01b81523391810191909152602481018290526001600160a01b038a169063a9059cbb906044015b6020604051808303816000875af1158015611453573d6000803e3d6000fd5b505050506040513d601f19601f820116820180604052508101906114779190612964565b5050505050505050505050565b6001600160a01b038084166000908152600660208181526040808420948716845293905291902001548390839060ff166114d05760405162461bcd60e51b81526004016109f590612883565b6001600160a01b0380861660009081526006602090815260408083209388168352929052818120825160e0810190935280549192918290829061151290612616565b80601f016020809104026020016040519081016040528092919081815260200182805461153e90612616565b801561158b5780601f106115605761010080835404028352916020019161158b565b820191906000526020600020905b81548152906001019060200180831161156e57829003601f168201915b505050505081526020016001820180546115a490612616565b80601f01602080910402602001604051908101604052809291908181526020018280546115d090612616565b801561161d5780601f106115f25761010080835404028352916020019161161d565b820191906000526020600020905b81548152906001019060200180831161160057829003601f168201915b50505091835250506002820154602082015260038201546040820152600482015460608201526005820154608082015260069091015460ff16151560a0909101529050600061166e6101f486612690565b90506000826060015183604001516116869190612679565b9050600086846060015161169a9190612666565b905060006116a88483612986565b6116b29084612690565b905060008186604001516116c69190612986565b6040808801849052606088018590526001600160a01b03808e16600090815260066020908152838220928f168252919091522087519192508791819061170c90826127c3565b506020820151600182019061172190826127c3565b50604082810151600283015560608301516003830155608083015160048084019190915560a0840151600584015560c0909301516006909201805460ff191692151592909217909155516323b872dd60e01b81526001600160a01b038c16916323b872dd9161179691339130918f9101612940565b6020604051808303816000875af11580156117b5573d6000803e3d6000fd5b505050506040513d601f19601f820116820180604052508101906117d99190612964565b50604051600090339083908381818185875af1925050503d806000811461181c576040519150601f19603f3d011682016040523d82523d6000602084013e611821565b606091505b50509050806118685760405162461bcd60e51b815260206004820152601360248201527221b7bab632103737ba1039b2b7321032ba341760691b60448201526064016109f5565b505050505050505050505050565b606060078054806020026020016040519081016040528092919081815260200182805480156104e557602002820191906000526020600020905b81546001600160a01b031681526001909101906020018083116118b0575050505050905090565b6001600160a01b038085166000908152600660208181526040808420948816845293905291902001548490849060ff166119235760405162461bcd60e51b81526004016109f590612883565b858480826001600160a01b03166370a08231336040518263ffffffff1660e01b815260040161195291906128e0565b602060405180830381865afa15801561196f573d6000803e3d6000fd5b505050506040513d601f19601f8201168201806040525081019061199391906128f4565b10156119b15760405162461bcd60e51b81526004016109f59061290d565b868580826001600160a01b03166370a08231336040518263ffffffff1660e01b81526004016119e091906128e0565b602060405180830381865afa1580156119fd573d6000803e3d6000fd5b505050506040513d601f19601f82011682018060405250810190611a2191906128f4565b1015611a3f5760405162461bcd60e51b81526004016109f59061290d565b6001600160a01b03808b166000908152600660209081526040808320938d16835292905290812060020180548a9290611a79908490612666565b90915550506001600160a01b03808b166000908152600660209081526040808320938d1683529290529081206003018054899290611ab8908490612666565b90915550506001600160a01b03808b166000908152600660209081526040808320938d168352929052908120600401549003611b21576001600160a01b038a81166000908152600660209081526040808320938d16835292905220600481018990556005018790555b6040516323b872dd60e01b81526001600160a01b038b16906323b872dd90611b5190339030908d90600401612940565b6020604051808303816000875af1158015611b70573d6000803e3d6000fd5b505050506040513d601f19601f82011682018060405250810190611b949190612964565b506040516323b872dd60e01b81526001600160a01b038a16906323b872dd9061143490339030908c90600401612940565b6060816001600160a01b03166395d89b416040518163ffffffff1660e01b8152600401600060405180830381865afa158015611c05573d6000803e3d6000fd5b505050506040513d6000823e601f3d908101601f1916820160405261050391908101906126c8565b828180826001600160a01b03166370a08231336040518263ffffffff1660e01b8152600401611c5c91906128e0565b602060405180830381865afa158015611c79573d6000803e3d6000fd5b505050506040513d601f19601f82011682018060405250810190611c9d91906128f4565b1015611cbb5760405162461bcd60e51b81526004016109f59061290d565b6001600160a01b0380861660009081526006602090815260408083209388168352929052818120825160e08101909352805491929182908290611cfd90612616565b80601f0160208091040260200160405190810160405280929190818152602001828054611d2990612616565b8015611d765780601f10611d4b57610100808354040283529160200191611d76565b820191906000526020600020905b815481529060010190602001808311611d5957829003601f168201915b50505050508152602001600182018054611d8f90612616565b80601f0160208091040260200160405190810160405280929190818152602001828054611dbb90612616565b8015611e085780601f10611ddd57610100808354040283529160200191611e08565b820191906000526020600020905b815481529060010190602001808311611deb57829003601f168201915b50505091835250506002820154602082015260038201546040820152600482015460608201526005820154608082015260069091015460ff16151560a09091015290506000611e596101f486612690565b9050600082606001518360400151611e719190612679565b90506000868460400151611e859190612666565b90506000611e938483612986565b611e9d9084612690565b90506000818660600151611eb19190612986565b6040808801859052606088018490526001600160a01b03808e16600090815260066020908152838220928f1682529190915220875191925087918190611ef790826127c3565b5060208201516001820190611f0c90826127c3565b50604082810151600283015560608301516003830155608083015160048084019190915560a0840151600584015560c0909301516006909201805460ff191692151592909217909155516323b872dd60e01b81526001600160a01b038d16916323b872dd91611f8191339130918f9101612940565b6020604051808303816000875af1158015611fa0573d6000803e3d6000fd5b505050506040513d601f19601f82011682018060405250810190611fc49190612964565b5060405163a9059cbb60e01b8152336004820152602481018290526001600160a01b038b169063a9059cbb906044016020604051808303816000875af1158015612012573d6000803e3d6000fd5b505050506040513d601f19601f820116820180604052508101906118689190612964565b6001600160a01b03918216600090815260016020908152604080832093909416825291909152205490565b6001600160a01b0383166120c35760405162461bcd60e51b8152602060048201526024808201527f45524332303a20617070726f76652066726f6d20746865207a65726f206164646044820152637265737360e01b60648201526084016109f5565b6001600160a01b0382166121245760405162461bcd60e51b815260206004820152602260248201527f45524332303a20617070726f766520746f20746865207a65726f206164647265604482015261737360f01b60648201526084016109f5565b6001600160a01b0383811660008181526001602090815260408083209487168084529482529182902085905590518481527f8c5be1e5ebec7d5bd14f71427d1e84f3dd0314c0f7b2291e5b200ac8c7c3b925910160405180910390a3505050565b60006121918484612036565b905060001981146121f957818110156121ec5760405162461bcd60e51b815260206004820152601d60248201527f45524332303a20696e73756666696369656e7420616c6c6f77616e636500000060448201526064016109f5565b6121f98484848403612061565b50505050565b6001600160a01b0383166122635760405162461bcd60e51b815260206004820152602560248201527f45524332303a207472616e736665722066726f6d20746865207a65726f206164604482015264647265737360d81b60648201526084016109f5565b6001600160a01b0382166122c55760405162461bcd60e51b815260206004820152602360248201527f45524332303a207472616e7366657220746f20746865207a65726f206164647260448201526265737360e81b60648201526084016109f5565b6001600160a01b0383166000908152602081905260409020548181101561233d5760405162461bcd60e51b815260206004820152602660248201527f45524332303a207472616e7366657220616d6f756e7420657863656564732062604482015265616c616e636560d01b60648201526084016109f5565b6001600160a01b03808516600090815260208190526040808220858503905591851681529081208054849290612374908490612666565b92505081905550826001600160a01b0316846001600160a01b03167fddf252ad1be2c89b69c2b068fc378daa952ba7f163c4a11628f55a4df523b3ef846040516123c091815260200190565b60405180910390a36121f9565b505050565b60005b838110156123ed5781810151838201526020016123d5565b50506000910152565b6000815180845261240e8160208601602086016123d2565b601f01601f19169290920160200192915050565b60208152600061243560208301846123f6565b9392505050565b80356001600160a01b038116811461245357600080fd5b919050565b6000806040838503121561246b57600080fd5b6124748361243c565b946020939093013593505050565b60008060006060848603121561249757600080fd5b6124a08461243c565b92506124ae6020850161243c565b9150604084013590509250925092565b600080604083850312156124d157600080fd5b6124da8361243c565b91506124e86020840161243c565b90509250929050565b602081526000825160e0602084015261250e6101008401826123f6565b90506020840151601f1984830301604085015261252b82826123f6565b9150506040840151606084015260608401516080840152608084015160a084015260a084015160c084015260c0840151151560e08401528091505092915050565b60006020828403121561257e57600080fd5b6124358261243c565b6020808252825182820181905260009190848201906040850190845b818110156125c85783516001600160a01b0316835292840192918401916001016125a3565b50909695505050505050565b600080600080608085870312156125ea57600080fd5b6125f38561243c565b93506126016020860161243c565b93969395505050506040820135916060013590565b600181811c9082168061262a57607f821691505b60208210810361264a57634e487b7160e01b600052602260045260246000fd5b50919050565b634e487b7160e01b600052601160045260246000fd5b8082018082111561050357610503612650565b808202811582820484141761050357610503612650565b6000826126ad57634e487b7160e01b600052601260045260246000fd5b500490565b634e487b7160e01b600052604160045260246000fd5b6000602082840312156126da57600080fd5b815167ffffffffffffffff808211156126f257600080fd5b818401915084601f83011261270657600080fd5b815181811115612718576127186126b2565b604051601f8201601f19908116603f01168101908382118183101715612740576127406126b2565b8160405282815287602084870101111561275957600080fd5b61276a8360208301602088016123d2565b979650505050505050565b601f8211156123cd57600081815260208120601f850160051c8101602086101561279c5750805b601f850160051c820191505b818110156127bb578281556001016127a8565b505050505050565b815167ffffffffffffffff8111156127dd576127dd6126b2565b6127f1816127eb8454612616565b84612775565b602080601f831160018114612826576000841561280e5750858301515b600019600386901b1c1916600185901b1785556127bb565b600085815260208120601f198616915b8281101561285557888601518255948401946001909101908401612836565b50858210156128735787850151600019600388901b60f8161c191681555b5050505050600190811b01905550565b6020808252603b908201527f5468657265206973206e6f207375636820746f6b656e20636f6e74726163742060408201527f594554206465706c6f79656420696e206f75722073797374656d2e0000000000606082015260800190565b6001600160a01b0391909116815260200190565b60006020828403121561290657600080fd5b5051919050565b60208082526019908201527824b739bab33334b1b4b2b73a1022a921991810333ab732399760391b604082015260600190565b6001600160a01b039384168152919092166020820152604081019190915260600190565b60006020828403121561297657600080fd5b8151801515811461243557600080fd5b818103818111156105035761050361265056fea2646970667358221220167eac6966051d67f9b19c49908b705c4280110d3a65cbf517e52810397ad97f64736f6c63430008110033",
  "devdoc": {
    "kind": "dev",
    "methods": {
      "allowance(address,address)": {
        "details": "See {IERC20-allowance}."
      },
      "approve(address,uint256)": {
        "details": "See {IERC20-approve}. NOTE: If `amount` is the maximum `uint256`, the allowance is not updated on `transferFrom`. This is semantically equivalent to an infinite approval. Requirements: - `spender` cannot be the zero address."
      },
      "balanceOf(address)": {
        "details": "See {IERC20-balanceOf}."
      },
      "decimals()": {
        "details": "Returns the number of decimals used to get its user representation. For example, if `decimals` equals `2`, a balance of `505` tokens should be displayed to a user as `5.05` (`505 / 10 ** 2`). Tokens usually opt for a value of 18, imitating the relationship between Ether and Wei. This is the value {ERC20} uses, unless this function is overridden; NOTE: This information is only used for _display_ purposes: it in no way affects any of the arithmetic of the contract, including {IERC20-balanceOf} and {IERC20-transfer}."
      },
      "decreaseAllowance(address,uint256)": {
        "details": "Atomically decreases the allowance granted to `spender` by the caller. This is an alternative to {approve} that can be used as a mitigation for problems described in {IERC20-approve}. Emits an {Approval} event indicating the updated allowance. Requirements: - `spender` cannot be the zero address. - `spender` must have allowance for the caller of at least `subtractedValue`."
      },
      "increaseAllowance(address,uint256)": {
        "details": "Atomically increases the allowance granted to `spender` by the caller. This is an alternative to {approve} that can be used as a mitigation for problems described in {IERC20-approve}. Emits an {Approval} event indicating the updated allowance. Requirements: - `spender` cannot be the zero address."
      },
      "name()": {
        "details": "Returns the name of the token."
      },
      "symbol()": {
        "details": "Returns the symbol of the token, usually a shorter version of the name."
      },
      "totalSupply()": {
        "details": "See {IERC20-totalSupply}."
      },
      "transfer(address,uint256)": {
        "details": "See {IERC20-transfer}. Requirements: - `to` cannot be the zero address. - the caller must have a balance of at least `amount`."
      },
      "transferFrom(address,address,uint256)": {
        "details": "See {IERC20-transferFrom}. Emits an {Approval} event indicating the updated allowance. This is not required by the EIP. See the note at the beginning of {ERC20}. NOTE: Does not update the allowance if the current allowance is the maximum `uint256`. Requirements: - `from` and `to` cannot be the zero address. - `from` must have a balance of at least `amount`. - the caller must have allowance for ``from``'s tokens of at least `amount`."
      }
    },
    "version": 1
  },
  "userdoc": {
    "kind": "user",
    "methods": {},
    "version": 1
  },
  "storageLayout": {
    "storage": [
      {
        "astId": 118,
        "contract": "contracts/EthToERC20.sol:EthToERC20",
        "label": "_balances",
        "offset": 0,
        "slot": "0",
        "type": "t_mapping(t_address,t_uint256)"
      },
      {
        "astId": 124,
        "contract": "contracts/EthToERC20.sol:EthToERC20",
        "label": "_allowances",
        "offset": 0,
        "slot": "1",
        "type": "t_mapping(t_address,t_mapping(t_address,t_uint256))"
      },
      {
        "astId": 126,
        "contract": "contracts/EthToERC20.sol:EthToERC20",
        "label": "_totalSupply",
        "offset": 0,
        "slot": "2",
        "type": "t_uint256"
      },
      {
        "astId": 128,
        "contract": "contracts/EthToERC20.sol:EthToERC20",
        "label": "_name",
        "offset": 0,
        "slot": "3",
        "type": "t_string_storage"
      },
      {
        "astId": 130,
        "contract": "contracts/EthToERC20.sol:EthToERC20",
        "label": "_symbol",
        "offset": 0,
        "slot": "4",
        "type": "t_string_storage"
      },
      {
        "astId": 823,
        "contract": "contracts/EthToERC20.sol:EthToERC20",
        "label": "priceFeed",
        "offset": 0,
        "slot": "5",
        "type": "t_contract(PriceFeed)1764"
      },
      {
        "astId": 830,
        "contract": "contracts/EthToERC20.sol:EthToERC20",
        "label": "tokenPools",
        "offset": 0,
        "slot": "6",
        "type": "t_mapping(t_address,t_mapping(t_address,t_struct(pairPool)848_storage))"
      },
      {
        "astId": 833,
        "contract": "contracts/EthToERC20.sol:EthToERC20",
        "label": "contractsArr",
        "offset": 0,
        "slot": "7",
        "type": "t_array(t_address)dyn_storage"
      }
    ],
    "types": {
      "t_address": {
        "encoding": "inplace",
        "label": "address",
        "numberOfBytes": "20"
      },
      "t_array(t_address)dyn_storage": {
        "base": "t_address",
        "encoding": "dynamic_array",
        "label": "address[]",
        "numberOfBytes": "32"
      },
      "t_bool": {
        "encoding": "inplace",
        "label": "bool",
        "numberOfBytes": "1"
      },
      "t_contract(PriceFeed)1764": {
        "encoding": "inplace",
        "label": "contract PriceFeed",
        "numberOfBytes": "20"
      },
      "t_mapping(t_address,t_mapping(t_address,t_struct(pairPool)848_storage))": {
        "encoding": "mapping",
        "key": "t_address",
        "label": "mapping(address => mapping(address => struct EthToERC20.pairPool))",
        "numberOfBytes": "32",
        "value": "t_mapping(t_address,t_struct(pairPool)848_storage)"
      },
      "t_mapping(t_address,t_mapping(t_address,t_uint256))": {
        "encoding": "mapping",
        "key": "t_address",
        "label": "mapping(address => mapping(address => uint256))",
        "numberOfBytes": "32",
        "value": "t_mapping(t_address,t_uint256)"
      },
      "t_mapping(t_address,t_struct(pairPool)848_storage)": {
        "encoding": "mapping",
        "key": "t_address",
        "label": "mapping(address => struct EthToERC20.pairPool)",
        "numberOfBytes": "32",
        "value": "t_struct(pairPool)848_storage"
      },
      "t_mapping(t_address,t_uint256)": {
        "encoding": "mapping",
        "key": "t_address",
        "label": "mapping(address => uint256)",
        "numberOfBytes": "32",
        "value": "t_uint256"
      },
      "t_string_storage": {
        "encoding": "bytes",
        "label": "string",
        "numberOfBytes": "32"
      },
      "t_struct(pairPool)848_storage": {
        "encoding": "inplace",
        "label": "struct EthToERC20.pairPool",
        "members": [
          {
            "astId": 835,
            "contract": "contracts/EthToERC20.sol:EthToERC20",
            "label": "token1",
            "offset": 0,
            "slot": "0",
            "type": "t_string_storage"
          },
          {
            "astId": 837,
            "contract": "contracts/EthToERC20.sol:EthToERC20",
            "label": "token2",
            "offset": 0,
            "slot": "1",
            "type": "t_string_storage"
          },
          {
            "astId": 839,
            "contract": "contracts/EthToERC20.sol:EthToERC20",
            "label": "token1Amount",
            "offset": 0,
            "slot": "2",
            "type": "t_uint256"
          },
          {
            "astId": 841,
            "contract": "contracts/EthToERC20.sol:EthToERC20",
            "label": "token2Amount",
            "offset": 0,
            "slot": "3",
            "type": "t_uint256"
          },
          {
            "astId": 843,
            "contract": "contracts/EthToERC20.sol:EthToERC20",
            "label": "token1Seed",
            "offset": 0,
            "slot": "4",
            "type": "t_uint256"
          },
          {
            "astId": 845,
            "contract": "contracts/EthToERC20.sol:EthToERC20",
            "label": "token2Seed",
            "offset": 0,
            "slot": "5",
            "type": "t_uint256"
          },
          {
            "astId": 847,
            "contract": "contracts/EthToERC20.sol:EthToERC20",
            "label": "created",
            "offset": 0,
            "slot": "6",
            "type": "t_bool"
          }
        ],
        "numberOfBytes": "224"
      },
      "t_uint256": {
        "encoding": "inplace",
        "label": "uint256",
        "numberOfBytes": "32"
      }
    }
  }
}