{
  "address": "0xb185E9f6531BA9877741022C92CE858cDCc5760E",
  "abi": [
    {
      "inputs": [
        {
          "internalType": "address[]",
          "name": "_erc20Contracts",
          "type": "address[]"
        },
        {
          "internalType": "address",
          "name": "_priceFeed",
          "type": "address"
        }
      ],
      "stateMutability": "payable",
      "type": "constructor"
    },
    {
      "anonymous": false,
      "inputs": [
        {
          "indexed": true,
          "internalType": "address",
          "name": "owner",
          "type": "address"
        },
        {
          "indexed": true,
          "internalType": "address",
          "name": "spender",
          "type": "address"
        },
        {
          "indexed": false,
          "internalType": "uint256",
          "name": "value",
          "type": "uint256"
        }
      ],
      "name": "Approval",
      "type": "event"
    },
    {
      "anonymous": false,
      "inputs": [
        {
          "indexed": true,
          "internalType": "address",
          "name": "from",
          "type": "address"
        },
        {
          "indexed": true,
          "internalType": "address",
          "name": "to",
          "type": "address"
        },
        {
          "indexed": false,
          "internalType": "uint256",
          "name": "value",
          "type": "uint256"
        }
      ],
      "name": "Transfer",
      "type": "event"
    },
    {
      "inputs": [
        {
          "internalType": "address",
          "name": "_erc20Contract",
          "type": "address"
        }
      ],
      "name": "addToken",
      "outputs": [],
      "stateMutability": "nonpayable",
      "type": "function"
    },
    {
      "inputs": [
        {
          "internalType": "address",
          "name": "owner",
          "type": "address"
        },
        {
          "internalType": "address",
          "name": "spender",
          "type": "address"
        }
      ],
      "name": "allowance",
      "outputs": [
        {
          "internalType": "uint256",
          "name": "",
          "type": "uint256"
        }
      ],
      "stateMutability": "view",
      "type": "function"
    },
    {
      "inputs": [
        {
          "internalType": "address",
          "name": "spender",
          "type": "address"
        },
        {
          "internalType": "uint256",
          "name": "amount",
          "type": "uint256"
        }
      ],
      "name": "approve",
      "outputs": [
        {
          "internalType": "bool",
          "name": "",
          "type": "bool"
        }
      ],
      "stateMutability": "nonpayable",
      "type": "function"
    },
    {
      "inputs": [
        {
          "internalType": "address",
          "name": "account",
          "type": "address"
        }
      ],
      "name": "balanceOf",
      "outputs": [
        {
          "internalType": "uint256",
          "name": "",
          "type": "uint256"
        }
      ],
      "stateMutability": "view",
      "type": "function"
    },
    {
      "inputs": [],
      "name": "decimals",
      "outputs": [
        {
          "internalType": "uint8",
          "name": "",
          "type": "uint8"
        }
      ],
      "stateMutability": "view",
      "type": "function"
    },
    {
      "inputs": [
        {
          "internalType": "address",
          "name": "spender",
          "type": "address"
        },
        {
          "internalType": "uint256",
          "name": "subtractedValue",
          "type": "uint256"
        }
      ],
      "name": "decreaseAllowance",
      "outputs": [
        {
          "internalType": "bool",
          "name": "",
          "type": "bool"
        }
      ],
      "stateMutability": "nonpayable",
      "type": "function"
    },
    {
      "inputs": [
        {
          "internalType": "address",
          "name": "_erc20Contract",
          "type": "address"
        },
        {
          "internalType": "uint256",
          "name": "_tokensAmount",
          "type": "uint256"
        }
      ],
      "name": "deposit",
      "outputs": [],
      "stateMutability": "payable",
      "type": "function"
    },
    {
      "inputs": [
        {
          "internalType": "address",
          "name": "spender",
          "type": "address"
        },
        {
          "internalType": "uint256",
          "name": "addedValue",
          "type": "uint256"
        }
      ],
      "name": "increaseAllowance",
      "outputs": [
        {
          "internalType": "bool",
          "name": "",
          "type": "bool"
        }
      ],
      "stateMutability": "nonpayable",
      "type": "function"
    },
    {
      "inputs": [],
      "name": "name",
      "outputs": [
        {
          "internalType": "string",
          "name": "",
          "type": "string"
        }
      ],
      "stateMutability": "view",
      "type": "function"
    },
    {
      "inputs": [],
      "name": "symbol",
      "outputs": [
        {
          "internalType": "string",
          "name": "",
          "type": "string"
        }
      ],
      "stateMutability": "view",
      "type": "function"
    },
    {
      "inputs": [],
      "name": "totalSupply",
      "outputs": [
        {
          "internalType": "uint256",
          "name": "",
          "type": "uint256"
        }
      ],
      "stateMutability": "view",
      "type": "function"
    },
    {
      "inputs": [
        {
          "internalType": "address",
          "name": "to",
          "type": "address"
        },
        {
          "internalType": "uint256",
          "name": "amount",
          "type": "uint256"
        }
      ],
      "name": "transfer",
      "outputs": [
        {
          "internalType": "bool",
          "name": "",
          "type": "bool"
        }
      ],
      "stateMutability": "nonpayable",
      "type": "function"
    },
    {
      "inputs": [
        {
          "internalType": "address",
          "name": "from",
          "type": "address"
        },
        {
          "internalType": "address",
          "name": "to",
          "type": "address"
        },
        {
          "internalType": "uint256",
          "name": "amount",
          "type": "uint256"
        }
      ],
      "name": "transferFrom",
      "outputs": [
        {
          "internalType": "bool",
          "name": "",
          "type": "bool"
        }
      ],
      "stateMutability": "nonpayable",
      "type": "function"
    },
    {
      "stateMutability": "payable",
      "type": "receive"
    }
  ],
  "transactionHash": "0x231da6e8bfed6aefdf818c63a3ebd8895637ad9c02bd3898aa6beff5c49214ad",
  "args": [
    [
      "0x4631BCAbD6dF18D94796344963cB60d44a4136b6",
      "0x114e375B6FCC6d6fCb68c7A1d407E652C54F25FB"
    ],
    "0x0fe4223AD99dF788A6Dcad148eB4086E6389cEB6"
  ],
  "numDeployments": 9,
  "solcInputHash": "c2a52ca7e03127071195bd8ae3cdf7da",
  "bytecode": "0x6080604052604051620026ef380380620026ef8339818101604052810190620000299190620003b7565b6040518060400160405280600981526020017f457468546f5573646300000000000000000000000000000000000000000000008152506040518060400160405280600481526020017f45545543000000000000000000000000000000000000000000000000000000008152508160039081620000a6919062000668565b508060049081620000b8919062000668565b50505060005b82518110156200017f576000838281518110620000e057620000df6200074f565b5b6020026020010151905080600660008373ffffffffffffffffffffffffffffffffffffffff1673ffffffffffffffffffffffffffffffffffffffff16815260200190815260200160002060006101000a81548173ffffffffffffffffffffffffffffffffffffffff021916908373ffffffffffffffffffffffffffffffffffffffff1602179055505080806200017690620007ad565b915050620000be565b5080600560006101000a81548173ffffffffffffffffffffffffffffffffffffffff021916908373ffffffffffffffffffffffffffffffffffffffff1602179055505050620007fa565b6000604051905090565b600080fd5b600080fd5b600080fd5b6000601f19601f8301169050919050565b7f4e487b7100000000000000000000000000000000000000000000000000000000600052604160045260246000fd5b6200022d82620001e2565b810181811067ffffffffffffffff821117156200024f576200024e620001f3565b5b80604052505050565b600062000264620001c9565b905062000272828262000222565b919050565b600067ffffffffffffffff821115620002955762000294620001f3565b5b602082029050602081019050919050565b600080fd5b600073ffffffffffffffffffffffffffffffffffffffff82169050919050565b6000620002d882620002ab565b9050919050565b620002ea81620002cb565b8114620002f657600080fd5b50565b6000815190506200030a81620002df565b92915050565b600062000327620003218462000277565b62000258565b905080838252602082019050602084028301858111156200034d576200034c620002a6565b5b835b818110156200037a5780620003658882620002f9565b8452602084019350506020810190506200034f565b5050509392505050565b600082601f8301126200039c576200039b620001dd565b5b8151620003ae84826020860162000310565b91505092915050565b60008060408385031215620003d157620003d0620001d3565b5b600083015167ffffffffffffffff811115620003f257620003f1620001d8565b5b620004008582860162000384565b92505060206200041385828601620002f9565b9150509250929050565b600081519050919050565b7f4e487b7100000000000000000000000000000000000000000000000000000000600052602260045260246000fd5b600060028204905060018216806200047057607f821691505b60208210810362000486576200048562000428565b5b50919050565b60008190508160005260206000209050919050565b60006020601f8301049050919050565b600082821b905092915050565b600060088302620004f07fffffffffffffffffffffffffffffffffffffffffffffffffffffffffffffffff82620004b1565b620004fc8683620004b1565b95508019841693508086168417925050509392505050565b6000819050919050565b6000819050919050565b600062000549620005436200053d8462000514565b6200051e565b62000514565b9050919050565b6000819050919050565b620005658362000528565b6200057d620005748262000550565b848454620004be565b825550505050565b600090565b6200059462000585565b620005a18184846200055a565b505050565b5b81811015620005c957620005bd6000826200058a565b600181019050620005a7565b5050565b601f8211156200061857620005e2816200048c565b620005ed84620004a1565b81016020851015620005fd578190505b620006156200060c85620004a1565b830182620005a6565b50505b505050565b600082821c905092915050565b60006200063d600019846008026200061d565b1980831691505092915050565b60006200065883836200062a565b9150826002028217905092915050565b62000673826200041d565b67ffffffffffffffff8111156200068f576200068e620001f3565b5b6200069b825462000457565b620006a8828285620005cd565b600060209050601f831160018114620006e05760008415620006cb578287015190505b620006d785826200064a565b86555062000747565b601f198416620006f0866200048c565b60005b828110156200071a57848901518255600182019150602085019450602081019050620006f3565b868310156200073a578489015162000736601f8916826200062a565b8355505b6001600288020188555050505b505050505050565b7f4e487b7100000000000000000000000000000000000000000000000000000000600052603260045260246000fd5b7f4e487b7100000000000000000000000000000000000000000000000000000000600052601160045260246000fd5b6000620007ba8262000514565b91507fffffffffffffffffffffffffffffffffffffffffffffffffffffffffffffffff8203620007ef57620007ee6200077e565b5b600182019050919050565b611ee5806200080a6000396000f3fe6080604052600436106100c65760003560e01c806347e7ef241161007f578063a457c2d711610059578063a457c2d71461028e578063a9059cbb146102cb578063d48bfca714610308578063dd62ed3e14610331576100cd565b806347e7ef241461020a57806370a082311461022657806395d89b4114610263576100cd565b806306fdde03146100d2578063095ea7b3146100fd57806318160ddd1461013a57806323b872dd14610165578063313ce567146101a257806339509351146101cd576100cd565b366100cd57005b600080fd5b3480156100de57600080fd5b506100e761036e565b6040516100f4919061130d565b60405180910390f35b34801561010957600080fd5b50610124600480360381019061011f91906113c8565b610400565b6040516101319190611423565b60405180910390f35b34801561014657600080fd5b5061014f610423565b60405161015c919061144d565b60405180910390f35b34801561017157600080fd5b5061018c60048036038101906101879190611468565b61042d565b6040516101999190611423565b60405180910390f35b3480156101ae57600080fd5b506101b761045c565b6040516101c491906114d7565b60405180910390f35b3480156101d957600080fd5b506101f460048036038101906101ef91906113c8565b610465565b6040516102019190611423565b60405180910390f35b610224600480360381019061021f91906113c8565b61049c565b005b34801561023257600080fd5b5061024d600480360381019061024891906114f2565b61098b565b60405161025a919061144d565b60405180910390f35b34801561026f57600080fd5b506102786109d3565b604051610285919061130d565b60405180910390f35b34801561029a57600080fd5b506102b560048036038101906102b091906113c8565b610a65565b6040516102c29190611423565b60405180910390f35b3480156102d757600080fd5b506102f260048036038101906102ed91906113c8565b610adc565b6040516102ff9190611423565b60405180910390f35b34801561031457600080fd5b5061032f600480360381019061032a91906114f2565b610aff565b005b34801561033d57600080fd5b506103586004803603810190610353919061151f565b610c4e565b604051610365919061144d565b60405180910390f35b60606003805461037d9061158e565b80601f01602080910402602001604051908101604052809291908181526020018280546103a99061158e565b80156103f65780601f106103cb576101008083540402835291602001916103f6565b820191906000526020600020905b8154815290600101906020018083116103d957829003601f168201915b5050505050905090565b60008061040b610cd5565b9050610418818585610cdd565b600191505092915050565b6000600254905090565b600080610438610cd5565b9050610445858285610ea6565b610450858585610f32565b60019150509392505050565b60006012905090565b600080610470610cd5565b90506104918185856104828589610c4e565b61048c91906115ee565b610cdd565b600191505092915050565b600073ffffffffffffffffffffffffffffffffffffffff16600660008473ffffffffffffffffffffffffffffffffffffffff1673ffffffffffffffffffffffffffffffffffffffff16815260200190815260200160002060009054906101000a900473ffffffffffffffffffffffffffffffffffffffff1673ffffffffffffffffffffffffffffffffffffffff160361056a576040517f08c379a000000000000000000000000000000000000000000000000000000000815260040161056190611694565b60405180910390fd5b6000600660008473ffffffffffffffffffffffffffffffffffffffff1673ffffffffffffffffffffffffffffffffffffffff16815260200190815260200160002060009054906101000a900473ffffffffffffffffffffffffffffffffffffffff169050818173ffffffffffffffffffffffffffffffffffffffff166370a08231336040518263ffffffff1660e01b815260040161060891906116c3565b602060405180830381865afa158015610625573d6000803e3d6000fd5b505050506040513d601f19601f8201168201806040525081019061064991906116f3565b101561068a576040517f08c379a00000000000000000000000000000000000000000000000000000000081526004016106819061176c565b60405180910390fd5b610693816111b1565b6000600560009054906101000a900473ffffffffffffffffffffffffffffffffffffffff1673ffffffffffffffffffffffffffffffffffffffff166341976e09836040518263ffffffff1660e01b81526004016106f091906116c3565b602060405180830381865afa15801561070d573d6000803e3d6000fd5b505050506040513d601f19601f8201168201806040525081019061073191906117c2565b90506000600560009054906101000a900473ffffffffffffffffffffffffffffffffffffffff1673ffffffffffffffffffffffffffffffffffffffff166341976e0973f953b3a269d80e3eb0f2947630da976b896a8c5b6040518263ffffffff1660e01b81526004016107a491906116c3565b602060405180830381865afa1580156107c1573d6000803e3d6000fd5b505050506040513d601f19601f820116820180604052508101906107e591906117c2565b905060003483836107f6919061181e565b610800919061184f565b905060008183670de0b6b3a7640000610819919061184f565b670de0b6b3a764000061082c919061184f565b610836919061181e565b905081670de0b6b3a76400008761084d919061184f565b1461088d576040517f08c379a000000000000000000000000000000000000000000000000000000000815260040161088490611903565b60405180910390fd5b8034146108cf576040517f08c379a00000000000000000000000000000000000000000000000000000000081526004016108c690611995565b60405180910390fd5b8473ffffffffffffffffffffffffffffffffffffffff166323b872dd3330896040518463ffffffff1660e01b815260040161090c939291906119b5565b6020604051808303816000875af115801561092b573d6000803e3d6000fd5b505050506040513d601f19601f8201168201806040525081019061094f9190611a18565b50346007600082825461096291906115ee565b92505081905550856008600082825461097b91906115ee565b9250508190555050505050505050565b60008060008373ffffffffffffffffffffffffffffffffffffffff1673ffffffffffffffffffffffffffffffffffffffff168152602001908152602001600020549050919050565b6060600480546109e29061158e565b80601f0160208091040260200160405190810160405280929190818152602001828054610a0e9061158e565b8015610a5b5780601f10610a3057610100808354040283529160200191610a5b565b820191906000526020600020905b815481529060010190602001808311610a3e57829003601f168201915b5050505050905090565b600080610a70610cd5565b90506000610a7e8286610c4e565b905083811015610ac3576040517f08c379a0000000000000000000000000000000000000000000000000000000008152600401610aba90611ab7565b60405180910390fd5b610ad08286868403610cdd565b60019250505092915050565b600080610ae7610cd5565b9050610af4818585610f32565b600191505092915050565b600073ffffffffffffffffffffffffffffffffffffffff16600660008373ffffffffffffffffffffffffffffffffffffffff1673ffffffffffffffffffffffffffffffffffffffff16815260200190815260200160002060009054906101000a900473ffffffffffffffffffffffffffffffffffffffff1673ffffffffffffffffffffffffffffffffffffffff1614610bcd576040517f08c379a0000000000000000000000000000000000000000000000000000000008152600401610bc490611b49565b60405180910390fd5b80600660008373ffffffffffffffffffffffffffffffffffffffff1673ffffffffffffffffffffffffffffffffffffffff16815260200190815260200160002060006101000a81548173ffffffffffffffffffffffffffffffffffffffff021916908373ffffffffffffffffffffffffffffffffffffffff16021790555050565b6000600160008473ffffffffffffffffffffffffffffffffffffffff1673ffffffffffffffffffffffffffffffffffffffff16815260200190815260200160002060008373ffffffffffffffffffffffffffffffffffffffff1673ffffffffffffffffffffffffffffffffffffffff16815260200190815260200160002054905092915050565b600033905090565b600073ffffffffffffffffffffffffffffffffffffffff168373ffffffffffffffffffffffffffffffffffffffff1603610d4c576040517f08c379a0000000000000000000000000000000000000000000000000000000008152600401610d4390611bdb565b60405180910390fd5b600073ffffffffffffffffffffffffffffffffffffffff168273ffffffffffffffffffffffffffffffffffffffff1603610dbb576040517f08c379a0000000000000000000000000000000000000000000000000000000008152600401610db290611c6d565b60405180910390fd5b80600160008573ffffffffffffffffffffffffffffffffffffffff1673ffffffffffffffffffffffffffffffffffffffff16815260200190815260200160002060008473ffffffffffffffffffffffffffffffffffffffff1673ffffffffffffffffffffffffffffffffffffffff168152602001908152602001600020819055508173ffffffffffffffffffffffffffffffffffffffff168373ffffffffffffffffffffffffffffffffffffffff167f8c5be1e5ebec7d5bd14f71427d1e84f3dd0314c0f7b2291e5b200ac8c7c3b92583604051610e99919061144d565b60405180910390a3505050565b6000610eb28484610c4e565b90507fffffffffffffffffffffffffffffffffffffffffffffffffffffffffffffffff8114610f2c5781811015610f1e576040517f08c379a0000000000000000000000000000000000000000000000000000000008152600401610f1590611cd9565b60405180910390fd5b610f2b8484848403610cdd565b5b50505050565b600073ffffffffffffffffffffffffffffffffffffffff168373ffffffffffffffffffffffffffffffffffffffff1603610fa1576040517f08c379a0000000000000000000000000000000000000000000000000000000008152600401610f9890611d6b565b60405180910390fd5b600073ffffffffffffffffffffffffffffffffffffffff168273ffffffffffffffffffffffffffffffffffffffff1603611010576040517f08c379a000000000000000000000000000000000000000000000000000000000815260040161100790611dfd565b60405180910390fd5b61101b83838361124a565b60008060008573ffffffffffffffffffffffffffffffffffffffff1673ffffffffffffffffffffffffffffffffffffffff168152602001908152602001600020549050818110156110a1576040517f08c379a000000000000000000000000000000000000000000000000000000000815260040161109890611e8f565b60405180910390fd5b8181036000808673ffffffffffffffffffffffffffffffffffffffff1673ffffffffffffffffffffffffffffffffffffffff16815260200190815260200160002081905550816000808573ffffffffffffffffffffffffffffffffffffffff1673ffffffffffffffffffffffffffffffffffffffff168152602001908152602001600020600082825461113491906115ee565b925050819055508273ffffffffffffffffffffffffffffffffffffffff168473ffffffffffffffffffffffffffffffffffffffff167fddf252ad1be2c89b69c2b068fc378daa952ba7f163c4a11628f55a4df523b3ef84604051611198919061144d565b60405180910390a36111ab84848461124f565b50505050565b611247816040516024016111c591906116c3565b6040516020818303038152906040527f2c2ecbc2000000000000000000000000000000000000000000000000000000007bffffffffffffffffffffffffffffffffffffffffffffffffffffffff19166020820180517bffffffffffffffffffffffffffffffffffffffffffffffffffffffff8381831617835250505050611254565b50565b505050565b505050565b60008151905060006a636f6e736f6c652e6c6f679050602083016000808483855afa5050505050565b600081519050919050565b600082825260208201905092915050565b60005b838110156112b757808201518184015260208101905061129c565b60008484015250505050565b6000601f19601f8301169050919050565b60006112df8261127d565b6112e98185611288565b93506112f9818560208601611299565b611302816112c3565b840191505092915050565b6000602082019050818103600083015261132781846112d4565b905092915050565b600080fd5b600073ffffffffffffffffffffffffffffffffffffffff82169050919050565b600061135f82611334565b9050919050565b61136f81611354565b811461137a57600080fd5b50565b60008135905061138c81611366565b92915050565b6000819050919050565b6113a581611392565b81146113b057600080fd5b50565b6000813590506113c28161139c565b92915050565b600080604083850312156113df576113de61132f565b5b60006113ed8582860161137d565b92505060206113fe858286016113b3565b9150509250929050565b60008115159050919050565b61141d81611408565b82525050565b60006020820190506114386000830184611414565b92915050565b61144781611392565b82525050565b6000602082019050611462600083018461143e565b92915050565b6000806000606084860312156114815761148061132f565b5b600061148f8682870161137d565b93505060206114a08682870161137d565b92505060406114b1868287016113b3565b9150509250925092565b600060ff82169050919050565b6114d1816114bb565b82525050565b60006020820190506114ec60008301846114c8565b92915050565b6000602082840312156115085761150761132f565b5b60006115168482850161137d565b91505092915050565b600080604083850312156115365761153561132f565b5b60006115448582860161137d565b92505060206115558582860161137d565b9150509250929050565b7f4e487b7100000000000000000000000000000000000000000000000000000000600052602260045260246000fd5b600060028204905060018216806115a657607f821691505b6020821081036115b9576115b861155f565b5b50919050565b7f4e487b7100000000000000000000000000000000000000000000000000000000600052601160045260246000fd5b60006115f982611392565b915061160483611392565b925082820190508082111561161c5761161b6115bf565b5b92915050565b7f5468657265206973206e6f207375636820746f6b656e20636f6e74726163742060008201527f59455420696e206f75722073797374656d2e0000000000000000000000000000602082015250565b600061167e603283611288565b915061168982611622565b604082019050919050565b600060208201905081810360008301526116ad81611671565b9050919050565b6116bd81611354565b82525050565b60006020820190506116d860008301846116b4565b92915050565b6000815190506116ed8161139c565b92915050565b6000602082840312156117095761170861132f565b5b6000611717848285016116de565b91505092915050565b7f496e73756666696369656e742045524332302066756e64732e00000000000000600082015250565b6000611756601983611288565b915061176182611720565b602082019050919050565b6000602082019050818103600083015261178581611749565b9050919050565b6000819050919050565b61179f8161178c565b81146117aa57600080fd5b50565b6000815190506117bc81611796565b92915050565b6000602082840312156117d8576117d761132f565b5b60006117e6848285016117ad565b91505092915050565b7f4e487b7100000000000000000000000000000000000000000000000000000000600052601260045260246000fd5b600061182982611392565b915061183483611392565b925082611844576118436117ef565b5b828204905092915050565b600061185a82611392565b915061186583611392565b925082820261187381611392565b9150828204841483151761188a576118896115bf565b5b5092915050565b7f5075742074686520617070726f70726961746520616d6f756e74206f6620555360008201527f444320666f72207468617420616d6f756e74206f66204554482e000000000000602082015250565b60006118ed603a83611288565b91506118f882611891565b604082019050919050565b6000602082019050818103600083015261191c816118e0565b9050919050565b7f5075742074686520617070726f70726961746520616d6f756e74206f6620455460008201527f4820666f72207468617420616d6f756e74206f6620555344432e000000000000602082015250565b600061197f603a83611288565b915061198a82611923565b604082019050919050565b600060208201905081810360008301526119ae81611972565b9050919050565b60006060820190506119ca60008301866116b4565b6119d760208301856116b4565b6119e4604083018461143e565b949350505050565b6119f581611408565b8114611a0057600080fd5b50565b600081519050611a12816119ec565b92915050565b600060208284031215611a2e57611a2d61132f565b5b6000611a3c84828501611a03565b91505092915050565b7f45524332303a2064656372656173656420616c6c6f77616e63652062656c6f7760008201527f207a65726f000000000000000000000000000000000000000000000000000000602082015250565b6000611aa1602583611288565b9150611aac82611a45565b604082019050919050565b60006020820190508181036000830152611ad081611a94565b9050919050565b7f5468697320746f6b656e20636f6e747261637420697320616c7265616479206960008201527f6e207468652073797374656d2e00000000000000000000000000000000000000602082015250565b6000611b33602d83611288565b9150611b3e82611ad7565b604082019050919050565b60006020820190508181036000830152611b6281611b26565b9050919050565b7f45524332303a20617070726f76652066726f6d20746865207a65726f2061646460008201527f7265737300000000000000000000000000000000000000000000000000000000602082015250565b6000611bc5602483611288565b9150611bd082611b69565b604082019050919050565b60006020820190508181036000830152611bf481611bb8565b9050919050565b7f45524332303a20617070726f766520746f20746865207a65726f20616464726560008201527f7373000000000000000000000000000000000000000000000000000000000000602082015250565b6000611c57602283611288565b9150611c6282611bfb565b604082019050919050565b60006020820190508181036000830152611c8681611c4a565b9050919050565b7f45524332303a20696e73756666696369656e7420616c6c6f77616e6365000000600082015250565b6000611cc3601d83611288565b9150611cce82611c8d565b602082019050919050565b60006020820190508181036000830152611cf281611cb6565b9050919050565b7f45524332303a207472616e736665722066726f6d20746865207a65726f20616460008201527f6472657373000000000000000000000000000000000000000000000000000000602082015250565b6000611d55602583611288565b9150611d6082611cf9565b604082019050919050565b60006020820190508181036000830152611d8481611d48565b9050919050565b7f45524332303a207472616e7366657220746f20746865207a65726f206164647260008201527f6573730000000000000000000000000000000000000000000000000000000000602082015250565b6000611de7602383611288565b9150611df282611d8b565b604082019050919050565b60006020820190508181036000830152611e1681611dda565b9050919050565b7f45524332303a207472616e7366657220616d6f756e742065786365656473206260008201527f616c616e63650000000000000000000000000000000000000000000000000000602082015250565b6000611e79602683611288565b9150611e8482611e1d565b604082019050919050565b60006020820190508181036000830152611ea881611e6c565b905091905056fea2646970667358221220cf49dc58ee32a07e554c4fbfe6c855f17b735cc6e63a2f24ff5162a9dddedfe164736f6c63430008110033",
  "devdoc": {
    "kind": "dev",
    "methods": {
      "allowance(address,address)": {
        "details": "See {IERC20-allowance}."
      },
      "approve(address,uint256)": {
        "details": "See {IERC20-approve}. NOTE: If `amount` is the maximum `uint256`, the allowance is not updated on `transferFrom`. This is semantically equivalent to an infinite approval. Requirements: - `spender` cannot be the zero address."
      },
      "balanceOf(address)": {
        "details": "See {IERC20-balanceOf}."
      },
      "decimals()": {
        "details": "Returns the number of decimals used to get its user representation. For example, if `decimals` equals `2`, a balance of `505` tokens should be displayed to a user as `5.05` (`505 / 10 ** 2`). Tokens usually opt for a value of 18, imitating the relationship between Ether and Wei. This is the value {ERC20} uses, unless this function is overridden; NOTE: This information is only used for _display_ purposes: it in no way affects any of the arithmetic of the contract, including {IERC20-balanceOf} and {IERC20-transfer}."
      },
      "decreaseAllowance(address,uint256)": {
        "details": "Atomically decreases the allowance granted to `spender` by the caller. This is an alternative to {approve} that can be used as a mitigation for problems described in {IERC20-approve}. Emits an {Approval} event indicating the updated allowance. Requirements: - `spender` cannot be the zero address. - `spender` must have allowance for the caller of at least `subtractedValue`."
      },
      "increaseAllowance(address,uint256)": {
        "details": "Atomically increases the allowance granted to `spender` by the caller. This is an alternative to {approve} that can be used as a mitigation for problems described in {IERC20-approve}. Emits an {Approval} event indicating the updated allowance. Requirements: - `spender` cannot be the zero address."
      },
      "name()": {
        "details": "Returns the name of the token."
      },
      "symbol()": {
        "details": "Returns the symbol of the token, usually a shorter version of the name."
      },
      "totalSupply()": {
        "details": "See {IERC20-totalSupply}."
      },
      "transfer(address,uint256)": {
        "details": "See {IERC20-transfer}. Requirements: - `to` cannot be the zero address. - the caller must have a balance of at least `amount`."
      },
      "transferFrom(address,address,uint256)": {
        "details": "See {IERC20-transferFrom}. Emits an {Approval} event indicating the updated allowance. This is not required by the EIP. See the note at the beginning of {ERC20}. NOTE: Does not update the allowance if the current allowance is the maximum `uint256`. Requirements: - `from` and `to` cannot be the zero address. - `from` must have a balance of at least `amount`. - the caller must have allowance for ``from``'s tokens of at least `amount`."
      }
    },
    "version": 1
  },
  "userdoc": {
    "kind": "user",
    "methods": {},
    "version": 1
  },
  "storageLayout": {
    "storage": [
      {
        "astId": 118,
        "contract": "contracts/EthToERC20.sol:EthToERC20",
        "label": "_balances",
        "offset": 0,
        "slot": "0",
        "type": "t_mapping(t_address,t_uint256)"
      },
      {
        "astId": 124,
        "contract": "contracts/EthToERC20.sol:EthToERC20",
        "label": "_allowances",
        "offset": 0,
        "slot": "1",
        "type": "t_mapping(t_address,t_mapping(t_address,t_uint256))"
      },
      {
        "astId": 126,
        "contract": "contracts/EthToERC20.sol:EthToERC20",
        "label": "_totalSupply",
        "offset": 0,
        "slot": "2",
        "type": "t_uint256"
      },
      {
        "astId": 128,
        "contract": "contracts/EthToERC20.sol:EthToERC20",
        "label": "_name",
        "offset": 0,
        "slot": "3",
        "type": "t_string_storage"
      },
      {
        "astId": 130,
        "contract": "contracts/EthToERC20.sol:EthToERC20",
        "label": "_symbol",
        "offset": 0,
        "slot": "4",
        "type": "t_string_storage"
      },
      {
        "astId": 823,
        "contract": "contracts/EthToERC20.sol:EthToERC20",
        "label": "priceFeed",
        "offset": 0,
        "slot": "5",
        "type": "t_contract(PriceFeed)1130"
      },
      {
        "astId": 828,
        "contract": "contracts/EthToERC20.sol:EthToERC20",
        "label": "erc20Contracts",
        "offset": 0,
        "slot": "6",
        "type": "t_mapping(t_address,t_contract(ERC20)688)"
      },
      {
        "astId": 830,
        "contract": "contracts/EthToERC20.sol:EthToERC20",
        "label": "ethPool",
        "offset": 0,
        "slot": "7",
        "type": "t_uint256"
      },
      {
        "astId": 832,
        "contract": "contracts/EthToERC20.sol:EthToERC20",
        "label": "tokenPool",
        "offset": 0,
        "slot": "8",
        "type": "t_uint256"
      }
    ],
    "types": {
      "t_address": {
        "encoding": "inplace",
        "label": "address",
        "numberOfBytes": "20"
      },
      "t_contract(ERC20)688": {
        "encoding": "inplace",
        "label": "contract ERC20",
        "numberOfBytes": "20"
      },
      "t_contract(PriceFeed)1130": {
        "encoding": "inplace",
        "label": "contract PriceFeed",
        "numberOfBytes": "20"
      },
      "t_mapping(t_address,t_contract(ERC20)688)": {
        "encoding": "mapping",
        "key": "t_address",
        "label": "mapping(address => contract ERC20)",
        "numberOfBytes": "32",
        "value": "t_contract(ERC20)688"
      },
      "t_mapping(t_address,t_mapping(t_address,t_uint256))": {
        "encoding": "mapping",
        "key": "t_address",
        "label": "mapping(address => mapping(address => uint256))",
        "numberOfBytes": "32",
        "value": "t_mapping(t_address,t_uint256)"
      },
      "t_mapping(t_address,t_uint256)": {
        "encoding": "mapping",
        "key": "t_address",
        "label": "mapping(address => uint256)",
        "numberOfBytes": "32",
        "value": "t_uint256"
      },
      "t_string_storage": {
        "encoding": "bytes",
        "label": "string",
        "numberOfBytes": "32"
      },
      "t_uint256": {
        "encoding": "inplace",
        "label": "uint256",
        "numberOfBytes": "32"
      }
    }
  }
}