{
  "address": "0x52c9dE743a250a4D8E1194E11e447bb45324436f",
  "abi": [
    {
      "inputs": [],
      "stateMutability": "nonpayable",
      "type": "constructor"
    },
    {
      "anonymous": false,
      "inputs": [
        {
          "indexed": true,
          "internalType": "address",
          "name": "owner",
          "type": "address"
        },
        {
          "indexed": true,
          "internalType": "address",
          "name": "spender",
          "type": "address"
        },
        {
          "indexed": false,
          "internalType": "uint256",
          "name": "value",
          "type": "uint256"
        }
      ],
      "name": "Approval",
      "type": "event"
    },
    {
      "anonymous": false,
      "inputs": [
        {
          "indexed": true,
          "internalType": "address",
          "name": "from",
          "type": "address"
        },
        {
          "indexed": true,
          "internalType": "address",
          "name": "to",
          "type": "address"
        },
        {
          "indexed": false,
          "internalType": "uint256",
          "name": "value",
          "type": "uint256"
        }
      ],
      "name": "Transfer",
      "type": "event"
    },
    {
      "inputs": [
        {
          "internalType": "string",
          "name": "_pair",
          "type": "string"
        },
        {
          "internalType": "address",
          "name": "_tokenContract",
          "type": "address"
        },
        {
          "internalType": "uint256",
          "name": "_tokenAmount",
          "type": "uint256"
        }
      ],
      "name": "ERC20ToEthSwap",
      "outputs": [],
      "stateMutability": "nonpayable",
      "type": "function"
    },
    {
      "inputs": [
        {
          "internalType": "address",
          "name": "owner",
          "type": "address"
        },
        {
          "internalType": "address",
          "name": "spender",
          "type": "address"
        }
      ],
      "name": "allowance",
      "outputs": [
        {
          "internalType": "uint256",
          "name": "",
          "type": "uint256"
        }
      ],
      "stateMutability": "view",
      "type": "function"
    },
    {
      "inputs": [
        {
          "internalType": "address",
          "name": "spender",
          "type": "address"
        },
        {
          "internalType": "uint256",
          "name": "amount",
          "type": "uint256"
        }
      ],
      "name": "approve",
      "outputs": [
        {
          "internalType": "bool",
          "name": "",
          "type": "bool"
        }
      ],
      "stateMutability": "nonpayable",
      "type": "function"
    },
    {
      "inputs": [
        {
          "internalType": "address",
          "name": "account",
          "type": "address"
        }
      ],
      "name": "balanceOf",
      "outputs": [
        {
          "internalType": "uint256",
          "name": "",
          "type": "uint256"
        }
      ],
      "stateMutability": "view",
      "type": "function"
    },
    {
      "inputs": [],
      "name": "decimals",
      "outputs": [
        {
          "internalType": "uint8",
          "name": "",
          "type": "uint8"
        }
      ],
      "stateMutability": "view",
      "type": "function"
    },
    {
      "inputs": [
        {
          "internalType": "address",
          "name": "spender",
          "type": "address"
        },
        {
          "internalType": "uint256",
          "name": "subtractedValue",
          "type": "uint256"
        }
      ],
      "name": "decreaseAllowance",
      "outputs": [
        {
          "internalType": "bool",
          "name": "",
          "type": "bool"
        }
      ],
      "stateMutability": "nonpayable",
      "type": "function"
    },
    {
      "inputs": [
        {
          "internalType": "string",
          "name": "_pair",
          "type": "string"
        },
        {
          "internalType": "uint256",
          "name": "_tokenAmount",
          "type": "uint256"
        }
      ],
      "name": "deposit",
      "outputs": [],
      "stateMutability": "payable",
      "type": "function"
    },
    {
      "inputs": [
        {
          "internalType": "string",
          "name": "_pair",
          "type": "string"
        },
        {
          "internalType": "uint256",
          "name": "_tokenAmount",
          "type": "uint256"
        },
        {
          "internalType": "bool",
          "name": "ethToERC20",
          "type": "bool"
        }
      ],
      "name": "estimateDeposit",
      "outputs": [
        {
          "internalType": "uint256[2]",
          "name": "",
          "type": "uint256[2]"
        }
      ],
      "stateMutability": "view",
      "type": "function"
    },
    {
      "inputs": [
        {
          "internalType": "string",
          "name": "_pair",
          "type": "string"
        },
        {
          "internalType": "uint256",
          "name": "_tokenAmount",
          "type": "uint256"
        },
        {
          "internalType": "bool",
          "name": "_t1ToT2",
          "type": "bool"
        }
      ],
      "name": "estimateWithdrawAmounts",
      "outputs": [
        {
          "internalType": "uint256",
          "name": "",
          "type": "uint256"
        },
        {
          "internalType": "uint256",
          "name": "",
          "type": "uint256"
        }
      ],
      "stateMutability": "view",
      "type": "function"
    },
    {
      "inputs": [
        {
          "internalType": "string",
          "name": "_pair",
          "type": "string"
        }
      ],
      "name": "ethToERC20Swap",
      "outputs": [],
      "stateMutability": "payable",
      "type": "function"
    },
    {
      "inputs": [
        {
          "internalType": "string",
          "name": "_pair",
          "type": "string"
        },
        {
          "internalType": "address",
          "name": "_user",
          "type": "address"
        }
      ],
      "name": "getLpShare",
      "outputs": [
        {
          "internalType": "uint256",
          "name": "",
          "type": "uint256"
        },
        {
          "internalType": "uint256",
          "name": "",
          "type": "uint256"
        }
      ],
      "stateMutability": "view",
      "type": "function"
    },
    {
      "inputs": [
        {
          "internalType": "string",
          "name": "_pair",
          "type": "string"
        }
      ],
      "name": "getPoolDeposits",
      "outputs": [
        {
          "internalType": "uint256",
          "name": "",
          "type": "uint256"
        },
        {
          "internalType": "uint256",
          "name": "",
          "type": "uint256"
        }
      ],
      "stateMutability": "view",
      "type": "function"
    },
    {
      "inputs": [],
      "name": "getPools",
      "outputs": [
        {
          "internalType": "string[]",
          "name": "",
          "type": "string[]"
        }
      ],
      "stateMutability": "view",
      "type": "function"
    },
    {
      "inputs": [
        {
          "internalType": "string",
          "name": "_pair",
          "type": "string"
        },
        {
          "internalType": "uint256",
          "name": "_tokenAmount",
          "type": "uint256"
        },
        {
          "internalType": "bool",
          "name": "ethToERC20",
          "type": "bool"
        }
      ],
      "name": "getRelativePrice",
      "outputs": [
        {
          "internalType": "uint256",
          "name": "",
          "type": "uint256"
        }
      ],
      "stateMutability": "view",
      "type": "function"
    },
    {
      "inputs": [
        {
          "internalType": "string",
          "name": "_pair",
          "type": "string"
        }
      ],
      "name": "getUserDeposits",
      "outputs": [
        {
          "internalType": "uint256",
          "name": "",
          "type": "uint256"
        },
        {
          "internalType": "uint256",
          "name": "",
          "type": "uint256"
        }
      ],
      "stateMutability": "view",
      "type": "function"
    },
    {
      "inputs": [
        {
          "internalType": "address",
          "name": "spender",
          "type": "address"
        },
        {
          "internalType": "uint256",
          "name": "addedValue",
          "type": "uint256"
        }
      ],
      "name": "increaseAllowance",
      "outputs": [
        {
          "internalType": "bool",
          "name": "",
          "type": "bool"
        }
      ],
      "stateMutability": "nonpayable",
      "type": "function"
    },
    {
      "inputs": [],
      "name": "name",
      "outputs": [
        {
          "internalType": "string",
          "name": "",
          "type": "string"
        }
      ],
      "stateMutability": "view",
      "type": "function"
    },
    {
      "inputs": [],
      "name": "symbol",
      "outputs": [
        {
          "internalType": "string",
          "name": "",
          "type": "string"
        }
      ],
      "stateMutability": "view",
      "type": "function"
    },
    {
      "inputs": [],
      "name": "totalSupply",
      "outputs": [
        {
          "internalType": "uint256",
          "name": "",
          "type": "uint256"
        }
      ],
      "stateMutability": "view",
      "type": "function"
    },
    {
      "inputs": [
        {
          "internalType": "address",
          "name": "to",
          "type": "address"
        },
        {
          "internalType": "uint256",
          "name": "amount",
          "type": "uint256"
        }
      ],
      "name": "transfer",
      "outputs": [
        {
          "internalType": "bool",
          "name": "",
          "type": "bool"
        }
      ],
      "stateMutability": "nonpayable",
      "type": "function"
    },
    {
      "inputs": [
        {
          "internalType": "address",
          "name": "from",
          "type": "address"
        },
        {
          "internalType": "address",
          "name": "to",
          "type": "address"
        },
        {
          "internalType": "uint256",
          "name": "amount",
          "type": "uint256"
        }
      ],
      "name": "transferFrom",
      "outputs": [
        {
          "internalType": "bool",
          "name": "",
          "type": "bool"
        }
      ],
      "stateMutability": "nonpayable",
      "type": "function"
    },
    {
      "inputs": [
        {
          "internalType": "string",
          "name": "_pair",
          "type": "string"
        },
        {
          "internalType": "uint256",
          "name": "_amount",
          "type": "uint256"
        },
        {
          "internalType": "bool",
          "name": "_t1ToT2",
          "type": "bool"
        }
      ],
      "name": "withdrawShare",
      "outputs": [],
      "stateMutability": "nonpayable",
      "type": "function"
    },
    {
      "stateMutability": "payable",
      "type": "receive"
    }
  ],
  "transactionHash": "0x999f41fe7d04caa1f8c8fb29a2f6f408e6f61ff9e01b5e2df6e34adc1f2d4772",
  "args": [],
  "numDeployments": 1,
  "solcInputHash": "5aaacf22dffe3e84703cd7c750c05598",
  "bytecode": "0x60806040523480156200001157600080fd5b5060405180604001604052806008815260200167457468546f45726360c01b8152506040518060400160405280600381526020016245324560e81b81525081600390816200006091906200011d565b5060046200006f82826200011d565b505050620001e9565b634e487b7160e01b600052604160045260246000fd5b600181811c90821680620000a357607f821691505b602082108103620000c457634e487b7160e01b600052602260045260246000fd5b50919050565b601f8211156200011857600081815260208120601f850160051c81016020861015620000f35750805b601f850160051c820191505b818110156200011457828155600101620000ff565b5050505b505050565b81516001600160401b0381111562000139576200013962000078565b62000151816200014a84546200008e565b84620000ca565b602080601f831160018114620001895760008415620001705750858301515b600019600386901b1c1916600185901b17855562000114565b600085815260208120601f198616915b82811015620001ba5788860151825594840194600190910190840162000199565b5085821015620001d95787850151600019600388901b60f8161c191681555b5050505050600190811b01905550565b6136b580620001f96000396000f3fe6080604052600436106101095760003560e01c806306fdde0314610115578063095ea7b31461014057806309bc1cce1461017057806318160ddd1461019257806323b872dd146101b1578063313ce567146101d157806339509351146101ed57806343c692391461020d578063507b8ccf1461022d57806357e161f51461024d5780635c7a210614610282578063673a2a1f1461029557806370a08231146102b75780638343deda146102ed5780638e27d7191461031a57806395d89b411461032d5780639cd0546a14610342578063a457c2d714610362578063a9059cbb14610382578063ad7b4753146103a2578063c6be6e4d146103c2578063dd62ed3e146103e257600080fd5b3661011057005b600080fd5b34801561012157600080fd5b5061012a610402565b604051610137919061308b565b60405180910390f35b34801561014c57600080fd5b5061016061015b3660046130ba565b610494565b6040519015158152602001610137565b34801561017c57600080fd5b5061019061018b366004613197565b6104ae565b005b34801561019e57600080fd5b506002545b604051908152602001610137565b3480156101bd57600080fd5b506101606101cc3660046131f1565b61081c565b3480156101dd57600080fd5b5060405160128152602001610137565b3480156101f957600080fd5b506101606102083660046130ba565b610842565b34801561021957600080fd5b506101a3610228366004613197565b610864565b34801561023957600080fd5b5061019061024836600461322d565b610b2b565b34801561025957600080fd5b5061026d610268366004613273565b61101f565b60408051928352602083019190915201610137565b610190610290366004613273565b611171565b3480156102a157600080fd5b506102aa611512565b60405161013791906132af565b3480156102c357600080fd5b506101a36102d2366004613311565b6001600160a01b031660009081526020819052604090205490565b3480156102f957600080fd5b5061030d610308366004613197565b6115f4565b604051610137919061332c565b61019061032836600461335d565b611bc9565b34801561033957600080fd5b5061012a612091565b34801561034e57600080fd5b5061026d61035d366004613273565b6120a0565b34801561036e57600080fd5b5061016061037d3660046130ba565b61211a565b34801561038e57600080fd5b5061016061039d3660046130ba565b6121a0565b3480156103ae57600080fd5b5061026d6103bd366004613197565b6121ae565b3480156103ce57600080fd5b5061026d6103dd3660046133a1565b6121fb565b3480156103ee57600080fd5b506101a36103fd3660046133ee565b6122e5565b60606003805461041190613418565b80601f016020809104026020016040519081016040528092919081815260200182805461043d90613418565b801561048a5780601f1061045f5761010080835404028352916020019161048a565b820191906000526020600020905b81548152906001019060200180831161046d57829003601f168201915b5050505050905090565b6000336104a2818585612310565b60019150505b92915050565b8260006104b9612434565b600201826040516104ca9190613452565b9081526040805160209281900383019020336000908152925290205411801561052a575060006104f8612434565b600201826040516105099190613452565b90815260408051602092819003830190203360009081529252902060010154115b6105a15760405162461bcd60e51b815260206004820152603f60248201527f4f6e6c79207368617265686f6c64657273206f6620746865206c69717569646960448201527f747920706f6f6c2063616e2063616c6c20746869732066756e6374696f6e2e0060648201526084015b60405180910390fd5b838383806105e957816105b2612434565b600201846040516105c39190613452565b908152604080516020928190038301902033600090815292529020600101541015610622565b816105f2612434565b600201846040516106039190613452565b9081526040805160209281900383019020336000908152925290205410155b6106875760405162461bcd60e51b815260206004820152603060248201527f556e61626c6520746f207769746864726177206d6f7265207468616e2068617360448201526f103132b2b7103232b837b9b4ba32b21760811b6064820152608401610598565b6000856106ec57610696612434565b600201886040516106a79190613452565b90815260408051602092819003830190203360009081529252902060010154876106cf612434565b600601546106dd9190613484565b6106e7919061349b565b610742565b6106f4612434565b600201886040516107059190613452565b908152604080516020928190038301902033600090815292529020548761072a612434565b600601546107389190613484565b610742919061349b565b9050600080876107a757610754612434565b60060154610760612434565b6002018b6040516107719190613452565b908152604080516020928190038301902033600090815292529020546107979085613484565b6107a1919061349b565b89610800565b886107b0612434565b600601546107bc612434565b6002018c6040516107cd9190613452565b908152604080516020928190038301902033600090815292529020600101546107f69086613484565b610800919061349b565b915091506108108a8a8484612457565b50505050505050505050565b60003361082a858285612753565b6108358585856127cd565b60019150505b9392505050565b6000336104a281858561085583836122e5565b61085f91906134bd565b612310565b60008361086f612434565b600101816040516108809190613452565b908152604051908190036020019020600a015460ff166108b25760405162461bcd60e51b8152600401610598906134d0565b60006108bc612434565b600101866040516108cd9190613452565b9081526020016040518091039020604051806101600160405290816000820180546108f790613418565b80601f016020809104026020016040519081016040528092919081815260200182805461092390613418565b80156109705780601f1061094557610100808354040283529160200191610970565b820191906000526020600020905b81548152906001019060200180831161095357829003601f168201915b5050505050815260200160018201805461098990613418565b80601f01602080910402602001604051908101604052809291908181526020018280546109b590613418565b8015610a025780601f106109d757610100808354040283529160200191610a02565b820191906000526020600020905b8154815290600101906020018083116109e557829003601f168201915b505050918352505060028201546001600160a01b03908116602083015260038301541660408201526004820154606082015260058201546080820152600682015460a0820152600782015460c0820152600882015460e08201526009820154610100820152600a9091015460ff1615156101209091015290506000610a85612434565b60050154610a93908761349b565b905060008260a001518360800151610aab9190613484565b905085610aeb5781878460a00151610ac391906134bd565b610acd919061352b565b610ad7908261349b565b8360800151610ae6919061352b565b610b1f565b81878460800151610afc91906134bd565b610b06919061352b565b610b10908261349b565b8360a00151610b1f919061352b565b98975050505050505050565b82610b34612434565b60010181604051610b459190613452565b908152604051908190036020019020600a015460ff16610b775760405162461bcd60e51b8152600401610598906134d0565b836001836000610b85612434565b60010184604051610b969190613452565b908152604051908190036020018120600201546370a0823160e01b82526001600160a01b03169150829082906370a0823190610bd690339060040161353e565b602060405180830381865afa158015610bf3573d6000803e3d6000fd5b505050506040513d601f19601f82011682018060405250810190610c179190613552565b1015610c355760405162461bcd60e51b81526004016105989061356b565b6000610c3f612434565b60010189604051610c509190613452565b908152602001604051809103902060405180610160016040529081600082018054610c7a90613418565b80601f0160208091040260200160405190810160405280929190818152602001828054610ca690613418565b8015610cf35780601f10610cc857610100808354040283529160200191610cf3565b820191906000526020600020905b815481529060010190602001808311610cd657829003601f168201915b50505050508152602001600182018054610d0c90613418565b80601f0160208091040260200160405190810160405280929190818152602001828054610d3890613418565b8015610d855780601f10610d5a57610100808354040283529160200191610d85565b820191906000526020600020905b815481529060010190602001808311610d6857829003601f168201915b505050918352505060028201546001600160a01b03908116602083015260038301541660408201526004820154606082015260058201546080820152600682015460a0820152600782015460c0820152600882015460e08201526009820154610100820152600a9091015460ff1615156101209091015290506000610e08612434565b60050154610e16908961349b565b905060008260a001518360800151610e2e9190613484565b90506000898460a00151610e4291906134bd565b90506000610e50848361352b565b610e5a908461349b565b90506000818660800151610e6e919061352b565b905084610e79612434565b6001018f604051610e8a9190613452565b90815260200160405180910390206009016000828254610eaa91906134bd565b90915550829050610eb9612434565b6001018f604051610eca9190613452565b9081526040519081900360200190206004015582610ee6612434565b6001018f604051610ef79190613452565b9081526020016040518091039020600501819055508c6001600160a01b03166323b872dd33308f6040518463ffffffff1660e01b8152600401610f3c9392919061359e565b6020604051808303816000875af1158015610f5b573d6000803e3d6000fd5b505050506040513d601f19601f82011682018060405250810190610f7f91906135c2565b50604051600090339083908381818185875af1925050503d8060008114610fc2576040519150601f19603f3d011682016040523d82523d6000602084013e610fc7565b606091505b505090508061100e5760405162461bcd60e51b815260206004820152601360248201527221b7bab632103737ba1039b2b7321032ba341760691b6044820152606401610598565b505050505050505050505050505050565b60008060008060005b611030612434565b600301866040516110419190613452565b908152604051908190036020019020546001600160801b038216101561116657600061106b612434565b6003018760405161107c9190613452565b9081526020016040518091039020826001600160801b0316815481106110a4576110a46135df565b6000918252602090912001546001600160a01b031690506110c3612434565b600201876040516110d49190613452565b90815260408051602092819003830190206001600160a01b0384166000908152925290205461110390856134bd565b935061110d612434565b6002018760405161111e9190613452565b90815260408051602092819003830190206001600160a01b0384166000908152925290206001015461115090846134bd565b925050808061115e906135f5565b915050611028565b509094909350915050565b8061117a612434565b6001018160405161118b9190613452565b908152604051908190036020019020600a015460ff166111bd5760405162461bcd60e51b8152600401610598906134d0565b60006111c7612434565b600101836040516111d89190613452565b90815260200160405180910390206040518061016001604052908160008201805461120290613418565b80601f016020809104026020016040519081016040528092919081815260200182805461122e90613418565b801561127b5780601f106112505761010080835404028352916020019161127b565b820191906000526020600020905b81548152906001019060200180831161125e57829003601f168201915b5050505050815260200160018201805461129490613418565b80601f01602080910402602001604051908101604052809291908181526020018280546112c090613418565b801561130d5780601f106112e25761010080835404028352916020019161130d565b820191906000526020600020905b8154815290600101906020018083116112f057829003601f168201915b505050918352505060028201546001600160a01b03908116602083015260038301541660408201526004820154606082015260058201546080820152600682015460a0820152600782015460c0820152600882015460e08201526009820154610100820152600a9091015460ff1615156101209091015290506000611390612434565b6005015461139e903461349b565b905060008260a0015183608001516113b69190613484565b905060003484608001516113ca91906134bd565b905060006113d8848361352b565b6113e2908461349b565b90506000818660a001516113f6919061352b565b905084611401612434565b600101896040516114129190613452565b9081526020016040518091039020600801600082825461143291906134bd565b90915550839050611441612434565b600101896040516114529190613452565b908152604051908190036020019020600401558161146e612434565b6001018960405161147f9190613452565b90815260405190819003602001812060050191909155606087015163a9059cbb60e01b82526001600160a01b03169063a9059cbb906114c49033908590600401613623565b6020604051808303816000875af11580156114e3573d6000803e3d6000fd5b505050506040513d601f19601f8201168201806040525081019061150791906135c2565b505050505050505050565b606061151c612434565b600401805480602002602001604051908101604052809291908181526020016000905b828210156115eb57838290600052602060002001805461155e90613418565b80601f016020809104026020016040519081016040528092919081815260200182805461158a90613418565b80156115d75780601f106115ac576101008083540402835291602001916115d7565b820191906000526020600020905b8154815290600101906020018083116115ba57829003601f168201915b50505050508152602001906001019061153f565b50505050905090565b6115fc61301d565b6000611606612434565b600101856040516116179190613452565b90815260200160405180910390206040518061016001604052908160008201805461164190613418565b80601f016020809104026020016040519081016040528092919081815260200182805461166d90613418565b80156116ba5780601f1061168f576101008083540402835291602001916116ba565b820191906000526020600020905b81548152906001019060200180831161169d57829003601f168201915b505050505081526020016001820180546116d390613418565b80601f01602080910402602001604051908101604052809291908181526020018280546116ff90613418565b801561174c5780601f106117215761010080835404028352916020019161174c565b820191906000526020600020905b81548152906001019060200180831161172f57829003601f168201915b505050918352505060028201546001600160a01b03908116602083015260038301541660408201526004820154606082015260058201546080820152600682015460a0820152600782015460c0820152600882015460e08201526009820154610100820152600a9091015460ff1615156101209091015290506117ce8561299b565b611a7557826119245760405180604001604052806117ea612434565b60060154866117f7612434565b5460408087015190516341976e0960e01b81526001600160a01b03909216916341976e09916118289160040161353e565b602060405180830381865afa158015611845573d6000803e3d6000fd5b505050506040513d601f19601f820116820180604052508101906118699190613552565b611871612434565b5460608701516040516341976e0960e01b81526001600160a01b03909216916341976e09916118a29160040161353e565b602060405180830381865afa1580156118bf573d6000803e3d6000fd5b505050506040513d601f19601f820116820180604052508101906118e39190613552565b6118eb612434565b600601546118f99190613484565b611903919061349b565b61190d9190613484565b611917919061349b565b8152602001859052611a6d565b604051806040016040528085815260200161193d612434565b600601548661194a612434565b5460608601516040516341976e0960e01b81526001600160a01b03909216916341976e099161197b9160040161353e565b602060405180830381865afa158015611998573d6000803e3d6000fd5b505050506040513d601f19601f820116820180604052508101906119bc9190613552565b6119c4612434565b5460408088015190516341976e0960e01b81526001600160a01b03909216916341976e09916119f59160040161353e565b602060405180830381865afa158015611a12573d6000803e3d6000fd5b505050506040513d601f19601f82011682018060405250810190611a369190613552565b611a3e612434565b60060154611a4c9190613484565b611a56919061349b565b611a609190613484565b611a6a919061349b565b90525b91505061083b565b8215611b225760008160c001518260e00151611a8f612434565b60060154611a9d9190613484565b611aa7919061349b565b90506000611ab3612434565b60060154611abf612434565b600601548460a00151611ad29190613484565b83888660800151611ae391906134bd565b611aed9190613484565b611af7919061352b565b611b01919061349b565b9050604051806040016040528087815260200182815250935050505061083b565b60008160e001518260c00151611b36612434565b60060154611b449190613484565b611b4e919061349b565b90506000611b5a612434565b60060154611b66612434565b600601548460800151611b799190613484565b83888660a00151611b8a91906134bd565b611b949190613484565b611b9e919061352b565b611ba8919061349b565b9050604051806040016040528082815260200187815250935050505061083b565b81611bd2612434565b60010181604051611be39190613452565b908152604051908190036020019020600a015460ff16611c155760405162461bcd60e51b8152600401610598906134d0565b826002836000611c23612434565b60010184604051611c349190613452565b908152604051908190036020018120600301546370a0823160e01b82526001600160a01b03169150829082906370a0823190611c7490339060040161353e565b602060405180830381865afa158015611c91573d6000803e3d6000fd5b505050506040513d601f19601f82011682018060405250810190611cb59190613552565b1015611cd35760405162461bcd60e51b81526004016105989061356b565b6000611ce1883460016115f4565b6020015190506402540be400611cff611cfa898461363c565b6129d1565b10611d7c5760405162461bcd60e51b815260206004820152604160248201527f416d6f756e7420696e736572746564206973206e6f742068656c70696e67207460448201527f686520706f6f6c2067657420746f20657175696c69627269756d2073746174656064820152601760f91b608482015260a401610598565b611d84612434565b60010188604051611d959190613452565b908152604051908190036020018120600301546323b872dd60e01b82526001600160a01b0316906323b872dd90611dd490339030908c9060040161359e565b6020604051808303816000875af1158015611df3573d6000803e3d6000fd5b505050506040513d601f19601f82011682018060405250810190611e1791906135c2565b5034611e21612434565b60010189604051611e329190613452565b90815260200160405180910390206004016000828254611e5291906134bd565b90915550879050611e61612434565b60010189604051611e729190613452565b90815260200160405180910390206005016000828254611e9291906134bd565b90915550611ea09050612434565b60020188604051611eb19190613452565b90815260408051602092819003830190203360009081529252902054158015611f0f5750611edd612434565b60020188604051611eee9190613452565b90815260408051602092819003830190203360009081529252902060010154155b15611f6157611f1c612434565b60030188604051611f2d9190613452565b908152604051908190036020908101909120805460018101825560009182529190200180546001600160a01b031916331790555b34611f6a612434565b60020189604051611f7b9190613452565b9081526040805160209281900383019020336000908152925281208054909190611fa69084906134bd565b90915550879050611fb5612434565b60020189604051611fc69190613452565b9081526040805160209281900383019020336000908152925281206001018054909190611ff49084906134bd565b909155506120029050612434565b600101886040516120139190613452565b9081526020016040518091039020600601546000036120875734612035612434565b600101896040516120469190613452565b9081526040519081900360200190206006015586612062612434565b600101896040516120739190613452565b908152604051908190036020019020600701555b5050505050505050565b60606004805461041190613418565b6000806120ab612434565b600201836040516120bc9190613452565b908152604080516020928190038301902033600090815292529020546120e0612434565b600201846040516120f19190613452565b908152604080516020928190038301902033600090815292529020600101549094909350915050565b6000338161212882866122e5565b9050838110156121885760405162461bcd60e51b815260206004820152602560248201527f45524332303a2064656372656173656420616c6c6f77616e63652062656c6f77604482015264207a65726f60d81b6064820152608401610598565b6121958286868403612310565b506001949350505050565b6000336104a28185856127cd565b6000806000806121c0873388886129ed565b90925090506000806121d28933612f63565b90925090506121e182856134bd565b6121eb82856134bd565b9550955050505050935093915050565b60008060008061220a8661101f565b909250905060008261221a612434565b6002018860405161222b9190613452565b90815260408051602092819003830190206001600160a01b038a1660009081529252902054612258612434565b600601546122669190613484565b612270919061349b565b905060008261227d612434565b6002018960405161228e9190613452565b90815260408051602092819003830190206001600160a01b038b16600090815292529020600101546122be612434565b600601546122cc9190613484565b6122d6919061349b565b91989197509095505050505050565b6001600160a01b03918216600090815260016020908152604080832093909416825291909152205490565b6001600160a01b0383166123725760405162461bcd60e51b8152602060048201526024808201527f45524332303a20617070726f76652066726f6d20746865207a65726f206164646044820152637265737360e01b6064820152608401610598565b6001600160a01b0382166123d35760405162461bcd60e51b815260206004820152602260248201527f45524332303a20617070726f766520746f20746865207a65726f206164647265604482015261737360f01b6064820152608401610598565b6001600160a01b0383811660008181526001602090815260408083209487168084529482529182902085905590518481527f8c5be1e5ebec7d5bd14f71427d1e84f3dd0314c0f7b2291e5b200ac8c7c3b925910160405180910390a3505050565b7e5661492dcd9d3c02dbd3b7e7855c55a879f698c500b1c9587676404c7e9c7490565b60008061246786338760016129ed565b915091506000806124788833612f63565b9150915081612485612434565b600101896040516124969190613452565b908152602001604051809103902060080160008282546124b6919061352b565b909155508190506124c5612434565b600101896040516124d69190613452565b908152602001604051809103902060090160008282546124f6919061352b565b90915550869050612505612434565b600201896040516125169190613452565b908152604080516020928190038301902033600090815292528120805490919061254190849061352b565b90915550859050612550612434565b600201896040516125619190613452565b908152604080516020928190038301902033600090815292528120600101805490919061258f90849061352b565b9091555084905061259e612434565b600101896040516125af9190613452565b908152602001604051809103902060040160008282546125cf919061352b565b909155508390506125de612434565b600101896040516125ef9190613452565b9081526020016040518091039020600501600082825461260f919061352b565b9091555061261d9050612434565b6001018860405161262e9190613452565b908152604051908190036020019020600301546001600160a01b031663a9059cbb3361265a84876134bd565b6040518363ffffffff1660e01b8152600401612677929190613623565b6020604051808303816000875af1158015612696573d6000803e3d6000fd5b505050506040513d601f19601f820116820180604052508101906126ba91906135c2565b506000336126c884876134bd565b604051600081818185875af1925050503d8060008114612704576040519150601f19603f3d011682016040523d82523d6000602084013e612709565b606091505b50509050806115075760405162461bcd60e51b815260206004820152601660248201527522b93937b9103932b33ab73234b7339032ba3432b91760511b6044820152606401610598565b600061275f84846122e5565b905060001981146127c757818110156127ba5760405162461bcd60e51b815260206004820152601d60248201527f45524332303a20696e73756666696369656e7420616c6c6f77616e63650000006044820152606401610598565b6127c78484848403612310565b50505050565b6001600160a01b0383166128315760405162461bcd60e51b815260206004820152602560248201527f45524332303a207472616e736665722066726f6d20746865207a65726f206164604482015264647265737360d81b6064820152608401610598565b6001600160a01b0382166128935760405162461bcd60e51b815260206004820152602360248201527f45524332303a207472616e7366657220746f20746865207a65726f206164647260448201526265737360e81b6064820152608401610598565b6001600160a01b0383166000908152602081905260409020548181101561290b5760405162461bcd60e51b815260206004820152602660248201527f45524332303a207472616e7366657220616d6f756e7420657863656564732062604482015265616c616e636560d01b6064820152608401610598565b6001600160a01b038085166000908152602081905260408082208585039055918516815290812080548492906129429084906134bd565b92505081905550826001600160a01b0316846001600160a01b03167fddf252ad1be2c89b69c2b068fc378daa952ba7f163c4a11628f55a4df523b3ef8460405161298e91815260200190565b60405180910390a36127c7565b60006129a5612434565b600101826040516129b69190613452565b90815260405190819003602001902060060154151592915050565b6000808212156129e9576129e482613663565b6104a8565b5090565b60008060006129fa612434565b60010187604051612a0b9190613452565b908152602001604051809103902060060154612a25612434565b60010188604051612a369190613452565b908152602001604051809103902060070154612a50612434565b60060154612a5e9190613484565b612a68919061349b565b90506000612a74612434565b60010188604051612a859190613452565b908152602001604051809103902060070154612a9f612434565b60010189604051612ab09190613452565b908152602001604051809103902060060154612aca612434565b60060154612ad89190613484565b612ae2919061349b565b905060008086612b1257612af4612434565b60060154612b02848a613484565b612b0c919061349b565b88612b33565b87612b1b612434565b60060154612b29868b613484565b612b33919061349b565b909250905081612b41612434565b6001018b604051612b529190613452565b9081526020016040518091039020600401541015612d46576000612ba583612b78612434565b6001018d604051612b899190613452565b908152602001604051809103902060040154611cfa919061363c565b9050612baf612434565b6001018b604051612bc09190613452565b9081526020016040518091039020600401549250600088612c4257612be3612434565b6002018c604051612bf49190613452565b90815260408051602092819003830190206001600160a01b038e16600090815292529020600101548a612c25612434565b60060154612c339190613484565b612c3d919061349b565b612ca1565b612c4a612434565b6002018c604051612c5b9190613452565b90815260408051602092819003830190206001600160a01b038e16600090815292529020548a612c89612434565b60060154612c979190613484565b612ca1919061349b565b90506000612cad612434565b60060154612cb9612434565b6002018e604051612cca9190613452565b908152602001604051809103902060008e6001600160a01b03166001600160a01b031681526020019081526020016000206001015483612d0a9190613484565b612d14919061349b565b9050612d1e612434565b60060154612d2c8885613484565b612d36919061349b565b612d4090826134bd565b93505050505b80612d4f612434565b6001018b604051612d609190613452565b9081526020016040518091039020600501541015612f54576000612db382612d86612434565b6001018d604051612d979190613452565b908152602001604051809103902060050154611cfa919061363c565b9050612dbd612434565b6001018b604051612dce9190613452565b9081526020016040518091039020600501549150600088612e5057612df1612434565b6002018c604051612e029190613452565b90815260408051602092819003830190206001600160a01b038e16600090815292529020600101548a612e33612434565b60060154612e419190613484565b612e4b919061349b565b612eaf565b612e58612434565b6002018c604051612e699190613452565b90815260408051602092819003830190206001600160a01b038e16600090815292529020548a612e97612434565b60060154612ea59190613484565b612eaf919061349b565b90506000612ebb612434565b60060154612ec7612434565b6002018e604051612ed89190613452565b908152602001604051809103902060008e6001600160a01b03166001600160a01b031681526020019081526020016000206000015483612f189190613484565b612f22919061349b565b9050612f2c612434565b60060154612f3a8785613484565b612f44919061349b565b612f4e90826134bd565b94505050505b90999098509650505050505050565b600080600080612f7386866121fb565b9092509050612f80612434565b6006015482612f8d612434565b60010188604051612f9e9190613452565b908152602001604051809103902060080154612fba9190613484565b612fc4919061349b565b612fcc612434565b6006015482612fd9612434565b60010189604051612fea9190613452565b9081526020016040518091039020600901546130069190613484565b613010919061349b565b9350935050509250929050565b60405180604001604052806002906020820280368337509192915050565b60005b8381101561305657818101518382015260200161303e565b50506000910152565b6000815180845261307781602086016020860161303b565b601f01601f19169290920160200192915050565b60208152600061083b602083018461305f565b80356001600160a01b03811681146130b557600080fd5b919050565b600080604083850312156130cd57600080fd5b6130d68361309e565b946020939093013593505050565b634e487b7160e01b600052604160045260246000fd5b600082601f83011261310b57600080fd5b81356001600160401b0380821115613125576131256130e4565b604051601f8301601f19908116603f0116810190828211818310171561314d5761314d6130e4565b8160405283815286602085880101111561316657600080fd5b836020870160208301376000602085830101528094505050505092915050565b801515811461319457600080fd5b50565b6000806000606084860312156131ac57600080fd5b83356001600160401b038111156131c257600080fd5b6131ce868287016130fa565b9350506020840135915060408401356131e681613186565b809150509250925092565b60008060006060848603121561320657600080fd5b61320f8461309e565b925061321d6020850161309e565b9150604084013590509250925092565b60008060006060848603121561324257600080fd5b83356001600160401b0381111561325857600080fd5b613264868287016130fa565b93505061321d6020850161309e565b60006020828403121561328557600080fd5b81356001600160401b0381111561329b57600080fd5b6132a7848285016130fa565b949350505050565b6000602080830181845280855180835260408601915060408160051b870101925083870160005b8281101561330457603f198886030184526132f285835161305f565b945092850192908501906001016132d6565b5092979650505050505050565b60006020828403121561332357600080fd5b61083b8261309e565b60408101818360005b6002811015613354578151835260209283019290910190600101613335565b50505092915050565b6000806040838503121561337057600080fd5b82356001600160401b0381111561338657600080fd5b613392858286016130fa565b95602094909401359450505050565b600080604083850312156133b457600080fd5b82356001600160401b038111156133ca57600080fd5b6133d6858286016130fa565b9250506133e56020840161309e565b90509250929050565b6000806040838503121561340157600080fd5b61340a8361309e565b91506133e56020840161309e565b600181811c9082168061342c57607f821691505b60208210810361344c57634e487b7160e01b600052602260045260246000fd5b50919050565b6000825161346481846020870161303b565b9190910192915050565b634e487b7160e01b600052601160045260246000fd5b80820281158282048414176104a8576104a861346e565b6000826134b857634e487b7160e01b600052601260045260246000fd5b500490565b808201808211156104a8576104a861346e565b6020808252603b908201527f5468657265206973206e6f207375636820746f6b656e20636f6e74726163742060408201527a2ca2aa103232b83637bcb2b21034b71037bab91039bcb9ba32b69760291b606082015260800190565b818103818111156104a8576104a861346e565b6001600160a01b0391909116815260200190565b60006020828403121561356457600080fd5b5051919050565b60208082526019908201527824b739bab33334b1b4b2b73a1022a921991810333ab732399760391b604082015260600190565b6001600160a01b039384168152919092166020820152604081019190915260600190565b6000602082840312156135d457600080fd5b815161083b81613186565b634e487b7160e01b600052603260045260246000fd5b60006001600160801b038281166002600160801b031981016136195761361961346e565b6001019392505050565b6001600160a01b03929092168252602082015260400190565b818103600083128015838313168383128216171561365c5761365c61346e565b5092915050565b6000600160ff1b82016136785761367861346e565b506000039056fea26469706673582212205037b133a52fb6bd20de874ca04566a40f27305bd3199483664a43c0d443332c64736f6c63430008110033",
  "devdoc": {
    "kind": "dev",
    "methods": {
      "allowance(address,address)": {
        "details": "See {IERC20-allowance}."
      },
      "approve(address,uint256)": {
        "details": "See {IERC20-approve}. NOTE: If `amount` is the maximum `uint256`, the allowance is not updated on `transferFrom`. This is semantically equivalent to an infinite approval. Requirements: - `spender` cannot be the zero address."
      },
      "balanceOf(address)": {
        "details": "See {IERC20-balanceOf}."
      },
      "decimals()": {
        "details": "Returns the number of decimals used to get its user representation. For example, if `decimals` equals `2`, a balance of `505` tokens should be displayed to a user as `5.05` (`505 / 10 ** 2`). Tokens usually opt for a value of 18, imitating the relationship between Ether and Wei. This is the value {ERC20} uses, unless this function is overridden; NOTE: This information is only used for _display_ purposes: it in no way affects any of the arithmetic of the contract, including {IERC20-balanceOf} and {IERC20-transfer}."
      },
      "decreaseAllowance(address,uint256)": {
        "details": "Atomically decreases the allowance granted to `spender` by the caller. This is an alternative to {approve} that can be used as a mitigation for problems described in {IERC20-approve}. Emits an {Approval} event indicating the updated allowance. Requirements: - `spender` cannot be the zero address. - `spender` must have allowance for the caller of at least `subtractedValue`."
      },
      "increaseAllowance(address,uint256)": {
        "details": "Atomically increases the allowance granted to `spender` by the caller. This is an alternative to {approve} that can be used as a mitigation for problems described in {IERC20-approve}. Emits an {Approval} event indicating the updated allowance. Requirements: - `spender` cannot be the zero address."
      },
      "name()": {
        "details": "Returns the name of the token."
      },
      "symbol()": {
        "details": "Returns the symbol of the token, usually a shorter version of the name."
      },
      "totalSupply()": {
        "details": "See {IERC20-totalSupply}."
      },
      "transfer(address,uint256)": {
        "details": "See {IERC20-transfer}. Requirements: - `to` cannot be the zero address. - the caller must have a balance of at least `amount`."
      },
      "transferFrom(address,address,uint256)": {
        "details": "See {IERC20-transferFrom}. Emits an {Approval} event indicating the updated allowance. This is not required by the EIP. See the note at the beginning of {ERC20}. NOTE: Does not update the allowance if the current allowance is the maximum `uint256`. Requirements: - `from` and `to` cannot be the zero address. - `from` must have a balance of at least `amount`. - the caller must have allowance for ``from``'s tokens of at least `amount`."
      }
    },
    "version": 1
  },
  "userdoc": {
    "kind": "user",
    "methods": {},
    "version": 1
  },
  "storageLayout": {
    "storage": [
      {
        "astId": 118,
        "contract": "contracts/EthToERC20.sol:EthToERC20",
        "label": "_balances",
        "offset": 0,
        "slot": "0",
        "type": "t_mapping(t_address,t_uint256)"
      },
      {
        "astId": 124,
        "contract": "contracts/EthToERC20.sol:EthToERC20",
        "label": "_allowances",
        "offset": 0,
        "slot": "1",
        "type": "t_mapping(t_address,t_mapping(t_address,t_uint256))"
      },
      {
        "astId": 126,
        "contract": "contracts/EthToERC20.sol:EthToERC20",
        "label": "_totalSupply",
        "offset": 0,
        "slot": "2",
        "type": "t_uint256"
      },
      {
        "astId": 128,
        "contract": "contracts/EthToERC20.sol:EthToERC20",
        "label": "_name",
        "offset": 0,
        "slot": "3",
        "type": "t_string_storage"
      },
      {
        "astId": 130,
        "contract": "contracts/EthToERC20.sol:EthToERC20",
        "label": "_symbol",
        "offset": 0,
        "slot": "4",
        "type": "t_string_storage"
      }
    ],
    "types": {
      "t_address": {
        "encoding": "inplace",
        "label": "address",
        "numberOfBytes": "20"
      },
      "t_mapping(t_address,t_mapping(t_address,t_uint256))": {
        "encoding": "mapping",
        "key": "t_address",
        "label": "mapping(address => mapping(address => uint256))",
        "numberOfBytes": "32",
        "value": "t_mapping(t_address,t_uint256)"
      },
      "t_mapping(t_address,t_uint256)": {
        "encoding": "mapping",
        "key": "t_address",
        "label": "mapping(address => uint256)",
        "numberOfBytes": "32",
        "value": "t_uint256"
      },
      "t_string_storage": {
        "encoding": "bytes",
        "label": "string",
        "numberOfBytes": "32"
      },
      "t_uint256": {
        "encoding": "inplace",
        "label": "uint256",
        "numberOfBytes": "32"
      }
    }
  }
}