{
  "address": "0xB9d9e972100a1dD01cd441774b45b5821e136043",
  "abi": [
    {
      "inputs": [
        {
          "internalType": "address[]",
          "name": "_tokenPools",
          "type": "address[]"
        },
        {
          "internalType": "string[]",
          "name": "_tokenSymbols",
          "type": "string[]"
        },
        {
          "internalType": "address",
          "name": "_priceFeed",
          "type": "address"
        },
        {
          "internalType": "uint256",
          "name": "_feeDivisor",
          "type": "uint256"
        },
        {
          "internalType": "uint256",
          "name": "_precisionMult",
          "type": "uint256"
        }
      ],
      "stateMutability": "nonpayable",
      "type": "constructor"
    },
    {
      "anonymous": false,
      "inputs": [
        {
          "indexed": true,
          "internalType": "address",
          "name": "owner",
          "type": "address"
        },
        {
          "indexed": true,
          "internalType": "address",
          "name": "spender",
          "type": "address"
        },
        {
          "indexed": false,
          "internalType": "uint256",
          "name": "value",
          "type": "uint256"
        }
      ],
      "name": "Approval",
      "type": "event"
    },
    {
      "anonymous": false,
      "inputs": [
        {
          "indexed": true,
          "internalType": "address",
          "name": "from",
          "type": "address"
        },
        {
          "indexed": true,
          "internalType": "address",
          "name": "to",
          "type": "address"
        },
        {
          "indexed": false,
          "internalType": "uint256",
          "name": "value",
          "type": "uint256"
        }
      ],
      "name": "Transfer",
      "type": "event"
    },
    {
      "inputs": [
        {
          "internalType": "string",
          "name": "_pair",
          "type": "string"
        },
        {
          "internalType": "address",
          "name": "_tokenContract",
          "type": "address"
        },
        {
          "internalType": "uint256",
          "name": "_tokenAmount",
          "type": "uint256"
        }
      ],
      "name": "ERC20ToEthSwap",
      "outputs": [],
      "stateMutability": "nonpayable",
      "type": "function"
    },
    {
      "inputs": [
        {
          "internalType": "address",
          "name": "owner",
          "type": "address"
        },
        {
          "internalType": "address",
          "name": "spender",
          "type": "address"
        }
      ],
      "name": "allowance",
      "outputs": [
        {
          "internalType": "uint256",
          "name": "",
          "type": "uint256"
        }
      ],
      "stateMutability": "view",
      "type": "function"
    },
    {
      "inputs": [
        {
          "internalType": "address",
          "name": "spender",
          "type": "address"
        },
        {
          "internalType": "uint256",
          "name": "amount",
          "type": "uint256"
        }
      ],
      "name": "approve",
      "outputs": [
        {
          "internalType": "bool",
          "name": "",
          "type": "bool"
        }
      ],
      "stateMutability": "nonpayable",
      "type": "function"
    },
    {
      "inputs": [
        {
          "internalType": "address",
          "name": "account",
          "type": "address"
        }
      ],
      "name": "balanceOf",
      "outputs": [
        {
          "internalType": "uint256",
          "name": "",
          "type": "uint256"
        }
      ],
      "stateMutability": "view",
      "type": "function"
    },
    {
      "inputs": [],
      "name": "decimals",
      "outputs": [
        {
          "internalType": "uint8",
          "name": "",
          "type": "uint8"
        }
      ],
      "stateMutability": "view",
      "type": "function"
    },
    {
      "inputs": [
        {
          "internalType": "address",
          "name": "spender",
          "type": "address"
        },
        {
          "internalType": "uint256",
          "name": "subtractedValue",
          "type": "uint256"
        }
      ],
      "name": "decreaseAllowance",
      "outputs": [
        {
          "internalType": "bool",
          "name": "",
          "type": "bool"
        }
      ],
      "stateMutability": "nonpayable",
      "type": "function"
    },
    {
      "inputs": [
        {
          "internalType": "string",
          "name": "_pair",
          "type": "string"
        },
        {
          "internalType": "uint256",
          "name": "_tokenAmount",
          "type": "uint256"
        }
      ],
      "name": "deposit",
      "outputs": [],
      "stateMutability": "payable",
      "type": "function"
    },
    {
      "inputs": [
        {
          "internalType": "string",
          "name": "_pair",
          "type": "string"
        },
        {
          "internalType": "uint256",
          "name": "_tokenAmount",
          "type": "uint256"
        },
        {
          "internalType": "bool",
          "name": "ethToERC20",
          "type": "bool"
        }
      ],
      "name": "estimateDeposit",
      "outputs": [
        {
          "internalType": "uint256[2]",
          "name": "",
          "type": "uint256[2]"
        }
      ],
      "stateMutability": "view",
      "type": "function"
    },
    {
      "inputs": [
        {
          "internalType": "string",
          "name": "_pair",
          "type": "string"
        },
        {
          "internalType": "uint256",
          "name": "_tokenAmount",
          "type": "uint256"
        },
        {
          "internalType": "bool",
          "name": "_t1ToT2",
          "type": "bool"
        }
      ],
      "name": "estimateWithdrawAmounts",
      "outputs": [
        {
          "internalType": "uint256",
          "name": "",
          "type": "uint256"
        },
        {
          "internalType": "uint256",
          "name": "",
          "type": "uint256"
        }
      ],
      "stateMutability": "view",
      "type": "function"
    },
    {
      "inputs": [
        {
          "internalType": "string",
          "name": "_pair",
          "type": "string"
        }
      ],
      "name": "ethToERC20Swap",
      "outputs": [],
      "stateMutability": "payable",
      "type": "function"
    },
    {
      "inputs": [
        {
          "internalType": "string",
          "name": "_pair",
          "type": "string"
        },
        {
          "internalType": "address",
          "name": "_user",
          "type": "address"
        }
      ],
      "name": "getLpShare",
      "outputs": [
        {
          "internalType": "uint256",
          "name": "",
          "type": "uint256"
        },
        {
          "internalType": "uint256",
          "name": "",
          "type": "uint256"
        }
      ],
      "stateMutability": "view",
      "type": "function"
    },
    {
      "inputs": [
        {
          "internalType": "string",
          "name": "_pair",
          "type": "string"
        }
      ],
      "name": "getPoolDeposits",
      "outputs": [
        {
          "internalType": "uint256",
          "name": "",
          "type": "uint256"
        },
        {
          "internalType": "uint256",
          "name": "",
          "type": "uint256"
        }
      ],
      "stateMutability": "view",
      "type": "function"
    },
    {
      "inputs": [],
      "name": "getPools",
      "outputs": [
        {
          "internalType": "string[]",
          "name": "",
          "type": "string[]"
        }
      ],
      "stateMutability": "view",
      "type": "function"
    },
    {
      "inputs": [
        {
          "internalType": "string",
          "name": "_pair",
          "type": "string"
        },
        {
          "internalType": "uint256",
          "name": "_tokenAmount",
          "type": "uint256"
        },
        {
          "internalType": "bool",
          "name": "ethToERC20",
          "type": "bool"
        }
      ],
      "name": "getRelativePrice",
      "outputs": [
        {
          "internalType": "uint256",
          "name": "",
          "type": "uint256"
        }
      ],
      "stateMutability": "view",
      "type": "function"
    },
    {
      "inputs": [
        {
          "internalType": "string",
          "name": "_pair",
          "type": "string"
        }
      ],
      "name": "getUserDeposits",
      "outputs": [
        {
          "internalType": "uint256",
          "name": "",
          "type": "uint256"
        },
        {
          "internalType": "uint256",
          "name": "",
          "type": "uint256"
        }
      ],
      "stateMutability": "view",
      "type": "function"
    },
    {
      "inputs": [
        {
          "internalType": "address",
          "name": "spender",
          "type": "address"
        },
        {
          "internalType": "uint256",
          "name": "addedValue",
          "type": "uint256"
        }
      ],
      "name": "increaseAllowance",
      "outputs": [
        {
          "internalType": "bool",
          "name": "",
          "type": "bool"
        }
      ],
      "stateMutability": "nonpayable",
      "type": "function"
    },
    {
      "inputs": [],
      "name": "name",
      "outputs": [
        {
          "internalType": "string",
          "name": "",
          "type": "string"
        }
      ],
      "stateMutability": "view",
      "type": "function"
    },
    {
      "inputs": [],
      "name": "symbol",
      "outputs": [
        {
          "internalType": "string",
          "name": "",
          "type": "string"
        }
      ],
      "stateMutability": "view",
      "type": "function"
    },
    {
      "inputs": [],
      "name": "totalSupply",
      "outputs": [
        {
          "internalType": "uint256",
          "name": "",
          "type": "uint256"
        }
      ],
      "stateMutability": "view",
      "type": "function"
    },
    {
      "inputs": [
        {
          "internalType": "address",
          "name": "to",
          "type": "address"
        },
        {
          "internalType": "uint256",
          "name": "amount",
          "type": "uint256"
        }
      ],
      "name": "transfer",
      "outputs": [
        {
          "internalType": "bool",
          "name": "",
          "type": "bool"
        }
      ],
      "stateMutability": "nonpayable",
      "type": "function"
    },
    {
      "inputs": [
        {
          "internalType": "address",
          "name": "from",
          "type": "address"
        },
        {
          "internalType": "address",
          "name": "to",
          "type": "address"
        },
        {
          "internalType": "uint256",
          "name": "amount",
          "type": "uint256"
        }
      ],
      "name": "transferFrom",
      "outputs": [
        {
          "internalType": "bool",
          "name": "",
          "type": "bool"
        }
      ],
      "stateMutability": "nonpayable",
      "type": "function"
    },
    {
      "inputs": [
        {
          "internalType": "string",
          "name": "_pair",
          "type": "string"
        },
        {
          "internalType": "uint256",
          "name": "_amount",
          "type": "uint256"
        },
        {
          "internalType": "bool",
          "name": "_t1ToT2",
          "type": "bool"
        }
      ],
      "name": "withdrawShare",
      "outputs": [],
      "stateMutability": "nonpayable",
      "type": "function"
    },
    {
      "stateMutability": "payable",
      "type": "receive"
    }
  ],
  "transactionHash": "0x5cd0c55bd2e9616065a5b78c374ca3e79acaf54f9c5e177770a9bbae8979e59e",
  "args": [
    [
      "0x103A3b128991781EE2c8db0454cA99d67b257923",
      "0x5322471a7E37Ac2B8902cFcba84d266b37D811A0",
      "0x103A3b128991781EE2c8db0454cA99d67b257923",
      "0xc0Bb1650A8eA5dDF81998f17B5319afD656f4c11"
    ],
    [
      "ETH",
      "UTMC",
      "ETH",
      "UCMC"
    ],
    "0xBbc18b580256A82dC0F9A86152b8B22E7C1C8005",
    "20000000000000000",
    18
  ],
  "numDeployments": 1,
  "solcInputHash": "327095c6a9ee92af2d8425a4d8e2b0b7",
  "bytecode": "0x60806040523480156200001157600080fd5b5060405162003d4838038062003d48833981016040819052620000349162000546565b6040518060400160405280600a8152602001690457468546f45524332360b41b815250604051806040016040528060048152602001634545524360e01b8152508160039081620000859190620006ca565b506004620000948282620006ca565b50505080600a620000a69190620008ab565b600b55620000be8268056bc75e2d63100000620008c0565b600a55600580546001600160a01b0319166001600160a01b03851617905560005b85518110156200038e576000868281518110620001005762000100620008e3565b602002602001015190506000878360016200011c9190620008f9565b815181106200012f576200012f620008e3565b602002602001015190506000878481518110620001505762000150620008e3565b602002602001015188856001620001689190620008f9565b815181106200017b576200017b620008e3565b6020026020010151604051602001620001969291906200090f565b60408051601f19818403018152919052600980546001810182556000919091529091507f6e1540171b6c0c960b71a7020d9f60077f6af931a8bbf590da0223dacf75c7af01620001e78282620006ca565b50604051806101600160405280898681518110620002095762000209620008e3565b6020026020010151815260200189866001620002269190620008f9565b81518110620002395762000239620008e3565b60200260200101518152602001846001600160a01b03168152602001836001600160a01b0316815260200160008152602001600081526020016000815260200160008152602001600081526020016000815260200160011515815250600682604051620002a791906200094f565b90815260405190819003602001902081518190620002c69082620006ca565b5060208201516001820190620002dd9082620006ca565b506040820151600280830180546001600160a01b039384166001600160a01b0319918216179091556060850151600385018054919094169116179091556080830151600483015560a0830151600583015560c0830151600683015560e083015160078301556101008301516008830155610120830151600983015561014090920151600a909101805491151560ff199092169190911790556200038693509150839050620008f9565b9050620000df565b5050505050506200096d565b634e487b7160e01b600052604160045260246000fd5b604051601f8201601f191681016001600160401b0381118282101715620003db57620003db6200039a565b604052919050565b60006001600160401b03821115620003ff57620003ff6200039a565b5060051b60200190565b80516001600160a01b03811681146200042157600080fd5b919050565b60005b838110156200044357818101518382015260200162000429565b50506000910152565b6000601f83818401126200045f57600080fd5b82516020620004786200047283620003e3565b620003b0565b82815260059290921b850181019181810190878411156200049857600080fd5b8287015b848110156200053a5780516001600160401b0380821115620004be5760008081fd5b818a0191508a603f830112620004d45760008081fd5b85820151604082821115620004ed57620004ed6200039a565b62000500828b01601f19168901620003b0565b92508183528c81838601011115620005185760008081fd5b620005298289850183870162000426565b50508452509183019183016200049c565b50979650505050505050565b600080600080600060a086880312156200055f57600080fd5b85516001600160401b03808211156200057757600080fd5b818801915088601f8301126200058c57600080fd5b815160206200059f6200047283620003e3565b82815260059290921b8401810191818101908c841115620005bf57600080fd5b948201945b83861015620005e857620005d88662000409565b82529482019490820190620005c4565b918b01519199509093505050808211156200060257600080fd5b5062000611888289016200044c565b945050620006226040870162000409565b6060870151608090970151959894975095949392505050565b600181811c908216806200065057607f821691505b6020821081036200067157634e487b7160e01b600052602260045260246000fd5b50919050565b601f821115620006c557600081815260208120601f850160051c81016020861015620006a05750805b601f850160051c820191505b81811015620006c157828155600101620006ac565b5050505b505050565b81516001600160401b03811115620006e657620006e66200039a565b620006fe81620006f784546200063b565b8462000677565b602080601f8311600181146200073657600084156200071d5750858301515b600019600386901b1c1916600185901b178555620006c1565b600085815260208120601f198616915b82811015620007675788860151825594840194600190910190840162000746565b5085821015620007865787850151600019600388901b60f8161c191681555b5050505050600190811b01905550565b634e487b7160e01b600052601160045260246000fd5b600181815b80851115620007ed578160001904821115620007d157620007d162000796565b80851615620007df57918102915b93841c9390800290620007b1565b509250929050565b6000826200080657506001620008a5565b816200081557506000620008a5565b81600181146200082e5760028114620008395762000859565b6001915050620008a5565b60ff8411156200084d576200084d62000796565b50506001821b620008a5565b5060208310610133831016604e8410600b84101617156200087e575081810a620008a5565b6200088a8383620007ac565b8060001904821115620008a157620008a162000796565b0290505b92915050565b6000620008b98383620007f5565b9392505050565b600082620008de57634e487b7160e01b600052601260045260246000fd5b500490565b634e487b7160e01b600052603260045260246000fd5b80820180821115620008a557620008a562000796565b600083516200092381846020880162000426565b602f60f81b90830190815283516200094381600184016020880162000426565b01600101949350505050565b600082516200096381846020870162000426565b9190910192915050565b6133cb806200097d6000396000f3fe6080604052600436106101095760003560e01c806306fdde0314610115578063095ea7b31461014057806309bc1cce1461017057806318160ddd1461019257806323b872dd146101b1578063313ce567146101d157806339509351146101ed57806343c692391461020d578063507b8ccf1461022d57806357e161f51461024d5780635c7a210614610282578063673a2a1f1461029557806370a08231146102b75780638343deda146102ed5780638e27d7191461031a57806395d89b411461032d5780639cd0546a14610342578063a457c2d714610362578063a9059cbb14610382578063ad7b4753146103a2578063c6be6e4d146103c2578063dd62ed3e146103e257600080fd5b3661011057005b600080fd5b34801561012157600080fd5b5061012a610402565b6040516101379190612da4565b60405180910390f35b34801561014c57600080fd5b5061016061015b366004612dd3565b610494565b6040519015158152602001610137565b34801561017c57600080fd5b5061019061018b366004612ead565b6104ae565b005b34801561019e57600080fd5b506002545b604051908152602001610137565b3480156101bd57600080fd5b506101606101cc366004612f07565b610aee565b3480156101dd57600080fd5b5060405160128152602001610137565b3480156101f957600080fd5b50610160610208366004612dd3565b610b14565b34801561021957600080fd5b506101a3610228366004612ead565b610b36565b34801561023957600080fd5b50610190610248366004612f43565b610de2565b34801561025957600080fd5b5061026d610268366004612f89565b611291565b60408051928352602083019190915201610137565b610190610290366004612f89565b6113c2565b3480156102a157600080fd5b506102aa611730565b6040516101379190612fc5565b3480156102c357600080fd5b506101a36102d2366004613027565b6001600160a01b031660009081526020819052604090205490565b3480156102f957600080fd5b5061030d610308366004612ead565b611809565b6040516101379190613042565b610190610328366004613073565b611d65565b34801561033957600080fd5b5061012a6121b5565b34801561034e57600080fd5b5061026d61035d366004612f89565b6121c4565b34801561036e57600080fd5b5061016061037d366004612dd3565b61222b565b34801561038e57600080fd5b5061016061039d366004612dd3565b6122b1565b3480156103ae57600080fd5b5061026d6103bd366004612ead565b6122bf565b3480156103ce57600080fd5b5061026d6103dd3660046130b7565b61230c565b3480156103ee57600080fd5b506101a36103fd366004613104565b6123d5565b6060600380546104119061312e565b80601f016020809104026020016040519081016040528092919081815260200182805461043d9061312e565b801561048a5780601f1061045f5761010080835404028352916020019161048a565b820191906000526020600020905b81548152906001019060200180831161046d57829003601f168201915b5050505050905090565b6000336104a2818585612400565b60019150505b92915050565b8260006007826040516104c19190613168565b90815260408051602092819003830190203360009081529252902054118015610518575060006007826040516104f79190613168565b90815260408051602092819003830190203360009081529252902060010154115b61058f5760405162461bcd60e51b815260206004820152603f60248201527f4f6e6c79207368617265686f6c64657273206f6620746865206c69717569646960448201527f747920706f6f6c2063616e2063616c6c20746869732066756e6374696f6e2e0060648201526084015b60405180910390fd5b838383806105ce57816007846040516105a89190613168565b9081526040805160209281900383019020336000908152925290206001015410156105fe565b816007846040516105df9190613168565b9081526040805160209281900383019020336000908152925290205410155b6106635760405162461bcd60e51b815260206004820152603060248201527f556e61626c6520746f207769746864726177206d6f7265207468616e2068617360448201526f103132b2b7103232b837b9b4ba32b21760811b6064820152608401610586565b6000806000876106b95760078a60405161067d9190613168565b90815260408051602092819003830190203360009081529252902060010154600b546106aa908b9061319a565b6106b491906131b1565b6106fd565b60078a6040516106c99190613168565b90815260408051602092819003830190203360009081529252902054600b546106f3908b9061319a565b6106fd91906131b1565b90508761074d57600b5460078b6040516107179190613168565b9081526040805160209281900383019020336000908152925290205461073d908361319a565b61074791906131b1565b89610794565b88600b5460078c6040516107619190613168565b9081526040805160209281900383019020336000908152925290206001015461078a908461319a565b61079491906131b1565b90935091506000806107a98c338d6001612524565b90925090506000806107bb8e336129a3565b80925081935050508160068f6040516107d49190613168565b908152602001604051809103902060080160008282546107f491906131d3565b925050819055508060068f60405161080c9190613168565b9081526020016040518091039020600901600082825461082c91906131d3565b9091555061083b905087612a3c565b61086f60078f60405161084e9190613168565b90815260408051602092819003830190203360009081529252902054612a3c565b61087886612a3c565b6108af60078f60405161088b9190613168565b90815260408051602092819003830190203360009081529252902060010154612a3c565b8660078f6040516108c09190613168565b90815260408051602092819003830190203360009081529252812080549091906108eb9084906131d3565b925050819055508560078f6040516109039190613168565b90815260408051602092819003830190203360009081529252812060010180549091906109319084906131d3565b925050819055508360068f6040516109499190613168565b9081526020016040518091039020600401600082825461096991906131d3565b925050819055508260068f6040516109819190613168565b908152602001604051809103902060050160008282546109a191906131d3565b9250508190555060068e6040516109b89190613168565b908152604051908190036020019020600301546001600160a01b031663a9059cbb336109e484876131e6565b6040518363ffffffff1660e01b8152600401610a019291906131f9565b6020604051808303816000875af1158015610a20573d6000803e3d6000fd5b505050506040513d601f19601f82011682018060405250810190610a449190613212565b50600033610a5284876131e6565b604051600081818185875af1925050503d8060008114610a8e576040519150601f19603f3d011682016040523d82523d6000602084013e610a93565b606091505b5050905080610add5760405162461bcd60e51b815260206004820152601660248201527522b93937b9103932b33ab73234b7339032ba3432b91760511b6044820152606401610586565b505050505050505050505050505050565b600033610afc858285612a84565b610b07858585612afe565b60019150505b9392505050565b6000336104a2818585610b2783836123d5565b610b3191906131e6565b612400565b600083600681604051610b499190613168565b908152604051908190036020019020600a015460ff16610b7b5760405162461bcd60e51b81526004016105869061322f565b6000600686604051610b8d9190613168565b908152602001604051809103902060405180610160016040529081600082018054610bb79061312e565b80601f0160208091040260200160405190810160405280929190818152602001828054610be39061312e565b8015610c305780601f10610c0557610100808354040283529160200191610c30565b820191906000526020600020905b815481529060010190602001808311610c1357829003601f168201915b50505050508152602001600182018054610c499061312e565b80601f0160208091040260200160405190810160405280929190818152602001828054610c759061312e565b8015610cc25780601f10610c9757610100808354040283529160200191610cc2565b820191906000526020600020905b815481529060010190602001808311610ca557829003601f168201915b505050918352505060028201546001600160a01b03908116602083015260038301541660408201526004820154606082015260058201546080820152600682015460a0820152600782015460c0820152600882015460e08201526009820154610100820152600a9182015460ff1615156101209091015254909150600090610d4a90876131b1565b905060008260a001518360800151610d62919061319a565b905085610da25781878460a00151610d7a91906131e6565b610d8491906131d3565b610d8e90826131b1565b8360800151610d9d91906131d3565b610dd6565b81878460800151610db391906131e6565b610dbd91906131d3565b610dc790826131b1565b8360a00151610dd691906131d3565b98975050505050505050565b82600681604051610df39190613168565b908152604051908190036020019020600a015460ff16610e255760405162461bcd60e51b81526004016105869061322f565b600684604051610e359190613168565b908152604051908190036020018120600301546370a0823160e01b82526001600160a01b0316908390819083906370a0823190610e7690339060040161328a565b602060405180830381865afa158015610e93573d6000803e3d6000fd5b505050506040513d601f19601f82011682018060405250810190610eb7919061329e565b1015610ed55760405162461bcd60e51b8152600401610586906132b7565b6000600687604051610ee79190613168565b908152602001604051809103902060405180610160016040529081600082018054610f119061312e565b80601f0160208091040260200160405190810160405280929190818152602001828054610f3d9061312e565b8015610f8a5780601f10610f5f57610100808354040283529160200191610f8a565b820191906000526020600020905b815481529060010190602001808311610f6d57829003601f168201915b50505050508152602001600182018054610fa39061312e565b80601f0160208091040260200160405190810160405280929190818152602001828054610fcf9061312e565b801561101c5780601f10610ff15761010080835404028352916020019161101c565b820191906000526020600020905b815481529060010190602001808311610fff57829003601f168201915b505050918352505060028201546001600160a01b03908116602083015260038301541660408201526004820154606082015260058201546080820152600682015460a0820152600782015460c0820152600882015460e08201526009820154610100820152600a9182015460ff16151561012090910152549091506000906110a490876131b1565b905060008260a0015183608001516110bc919061319a565b90506000878460a001516110d091906131e6565b905060006110de84836131d3565b6110e890846131b1565b905060008186608001516110fc91906131d3565b90508460068d60405161110f9190613168565b9081526020016040518091039020600901600082825461112f91906131e6565b925050819055508160068d6040516111479190613168565b9081526020016040518091039020600401819055508260068d60405161116d9190613168565b908152604051908190036020018120600501919091556323b872dd60e01b81526001600160a01b038c16906323b872dd906111b090339030908f906004016132ea565b6020604051808303816000875af11580156111cf573d6000803e3d6000fd5b505050506040513d601f19601f820116820180604052508101906111f39190613212565b50604051600090339083908381818185875af1925050503d8060008114611236576040519150601f19603f3d011682016040523d82523d6000602084013e61123b565b606091505b50509050806112825760405162461bcd60e51b815260206004820152601360248201527221b7bab632103737ba1039b2b7321032ba341760691b6044820152606401610586565b50505050505050505050505050565b60008060008060005b6008866040516112aa9190613168565b908152604051908190036020019020546001600160801b03821610156113b75760006008876040516112dc9190613168565b9081526020016040518091039020826001600160801b0316815481106113045761130461330e565b6000918252602090912001546040516001600160a01b03909116915060079061132e908990613168565b90815260408051602092819003830190206001600160a01b0384166000908152925290205461135d90856131e6565b935060078760405161136f9190613168565b90815260408051602092819003830190206001600160a01b038416600090815292529020600101546113a190846131e6565b92505080806113af90613324565b91505061129a565b509094909350915050565b806006816040516113d39190613168565b908152604051908190036020019020600a015460ff166114055760405162461bcd60e51b81526004016105869061322f565b60006006836040516114179190613168565b9081526020016040518091039020604051806101600160405290816000820180546114419061312e565b80601f016020809104026020016040519081016040528092919081815260200182805461146d9061312e565b80156114ba5780601f1061148f576101008083540402835291602001916114ba565b820191906000526020600020905b81548152906001019060200180831161149d57829003601f168201915b505050505081526020016001820180546114d39061312e565b80601f01602080910402602001604051908101604052809291908181526020018280546114ff9061312e565b801561154c5780601f106115215761010080835404028352916020019161154c565b820191906000526020600020905b81548152906001019060200180831161152f57829003601f168201915b505050918352505060028201546001600160a01b03908116602083015260038301541660408201526004820154606082015260058201546080820152600682015460a0820152600782015460c0820152600882015460e08201526009820154610100820152600a9182015460ff16151561012090910152549091506000906115d490346131b1565b905060008260a0015183608001516115ec919061319a565b9050600034846080015161160091906131e6565b9050600061160e84836131d3565b61161890846131b1565b90506000818660a0015161162c91906131d3565b90508460068960405161163f9190613168565b9081526020016040518091039020600801600082825461165f91906131e6565b92505081905550826006896040516116779190613168565b9081526020016040518091039020600401819055508160068960405161169d9190613168565b90815260405190819003602001812060050191909155606087015163a9059cbb60e01b82526001600160a01b03169063a9059cbb906116e290339085906004016131f9565b6020604051808303816000875af1158015611701573d6000803e3d6000fd5b505050506040513d601f19601f820116820180604052508101906117259190613212565b505050505050505050565b60606009805480602002602001604051908101604052809291908181526020016000905b828210156118005783829060005260206000200180546117739061312e565b80601f016020809104026020016040519081016040528092919081815260200182805461179f9061312e565b80156117ec5780601f106117c1576101008083540402835291602001916117ec565b820191906000526020600020905b8154815290600101906020018083116117cf57829003601f168201915b505050505081526020019060010190611754565b50505050905090565b611811612d36565b60006006856040516118239190613168565b90815260200160405180910390206040518061016001604052908160008201805461184d9061312e565b80601f01602080910402602001604051908101604052809291908181526020018280546118799061312e565b80156118c65780601f1061189b576101008083540402835291602001916118c6565b820191906000526020600020905b8154815290600101906020018083116118a957829003601f168201915b505050505081526020016001820180546118df9061312e565b80601f016020809104026020016040519081016040528092919081815260200182805461190b9061312e565b80156119585780601f1061192d57610100808354040283529160200191611958565b820191906000526020600020905b81548152906001019060200180831161193b57829003601f168201915b505050918352505060028201546001600160a01b03908116602083015260038301541660408201526004820154606082015260058201546080820152600682015460a0820152600782015460c0820152600882015460e08201526009820154610100820152600a9091015460ff1615156101209091015290506119da85612ccc565b611c475782611b135760408051808201808352600b54600554938501516341976e0960e01b909252919283929188916001600160a01b0316906341976e0990611a26906044870161328a565b602060405180830381865afa158015611a43573d6000803e3d6000fd5b505050506040513d601f19601f82011682018060405250810190611a67919061329e565b60055460608701516040516341976e0960e01b81526001600160a01b03909216916341976e0991611a9a9160040161328a565b602060405180830381865afa158015611ab7573d6000803e3d6000fd5b505050506040513d601f19601f82011682018060405250810190611adb919061329e565b600b54611ae8919061319a565b611af291906131b1565b611afc919061319a565b611b0691906131b1565b8152602001859052611c3f565b604080518082018252858152600b54600554606085015193516341976e0960e01b81529293602085019389926001600160a01b0316916341976e0991611b5c919060040161328a565b602060405180830381865afa158015611b79573d6000803e3d6000fd5b505050506040513d601f19601f82011682018060405250810190611b9d919061329e565b60055460408088015190516341976e0960e01b81526001600160a01b03909216916341976e0991611bd09160040161328a565b602060405180830381865afa158015611bed573d6000803e3d6000fd5b505050506040513d601f19601f82011682018060405250810190611c11919061329e565b600b54611c1e919061319a565b611c2891906131b1565b611c32919061319a565b611c3c91906131b1565b90525b915050610b0d565b8215611cd95760008160c001518260e00151600b54611c66919061319a565b611c7091906131b1565b90506000600b54600b548460a00151611c89919061319a565b83888660800151611c9a91906131e6565b611ca4919061319a565b611cae91906131d3565b611cb891906131b1565b90506040518060400160405280878152602001828152509350505050610b0d565b60008160e001518260c00151600b54611cf2919061319a565b611cfc91906131b1565b90506000600b54600b548460800151611d15919061319a565b83888660a00151611d2691906131e6565b611d30919061319a565b611d3a91906131d3565b611d4491906131b1565b90506040518060400160405280828152602001878152509350505050610b0d565b81600681604051611d769190613168565b908152604051908190036020019020600a015460ff16611da85760405162461bcd60e51b81526004016105869061322f565b600683604051611db89190613168565b908152604051908190036020018120600301546370a0823160e01b82526001600160a01b0316908390819083906370a0823190611df990339060040161328a565b602060405180830381865afa158015611e16573d6000803e3d6000fd5b505050506040513d601f19601f82011682018060405250810190611e3a919061329e565b1015611e585760405162461bcd60e51b8152600401610586906132b7565b6000611e6686346001611809565b6020015190506402540be400611e84611e7f8784613352565b612cf9565b10611f015760405162461bcd60e51b815260206004820152604160248201527f416d6f756e7420696e736572746564206973206e6f742068656c70696e67207460448201527f686520706f6f6c2067657420746f20657175696c69627269756d2073746174656064820152601760f91b608482015260a401610586565b600686604051611f119190613168565b908152604051908190036020018120600301546323b872dd60e01b82526001600160a01b0316906323b872dd90611f5090339030908a906004016132ea565b6020604051808303816000875af1158015611f6f573d6000803e3d6000fd5b505050506040513d601f19601f82011682018060405250810190611f939190613212565b5034600687604051611fa59190613168565b90815260200160405180910390206004016000828254611fc591906131e6565b9250508190555084600687604051611fdd9190613168565b90815260200160405180910390206005016000828254611ffd91906131e6565b9091555050604051600790612013908890613168565b9081526040805160209281900383019020336000908152925290205415801561206857506007866040516120479190613168565b90815260408051602092819003830190203360009081529252902060010154155b156120b15760088660405161207d9190613168565b908152604051908190036020908101909120805460018101825560009182529190200180546001600160a01b031916331790555b346007876040516120c29190613168565b90815260408051602092819003830190203360009081529252812080549091906120ed9084906131e6565b92505081905550846007876040516121059190613168565b90815260408051602092819003830190203360009081529252812060010180549091906121339084906131e6565b9091555050604051600690612149908890613168565b9081526020016040518091039020600601546000036121ad57346006876040516121739190613168565b908152602001604051809103902060060181905550846006876040516121999190613168565b908152604051908190036020019020600701555b505050505050565b6060600480546104119061312e565b6000806007836040516121d79190613168565b9081526040805191829003602090810183203360009081529152205490600790612202908690613168565b908152604080516020928190038301902033600090815292529020600101549094909350915050565b6000338161223982866123d5565b9050838110156122995760405162461bcd60e51b815260206004820152602560248201527f45524332303a2064656372656173656420616c6c6f77616e63652062656c6f77604482015264207a65726f60d81b6064820152608401610586565b6122a68286868403612400565b506001949350505050565b6000336104a2818585612afe565b6000806000806122d187338888612524565b90925090506000806122e389336129a3565b90925090506122f282856131e6565b6122fc82856131e6565b9550955050505050935093915050565b60008060008061231b86611291565b80925081935050506000826007886040516123369190613168565b90815260408051602092819003830190206001600160a01b038a1660009081529252902054600b54612368919061319a565b61237291906131b1565b90506000826007896040516123879190613168565b90815260408051602092819003830190206001600160a01b038b1660009081529252902060010154600b546123bc919061319a565b6123c691906131b1565b91989197509095505050505050565b6001600160a01b03918216600090815260016020908152604080832093909416825291909152205490565b6001600160a01b0383166124625760405162461bcd60e51b8152602060048201526024808201527f45524332303a20617070726f76652066726f6d20746865207a65726f206164646044820152637265737360e01b6064820152608401610586565b6001600160a01b0382166124c35760405162461bcd60e51b815260206004820152602260248201527f45524332303a20617070726f766520746f20746865207a65726f206164647265604482015261737360f01b6064820152608401610586565b6001600160a01b0383811660008181526001602090815260408083209487168084529482529182902085905590518481527f8c5be1e5ebec7d5bd14f71427d1e84f3dd0314c0f7b2291e5b200ac8c7c3b925910160405180910390a3505050565b60008060006006876040516125399190613168565b90815260200160405180910390206006015460068860405161255b9190613168565b908152602001604051809103902060070154600b5461257a919061319a565b61258491906131b1565b905060006006886040516125989190613168565b9081526020016040518091039020600701546006896040516125ba9190613168565b908152602001604051809103902060060154600b546125d9919061319a565b6125e391906131b1565b90506000808661260a57600b546125fa848a61319a565b61260491906131b1565b88612623565b600b548890612619868361319a565b61262391906131b1565b6040519193509150829060069061263b908d90613168565b90815260200160405180910390206004015410156127df5760006126858360068d6040516126699190613168565b908152602001604051809103902060040154611e7f9190613352565b905060068b6040516126979190613168565b90815260200160405180910390206004015492506000886127075760078c6040516126c29190613168565b90815260408051602092819003830190206001600160a01b038e1660009081529252902060010154600b546126f8908c9061319a565b61270291906131b1565b612754565b60078c6040516127179190613168565b90815260408051602092819003830190206001600160a01b038e1660009081529252902054600b5461274a908c9061319a565b61275491906131b1565b90506000600b5460078e60405161276b9190613168565b908152602001604051809103902060008e6001600160a01b03166001600160a01b0316815260200190815260200160002060010154836127ab919061319a565b6127b591906131b1565b600b549091506127c5888561319a565b6127cf91906131b1565b6127d990826131e6565b93505050505b8060068b6040516127f09190613168565b908152602001604051809103902060050154101561299457600061283a8260068d60405161281e9190613168565b908152602001604051809103902060050154611e7f9190613352565b905060068b60405161284c9190613168565b90815260200160405180910390206005015491506000886128bc5760078c6040516128779190613168565b90815260408051602092819003830190206001600160a01b038e1660009081529252902060010154600b546128ad908c9061319a565b6128b791906131b1565b612909565b60078c6040516128cc9190613168565b90815260408051602092819003830190206001600160a01b038e1660009081529252902054600b546128ff908c9061319a565b61290991906131b1565b90506000600b5460078e6040516129209190613168565b908152602001604051809103902060008e6001600160a01b03166001600160a01b031681526020019081526020016000206000015483612960919061319a565b61296a91906131b1565b600b5490915061297a878561319a565b61298491906131b1565b61298e90826131e6565b94505050505b90999098509650505050505050565b6000806000806129b3868661230c565b8092508193505050600b54826006886040516129cf9190613168565b9081526020016040518091039020600801546129eb919061319a565b6129f591906131b1565b600b5482600689604051612a099190613168565b908152602001604051809103902060090154612a25919061319a565b612a2f91906131b1565b9350935050509250929050565b612a8181604051602401612a5291815260200190565b60408051601f198184030181529190526020810180516001600160e01b031663f82c50f160e01b179052612d15565b50565b6000612a9084846123d5565b90506000198114612af85781811015612aeb5760405162461bcd60e51b815260206004820152601d60248201527f45524332303a20696e73756666696369656e7420616c6c6f77616e63650000006044820152606401610586565b612af88484848403612400565b50505050565b6001600160a01b038316612b625760405162461bcd60e51b815260206004820152602560248201527f45524332303a207472616e736665722066726f6d20746865207a65726f206164604482015264647265737360d81b6064820152608401610586565b6001600160a01b038216612bc45760405162461bcd60e51b815260206004820152602360248201527f45524332303a207472616e7366657220746f20746865207a65726f206164647260448201526265737360e81b6064820152608401610586565b6001600160a01b03831660009081526020819052604090205481811015612c3c5760405162461bcd60e51b815260206004820152602660248201527f45524332303a207472616e7366657220616d6f756e7420657863656564732062604482015265616c616e636560d01b6064820152608401610586565b6001600160a01b03808516600090815260208190526040808220858503905591851681529081208054849290612c739084906131e6565b92505081905550826001600160a01b0316846001600160a01b03167fddf252ad1be2c89b69c2b068fc378daa952ba7f163c4a11628f55a4df523b3ef84604051612cbf91815260200190565b60405180910390a3612af8565b6000600682604051612cde9190613168565b90815260405190819003602001902060060154151592915050565b600080821215612d1157612d0c82613379565b6104a8565b5090565b80516a636f6e736f6c652e6c6f67602083016000808483855afa5050505050565b60405180604001604052806002906020820280368337509192915050565b60005b83811015612d6f578181015183820152602001612d57565b50506000910152565b60008151808452612d90816020860160208601612d54565b601f01601f19169290920160200192915050565b602081526000610b0d6020830184612d78565b80356001600160a01b0381168114612dce57600080fd5b919050565b60008060408385031215612de657600080fd5b612def83612db7565b946020939093013593505050565b634e487b7160e01b600052604160045260246000fd5b600082601f830112612e2457600080fd5b81356001600160401b0380821115612e3e57612e3e612dfd565b604051601f8301601f19908116603f01168101908282118183101715612e6657612e66612dfd565b81604052838152866020858801011115612e7f57600080fd5b836020870160208301376000602085830101528094505050505092915050565b8015158114612a8157600080fd5b600080600060608486031215612ec257600080fd5b83356001600160401b03811115612ed857600080fd5b612ee486828701612e13565b935050602084013591506040840135612efc81612e9f565b809150509250925092565b600080600060608486031215612f1c57600080fd5b612f2584612db7565b9250612f3360208501612db7565b9150604084013590509250925092565b600080600060608486031215612f5857600080fd5b83356001600160401b03811115612f6e57600080fd5b612f7a86828701612e13565b935050612f3360208501612db7565b600060208284031215612f9b57600080fd5b81356001600160401b03811115612fb157600080fd5b612fbd84828501612e13565b949350505050565b6000602080830181845280855180835260408601915060408160051b870101925083870160005b8281101561301a57603f19888603018452613008858351612d78565b94509285019290850190600101612fec565b5092979650505050505050565b60006020828403121561303957600080fd5b610b0d82612db7565b60408101818360005b600281101561306a57815183526020928301929091019060010161304b565b50505092915050565b6000806040838503121561308657600080fd5b82356001600160401b0381111561309c57600080fd5b6130a885828601612e13565b95602094909401359450505050565b600080604083850312156130ca57600080fd5b82356001600160401b038111156130e057600080fd5b6130ec85828601612e13565b9250506130fb60208401612db7565b90509250929050565b6000806040838503121561311757600080fd5b61312083612db7565b91506130fb60208401612db7565b600181811c9082168061314257607f821691505b60208210810361316257634e487b7160e01b600052602260045260246000fd5b50919050565b6000825161317a818460208701612d54565b9190910192915050565b634e487b7160e01b600052601160045260246000fd5b80820281158282048414176104a8576104a8613184565b6000826131ce57634e487b7160e01b600052601260045260246000fd5b500490565b818103818111156104a8576104a8613184565b808201808211156104a8576104a8613184565b6001600160a01b03929092168252602082015260400190565b60006020828403121561322457600080fd5b8151610b0d81612e9f565b6020808252603b908201527f5468657265206973206e6f207375636820746f6b656e20636f6e74726163742060408201527a2ca2aa103232b83637bcb2b21034b71037bab91039bcb9ba32b69760291b606082015260800190565b6001600160a01b0391909116815260200190565b6000602082840312156132b057600080fd5b5051919050565b60208082526019908201527824b739bab33334b1b4b2b73a1022a921991810333ab732399760391b604082015260600190565b6001600160a01b039384168152919092166020820152604081019190915260600190565b634e487b7160e01b600052603260045260246000fd5b60006001600160801b038281166002600160801b0319810161334857613348613184565b6001019392505050565b818103600083128015838313168383128216171561337257613372613184565b5092915050565b6000600160ff1b820161338e5761338e613184565b506000039056fea2646970667358221220a0b38860c95bd2099d996e99385ca7c297e20b48fcd51061bf2b83f68bfe468c64736f6c63430008110033",
  "devdoc": {
    "kind": "dev",
    "methods": {
      "allowance(address,address)": {
        "details": "See {IERC20-allowance}."
      },
      "approve(address,uint256)": {
        "details": "See {IERC20-approve}. NOTE: If `amount` is the maximum `uint256`, the allowance is not updated on `transferFrom`. This is semantically equivalent to an infinite approval. Requirements: - `spender` cannot be the zero address."
      },
      "balanceOf(address)": {
        "details": "See {IERC20-balanceOf}."
      },
      "decimals()": {
        "details": "Returns the number of decimals used to get its user representation. For example, if `decimals` equals `2`, a balance of `505` tokens should be displayed to a user as `5.05` (`505 / 10 ** 2`). Tokens usually opt for a value of 18, imitating the relationship between Ether and Wei. This is the value {ERC20} uses, unless this function is overridden; NOTE: This information is only used for _display_ purposes: it in no way affects any of the arithmetic of the contract, including {IERC20-balanceOf} and {IERC20-transfer}."
      },
      "decreaseAllowance(address,uint256)": {
        "details": "Atomically decreases the allowance granted to `spender` by the caller. This is an alternative to {approve} that can be used as a mitigation for problems described in {IERC20-approve}. Emits an {Approval} event indicating the updated allowance. Requirements: - `spender` cannot be the zero address. - `spender` must have allowance for the caller of at least `subtractedValue`."
      },
      "increaseAllowance(address,uint256)": {
        "details": "Atomically increases the allowance granted to `spender` by the caller. This is an alternative to {approve} that can be used as a mitigation for problems described in {IERC20-approve}. Emits an {Approval} event indicating the updated allowance. Requirements: - `spender` cannot be the zero address."
      },
      "name()": {
        "details": "Returns the name of the token."
      },
      "symbol()": {
        "details": "Returns the symbol of the token, usually a shorter version of the name."
      },
      "totalSupply()": {
        "details": "See {IERC20-totalSupply}."
      },
      "transfer(address,uint256)": {
        "details": "See {IERC20-transfer}. Requirements: - `to` cannot be the zero address. - the caller must have a balance of at least `amount`."
      },
      "transferFrom(address,address,uint256)": {
        "details": "See {IERC20-transferFrom}. Emits an {Approval} event indicating the updated allowance. This is not required by the EIP. See the note at the beginning of {ERC20}. NOTE: Does not update the allowance if the current allowance is the maximum `uint256`. Requirements: - `from` and `to` cannot be the zero address. - `from` must have a balance of at least `amount`. - the caller must have allowance for ``from``'s tokens of at least `amount`."
      }
    },
    "version": 1
  },
  "userdoc": {
    "kind": "user",
    "methods": {},
    "version": 1
  },
  "storageLayout": {
    "storage": [
      {
        "astId": 118,
        "contract": "contracts/EthToERC20.sol:EthToERC20",
        "label": "_balances",
        "offset": 0,
        "slot": "0",
        "type": "t_mapping(t_address,t_uint256)"
      },
      {
        "astId": 124,
        "contract": "contracts/EthToERC20.sol:EthToERC20",
        "label": "_allowances",
        "offset": 0,
        "slot": "1",
        "type": "t_mapping(t_address,t_mapping(t_address,t_uint256))"
      },
      {
        "astId": 126,
        "contract": "contracts/EthToERC20.sol:EthToERC20",
        "label": "_totalSupply",
        "offset": 0,
        "slot": "2",
        "type": "t_uint256"
      },
      {
        "astId": 128,
        "contract": "contracts/EthToERC20.sol:EthToERC20",
        "label": "_name",
        "offset": 0,
        "slot": "3",
        "type": "t_string_storage"
      },
      {
        "astId": 130,
        "contract": "contracts/EthToERC20.sol:EthToERC20",
        "label": "_symbol",
        "offset": 0,
        "slot": "4",
        "type": "t_string_storage"
      },
      {
        "astId": 1050,
        "contract": "contracts/EthToERC20.sol:EthToERC20",
        "label": "priceFeed",
        "offset": 0,
        "slot": "5",
        "type": "t_contract(PriceFeed)2761"
      },
      {
        "astId": 1055,
        "contract": "contracts/EthToERC20.sol:EthToERC20",
        "label": "tokenPools",
        "offset": 0,
        "slot": "6",
        "type": "t_mapping(t_string_memory_ptr,t_struct(PairPool)1102_storage)"
      },
      {
        "astId": 1062,
        "contract": "contracts/EthToERC20.sol:EthToERC20",
        "label": "liquidityShares",
        "offset": 0,
        "slot": "7",
        "type": "t_mapping(t_string_memory_ptr,t_mapping(t_address,t_struct(LiquidityShare)1079_storage))"
      },
      {
        "astId": 1067,
        "contract": "contracts/EthToERC20.sol:EthToERC20",
        "label": "liquidityProviders",
        "offset": 0,
        "slot": "8",
        "type": "t_mapping(t_string_memory_ptr,t_array(t_address)dyn_storage)"
      },
      {
        "astId": 1070,
        "contract": "contracts/EthToERC20.sol:EthToERC20",
        "label": "pools",
        "offset": 0,
        "slot": "9",
        "type": "t_array(t_string_storage)dyn_storage"
      },
      {
        "astId": 1072,
        "contract": "contracts/EthToERC20.sol:EthToERC20",
        "label": "feeDivisor",
        "offset": 0,
        "slot": "10",
        "type": "t_uint256"
      },
      {
        "astId": 1074,
        "contract": "contracts/EthToERC20.sol:EthToERC20",
        "label": "precisionMult",
        "offset": 0,
        "slot": "11",
        "type": "t_uint256"
      }
    ],
    "types": {
      "t_address": {
        "encoding": "inplace",
        "label": "address",
        "numberOfBytes": "20"
      },
      "t_array(t_address)dyn_storage": {
        "base": "t_address",
        "encoding": "dynamic_array",
        "label": "address[]",
        "numberOfBytes": "32"
      },
      "t_array(t_string_storage)dyn_storage": {
        "base": "t_string_storage",
        "encoding": "dynamic_array",
        "label": "string[]",
        "numberOfBytes": "32"
      },
      "t_bool": {
        "encoding": "inplace",
        "label": "bool",
        "numberOfBytes": "1"
      },
      "t_contract(PriceFeed)2761": {
        "encoding": "inplace",
        "label": "contract PriceFeed",
        "numberOfBytes": "20"
      },
      "t_mapping(t_address,t_mapping(t_address,t_uint256))": {
        "encoding": "mapping",
        "key": "t_address",
        "label": "mapping(address => mapping(address => uint256))",
        "numberOfBytes": "32",
        "value": "t_mapping(t_address,t_uint256)"
      },
      "t_mapping(t_address,t_struct(LiquidityShare)1079_storage)": {
        "encoding": "mapping",
        "key": "t_address",
        "label": "mapping(address => struct EthToERC20.LiquidityShare)",
        "numberOfBytes": "32",
        "value": "t_struct(LiquidityShare)1079_storage"
      },
      "t_mapping(t_address,t_uint256)": {
        "encoding": "mapping",
        "key": "t_address",
        "label": "mapping(address => uint256)",
        "numberOfBytes": "32",
        "value": "t_uint256"
      },
      "t_mapping(t_string_memory_ptr,t_array(t_address)dyn_storage)": {
        "encoding": "mapping",
        "key": "t_string_memory_ptr",
        "label": "mapping(string => address[])",
        "numberOfBytes": "32",
        "value": "t_array(t_address)dyn_storage"
      },
      "t_mapping(t_string_memory_ptr,t_mapping(t_address,t_struct(LiquidityShare)1079_storage))": {
        "encoding": "mapping",
        "key": "t_string_memory_ptr",
        "label": "mapping(string => mapping(address => struct EthToERC20.LiquidityShare))",
        "numberOfBytes": "32",
        "value": "t_mapping(t_address,t_struct(LiquidityShare)1079_storage)"
      },
      "t_mapping(t_string_memory_ptr,t_struct(PairPool)1102_storage)": {
        "encoding": "mapping",
        "key": "t_string_memory_ptr",
        "label": "mapping(string => struct EthToERC20.PairPool)",
        "numberOfBytes": "32",
        "value": "t_struct(PairPool)1102_storage"
      },
      "t_string_memory_ptr": {
        "encoding": "bytes",
        "label": "string",
        "numberOfBytes": "32"
      },
      "t_string_storage": {
        "encoding": "bytes",
        "label": "string",
        "numberOfBytes": "32"
      },
      "t_struct(LiquidityShare)1079_storage": {
        "encoding": "inplace",
        "label": "struct EthToERC20.LiquidityShare",
        "members": [
          {
            "astId": 1076,
            "contract": "contracts/EthToERC20.sol:EthToERC20",
            "label": "t1Amount",
            "offset": 0,
            "slot": "0",
            "type": "t_uint256"
          },
          {
            "astId": 1078,
            "contract": "contracts/EthToERC20.sol:EthToERC20",
            "label": "t2Amount",
            "offset": 0,
            "slot": "1",
            "type": "t_uint256"
          }
        ],
        "numberOfBytes": "64"
      },
      "t_struct(PairPool)1102_storage": {
        "encoding": "inplace",
        "label": "struct EthToERC20.PairPool",
        "members": [
          {
            "astId": 1081,
            "contract": "contracts/EthToERC20.sol:EthToERC20",
            "label": "token1",
            "offset": 0,
            "slot": "0",
            "type": "t_string_storage"
          },
          {
            "astId": 1083,
            "contract": "contracts/EthToERC20.sol:EthToERC20",
            "label": "token2",
            "offset": 0,
            "slot": "1",
            "type": "t_string_storage"
          },
          {
            "astId": 1085,
            "contract": "contracts/EthToERC20.sol:EthToERC20",
            "label": "token1Con",
            "offset": 0,
            "slot": "2",
            "type": "t_address"
          },
          {
            "astId": 1087,
            "contract": "contracts/EthToERC20.sol:EthToERC20",
            "label": "token2Con",
            "offset": 0,
            "slot": "3",
            "type": "t_address"
          },
          {
            "astId": 1089,
            "contract": "contracts/EthToERC20.sol:EthToERC20",
            "label": "token1Amount",
            "offset": 0,
            "slot": "4",
            "type": "t_uint256"
          },
          {
            "astId": 1091,
            "contract": "contracts/EthToERC20.sol:EthToERC20",
            "label": "token2Amount",
            "offset": 0,
            "slot": "5",
            "type": "t_uint256"
          },
          {
            "astId": 1093,
            "contract": "contracts/EthToERC20.sol:EthToERC20",
            "label": "token1Seed",
            "offset": 0,
            "slot": "6",
            "type": "t_uint256"
          },
          {
            "astId": 1095,
            "contract": "contracts/EthToERC20.sol:EthToERC20",
            "label": "token2Seed",
            "offset": 0,
            "slot": "7",
            "type": "t_uint256"
          },
          {
            "astId": 1097,
            "contract": "contracts/EthToERC20.sol:EthToERC20",
            "label": "t1Fees",
            "offset": 0,
            "slot": "8",
            "type": "t_uint256"
          },
          {
            "astId": 1099,
            "contract": "contracts/EthToERC20.sol:EthToERC20",
            "label": "t2Fees",
            "offset": 0,
            "slot": "9",
            "type": "t_uint256"
          },
          {
            "astId": 1101,
            "contract": "contracts/EthToERC20.sol:EthToERC20",
            "label": "created",
            "offset": 0,
            "slot": "10",
            "type": "t_bool"
          }
        ],
        "numberOfBytes": "352"
      },
      "t_uint256": {
        "encoding": "inplace",
        "label": "uint256",
        "numberOfBytes": "32"
      }
    }
  }
}