{
  "address": "0x5eb3Bc0a489C5A8288765d2336659EbCA68FCd00",
  "abi": [
    {
      "inputs": [],
      "stateMutability": "nonpayable",
      "type": "constructor"
    },
    {
      "anonymous": false,
      "inputs": [
        {
          "indexed": true,
          "internalType": "address",
          "name": "owner",
          "type": "address"
        },
        {
          "indexed": true,
          "internalType": "address",
          "name": "spender",
          "type": "address"
        },
        {
          "indexed": false,
          "internalType": "uint256",
          "name": "value",
          "type": "uint256"
        }
      ],
      "name": "Approval",
      "type": "event"
    },
    {
      "anonymous": false,
      "inputs": [
        {
          "indexed": true,
          "internalType": "address",
          "name": "from",
          "type": "address"
        },
        {
          "indexed": true,
          "internalType": "address",
          "name": "to",
          "type": "address"
        },
        {
          "indexed": false,
          "internalType": "uint256",
          "name": "value",
          "type": "uint256"
        }
      ],
      "name": "Transfer",
      "type": "event"
    },
    {
      "inputs": [
        {
          "internalType": "string",
          "name": "_pair",
          "type": "string"
        },
        {
          "internalType": "address",
          "name": "_tokenContract",
          "type": "address"
        },
        {
          "internalType": "uint256",
          "name": "_tokenAmount",
          "type": "uint256"
        }
      ],
      "name": "Erc20ToEthSwap",
      "outputs": [],
      "stateMutability": "nonpayable",
      "type": "function"
    },
    {
      "inputs": [
        {
          "internalType": "address",
          "name": "owner",
          "type": "address"
        },
        {
          "internalType": "address",
          "name": "spender",
          "type": "address"
        }
      ],
      "name": "allowance",
      "outputs": [
        {
          "internalType": "uint256",
          "name": "",
          "type": "uint256"
        }
      ],
      "stateMutability": "view",
      "type": "function"
    },
    {
      "inputs": [
        {
          "internalType": "address",
          "name": "spender",
          "type": "address"
        },
        {
          "internalType": "uint256",
          "name": "amount",
          "type": "uint256"
        }
      ],
      "name": "approve",
      "outputs": [
        {
          "internalType": "bool",
          "name": "",
          "type": "bool"
        }
      ],
      "stateMutability": "nonpayable",
      "type": "function"
    },
    {
      "inputs": [
        {
          "internalType": "address",
          "name": "account",
          "type": "address"
        }
      ],
      "name": "balanceOf",
      "outputs": [
        {
          "internalType": "uint256",
          "name": "",
          "type": "uint256"
        }
      ],
      "stateMutability": "view",
      "type": "function"
    },
    {
      "inputs": [],
      "name": "decimals",
      "outputs": [
        {
          "internalType": "uint8",
          "name": "",
          "type": "uint8"
        }
      ],
      "stateMutability": "view",
      "type": "function"
    },
    {
      "inputs": [
        {
          "internalType": "address",
          "name": "spender",
          "type": "address"
        },
        {
          "internalType": "uint256",
          "name": "subtractedValue",
          "type": "uint256"
        }
      ],
      "name": "decreaseAllowance",
      "outputs": [
        {
          "internalType": "bool",
          "name": "",
          "type": "bool"
        }
      ],
      "stateMutability": "nonpayable",
      "type": "function"
    },
    {
      "inputs": [
        {
          "internalType": "string",
          "name": "_pair",
          "type": "string"
        },
        {
          "internalType": "uint256",
          "name": "_tokenAmount",
          "type": "uint256"
        }
      ],
      "name": "depositEthToErc",
      "outputs": [],
      "stateMutability": "payable",
      "type": "function"
    },
    {
      "inputs": [
        {
          "internalType": "string",
          "name": "_pair",
          "type": "string"
        },
        {
          "internalType": "uint256",
          "name": "_tokenAmount",
          "type": "uint256"
        },
        {
          "internalType": "bool",
          "name": "_t1ToT2",
          "type": "bool"
        }
      ],
      "name": "estimateEthToErcDeposit",
      "outputs": [
        {
          "internalType": "uint256[2]",
          "name": "",
          "type": "uint256[2]"
        }
      ],
      "stateMutability": "view",
      "type": "function"
    },
    {
      "inputs": [
        {
          "internalType": "string",
          "name": "_pair",
          "type": "string"
        },
        {
          "internalType": "uint256",
          "name": "_tokenAmount",
          "type": "uint256"
        },
        {
          "internalType": "bool",
          "name": "_t1ToT2",
          "type": "bool"
        }
      ],
      "name": "estimateWithdrawAmounts",
      "outputs": [
        {
          "internalType": "uint256",
          "name": "",
          "type": "uint256"
        },
        {
          "internalType": "uint256",
          "name": "",
          "type": "uint256"
        }
      ],
      "stateMutability": "view",
      "type": "function"
    },
    {
      "inputs": [
        {
          "internalType": "string",
          "name": "_pair",
          "type": "string"
        }
      ],
      "name": "ethToErc20Swap",
      "outputs": [],
      "stateMutability": "payable",
      "type": "function"
    },
    {
      "inputs": [
        {
          "internalType": "string",
          "name": "_pair",
          "type": "string"
        },
        {
          "internalType": "uint256",
          "name": "_amount",
          "type": "uint256"
        },
        {
          "internalType": "bool",
          "name": "_t1ToT2",
          "type": "bool"
        }
      ],
      "name": "ethToErcWithdraw",
      "outputs": [],
      "stateMutability": "nonpayable",
      "type": "function"
    },
    {
      "inputs": [
        {
          "internalType": "string",
          "name": "_pair",
          "type": "string"
        },
        {
          "internalType": "address",
          "name": "_user",
          "type": "address"
        }
      ],
      "name": "getLpShare",
      "outputs": [
        {
          "internalType": "uint256",
          "name": "",
          "type": "uint256"
        },
        {
          "internalType": "uint256",
          "name": "",
          "type": "uint256"
        }
      ],
      "stateMutability": "view",
      "type": "function"
    },
    {
      "inputs": [
        {
          "internalType": "string",
          "name": "_pair",
          "type": "string"
        }
      ],
      "name": "getPoolDeposits",
      "outputs": [
        {
          "internalType": "uint256",
          "name": "",
          "type": "uint256"
        },
        {
          "internalType": "uint256",
          "name": "",
          "type": "uint256"
        }
      ],
      "stateMutability": "view",
      "type": "function"
    },
    {
      "inputs": [],
      "name": "getPools",
      "outputs": [
        {
          "internalType": "string[]",
          "name": "",
          "type": "string[]"
        }
      ],
      "stateMutability": "view",
      "type": "function"
    },
    {
      "inputs": [
        {
          "internalType": "string",
          "name": "_pair",
          "type": "string"
        },
        {
          "internalType": "uint256",
          "name": "_tokenAmount",
          "type": "uint256"
        },
        {
          "internalType": "bool",
          "name": "_t1ToT2",
          "type": "bool"
        }
      ],
      "name": "getRelativePrice",
      "outputs": [
        {
          "internalType": "uint256",
          "name": "",
          "type": "uint256"
        }
      ],
      "stateMutability": "view",
      "type": "function"
    },
    {
      "inputs": [
        {
          "internalType": "string",
          "name": "_pair",
          "type": "string"
        }
      ],
      "name": "getUserDeposits",
      "outputs": [
        {
          "internalType": "uint256",
          "name": "",
          "type": "uint256"
        },
        {
          "internalType": "uint256",
          "name": "",
          "type": "uint256"
        }
      ],
      "stateMutability": "view",
      "type": "function"
    },
    {
      "inputs": [
        {
          "internalType": "address",
          "name": "spender",
          "type": "address"
        },
        {
          "internalType": "uint256",
          "name": "addedValue",
          "type": "uint256"
        }
      ],
      "name": "increaseAllowance",
      "outputs": [
        {
          "internalType": "bool",
          "name": "",
          "type": "bool"
        }
      ],
      "stateMutability": "nonpayable",
      "type": "function"
    },
    {
      "inputs": [],
      "name": "name",
      "outputs": [
        {
          "internalType": "string",
          "name": "",
          "type": "string"
        }
      ],
      "stateMutability": "view",
      "type": "function"
    },
    {
      "inputs": [],
      "name": "symbol",
      "outputs": [
        {
          "internalType": "string",
          "name": "",
          "type": "string"
        }
      ],
      "stateMutability": "view",
      "type": "function"
    },
    {
      "inputs": [],
      "name": "totalSupply",
      "outputs": [
        {
          "internalType": "uint256",
          "name": "",
          "type": "uint256"
        }
      ],
      "stateMutability": "view",
      "type": "function"
    },
    {
      "inputs": [
        {
          "internalType": "address",
          "name": "to",
          "type": "address"
        },
        {
          "internalType": "uint256",
          "name": "amount",
          "type": "uint256"
        }
      ],
      "name": "transfer",
      "outputs": [
        {
          "internalType": "bool",
          "name": "",
          "type": "bool"
        }
      ],
      "stateMutability": "nonpayable",
      "type": "function"
    },
    {
      "inputs": [
        {
          "internalType": "address",
          "name": "from",
          "type": "address"
        },
        {
          "internalType": "address",
          "name": "to",
          "type": "address"
        },
        {
          "internalType": "uint256",
          "name": "amount",
          "type": "uint256"
        }
      ],
      "name": "transferFrom",
      "outputs": [
        {
          "internalType": "bool",
          "name": "",
          "type": "bool"
        }
      ],
      "stateMutability": "nonpayable",
      "type": "function"
    },
    {
      "stateMutability": "payable",
      "type": "receive"
    }
  ],
  "transactionHash": "0x6769e361755af27c526f076661f8786e0c9e6db1668cce8243f7858f991436e3",
  "args": [],
  "numDeployments": 1,
  "solcInputHash": "c2e49921604f081b9a16f2cbcb720461",
  "bytecode": "0x60806040523480156200001157600080fd5b5060405180604001604052806008815260200167457468546f45726360c01b8152506040518060400160405280600381526020016245324560e81b81525081600390816200006091906200011d565b5060046200006f82826200011d565b505050620001e9565b634e487b7160e01b600052604160045260246000fd5b600181811c90821680620000a357607f821691505b602082108103620000c457634e487b7160e01b600052602260045260246000fd5b50919050565b601f8211156200011857600081815260208120601f850160051c81016020861015620000f35750805b601f850160051c820191505b818110156200011457828155600101620000ff565b5050505b505050565b81516001600160401b0381111562000139576200013962000078565b62000151816200014a84546200008e565b84620000ca565b602080601f831160018114620001895760008415620001705750858301515b600019600386901b1c1916600185901b17855562000114565b600085815260208120601f198616915b82811015620001ba5788860151825594840194600190910190840162000199565b5085821015620001d95787850151600019600388901b60f8161c191681555b5050505050600190811b01905550565b61391b80620001f96000396000f3fe6080604052600436106101095760003560e01c806306fdde0314610115578063095ea7b31461014057806318160ddd1461017057806323b872dd1461018f578063313ce567146101af57806335ec7514146101cb57806339509351146101ed5780633b8ee9701461020d57806343c692391461023a57806357e161f51461025a5780635f480f721461028f578063673a2a1f146102a257806370a08231146102c457806395d89b41146102fa5780639cd0546a1461030f578063a457c2d71461032f578063a9059cbb1461034f578063ad7b47531461036f578063b4f1f0e61461038f578063c6be6e4d146103a2578063dd62ed3e146103c2578063f2bf7787146103e257600080fd5b3661011057005b600080fd5b34801561012157600080fd5b5061012a610402565b60405161013791906132fc565b60405180910390f35b34801561014c57600080fd5b5061016061015b36600461332b565b610494565b6040519015158152602001610137565b34801561017c57600080fd5b506002545b604051908152602001610137565b34801561019b57600080fd5b506101606101aa366004613355565b6104ae565b3480156101bb57600080fd5b5060405160128152602001610137565b3480156101d757600080fd5b506101eb6101e6366004613433565b6104d4565b005b3480156101f957600080fd5b5061016061020836600461332b565b6109d1565b34801561021957600080fd5b5061022d610228366004613487565b6109f3565b60405161013791906134e1565b34801561024657600080fd5b50610181610255366004613487565b610a0e565b34801561026657600080fd5b5061027a610275366004613512565b610a70565b60408051928352602083019190915201610137565b6101eb61029d366004613512565b610a85565b3480156102ae57600080fd5b506102b7610e26565b6040516101379190613546565b3480156102d057600080fd5b506101816102df3660046135a8565b6001600160a01b031660009081526020819052604090205490565b34801561030657600080fd5b5061012a610f08565b34801561031b57600080fd5b5061027a61032a366004613512565b610f17565b34801561033b57600080fd5b5061016061034a36600461332b565b610f91565b34801561035b57600080fd5b5061016061036a36600461332b565b611017565b34801561037b57600080fd5b5061027a61038a366004613487565b611025565b6101eb61039d3660046135c3565b61103f565b3480156103ae57600080fd5b5061027a6103bd366004613607565b611507565b3480156103ce57600080fd5b506101816103dd366004613654565b61151f565b3480156103ee57600080fd5b506101eb6103fd366004613487565b61154a565b6060600380546104119061367e565b80601f016020809104026020016040519081016040528092919081815260200182805461043d9061367e565b801561048a5780601f1061045f5761010080835404028352916020019161048a565b820191906000526020600020905b81548152906001019060200180831161046d57829003601f168201915b5050505050905090565b6000336104a2818585611732565b60019150505b92915050565b6000336104bc858285611856565b6104c78585856118d0565b60019150505b9392505050565b826104dd611a9e565b600101816040516104ee91906136b8565b908152604051908190036020019020600a015460ff166105295760405162461bcd60e51b8152600401610520906136d4565b60405180910390fd5b836001836000610537611a9e565b6001018460405161054891906136b8565b908152604051908190036020018120600201546370a0823160e01b82526001600160a01b03169150829082906370a082319061058890339060040161372f565b602060405180830381865afa1580156105a5573d6000803e3d6000fd5b505050506040513d601f19601f820116820180604052508101906105c99190613743565b10156105e75760405162461bcd60e51b81526004016105209061375c565b60006105f1611a9e565b6001018960405161060291906136b8565b90815260200160405180910390206040518061016001604052908160008201805461062c9061367e565b80601f01602080910402602001604051908101604052809291908181526020018280546106589061367e565b80156106a55780601f1061067a576101008083540402835291602001916106a5565b820191906000526020600020905b81548152906001019060200180831161068857829003601f168201915b505050505081526020016001820180546106be9061367e565b80601f01602080910402602001604051908101604052809291908181526020018280546106ea9061367e565b80156107375780601f1061070c57610100808354040283529160200191610737565b820191906000526020600020905b81548152906001019060200180831161071a57829003601f168201915b505050918352505060028201546001600160a01b03908116602083015260038301541660408201526004820154606082015260058201546080820152600682015460a0820152600782015460c0820152600882015460e08201526009820154610100820152600a9091015460ff16151561012090910152905060006107ba611a9e565b600501546107c890896137a5565b905060008260a0015183608001516107e091906137c7565b90506000898460a001516107f491906137de565b9050600061080284836137f1565b61080c90846137a5565b9050600081866080015161082091906137f1565b90508461082b611a9e565b6001018f60405161083c91906136b8565b9081526020016040518091039020600901600082825461085c91906137de565b9091555082905061086b611a9e565b6001018f60405161087c91906136b8565b9081526040519081900360200190206004015582610898611a9e565b6001018f6040516108a991906136b8565b9081526020016040518091039020600501819055508c6001600160a01b03166323b872dd33308f6040518463ffffffff1660e01b81526004016108ee93929190613804565b6020604051808303816000875af115801561090d573d6000803e3d6000fd5b505050506040513d601f19601f820116820180604052508101906109319190613828565b50604051600090339083908381818185875af1925050503d8060008114610974576040519150601f19603f3d011682016040523d82523d6000602084013e610979565b606091505b50509050806109c05760405162461bcd60e51b815260206004820152601360248201527221b7bab632103737ba1039b2b7321032ba341760691b6044820152606401610520565b505050505050505050505050505050565b6000336104a28185856109e4838361151f565b6109ee91906137de565b611732565b6109fb61328e565b610a06848484611ac1565b949350505050565b600083610a19611a9e565b60010181604051610a2a91906136b8565b908152604051908190036020019020600a015460ff16610a5c5760405162461bcd60e51b8152600401610520906136d4565b610a6785858561206a565b95945050505050565b600080610a7c836122e3565b91509150915091565b80610a8e611a9e565b60010181604051610a9f91906136b8565b908152604051908190036020019020600a015460ff16610ad15760405162461bcd60e51b8152600401610520906136d4565b6000610adb611a9e565b60010183604051610aec91906136b8565b908152602001604051809103902060405180610160016040529081600082018054610b169061367e565b80601f0160208091040260200160405190810160405280929190818152602001828054610b429061367e565b8015610b8f5780601f10610b6457610100808354040283529160200191610b8f565b820191906000526020600020905b815481529060010190602001808311610b7257829003601f168201915b50505050508152602001600182018054610ba89061367e565b80601f0160208091040260200160405190810160405280929190818152602001828054610bd49061367e565b8015610c215780601f10610bf657610100808354040283529160200191610c21565b820191906000526020600020905b815481529060010190602001808311610c0457829003601f168201915b505050918352505060028201546001600160a01b03908116602083015260038301541660408201526004820154606082015260058201546080820152600682015460a0820152600782015460c0820152600882015460e08201526009820154610100820152600a9091015460ff1615156101209091015290506000610ca4611a9e565b60050154610cb290346137a5565b905060008260a001518360800151610cca91906137c7565b90506000348460800151610cde91906137de565b90506000610cec84836137f1565b610cf690846137a5565b90506000818660a00151610d0a91906137f1565b905084610d15611a9e565b60010189604051610d2691906136b8565b90815260200160405180910390206008016000828254610d4691906137de565b90915550839050610d55611a9e565b60010189604051610d6691906136b8565b9081526040519081900360200190206004015581610d82611a9e565b60010189604051610d9391906136b8565b90815260405190819003602001812060050191909155606087015163a9059cbb60e01b82526001600160a01b03169063a9059cbb90610dd89033908590600401613845565b6020604051808303816000875af1158015610df7573d6000803e3d6000fd5b505050506040513d601f19601f82011682018060405250810190610e1b9190613828565b505050505050505050565b6060610e30611a9e565b600401805480602002602001604051908101604052809291908181526020016000905b82821015610eff578382906000526020600020018054610e729061367e565b80601f0160208091040260200160405190810160405280929190818152602001828054610e9e9061367e565b8015610eeb5780601f10610ec057610100808354040283529160200191610eeb565b820191906000526020600020905b815481529060010190602001808311610ece57829003601f168201915b505050505081526020019060010190610e53565b50505050905090565b6060600480546104119061367e565b600080610f22611a9e565b60020183604051610f3391906136b8565b90815260408051602092819003830190203360009081529252902054610f57611a9e565b60020184604051610f6891906136b8565b908152604080516020928190038301902033600090815292529020600101549094909350915050565b60003381610f9f828661151f565b905083811015610fff5760405162461bcd60e51b815260206004820152602560248201527f45524332303a2064656372656173656420616c6c6f77616e63652062656c6f77604482015264207a65726f60d81b6064820152608401610520565b61100c8286868403611732565b506001949350505050565b6000336104a28185856118d0565b600080611033858585612435565b91509150935093915050565b81611048611a9e565b6001018160405161105991906136b8565b908152604051908190036020019020600a015460ff1661108b5760405162461bcd60e51b8152600401610520906136d4565b826002836000611099611a9e565b600101846040516110aa91906136b8565b908152604051908190036020018120600301546370a0823160e01b82526001600160a01b03169150829082906370a08231906110ea90339060040161372f565b602060405180830381865afa158015611107573d6000803e3d6000fd5b505050506040513d601f19601f8201168201806040525081019061112b9190613743565b10156111495760405162461bcd60e51b81526004016105209061375c565b6000611157883460016109f3565b6020015190506402540be4006111756111708984613874565b612482565b106111f25760405162461bcd60e51b815260206004820152604160248201527f416d6f756e7420696e736572746564206973206e6f742068656c70696e67207460448201527f686520706f6f6c2067657420746f20657175696c69627269756d2073746174656064820152601760f91b608482015260a401610520565b6111fa611a9e565b6001018860405161120b91906136b8565b908152604051908190036020018120600301546323b872dd60e01b82526001600160a01b0316906323b872dd9061124a90339030908c90600401613804565b6020604051808303816000875af1158015611269573d6000803e3d6000fd5b505050506040513d601f19601f8201168201806040525081019061128d9190613828565b5034611297611a9e565b600101896040516112a891906136b8565b908152602001604051809103902060040160008282546112c891906137de565b909155508790506112d7611a9e565b600101896040516112e891906136b8565b9081526020016040518091039020600501600082825461130891906137de565b909155506113169050611a9e565b6002018860405161132791906136b8565b908152604080516020928190038301902033600090815292529020541580156113855750611353611a9e565b6002018860405161136491906136b8565b90815260408051602092819003830190203360009081529252902060010154155b156113d757611392611a9e565b600301886040516113a391906136b8565b908152604051908190036020908101909120805460018101825560009182529190200180546001600160a01b031916331790555b346113e0611a9e565b600201896040516113f191906136b8565b908152604080516020928190038301902033600090815292528120805490919061141c9084906137de565b9091555087905061142b611a9e565b6002018960405161143c91906136b8565b908152604080516020928190038301902033600090815292528120600101805490919061146a9084906137de565b909155506114789050611a9e565b6001018860405161148991906136b8565b9081526020016040518091039020600601546000036114fd57346114ab611a9e565b600101896040516114bc91906136b8565b90815260405190819003602001902060060155866114d8611a9e565b600101896040516114e991906136b8565b908152604051908190036020019020600701555b5050505050505050565b600080611514848461249e565b915091509250929050565b6001600160a01b03918216600090815260016020908152604080832093909416825291909152205490565b826000611555611a9e565b6002018260405161156691906136b8565b908152604080516020928190038301902033600090815292529020541180156115c657506000611594611a9e565b600201826040516115a591906136b8565b90815260408051602092819003830190203360009081529252902060010154115b6116385760405162461bcd60e51b815260206004820152603f60248201527f4f6e6c79207368617265686f6c64657273206f6620746865206c69717569646960448201527f747920706f6f6c2063616e2063616c6c20746869732066756e6374696f6e2e006064820152608401610520565b838383806116805781611649611a9e565b6002018460405161165a91906136b8565b9081526040805160209281900383019020336000908152925290206001015410156116b9565b81611689611a9e565b6002018460405161169a91906136b8565b9081526040805160209281900383019020336000908152925290205410155b61171b5760405162461bcd60e51b815260206004820152602d60248201527f43616e6e6f74207769746864726177206d6f7265207468616e2068617320626560448201526c32b7103232b837b9b4ba32b21760991b6064820152608401610520565b611729873388886001612588565b50505050505050565b6001600160a01b0383166117945760405162461bcd60e51b8152602060048201526024808201527f45524332303a20617070726f76652066726f6d20746865207a65726f206164646044820152637265737360e01b6064820152608401610520565b6001600160a01b0382166117f55760405162461bcd60e51b815260206004820152602260248201527f45524332303a20617070726f766520746f20746865207a65726f206164647265604482015261737360f01b6064820152608401610520565b6001600160a01b0383811660008181526001602090815260408083209487168084529482529182902085905590518481527f8c5be1e5ebec7d5bd14f71427d1e84f3dd0314c0f7b2291e5b200ac8c7c3b925910160405180910390a3505050565b6000611862848461151f565b905060001981146118ca57818110156118bd5760405162461bcd60e51b815260206004820152601d60248201527f45524332303a20696e73756666696369656e7420616c6c6f77616e63650000006044820152606401610520565b6118ca8484848403611732565b50505050565b6001600160a01b0383166119345760405162461bcd60e51b815260206004820152602560248201527f45524332303a207472616e736665722066726f6d20746865207a65726f206164604482015264647265737360d81b6064820152608401610520565b6001600160a01b0382166119965760405162461bcd60e51b815260206004820152602360248201527f45524332303a207472616e7366657220746f20746865207a65726f206164647260448201526265737360e81b6064820152608401610520565b6001600160a01b03831660009081526020819052604090205481811015611a0e5760405162461bcd60e51b815260206004820152602660248201527f45524332303a207472616e7366657220616d6f756e7420657863656564732062604482015265616c616e636560d01b6064820152608401610520565b6001600160a01b03808516600090815260208190526040808220858503905591851681529081208054849290611a459084906137de565b92505081905550826001600160a01b0316846001600160a01b03167fddf252ad1be2c89b69c2b068fc378daa952ba7f163c4a11628f55a4df523b3ef84604051611a9191815260200190565b60405180910390a36118ca565b7e5661492dcd9d3c02dbd3b7e7855c55a879f698c500b1c9587676404c7e9c7490565b611ac961328e565b6000611ad3611a9e565b60010185604051611ae491906136b8565b908152602001604051809103902060405180610160016040529081600082018054611b0e9061367e565b80601f0160208091040260200160405190810160405280929190818152602001828054611b3a9061367e565b8015611b875780601f10611b5c57610100808354040283529160200191611b87565b820191906000526020600020905b815481529060010190602001808311611b6a57829003601f168201915b50505050508152602001600182018054611ba09061367e565b80601f0160208091040260200160405190810160405280929190818152602001828054611bcc9061367e565b8015611c195780601f10611bee57610100808354040283529160200191611c19565b820191906000526020600020905b815481529060010190602001808311611bfc57829003601f168201915b505050918352505060028201546001600160a01b03908116602083015260038301541660408201526004820154606082015260058201546080820152600682015460a0820152600782015460c0820152600882015460e08201526009820154610100820152600a9091015460ff161515610120909101529050611c9b8561299a565b611f425782611df1576040518060400160405280611cb7611a9e565b6006015486611cc4611a9e565b5460408087015190516341976e0960e01b81526001600160a01b03909216916341976e0991611cf59160040161372f565b602060405180830381865afa158015611d12573d6000803e3d6000fd5b505050506040513d601f19601f82011682018060405250810190611d369190613743565b611d3e611a9e565b5460608701516040516341976e0960e01b81526001600160a01b03909216916341976e0991611d6f9160040161372f565b602060405180830381865afa158015611d8c573d6000803e3d6000fd5b505050506040513d601f19601f82011682018060405250810190611db09190613743565b611db8611a9e565b60060154611dc691906137c7565b611dd091906137a5565b611dda91906137c7565b611de491906137a5565b8152602001859052611f3a565b6040518060400160405280858152602001611e0a611a9e565b6006015486611e17611a9e565b5460608601516040516341976e0960e01b81526001600160a01b03909216916341976e0991611e489160040161372f565b602060405180830381865afa158015611e65573d6000803e3d6000fd5b505050506040513d601f19601f82011682018060405250810190611e899190613743565b611e91611a9e565b5460408088015190516341976e0960e01b81526001600160a01b03909216916341976e0991611ec29160040161372f565b602060405180830381865afa158015611edf573d6000803e3d6000fd5b505050506040513d601f19601f82011682018060405250810190611f039190613743565b611f0b611a9e565b60060154611f1991906137c7565b611f2391906137a5565b611f2d91906137c7565b611f3791906137a5565b90525b9150506104cd565b8215611fd95760008160c001518260e00151611f5c611a9e565b60060154611f6a91906137c7565b611f7491906137a5565b905060008260a00151611f85611a9e565b6006015483888660800151611f9a91906137de565b611fa491906137c7565b611fae91906137a5565b611fb891906137f1565b905060405180604001604052808781526020018281525093505050506104cd565b60008160e001518260c00151611fed611a9e565b60060154611ffb91906137c7565b61200591906137a5565b905060008260800151612016611a9e565b6006015483888660a0015161202b91906137de565b61203591906137c7565b61203f91906137a5565b61204991906137f1565b905060405180604001604052808281526020018781525093505050506104cd565b600080612075611a9e565b6001018560405161208691906136b8565b9081526020016040518091039020604051806101600160405290816000820180546120b09061367e565b80601f01602080910402602001604051908101604052809291908181526020018280546120dc9061367e565b80156121295780601f106120fe57610100808354040283529160200191612129565b820191906000526020600020905b81548152906001019060200180831161210c57829003601f168201915b505050505081526020016001820180546121429061367e565b80601f016020809104026020016040519081016040528092919081815260200182805461216e9061367e565b80156121bb5780601f10612190576101008083540402835291602001916121bb565b820191906000526020600020905b81548152906001019060200180831161219e57829003601f168201915b505050918352505060028201546001600160a01b03908116602083015260038301541660408201526004820154606082015260058201546080820152600682015460a0820152600782015460c0820152600882015460e08201526009820154610100820152600a9091015460ff161515610120909101529050600061223e611a9e565b6005015461224c90866137a5565b905060008260a00151836080015161226491906137c7565b9050846122a45781868460a0015161227c91906137de565b61228691906137f1565b61229090826137a5565b836080015161229f91906137f1565b6122d8565b818684608001516122b591906137de565b6122bf91906137f1565b6122c990826137a5565b8360a001516122d891906137f1565b979650505050505050565b60008060008060005b6122f4611a9e565b6003018660405161230591906136b8565b908152604051908190036020019020546001600160801b038216101561242a57600061232f611a9e565b6003018760405161234091906136b8565b9081526020016040518091039020826001600160801b0316815481106123685761236861385e565b6000918252602090912001546001600160a01b03169050612387611a9e565b6002018760405161239891906136b8565b90815260408051602092819003830190206001600160a01b038416600090815292529020546123c790856137de565b93506123d1611a9e565b600201876040516123e291906136b8565b90815260408051602092819003830190206001600160a01b0384166000908152925290206001015461241490846137de565b92505080806124229061389b565b9150506122ec565b509094909350915050565b60008060008061244787338888612a05565b90925090506000806124598933612f7b565b909250905061246882856137de565b61247282856137de565b9550955050505050935093915050565b60008082121561249a57612495826138c9565b6104a8565b5090565b6000806000806124ad866122e3565b90925090506000826124bd611a9e565b600201886040516124ce91906136b8565b90815260408051602092819003830190206001600160a01b038a16600090815292529020546124fb611a9e565b6006015461250991906137c7565b61251391906137a5565b9050600082612520611a9e565b6002018960405161253191906136b8565b90815260408051602092819003830190206001600160a01b038b1660009081529252902060010154612561611a9e565b6006015461256f91906137c7565b61257991906137a5565b91989197509095505050505050565b6000826125f657612597611a9e565b600201866040516125a891906136b8565b90815260408051602092819003830190206001600160a01b03881660009081529252902060010154846125d9611a9e565b600601546125e791906137c7565b6125f191906137a5565b612655565b6125fe611a9e565b6002018660405161260f91906136b8565b90815260408051602092819003830190206001600160a01b038816600090815292529020548461263d611a9e565b6006015461264b91906137c7565b61265591906137a5565b9050600080846126c357612667611a9e565b60060154612673611a9e565b6002018960405161268491906136b8565b90815260408051602092819003830190206001600160a01b038b16600090815292529020546126b390856137c7565b6126bd91906137a5565b86612725565b856126cc611a9e565b600601546126d8611a9e565b6002018a6040516126e991906136b8565b90815260408051602092819003830190206001600160a01b038c166000908152925290206001015461271b90866137c7565b61272591906137a5565b915091506000806127398a8a8a6001612a05565b9150915060008061274a8c8c612f7b565b9150915081612757611a9e565b6001018d60405161276891906136b8565b9081526020016040518091039020600801600082825461278891906137f1565b90915550819050612797611a9e565b6001018d6040516127a891906136b8565b908152602001604051809103902060090160008282546127c891906137f1565b909155508690506127d7611a9e565b6002018d6040516127e891906136b8565b90815260408051602092819003830190206001600160a01b038f16600090815292528120805490919061281c9084906137f1565b9091555085905061282b611a9e565b6002018d60405161283c91906136b8565b908152602001604051809103902060008d6001600160a01b03166001600160a01b03168152602001908152602001600020600101600082825461287f91906137f1565b909155506128b89050612890611a9e565b6001018d6040516128a191906136b8565b908152602001604051809103902060040154613035565b6128c184613035565b6128f46128cc611a9e565b6001018d6040516128dd91906136b8565b908152602001604051809103902060050154613035565b6128fd83613035565b83612906611a9e565b6001018d60405161291791906136b8565b9081526020016040518091039020600401600082825461293791906137f1565b90915550839050612946611a9e565b6001018d60405161295791906136b8565b9081526020016040518091039020600501600082825461297791906137f1565b9091555061298c90508c898d8787878761307d565b505050505050505050505050565b6000806129a5611a9e565b905080600101836040516129b991906136b8565b9081526020016040518091039020600601546000141580156104cd575080600101836040516129e891906136b8565b908152602001604051809103902060070154600014159392505050565b6000806000612a12611a9e565b60010187604051612a2391906136b8565b908152602001604051809103902060060154612a3d611a9e565b60010188604051612a4e91906136b8565b908152602001604051809103902060070154612a68611a9e565b60060154612a7691906137c7565b612a8091906137a5565b90506000612a8c611a9e565b60010188604051612a9d91906136b8565b908152602001604051809103902060070154612ab7611a9e565b60010189604051612ac891906136b8565b908152602001604051809103902060060154612ae2611a9e565b60060154612af091906137c7565b612afa91906137a5565b905060008086612b2a57612b0c611a9e565b60060154612b1a848a6137c7565b612b2491906137a5565b88612b4b565b87612b33611a9e565b60060154612b41868b6137c7565b612b4b91906137a5565b909250905081612b59611a9e565b6001018b604051612b6a91906136b8565b9081526020016040518091039020600401541015612d5e576000612bbd83612b90611a9e565b6001018d604051612ba191906136b8565b9081526020016040518091039020600401546111709190613874565b9050612bc7611a9e565b6001018b604051612bd891906136b8565b9081526020016040518091039020600401549250600088612c5a57612bfb611a9e565b6002018c604051612c0c91906136b8565b90815260408051602092819003830190206001600160a01b038e16600090815292529020600101548a612c3d611a9e565b60060154612c4b91906137c7565b612c5591906137a5565b612cb9565b612c62611a9e565b6002018c604051612c7391906136b8565b90815260408051602092819003830190206001600160a01b038e16600090815292529020548a612ca1611a9e565b60060154612caf91906137c7565b612cb991906137a5565b90506000612cc5611a9e565b60060154612cd1611a9e565b6002018e604051612ce291906136b8565b908152602001604051809103902060008e6001600160a01b03166001600160a01b031681526020019081526020016000206001015483612d2291906137c7565b612d2c91906137a5565b9050612d36611a9e565b60060154612d4488856137c7565b612d4e91906137a5565b612d5890826137de565b93505050505b80612d67611a9e565b6001018b604051612d7891906136b8565b9081526020016040518091039020600501541015612f6c576000612dcb82612d9e611a9e565b6001018d604051612daf91906136b8565b9081526020016040518091039020600501546111709190613874565b9050612dd5611a9e565b6001018b604051612de691906136b8565b9081526020016040518091039020600501549150600088612e6857612e09611a9e565b6002018c604051612e1a91906136b8565b90815260408051602092819003830190206001600160a01b038e16600090815292529020600101548a612e4b611a9e565b60060154612e5991906137c7565b612e6391906137a5565b612ec7565b612e70611a9e565b6002018c604051612e8191906136b8565b90815260408051602092819003830190206001600160a01b038e16600090815292529020548a612eaf611a9e565b60060154612ebd91906137c7565b612ec791906137a5565b90506000612ed3611a9e565b60060154612edf611a9e565b6002018e604051612ef091906136b8565b908152602001604051809103902060008e6001600160a01b03166001600160a01b031681526020019081526020016000206000015483612f3091906137c7565b612f3a91906137a5565b9050612f44611a9e565b60060154612f5287856137c7565b612f5c91906137a5565b612f6690826137de565b94505050505b90999098509650505050505050565b600080600080612f8b868661249e565b9092509050612f98611a9e565b6006015482612fa5611a9e565b60010188604051612fb691906136b8565b908152602001604051809103902060080154612fd291906137c7565b612fdc91906137a5565b612fe4611a9e565b6006015482612ff1611a9e565b6001018960405161300291906136b8565b90815260200160405180910390206009015461301e91906137c7565b61302891906137a5565b9350935050509250929050565b61307a8160405160240161304b91815260200190565b60408051601f198184030181529190526020810180516001600160e01b031663f82c50f160e01b17905261326d565b50565b85156131215760003361309084876137de565b604051600081818185875af1925050503d80600081146130cc576040519150601f19603f3d011682016040523d82523d6000602084013e6130d1565b606091505b505090508061311b5760405162461bcd60e51b815260206004820152601660248201527522b93937b9103932b33ab73234b7339032ba3432b91760511b6044820152606401610520565b506131c8565b613129611a9e565b6001018760405161313a91906136b8565b908152604051908190036020019020600201546001600160a01b031663a9059cbb8661316685886137de565b6040518363ffffffff1660e01b8152600401613183929190613845565b6020604051808303816000875af11580156131a2573d6000803e3d6000fd5b505050506040513d601f19601f820116820180604052508101906131c69190613828565b505b6131d0611a9e565b600101876040516131e191906136b8565b908152604051908190036020019020600301546001600160a01b031663a9059cbb8661320d84876137de565b6040518363ffffffff1660e01b815260040161322a929190613845565b6020604051808303816000875af1158015613249573d6000803e3d6000fd5b505050506040513d601f19601f820116820180604052508101906114fd9190613828565b80516a636f6e736f6c652e6c6f67602083016000808483855afa5050505050565b60405180604001604052806002906020820280368337509192915050565b60005b838110156132c75781810151838201526020016132af565b50506000910152565b600081518084526132e88160208601602086016132ac565b601f01601f19169290920160200192915050565b6020815260006104cd60208301846132d0565b80356001600160a01b038116811461332657600080fd5b919050565b6000806040838503121561333e57600080fd5b6133478361330f565b946020939093013593505050565b60008060006060848603121561336a57600080fd5b6133738461330f565b92506133816020850161330f565b9150604084013590509250925092565b634e487b7160e01b600052604160045260246000fd5b600082601f8301126133b857600080fd5b81356001600160401b03808211156133d2576133d2613391565b604051601f8301601f19908116603f011681019082821181831017156133fa576133fa613391565b8160405283815286602085880101111561341357600080fd5b836020870160208301376000602085830101528094505050505092915050565b60008060006060848603121561344857600080fd5b83356001600160401b0381111561345e57600080fd5b61346a868287016133a7565b9350506133816020850161330f565b801515811461307a57600080fd5b60008060006060848603121561349c57600080fd5b83356001600160401b038111156134b257600080fd5b6134be868287016133a7565b9350506020840135915060408401356134d681613479565b809150509250925092565b60408101818360005b60028110156135095781518352602092830192909101906001016134ea565b50505092915050565b60006020828403121561352457600080fd5b81356001600160401b0381111561353a57600080fd5b610a06848285016133a7565b6000602080830181845280855180835260408601915060408160051b870101925083870160005b8281101561359b57603f198886030184526135898583516132d0565b9450928501929085019060010161356d565b5092979650505050505050565b6000602082840312156135ba57600080fd5b6104cd8261330f565b600080604083850312156135d657600080fd5b82356001600160401b038111156135ec57600080fd5b6135f8858286016133a7565b95602094909401359450505050565b6000806040838503121561361a57600080fd5b82356001600160401b0381111561363057600080fd5b61363c858286016133a7565b92505061364b6020840161330f565b90509250929050565b6000806040838503121561366757600080fd5b6136708361330f565b915061364b6020840161330f565b600181811c9082168061369257607f821691505b6020821081036136b257634e487b7160e01b600052602260045260246000fd5b50919050565b600082516136ca8184602087016132ac565b9190910192915050565b6020808252603b908201527f5468657265206973206e6f207375636820746f6b656e20636f6e74726163742060408201527a2ca2aa103232b83637bcb2b21034b71037bab91039bcb9ba32b69760291b606082015260800190565b6001600160a01b0391909116815260200190565b60006020828403121561375557600080fd5b5051919050565b60208082526019908201527824b739bab33334b1b4b2b73a1022a921991810333ab732399760391b604082015260600190565b634e487b7160e01b600052601160045260246000fd5b6000826137c257634e487b7160e01b600052601260045260246000fd5b500490565b80820281158282048414176104a8576104a861378f565b808201808211156104a8576104a861378f565b818103818111156104a8576104a861378f565b6001600160a01b039384168152919092166020820152604081019190915260600190565b60006020828403121561383a57600080fd5b81516104cd81613479565b6001600160a01b03929092168252602082015260400190565b634e487b7160e01b600052603260045260246000fd5b81810360008312801583831316838312821617156138945761389461378f565b5092915050565b60006001600160801b038281166002600160801b031981016138bf576138bf61378f565b6001019392505050565b6000600160ff1b82016138de576138de61378f565b506000039056fea2646970667358221220afb176e1c212a9470851c07d60f2802bdcb7867cfd30d3b858d25362045f92fb64736f6c63430008110033",
  "devdoc": {
    "kind": "dev",
    "methods": {
      "allowance(address,address)": {
        "details": "See {IERC20-allowance}."
      },
      "approve(address,uint256)": {
        "details": "See {IERC20-approve}. NOTE: If `amount` is the maximum `uint256`, the allowance is not updated on `transferFrom`. This is semantically equivalent to an infinite approval. Requirements: - `spender` cannot be the zero address."
      },
      "balanceOf(address)": {
        "details": "See {IERC20-balanceOf}."
      },
      "decimals()": {
        "details": "Returns the number of decimals used to get its user representation. For example, if `decimals` equals `2`, a balance of `505` tokens should be displayed to a user as `5.05` (`505 / 10 ** 2`). Tokens usually opt for a value of 18, imitating the relationship between Ether and Wei. This is the value {ERC20} uses, unless this function is overridden; NOTE: This information is only used for _display_ purposes: it in no way affects any of the arithmetic of the contract, including {IERC20-balanceOf} and {IERC20-transfer}."
      },
      "decreaseAllowance(address,uint256)": {
        "details": "Atomically decreases the allowance granted to `spender` by the caller. This is an alternative to {approve} that can be used as a mitigation for problems described in {IERC20-approve}. Emits an {Approval} event indicating the updated allowance. Requirements: - `spender` cannot be the zero address. - `spender` must have allowance for the caller of at least `subtractedValue`."
      },
      "increaseAllowance(address,uint256)": {
        "details": "Atomically increases the allowance granted to `spender` by the caller. This is an alternative to {approve} that can be used as a mitigation for problems described in {IERC20-approve}. Emits an {Approval} event indicating the updated allowance. Requirements: - `spender` cannot be the zero address."
      },
      "name()": {
        "details": "Returns the name of the token."
      },
      "symbol()": {
        "details": "Returns the symbol of the token, usually a shorter version of the name."
      },
      "totalSupply()": {
        "details": "See {IERC20-totalSupply}."
      },
      "transfer(address,uint256)": {
        "details": "See {IERC20-transfer}. Requirements: - `to` cannot be the zero address. - the caller must have a balance of at least `amount`."
      },
      "transferFrom(address,address,uint256)": {
        "details": "See {IERC20-transferFrom}. Emits an {Approval} event indicating the updated allowance. This is not required by the EIP. See the note at the beginning of {ERC20}. NOTE: Does not update the allowance if the current allowance is the maximum `uint256`. Requirements: - `from` and `to` cannot be the zero address. - `from` must have a balance of at least `amount`. - the caller must have allowance for ``from``'s tokens of at least `amount`."
      }
    },
    "version": 1
  },
  "userdoc": {
    "kind": "user",
    "methods": {},
    "version": 1
  },
  "storageLayout": {
    "storage": [
      {
        "astId": 118,
        "contract": "contracts/EthToERC20.sol:EthToERC20",
        "label": "_balances",
        "offset": 0,
        "slot": "0",
        "type": "t_mapping(t_address,t_uint256)"
      },
      {
        "astId": 124,
        "contract": "contracts/EthToERC20.sol:EthToERC20",
        "label": "_allowances",
        "offset": 0,
        "slot": "1",
        "type": "t_mapping(t_address,t_mapping(t_address,t_uint256))"
      },
      {
        "astId": 126,
        "contract": "contracts/EthToERC20.sol:EthToERC20",
        "label": "_totalSupply",
        "offset": 0,
        "slot": "2",
        "type": "t_uint256"
      },
      {
        "astId": 128,
        "contract": "contracts/EthToERC20.sol:EthToERC20",
        "label": "_name",
        "offset": 0,
        "slot": "3",
        "type": "t_string_storage"
      },
      {
        "astId": 130,
        "contract": "contracts/EthToERC20.sol:EthToERC20",
        "label": "_symbol",
        "offset": 0,
        "slot": "4",
        "type": "t_string_storage"
      }
    ],
    "types": {
      "t_address": {
        "encoding": "inplace",
        "label": "address",
        "numberOfBytes": "20"
      },
      "t_mapping(t_address,t_mapping(t_address,t_uint256))": {
        "encoding": "mapping",
        "key": "t_address",
        "label": "mapping(address => mapping(address => uint256))",
        "numberOfBytes": "32",
        "value": "t_mapping(t_address,t_uint256)"
      },
      "t_mapping(t_address,t_uint256)": {
        "encoding": "mapping",
        "key": "t_address",
        "label": "mapping(address => uint256)",
        "numberOfBytes": "32",
        "value": "t_uint256"
      },
      "t_string_storage": {
        "encoding": "bytes",
        "label": "string",
        "numberOfBytes": "32"
      },
      "t_uint256": {
        "encoding": "inplace",
        "label": "uint256",
        "numberOfBytes": "32"
      }
    }
  }
}