{
  "address": "0xD42912755319665397FF090fBB63B1a31aE87Cee",
  "abi": [
    {
      "inputs": [
        {
          "internalType": "address[]",
          "name": "_tokenPools",
          "type": "address[]"
        },
        {
          "internalType": "string[]",
          "name": "_tokenSymbols",
          "type": "string[]"
        },
        {
          "internalType": "address",
          "name": "_priceFeed",
          "type": "address"
        }
      ],
      "stateMutability": "nonpayable",
      "type": "constructor"
    },
    {
      "anonymous": false,
      "inputs": [
        {
          "indexed": true,
          "internalType": "address",
          "name": "owner",
          "type": "address"
        },
        {
          "indexed": true,
          "internalType": "address",
          "name": "spender",
          "type": "address"
        },
        {
          "indexed": false,
          "internalType": "uint256",
          "name": "value",
          "type": "uint256"
        }
      ],
      "name": "Approval",
      "type": "event"
    },
    {
      "anonymous": false,
      "inputs": [
        {
          "indexed": true,
          "internalType": "address",
          "name": "from",
          "type": "address"
        },
        {
          "indexed": true,
          "internalType": "address",
          "name": "to",
          "type": "address"
        },
        {
          "indexed": false,
          "internalType": "uint256",
          "name": "value",
          "type": "uint256"
        }
      ],
      "name": "Transfer",
      "type": "event"
    },
    {
      "inputs": [
        {
          "internalType": "string",
          "name": "_pair",
          "type": "string"
        },
        {
          "internalType": "address",
          "name": "_tokenContract",
          "type": "address"
        },
        {
          "internalType": "uint256",
          "name": "_token2Amount",
          "type": "uint256"
        }
      ],
      "name": "ERC20ToEthSwap",
      "outputs": [],
      "stateMutability": "nonpayable",
      "type": "function"
    },
    {
      "inputs": [
        {
          "internalType": "address",
          "name": "owner",
          "type": "address"
        },
        {
          "internalType": "address",
          "name": "spender",
          "type": "address"
        }
      ],
      "name": "allowance",
      "outputs": [
        {
          "internalType": "uint256",
          "name": "",
          "type": "uint256"
        }
      ],
      "stateMutability": "view",
      "type": "function"
    },
    {
      "inputs": [
        {
          "internalType": "address",
          "name": "spender",
          "type": "address"
        },
        {
          "internalType": "uint256",
          "name": "amount",
          "type": "uint256"
        }
      ],
      "name": "approve",
      "outputs": [
        {
          "internalType": "bool",
          "name": "",
          "type": "bool"
        }
      ],
      "stateMutability": "nonpayable",
      "type": "function"
    },
    {
      "inputs": [
        {
          "internalType": "address",
          "name": "account",
          "type": "address"
        }
      ],
      "name": "balanceOf",
      "outputs": [
        {
          "internalType": "uint256",
          "name": "",
          "type": "uint256"
        }
      ],
      "stateMutability": "view",
      "type": "function"
    },
    {
      "inputs": [],
      "name": "decimals",
      "outputs": [
        {
          "internalType": "uint8",
          "name": "",
          "type": "uint8"
        }
      ],
      "stateMutability": "view",
      "type": "function"
    },
    {
      "inputs": [
        {
          "internalType": "address",
          "name": "spender",
          "type": "address"
        },
        {
          "internalType": "uint256",
          "name": "subtractedValue",
          "type": "uint256"
        }
      ],
      "name": "decreaseAllowance",
      "outputs": [
        {
          "internalType": "bool",
          "name": "",
          "type": "bool"
        }
      ],
      "stateMutability": "nonpayable",
      "type": "function"
    },
    {
      "inputs": [
        {
          "internalType": "string",
          "name": "_pair",
          "type": "string"
        },
        {
          "internalType": "uint256",
          "name": "_tokenAmount",
          "type": "uint256"
        }
      ],
      "name": "deposit",
      "outputs": [],
      "stateMutability": "payable",
      "type": "function"
    },
    {
      "inputs": [
        {
          "internalType": "string",
          "name": "_pair",
          "type": "string"
        },
        {
          "internalType": "uint256",
          "name": "_tokenAmount",
          "type": "uint256"
        },
        {
          "internalType": "bool",
          "name": "ethToERC20",
          "type": "bool"
        }
      ],
      "name": "estimateDeposit",
      "outputs": [
        {
          "internalType": "uint256[2]",
          "name": "",
          "type": "uint256[2]"
        }
      ],
      "stateMutability": "view",
      "type": "function"
    },
    {
      "inputs": [
        {
          "internalType": "string",
          "name": "_pair",
          "type": "string"
        },
        {
          "internalType": "uint256",
          "name": "_tokenAmount",
          "type": "uint256"
        },
        {
          "internalType": "bool",
          "name": "_t1ToT2",
          "type": "bool"
        }
      ],
      "name": "estimateWithdrawAmounts",
      "outputs": [
        {
          "internalType": "uint256",
          "name": "",
          "type": "uint256"
        },
        {
          "internalType": "uint256",
          "name": "",
          "type": "uint256"
        }
      ],
      "stateMutability": "view",
      "type": "function"
    },
    {
      "inputs": [
        {
          "internalType": "string",
          "name": "_pair",
          "type": "string"
        }
      ],
      "name": "ethToERC20Swap",
      "outputs": [],
      "stateMutability": "payable",
      "type": "function"
    },
    {
      "inputs": [
        {
          "internalType": "string",
          "name": "_pair",
          "type": "string"
        },
        {
          "internalType": "address",
          "name": "_user",
          "type": "address"
        }
      ],
      "name": "getLpShare",
      "outputs": [
        {
          "internalType": "uint256",
          "name": "",
          "type": "uint256"
        },
        {
          "internalType": "uint256",
          "name": "",
          "type": "uint256"
        }
      ],
      "stateMutability": "view",
      "type": "function"
    },
    {
      "inputs": [
        {
          "internalType": "string",
          "name": "_pair",
          "type": "string"
        }
      ],
      "name": "getPool",
      "outputs": [
        {
          "components": [
            {
              "internalType": "string",
              "name": "token1",
              "type": "string"
            },
            {
              "internalType": "string",
              "name": "token2",
              "type": "string"
            },
            {
              "internalType": "address",
              "name": "token1Con",
              "type": "address"
            },
            {
              "internalType": "address",
              "name": "token2Con",
              "type": "address"
            },
            {
              "internalType": "uint256",
              "name": "token1Amount",
              "type": "uint256"
            },
            {
              "internalType": "uint256",
              "name": "token2Amount",
              "type": "uint256"
            },
            {
              "internalType": "uint256",
              "name": "token1Seed",
              "type": "uint256"
            },
            {
              "internalType": "uint256",
              "name": "token2Seed",
              "type": "uint256"
            },
            {
              "internalType": "uint256",
              "name": "t1Fees",
              "type": "uint256"
            },
            {
              "internalType": "uint256",
              "name": "t2Fees",
              "type": "uint256"
            },
            {
              "internalType": "bool",
              "name": "created",
              "type": "bool"
            }
          ],
          "internalType": "struct EthToERC20.pairPool",
          "name": "",
          "type": "tuple"
        }
      ],
      "stateMutability": "view",
      "type": "function"
    },
    {
      "inputs": [
        {
          "internalType": "string",
          "name": "_pair",
          "type": "string"
        }
      ],
      "name": "getPoolDeposits",
      "outputs": [
        {
          "internalType": "uint256",
          "name": "",
          "type": "uint256"
        },
        {
          "internalType": "uint256",
          "name": "",
          "type": "uint256"
        }
      ],
      "stateMutability": "view",
      "type": "function"
    },
    {
      "inputs": [],
      "name": "getPools",
      "outputs": [
        {
          "internalType": "string[]",
          "name": "",
          "type": "string[]"
        }
      ],
      "stateMutability": "view",
      "type": "function"
    },
    {
      "inputs": [
        {
          "internalType": "string",
          "name": "_pair",
          "type": "string"
        },
        {
          "internalType": "uint256",
          "name": "_tokenAmount",
          "type": "uint256"
        },
        {
          "internalType": "bool",
          "name": "ethToERC20",
          "type": "bool"
        }
      ],
      "name": "getRelativePrice",
      "outputs": [
        {
          "internalType": "uint256",
          "name": "",
          "type": "uint256"
        }
      ],
      "stateMutability": "view",
      "type": "function"
    },
    {
      "inputs": [
        {
          "internalType": "string",
          "name": "_pair",
          "type": "string"
        }
      ],
      "name": "getUserDeposits",
      "outputs": [
        {
          "internalType": "uint256",
          "name": "",
          "type": "uint256"
        },
        {
          "internalType": "uint256",
          "name": "",
          "type": "uint256"
        }
      ],
      "stateMutability": "view",
      "type": "function"
    },
    {
      "inputs": [
        {
          "internalType": "address",
          "name": "spender",
          "type": "address"
        },
        {
          "internalType": "uint256",
          "name": "addedValue",
          "type": "uint256"
        }
      ],
      "name": "increaseAllowance",
      "outputs": [
        {
          "internalType": "bool",
          "name": "",
          "type": "bool"
        }
      ],
      "stateMutability": "nonpayable",
      "type": "function"
    },
    {
      "inputs": [],
      "name": "name",
      "outputs": [
        {
          "internalType": "string",
          "name": "",
          "type": "string"
        }
      ],
      "stateMutability": "view",
      "type": "function"
    },
    {
      "inputs": [],
      "name": "symbol",
      "outputs": [
        {
          "internalType": "string",
          "name": "",
          "type": "string"
        }
      ],
      "stateMutability": "view",
      "type": "function"
    },
    {
      "inputs": [],
      "name": "totalSupply",
      "outputs": [
        {
          "internalType": "uint256",
          "name": "",
          "type": "uint256"
        }
      ],
      "stateMutability": "view",
      "type": "function"
    },
    {
      "inputs": [
        {
          "internalType": "address",
          "name": "to",
          "type": "address"
        },
        {
          "internalType": "uint256",
          "name": "amount",
          "type": "uint256"
        }
      ],
      "name": "transfer",
      "outputs": [
        {
          "internalType": "bool",
          "name": "",
          "type": "bool"
        }
      ],
      "stateMutability": "nonpayable",
      "type": "function"
    },
    {
      "inputs": [
        {
          "internalType": "address",
          "name": "from",
          "type": "address"
        },
        {
          "internalType": "address",
          "name": "to",
          "type": "address"
        },
        {
          "internalType": "uint256",
          "name": "amount",
          "type": "uint256"
        }
      ],
      "name": "transferFrom",
      "outputs": [
        {
          "internalType": "bool",
          "name": "",
          "type": "bool"
        }
      ],
      "stateMutability": "nonpayable",
      "type": "function"
    },
    {
      "inputs": [
        {
          "internalType": "string",
          "name": "_pair",
          "type": "string"
        },
        {
          "internalType": "uint256",
          "name": "_amount",
          "type": "uint256"
        },
        {
          "internalType": "bool",
          "name": "_t1ToT2",
          "type": "bool"
        }
      ],
      "name": "withdrawShare",
      "outputs": [],
      "stateMutability": "nonpayable",
      "type": "function"
    },
    {
      "stateMutability": "payable",
      "type": "receive"
    }
  ],
  "transactionHash": "0xf09b7f1b229161d96c35ac4b37bfe2caa3d49e35119317877a7885e219d87ba5",
  "args": [
    [
      "0x976fcd02f7C4773dd89C309fBF55D5923B4c98a1",
      "0xCA8c8688914e0F7096c920146cd0Ad85cD7Ae8b9",
      "0x976fcd02f7C4773dd89C309fBF55D5923B4c98a1",
      "0x6F6f570F45833E249e27022648a26F4076F48f78"
    ],
    [
      "ETH",
      "UTMC",
      "ETH",
      "UCMC"
    ],
    "0x19cEcCd6942ad38562Ee10bAfd44776ceB67e923"
  ],
  "numDeployments": 1,
  "solcInputHash": "9173ec9b355676dfccc9f3aa9440d0b3",
  "bytecode": "0x60806040523480156200001157600080fd5b5060405162003b0038038062003b0083398101604081905262000034916200052f565b6040518060400160405280600a8152602001690457468546f45524332360b41b815250604051806040016040528060048152602001634545524360e01b8152508160039081620000859190620006a0565b506004620000948282620006a0565b5050600a80546001600160801b031916601e17905550600580546001600160a01b0383166001600160a01b031990911617905560005b835181101562000379576000848281518110620000eb57620000eb6200076c565b6020026020010151905060008583600162000107919062000782565b815181106200011a576200011a6200076c565b6020026020010151905060008584815181106200013b576200013b6200076c565b60200260200101518685600162000153919062000782565b815181106200016657620001666200076c565b602002602001015160405160200162000181929190620007aa565b60408051601f19818403018152919052600980546001810182556000919091529091507f6e1540171b6c0c960b71a7020d9f60077f6af931a8bbf590da0223dacf75c7af01620001d28282620006a0565b50604051806101600160405280878681518110620001f457620001f46200076c565b602002602001015181526020018786600162000211919062000782565b815181106200022457620002246200076c565b60200260200101518152602001846001600160a01b03168152602001836001600160a01b0316815260200160008152602001600081526020016000815260200160008152602001600081526020016000815260200160011515815250600682604051620002929190620007ea565b90815260405190819003602001902081518190620002b19082620006a0565b5060208201516001820190620002c89082620006a0565b506040820151600280830180546001600160a01b039384166001600160a01b0319918216179091556060850151600385018054919094169116179091556080830151600483015560a0830151600583015560c0830151600683015560e083015160078301556101008301516008830155610120830151600983015561014090920151600a909101805491151560ff19909216919091179055620003719350915083905062000782565b9050620000ca565b5050505062000808565b634e487b7160e01b600052604160045260246000fd5b604051601f8201601f191681016001600160401b0381118282101715620003c457620003c462000383565b604052919050565b60006001600160401b03821115620003e857620003e862000383565b5060051b60200190565b80516001600160a01b03811681146200040a57600080fd5b919050565b60005b838110156200042c57818101518382015260200162000412565b50506000910152565b6000601f83818401126200044857600080fd5b82516020620004616200045b83620003cc565b62000399565b82815260059290921b850181019181810190878411156200048157600080fd5b8287015b84811015620005235780516001600160401b0380821115620004a75760008081fd5b818a0191508a603f830112620004bd5760008081fd5b85820151604082821115620004d657620004d662000383565b620004e9828b01601f1916890162000399565b92508183528c81838601011115620005015760008081fd5b62000512828985018387016200040f565b505084525091830191830162000485565b50979650505050505050565b6000806000606084860312156200054557600080fd5b83516001600160401b03808211156200055d57600080fd5b818601915086601f8301126200057257600080fd5b81516020620005856200045b83620003cc565b82815260059290921b8401810191818101908a841115620005a557600080fd5b948201945b83861015620005ce57620005be86620003f2565b82529482019490820190620005aa565b91890151919750909350505080821115620005e857600080fd5b50620005f78682870162000435565b9250506200060860408501620003f2565b90509250925092565b600181811c908216806200062657607f821691505b6020821081036200064757634e487b7160e01b600052602260045260246000fd5b50919050565b601f8211156200069b57600081815260208120601f850160051c81016020861015620006765750805b601f850160051c820191505b81811015620006975782815560010162000682565b5050505b505050565b81516001600160401b03811115620006bc57620006bc62000383565b620006d481620006cd845462000611565b846200064d565b602080601f8311600181146200070c5760008415620006f35750858301515b600019600386901b1c1916600185901b17855562000697565b600085815260208120601f198616915b828110156200073d578886015182559484019460019091019084016200071c565b50858210156200075c5787850151600019600388901b60f8161c191681555b5050505050600190811b01905550565b634e487b7160e01b600052603260045260246000fd5b80820180821115620007a457634e487b7160e01b600052601160045260246000fd5b92915050565b60008351620007be8184602088016200040f565b602f60f81b9083019081528351620007de8160018401602088016200040f565b01600101949350505050565b60008251620007fe8184602087016200040f565b9190910192915050565b6132e880620008186000396000f3fe6080604052600436106101145760003560e01c806306fdde0314610120578063095ea7b31461014b57806309bc1cce1461017b57806318160ddd1461019d57806323b872dd146101bc578063313ce567146101dc57806339509351146101f857806341d7b0261461021857806343c6923914610245578063507b8ccf1461026557806357e161f5146102855780635c7a2106146102ba578063673a2a1f146102cd57806370a08231146102ef5780638343deda146103255780638e27d7191461035257806395d89b41146103655780639cd0546a1461037a578063a457c2d71461039a578063a9059cbb146103ba578063ad7b4753146103da578063c6be6e4d146103fa578063dd62ed3e1461041a57600080fd5b3661011b57005b600080fd5b34801561012c57600080fd5b5061013561043a565b6040516101429190612c1b565b60405180910390f35b34801561015757600080fd5b5061016b610166366004612c4a565b6104cc565b6040519015158152602001610142565b34801561018757600080fd5b5061019b610196366004612d24565b6104e6565b005b3480156101a957600080fd5b506002545b604051908152602001610142565b3480156101c857600080fd5b5061016b6101d7366004612d7e565b610908565b3480156101e857600080fd5b5060405160128152602001610142565b34801561020457600080fd5b5061016b610213366004612c4a565b61092e565b34801561022457600080fd5b50610238610233366004612dba565b610950565b6040516101429190612e03565b34801561025157600080fd5b506101ae610260366004612d24565b610b83565b34801561027157600080fd5b5061019b610280366004612ecf565b610f54565b34801561029157600080fd5b506102a56102a0366004612dba565b611350565b60408051928352602083019190915201610142565b61019b6102c8366004612dba565b611481565b3480156102d957600080fd5b506102e26117ee565b6040516101429190612f15565b3480156102fb57600080fd5b506101ae61030a366004612f77565b6001600160a01b031660009081526020819052604090205490565b34801561033157600080fd5b50610345610340366004612d24565b6118c7565b6040516101429190612f92565b61019b610360366004612fc3565b611e64565b34801561037157600080fd5b5061013561223c565b34801561038657600080fd5b506102a5610395366004612dba565b61224b565b3480156103a657600080fd5b5061016b6103b5366004612c4a565b6122b2565b3480156103c657600080fd5b5061016b6103d5366004612c4a565b612338565b3480156103e657600080fd5b506102a56103f5366004612d24565b612346565b34801561040657600080fd5b506102a5610415366004613007565b612392565b34801561042657600080fd5b506101ae610435366004613054565b612465565b6060600380546104499061307e565b80601f01602080910402602001604051908101604052809291908181526020018280546104759061307e565b80156104c25780601f10610497576101008083540402835291602001916104c2565b820191906000526020600020905b8154815290600101906020018083116104a557829003601f168201915b5050505050905090565b6000336104da818585612490565b60019150505b92915050565b6000808261056b576305f5e1008460068760405161050491906130b8565b90815260200160405180910390206007015460068860405161052691906130b8565b9081526020016040518091039020600601546305f5e10061054791906130ea565b6105519190613101565b61055b91906130ea565b6105659190613101565b846105c5565b838460068760405161057d91906130b8565b90815260200160405180910390206006015460068860405161059f91906130b8565b9081526020016040518091039020600701546105bb9190613101565b6105c591906130ea565b90925090506000806105d9878560016125b4565b604051919350915061060a906006906105f3908a906130b8565b90815260200160405180910390206004015461280e565b6106138261280e565b61063d60068860405161062691906130b8565b90815260200160405180910390206005015461280e565b6106468161280e565b6000806106538933612856565b6040519193509150829060069061066b908c906130b8565b9081526020016040518091039020600801600082825461068b9190613123565b925050819055508060068a6040516106a391906130b8565b908152602001604051809103902060090160008282546106c39190613123565b925050819055508560078a6040516106db91906130b8565b9081526040805160209281900383019020336000908152925281208054909190610706908490613123565b925050819055508460078a60405161071e91906130b8565b908152604080516020928190038301902033600090815292528120600101805490919061074c908490613123565b925050819055508360068a60405161076491906130b8565b908152602001604051809103902060040160008282546107849190613123565b925050819055508260068a60405161079c91906130b8565b908152602001604051809103902060050160008282546107bc9190613123565b90915550506040516006906107d2908b906130b8565b908152604051908190036020019020600301546001600160a01b031663a9059cbb336107fe8487613136565b6040518363ffffffff1660e01b815260040161081b929190613149565b6020604051808303816000875af115801561083a573d6000803e3d6000fd5b505050506040513d601f19601f8201168201806040525081019061085e9190613162565b5060003361086c8487613136565b604051600081818185875af1925050503d80600081146108a8576040519150601f19603f3d011682016040523d82523d6000602084013e6108ad565b606091505b50509050806108fc5760405162461bcd60e51b815260206004820152601660248201527522b93937b9103932b33ab73234b7339032ba3432b91760511b60448201526064015b60405180910390fd5b50505050505050505050565b6000336109168582856128fb565b610921858585612975565b60019150505b9392505050565b6000336104da8185856109418383612465565b61094b9190613136565b612490565b6109c1604051806101600160405280606081526020016060815260200160006001600160a01b0316815260200160006001600160a01b031681526020016000815260200160008152602001600081526020016000815260200160008152602001600081526020016000151581525090565b6006826040516109d191906130b8565b9081526020016040518091039020604051806101600160405290816000820180546109fb9061307e565b80601f0160208091040260200160405190810160405280929190818152602001828054610a279061307e565b8015610a745780601f10610a4957610100808354040283529160200191610a74565b820191906000526020600020905b815481529060010190602001808311610a5757829003601f168201915b50505050508152602001600182018054610a8d9061307e565b80601f0160208091040260200160405190810160405280929190818152602001828054610ab99061307e565b8015610b065780601f10610adb57610100808354040283529160200191610b06565b820191906000526020600020905b815481529060010190602001808311610ae957829003601f168201915b505050918352505060028201546001600160a01b03908116602083015260038301541660408201526004820154606082015260058201546080820152600682015460a0820152600782015460c0820152600882015460e08201526009820154610100820152600a9091015460ff1615156101209091015292915050565b600080600685604051610b9691906130b8565b908152602001604051809103902060405180610160016040529081600082018054610bc09061307e565b80601f0160208091040260200160405190810160405280929190818152602001828054610bec9061307e565b8015610c395780601f10610c0e57610100808354040283529160200191610c39565b820191906000526020600020905b815481529060010190602001808311610c1c57829003601f168201915b50505050508152602001600182018054610c529061307e565b80601f0160208091040260200160405190810160405280929190818152602001828054610c7e9061307e565b8015610ccb5780601f10610ca057610100808354040283529160200191610ccb565b820191906000526020600020905b815481529060010190602001808311610cae57829003601f168201915b505050918352505060028201546001600160a01b03908116602083015260038301541660408201526004820154606082015260058201546080820152600682015460a0820152600782015460c0820152600882015460e08201526009820154610100820152600a9091015460ff161515610120909101529050610d4d85612b43565b610e6f5782610de15760055460608201516040516341976e0960e01b81526001600160a01b03909216916341976e0991610d899160040161317f565b602060405180830381865afa158015610da6573d6000803e3d6000fd5b505050506040513d601f19601f82011682018060405250810190610dca9190613193565b610ddc90670de0b6b3a76400006130ea565b610e67565b60055460408083015190516341976e0960e01b81526001600160a01b03909216916341976e0991610e149160040161317f565b602060405180830381865afa158015610e31573d6000803e3d6000fd5b505050506040513d601f19601f82011682018060405250810190610e559190613193565b610e6790670de0b6b3a76400006130ea565b915050610927565b6000610e7d6101f486613101565b905060008260a001518360800151610e9591906130ea565b9050600085610ec85782878560a00151610eaf9190613136565b610eb99190613123565b610ec39083613101565b610ed8565b868460800151610ed89190613136565b9050600086610ef657878560a00151610ef19190613136565b610f1b565b83888660800151610f079190613136565b610f119190613123565b610f1b9084613101565b905086610f3757818560800151610f329190613123565b610f47565b808560a00151610f479190613123565b9998505050505050505050565b82600681604051610f6591906130b8565b908152604051908190036020019020600a015460ff16610f975760405162461bcd60e51b81526004016108f3906131ac565b6000600685604051610fa991906130b8565b908152602001604051809103902060405180610160016040529081600082018054610fd39061307e565b80601f0160208091040260200160405190810160405280929190818152602001828054610fff9061307e565b801561104c5780601f106110215761010080835404028352916020019161104c565b820191906000526020600020905b81548152906001019060200180831161102f57829003601f168201915b505050505081526020016001820180546110659061307e565b80601f01602080910402602001604051908101604052809291908181526020018280546110919061307e565b80156110de5780601f106110b3576101008083540402835291602001916110de565b820191906000526020600020905b8154815290600101906020018083116110c157829003601f168201915b505050918352505060028201546001600160a01b03908116602083015260038301541660408201526004820154606082015260058201546080820152600682015460a0820152600782015460c0820152600882015460e08201526009820154610100820152600a9091015460ff16151561012090910152905060006111656101f485613101565b905060008260a00151836080015161117d91906130ea565b90506000858460a001516111919190613136565b9050600061119f8483613123565b6111a99084613101565b905060008186608001516111bd9190613123565b90508460068b6040516111d091906130b8565b908152602001604051809103902060090160008282546111f09190613136565b925050819055508160068b60405161120891906130b8565b9081526020016040518091039020600401819055508260068b60405161122e91906130b8565b908152604051908190036020018120600501919091556323b872dd60e01b81526001600160a01b038a16906323b872dd9061127190339030908d90600401613207565b6020604051808303816000875af1158015611290573d6000803e3d6000fd5b505050506040513d601f19601f820116820180604052508101906112b49190613162565b50604051600090339083908381818185875af1925050503d80600081146112f7576040519150601f19603f3d011682016040523d82523d6000602084013e6112fc565b606091505b50509050806113435760405162461bcd60e51b815260206004820152601360248201527221b7bab632103737ba1039b2b7321032ba341760691b60448201526064016108f3565b5050505050505050505050565b60008060008060005b60088660405161136991906130b8565b908152604051908190036020019020546001600160801b038216101561147657600060088760405161139b91906130b8565b9081526020016040518091039020826001600160801b0316815481106113c3576113c361322b565b6000918252602090912001546040516001600160a01b0390911691506007906113ed9089906130b8565b90815260408051602092819003830190206001600160a01b0384166000908152925290205461141c9085613136565b935060078760405161142e91906130b8565b90815260408051602092819003830190206001600160a01b038416600090815292529020600101546114609084613136565b925050808061146e90613241565b915050611359565b509094909350915050565b8060068160405161149291906130b8565b908152604051908190036020019020600a015460ff166114c45760405162461bcd60e51b81526004016108f3906131ac565b60006006836040516114d691906130b8565b9081526020016040518091039020604051806101600160405290816000820180546115009061307e565b80601f016020809104026020016040519081016040528092919081815260200182805461152c9061307e565b80156115795780601f1061154e57610100808354040283529160200191611579565b820191906000526020600020905b81548152906001019060200180831161155c57829003601f168201915b505050505081526020016001820180546115929061307e565b80601f01602080910402602001604051908101604052809291908181526020018280546115be9061307e565b801561160b5780601f106115e05761010080835404028352916020019161160b565b820191906000526020600020905b8154815290600101906020018083116115ee57829003601f168201915b505050918352505060028201546001600160a01b03908116602083015260038301541660408201526004820154606082015260058201546080820152600682015460a0820152600782015460c0820152600882015460e08201526009820154610100820152600a9091015460ff16151561012090910152905060006116926101f434613101565b905060008260a0015183608001516116aa91906130ea565b905060003484608001516116be9190613136565b905060006116cc8483613123565b6116d69084613101565b90506000818660a001516116ea9190613123565b9050846006896040516116fd91906130b8565b9081526020016040518091039020600801600082825461171d9190613136565b925050819055508260068960405161173591906130b8565b9081526020016040518091039020600401819055508160068960405161175b91906130b8565b90815260405190819003602001812060050191909155606087015163a9059cbb60e01b82526001600160a01b03169063a9059cbb906117a09033908590600401613149565b6020604051808303816000875af11580156117bf573d6000803e3d6000fd5b505050506040513d601f19601f820116820180604052508101906117e39190613162565b505050505050505050565b60606009805480602002602001604051908101604052809291908181526020016000905b828210156118be5783829060005260206000200180546118319061307e565b80601f016020809104026020016040519081016040528092919081815260200182805461185d9061307e565b80156118aa5780601f1061187f576101008083540402835291602001916118aa565b820191906000526020600020905b81548152906001019060200180831161188d57829003601f168201915b505050505081526020019060010190611812565b50505050905090565b6118cf612bad565b60006006856040516118e191906130b8565b90815260200160405180910390206040518061016001604052908160008201805461190b9061307e565b80601f01602080910402602001604051908101604052809291908181526020018280546119379061307e565b80156119845780601f1061195957610100808354040283529160200191611984565b820191906000526020600020905b81548152906001019060200180831161196757829003601f168201915b5050505050815260200160018201805461199d9061307e565b80601f01602080910402602001604051908101604052809291908181526020018280546119c99061307e565b8015611a165780601f106119eb57610100808354040283529160200191611a16565b820191906000526020600020905b8154815290600101906020018083116119f957829003601f168201915b505050918352505060028201546001600160a01b03908116602083015260038301541660408201526004820154606082015260058201546080820152600682015460a0820152600782015460c0820152600882015460e08201526009820154610100820152600a9091015460ff161515610120909101529050611a9885612b43565b611d0e5782611bd65760408051808201808352600554928401516341976e0960e01b909152909182916305f5e1009188916001600160a01b03909116906341976e0990611ae8906044870161317f565b602060405180830381865afa158015611b05573d6000803e3d6000fd5b505050506040513d601f19601f82011682018060405250810190611b299190613193565b60055460608701516040516341976e0960e01b81526001600160a01b03909216916341976e0991611b5c9160040161317f565b602060405180830381865afa158015611b79573d6000803e3d6000fd5b505050506040513d601f19601f82011682018060405250810190611b9d9190613193565b611bab906305f5e1006130ea565b611bb59190613101565b611bbf91906130ea565b611bc99190613101565b8152602001859052610e67565b604080518082018252858152600554606084015192516341976e0960e01b8152919260208401926305f5e1009289926001600160a01b03909116916341976e0991611c239160040161317f565b602060405180830381865afa158015611c40573d6000803e3d6000fd5b505050506040513d601f19601f82011682018060405250810190611c649190613193565b60055460408088015190516341976e0960e01b81526001600160a01b03909216916341976e0991611c979160040161317f565b602060405180830381865afa158015611cb4573d6000803e3d6000fd5b505050506040513d601f19601f82011682018060405250810190611cd89190613193565b611ce6906305f5e1006130ea565b611cf09190613101565b611cfa91906130ea565b611d049190613101565b9052915050610927565b8215611dd25760008160c001518260e001516305f5e100611d2f91906130ea565b611d399190613101565b9050611d48826080015161280e565b611d518561280e565b611d5a8161280e565b611d678260a0015161280e565b60006305f5e1008360a001516305f5e100611d8291906130ea565b83888660800151611d939190613136565b611d9d91906130ea565b611da79190613123565b611db19190613101565b90506040518060400160405280878152602001828152509350505050610927565b60008160e001518260c001516305f5e100611ded91906130ea565b611df79190613101565b905060006305f5e10083608001516305f5e100611e1491906130ea565b83888660a00151611e259190613136565b611e2f91906130ea565b611e399190613123565b611e439190613101565b90506040518060400160405280828152602001878152509350505050610927565b81600681604051611e7591906130b8565b908152604051908190036020019020600a015460ff16611ea75760405162461bcd60e51b81526004016108f3906131ac565b600683604051611eb791906130b8565b908152604051908190036020018120600301546370a0823160e01b82526001600160a01b0316908390819083906370a0823190611ef890339060040161317f565b602060405180830381865afa158015611f15573d6000803e3d6000fd5b505050506040513d601f19601f82011682018060405250810190611f399190613193565b1015611f835760405162461bcd60e51b815260206004820152601960248201527824b739bab33334b1b4b2b73a1022a921991810333ab732399760391b60448201526064016108f3565b6000600686604051611f9591906130b8565b908152604051908190036020018120600301546323b872dd60e01b82526001600160a01b0316915081906323b872dd90611fd790339030908a90600401613207565b6020604051808303816000875af1158015611ff6573d6000803e3d6000fd5b505050506040513d601f19601f8201168201806040525081019061201a9190613162565b503460068760405161202c91906130b8565b9081526020016040518091039020600401600082825461204c9190613136565b925050819055508460068760405161206491906130b8565b908152602001604051809103902060050160008282546120849190613136565b909155505060405160079061209a9088906130b8565b908152604080516020928190038301902033600090815292529020541580156120ef57506007866040516120ce91906130b8565b90815260408051602092819003830190203360009081529252902060010154155b156121385760088660405161210491906130b8565b908152604051908190036020908101909120805460018101825560009182529190200180546001600160a01b031916331790555b3460078760405161214991906130b8565b9081526040805160209281900383019020336000908152925281208054909190612174908490613136565b925050819055508460078760405161218c91906130b8565b90815260408051602092819003830190203360009081529252812060010180549091906121ba908490613136565b90915550506040516006906121d09088906130b8565b90815260200160405180910390206006015460000361223457346006876040516121fa91906130b8565b9081526020016040518091039020600601819055508460068760405161222091906130b8565b908152604051908190036020019020600701555b505050505050565b6060600480546104499061307e565b60008060078360405161225e91906130b8565b90815260408051918290036020908101832033600090815291522054906007906122899086906130b8565b908152604080516020928190038301902033600090815292529020600101549094909350915050565b600033816122c08286612465565b9050838110156123205760405162461bcd60e51b815260206004820152602560248201527f45524332303a2064656372656173656420616c6c6f77616e63652062656c6f77604482015264207a65726f60d81b60648201526084016108f3565b61232d8286868403612490565b506001949350505050565b6000336104da818585612975565b6000806000806123578787876125b4565b90925090506000806123698933612856565b90925090506123788285613136565b6123828285613136565b9550955050505050935093915050565b6000806000806123a186611350565b80925081935050506000826007886040516123bc91906130b8565b90815260408051602092819003830190206001600160a01b038a16600090815292529020546123f390670de0b6b3a76400006130ea565b6123fd9190613101565b905060008260078960405161241291906130b8565b90815260408051602092819003830190206001600160a01b038b166000908152925290206001015461244c90670de0b6b3a76400006130ea565b6124569190613101565b91989197509095505050505050565b6001600160a01b03918216600090815260016020908152604080832093909416825291909152205490565b6001600160a01b0383166124f25760405162461bcd60e51b8152602060048201526024808201527f45524332303a20617070726f76652066726f6d20746865207a65726f206164646044820152637265737360e01b60648201526084016108f3565b6001600160a01b0382166125535760405162461bcd60e51b815260206004820152602260248201527f45524332303a20617070726f766520746f20746865207a65726f206164647265604482015261737360f01b60648201526084016108f3565b6001600160a01b0383811660008181526001602090815260408083209487168084529482529182902085905590518481527f8c5be1e5ebec7d5bd14f71427d1e84f3dd0314c0f7b2291e5b200ac8c7c3b925910160405180910390a3505050565b60008060006006866040516125c991906130b8565b9081526020016040518091039020600601546006876040516125eb91906130b8565b9081526020016040518091039020600701546126079190613101565b9050600060068760405161261b91906130b8565b90815260200160405180910390206007015460068860405161263d91906130b8565b908152602001604051809103902060060154670de0b6b3a764000061266291906130ea565b61266c9190613101565b90506000808661269957670de0b6b3a7640000612689848a6130ea565b6126939190613101565b886126a4565b876126a485826130ea565b604051919350915082906006906126bc908c906130b8565b908152602001604051809103902060040154101561274a57600061270b8360068c6040516126ea91906130b8565b908152602001604051809103902060040154612706919061326f565b612b70565b905060068a60405161271d91906130b8565b90815260405190819003602001902060040154925061273c85826130ea565b6127469083613136565b9150505b8060068a60405161275b91906130b8565b90815260200160405180910390206005015410156128005760006127ae612782868b6130ea565b60068c60405161279291906130b8565b908152602001604051809103902060050154612706919061326f565b9050670de0b6b3a7640000846127c48484613136565b6127ce91906130ea565b6127d89190613101565b925060068a6040516127ea91906130b8565b9081526020016040518091039020600501549150505b909890975095505050505050565b6128538160405160240161282491815260200190565b60408051601f198184030181529190526020810180516001600160e01b031663f82c50f160e01b179052612b8c565b50565b6000806000806128668686612392565b8092508193505050670de0b6b3a76400008260068860405161288891906130b8565b9081526020016040518091039020600801546128a491906130ea565b6128ae9190613101565b670de0b6b3a7640000826006896040516128c891906130b8565b9081526020016040518091039020600901546128e491906130ea565b6128ee9190613101565b9350935050509250929050565b60006129078484612465565b9050600019811461296f57818110156129625760405162461bcd60e51b815260206004820152601d60248201527f45524332303a20696e73756666696369656e7420616c6c6f77616e636500000060448201526064016108f3565b61296f8484848403612490565b50505050565b6001600160a01b0383166129d95760405162461bcd60e51b815260206004820152602560248201527f45524332303a207472616e736665722066726f6d20746865207a65726f206164604482015264647265737360d81b60648201526084016108f3565b6001600160a01b038216612a3b5760405162461bcd60e51b815260206004820152602360248201527f45524332303a207472616e7366657220746f20746865207a65726f206164647260448201526265737360e81b60648201526084016108f3565b6001600160a01b03831660009081526020819052604090205481811015612ab35760405162461bcd60e51b815260206004820152602660248201527f45524332303a207472616e7366657220616d6f756e7420657863656564732062604482015265616c616e636560d01b60648201526084016108f3565b6001600160a01b03808516600090815260208190526040808220858503905591851681529081208054849290612aea908490613136565b92505081905550826001600160a01b0316846001600160a01b03167fddf252ad1be2c89b69c2b068fc378daa952ba7f163c4a11628f55a4df523b3ef84604051612b3691815260200190565b60405180910390a361296f565b6000600682604051612b5591906130b8565b90815260405190819003602001902060060154151592915050565b600080821215612b8857612b8382613296565b6104e0565b5090565b80516a636f6e736f6c652e6c6f67602083016000808483855afa5050505050565b60405180604001604052806002906020820280368337509192915050565b60005b83811015612be6578181015183820152602001612bce565b50506000910152565b60008151808452612c07816020860160208601612bcb565b601f01601f19169290920160200192915050565b6020815260006109276020830184612bef565b80356001600160a01b0381168114612c4557600080fd5b919050565b60008060408385031215612c5d57600080fd5b612c6683612c2e565b946020939093013593505050565b634e487b7160e01b600052604160045260246000fd5b600082601f830112612c9b57600080fd5b81356001600160401b0380821115612cb557612cb5612c74565b604051601f8301601f19908116603f01168101908282118183101715612cdd57612cdd612c74565b81604052838152866020858801011115612cf657600080fd5b836020870160208301376000602085830101528094505050505092915050565b801515811461285357600080fd5b600080600060608486031215612d3957600080fd5b83356001600160401b03811115612d4f57600080fd5b612d5b86828701612c8a565b935050602084013591506040840135612d7381612d16565b809150509250925092565b600080600060608486031215612d9357600080fd5b612d9c84612c2e565b9250612daa60208501612c2e565b9150604084013590509250925092565b600060208284031215612dcc57600080fd5b81356001600160401b03811115612de257600080fd5b612dee84828501612c8a565b949350505050565b6001600160a01b03169052565b6020815260008251610160806020850152612e22610180850183612bef565b91506020850151601f19858403016040860152612e3f8382612bef565b9250506040850151612e546060860182612df6565b506060850151612e676080860182612df6565b50608085015160a085015260a085015160c085015260c085015160e085015260e0850151610100818187015280870151915050610120818187015280870151915050610140818187015280870151915050612ec58286018215159052565b5090949350505050565b600080600060608486031215612ee457600080fd5b83356001600160401b03811115612efa57600080fd5b612f0686828701612c8a565b935050612daa60208501612c2e565b6000602080830181845280855180835260408601915060408160051b870101925083870160005b82811015612f6a57603f19888603018452612f58858351612bef565b94509285019290850190600101612f3c565b5092979650505050505050565b600060208284031215612f8957600080fd5b61092782612c2e565b60408101818360005b6002811015612fba578151835260209283019290910190600101612f9b565b50505092915050565b60008060408385031215612fd657600080fd5b82356001600160401b03811115612fec57600080fd5b612ff885828601612c8a565b95602094909401359450505050565b6000806040838503121561301a57600080fd5b82356001600160401b0381111561303057600080fd5b61303c85828601612c8a565b92505061304b60208401612c2e565b90509250929050565b6000806040838503121561306757600080fd5b61307083612c2e565b915061304b60208401612c2e565b600181811c9082168061309257607f821691505b6020821081036130b257634e487b7160e01b600052602260045260246000fd5b50919050565b600082516130ca818460208701612bcb565b9190910192915050565b634e487b7160e01b600052601160045260246000fd5b80820281158282048414176104e0576104e06130d4565b60008261311e57634e487b7160e01b600052601260045260246000fd5b500490565b818103818111156104e0576104e06130d4565b808201808211156104e0576104e06130d4565b6001600160a01b03929092168252602082015260400190565b60006020828403121561317457600080fd5b815161092781612d16565b6001600160a01b0391909116815260200190565b6000602082840312156131a557600080fd5b5051919050565b6020808252603b908201527f5468657265206973206e6f207375636820746f6b656e20636f6e74726163742060408201527a2ca2aa103232b83637bcb2b21034b71037bab91039bcb9ba32b69760291b606082015260800190565b6001600160a01b039384168152919092166020820152604081019190915260600190565b634e487b7160e01b600052603260045260246000fd5b60006001600160801b038281166002600160801b03198101613265576132656130d4565b6001019392505050565b818103600083128015838313168383128216171561328f5761328f6130d4565b5092915050565b6000600160ff1b82016132ab576132ab6130d4565b506000039056fea2646970667358221220b1ada64bf64981e074316cb5d0896c2d130e565e81b0e856602ac9191f7e231264736f6c63430008110033",
  "devdoc": {
    "kind": "dev",
    "methods": {
      "allowance(address,address)": {
        "details": "See {IERC20-allowance}."
      },
      "approve(address,uint256)": {
        "details": "See {IERC20-approve}. NOTE: If `amount` is the maximum `uint256`, the allowance is not updated on `transferFrom`. This is semantically equivalent to an infinite approval. Requirements: - `spender` cannot be the zero address."
      },
      "balanceOf(address)": {
        "details": "See {IERC20-balanceOf}."
      },
      "decimals()": {
        "details": "Returns the number of decimals used to get its user representation. For example, if `decimals` equals `2`, a balance of `505` tokens should be displayed to a user as `5.05` (`505 / 10 ** 2`). Tokens usually opt for a value of 18, imitating the relationship between Ether and Wei. This is the value {ERC20} uses, unless this function is overridden; NOTE: This information is only used for _display_ purposes: it in no way affects any of the arithmetic of the contract, including {IERC20-balanceOf} and {IERC20-transfer}."
      },
      "decreaseAllowance(address,uint256)": {
        "details": "Atomically decreases the allowance granted to `spender` by the caller. This is an alternative to {approve} that can be used as a mitigation for problems described in {IERC20-approve}. Emits an {Approval} event indicating the updated allowance. Requirements: - `spender` cannot be the zero address. - `spender` must have allowance for the caller of at least `subtractedValue`."
      },
      "increaseAllowance(address,uint256)": {
        "details": "Atomically increases the allowance granted to `spender` by the caller. This is an alternative to {approve} that can be used as a mitigation for problems described in {IERC20-approve}. Emits an {Approval} event indicating the updated allowance. Requirements: - `spender` cannot be the zero address."
      },
      "name()": {
        "details": "Returns the name of the token."
      },
      "symbol()": {
        "details": "Returns the symbol of the token, usually a shorter version of the name."
      },
      "totalSupply()": {
        "details": "See {IERC20-totalSupply}."
      },
      "transfer(address,uint256)": {
        "details": "See {IERC20-transfer}. Requirements: - `to` cannot be the zero address. - the caller must have a balance of at least `amount`."
      },
      "transferFrom(address,address,uint256)": {
        "details": "See {IERC20-transferFrom}. Emits an {Approval} event indicating the updated allowance. This is not required by the EIP. See the note at the beginning of {ERC20}. NOTE: Does not update the allowance if the current allowance is the maximum `uint256`. Requirements: - `from` and `to` cannot be the zero address. - `from` must have a balance of at least `amount`. - the caller must have allowance for ``from``'s tokens of at least `amount`."
      }
    },
    "version": 1
  },
  "userdoc": {
    "kind": "user",
    "methods": {},
    "version": 1
  },
  "storageLayout": {
    "storage": [
      {
        "astId": 118,
        "contract": "contracts/EthToERC20.sol:EthToERC20",
        "label": "_balances",
        "offset": 0,
        "slot": "0",
        "type": "t_mapping(t_address,t_uint256)"
      },
      {
        "astId": 124,
        "contract": "contracts/EthToERC20.sol:EthToERC20",
        "label": "_allowances",
        "offset": 0,
        "slot": "1",
        "type": "t_mapping(t_address,t_mapping(t_address,t_uint256))"
      },
      {
        "astId": 126,
        "contract": "contracts/EthToERC20.sol:EthToERC20",
        "label": "_totalSupply",
        "offset": 0,
        "slot": "2",
        "type": "t_uint256"
      },
      {
        "astId": 128,
        "contract": "contracts/EthToERC20.sol:EthToERC20",
        "label": "_name",
        "offset": 0,
        "slot": "3",
        "type": "t_string_storage"
      },
      {
        "astId": 130,
        "contract": "contracts/EthToERC20.sol:EthToERC20",
        "label": "_symbol",
        "offset": 0,
        "slot": "4",
        "type": "t_string_storage"
      },
      {
        "astId": 1050,
        "contract": "contracts/EthToERC20.sol:EthToERC20",
        "label": "priceFeed",
        "offset": 0,
        "slot": "5",
        "type": "t_contract(PriceFeed)2629"
      },
      {
        "astId": 1055,
        "contract": "contracts/EthToERC20.sol:EthToERC20",
        "label": "tokenPools",
        "offset": 0,
        "slot": "6",
        "type": "t_mapping(t_string_memory_ptr,t_struct(pairPool)1100_storage)"
      },
      {
        "astId": 1062,
        "contract": "contracts/EthToERC20.sol:EthToERC20",
        "label": "liquidityShares",
        "offset": 0,
        "slot": "7",
        "type": "t_mapping(t_string_memory_ptr,t_mapping(t_address,t_struct(liquidityShare)1077_storage))"
      },
      {
        "astId": 1067,
        "contract": "contracts/EthToERC20.sol:EthToERC20",
        "label": "liquidityProviders",
        "offset": 0,
        "slot": "8",
        "type": "t_mapping(t_string_memory_ptr,t_array(t_address)dyn_storage)"
      },
      {
        "astId": 1070,
        "contract": "contracts/EthToERC20.sol:EthToERC20",
        "label": "pools",
        "offset": 0,
        "slot": "9",
        "type": "t_array(t_string_storage)dyn_storage"
      },
      {
        "astId": 1072,
        "contract": "contracts/EthToERC20.sol:EthToERC20",
        "label": "withdrawPrecision",
        "offset": 0,
        "slot": "10",
        "type": "t_uint128"
      }
    ],
    "types": {
      "t_address": {
        "encoding": "inplace",
        "label": "address",
        "numberOfBytes": "20"
      },
      "t_array(t_address)dyn_storage": {
        "base": "t_address",
        "encoding": "dynamic_array",
        "label": "address[]",
        "numberOfBytes": "32"
      },
      "t_array(t_string_storage)dyn_storage": {
        "base": "t_string_storage",
        "encoding": "dynamic_array",
        "label": "string[]",
        "numberOfBytes": "32"
      },
      "t_bool": {
        "encoding": "inplace",
        "label": "bool",
        "numberOfBytes": "1"
      },
      "t_contract(PriceFeed)2629": {
        "encoding": "inplace",
        "label": "contract PriceFeed",
        "numberOfBytes": "20"
      },
      "t_mapping(t_address,t_mapping(t_address,t_uint256))": {
        "encoding": "mapping",
        "key": "t_address",
        "label": "mapping(address => mapping(address => uint256))",
        "numberOfBytes": "32",
        "value": "t_mapping(t_address,t_uint256)"
      },
      "t_mapping(t_address,t_struct(liquidityShare)1077_storage)": {
        "encoding": "mapping",
        "key": "t_address",
        "label": "mapping(address => struct EthToERC20.liquidityShare)",
        "numberOfBytes": "32",
        "value": "t_struct(liquidityShare)1077_storage"
      },
      "t_mapping(t_address,t_uint256)": {
        "encoding": "mapping",
        "key": "t_address",
        "label": "mapping(address => uint256)",
        "numberOfBytes": "32",
        "value": "t_uint256"
      },
      "t_mapping(t_string_memory_ptr,t_array(t_address)dyn_storage)": {
        "encoding": "mapping",
        "key": "t_string_memory_ptr",
        "label": "mapping(string => address[])",
        "numberOfBytes": "32",
        "value": "t_array(t_address)dyn_storage"
      },
      "t_mapping(t_string_memory_ptr,t_mapping(t_address,t_struct(liquidityShare)1077_storage))": {
        "encoding": "mapping",
        "key": "t_string_memory_ptr",
        "label": "mapping(string => mapping(address => struct EthToERC20.liquidityShare))",
        "numberOfBytes": "32",
        "value": "t_mapping(t_address,t_struct(liquidityShare)1077_storage)"
      },
      "t_mapping(t_string_memory_ptr,t_struct(pairPool)1100_storage)": {
        "encoding": "mapping",
        "key": "t_string_memory_ptr",
        "label": "mapping(string => struct EthToERC20.pairPool)",
        "numberOfBytes": "32",
        "value": "t_struct(pairPool)1100_storage"
      },
      "t_string_memory_ptr": {
        "encoding": "bytes",
        "label": "string",
        "numberOfBytes": "32"
      },
      "t_string_storage": {
        "encoding": "bytes",
        "label": "string",
        "numberOfBytes": "32"
      },
      "t_struct(liquidityShare)1077_storage": {
        "encoding": "inplace",
        "label": "struct EthToERC20.liquidityShare",
        "members": [
          {
            "astId": 1074,
            "contract": "contracts/EthToERC20.sol:EthToERC20",
            "label": "t1Amount",
            "offset": 0,
            "slot": "0",
            "type": "t_uint256"
          },
          {
            "astId": 1076,
            "contract": "contracts/EthToERC20.sol:EthToERC20",
            "label": "t2Amount",
            "offset": 0,
            "slot": "1",
            "type": "t_uint256"
          }
        ],
        "numberOfBytes": "64"
      },
      "t_struct(pairPool)1100_storage": {
        "encoding": "inplace",
        "label": "struct EthToERC20.pairPool",
        "members": [
          {
            "astId": 1079,
            "contract": "contracts/EthToERC20.sol:EthToERC20",
            "label": "token1",
            "offset": 0,
            "slot": "0",
            "type": "t_string_storage"
          },
          {
            "astId": 1081,
            "contract": "contracts/EthToERC20.sol:EthToERC20",
            "label": "token2",
            "offset": 0,
            "slot": "1",
            "type": "t_string_storage"
          },
          {
            "astId": 1083,
            "contract": "contracts/EthToERC20.sol:EthToERC20",
            "label": "token1Con",
            "offset": 0,
            "slot": "2",
            "type": "t_address"
          },
          {
            "astId": 1085,
            "contract": "contracts/EthToERC20.sol:EthToERC20",
            "label": "token2Con",
            "offset": 0,
            "slot": "3",
            "type": "t_address"
          },
          {
            "astId": 1087,
            "contract": "contracts/EthToERC20.sol:EthToERC20",
            "label": "token1Amount",
            "offset": 0,
            "slot": "4",
            "type": "t_uint256"
          },
          {
            "astId": 1089,
            "contract": "contracts/EthToERC20.sol:EthToERC20",
            "label": "token2Amount",
            "offset": 0,
            "slot": "5",
            "type": "t_uint256"
          },
          {
            "astId": 1091,
            "contract": "contracts/EthToERC20.sol:EthToERC20",
            "label": "token1Seed",
            "offset": 0,
            "slot": "6",
            "type": "t_uint256"
          },
          {
            "astId": 1093,
            "contract": "contracts/EthToERC20.sol:EthToERC20",
            "label": "token2Seed",
            "offset": 0,
            "slot": "7",
            "type": "t_uint256"
          },
          {
            "astId": 1095,
            "contract": "contracts/EthToERC20.sol:EthToERC20",
            "label": "t1Fees",
            "offset": 0,
            "slot": "8",
            "type": "t_uint256"
          },
          {
            "astId": 1097,
            "contract": "contracts/EthToERC20.sol:EthToERC20",
            "label": "t2Fees",
            "offset": 0,
            "slot": "9",
            "type": "t_uint256"
          },
          {
            "astId": 1099,
            "contract": "contracts/EthToERC20.sol:EthToERC20",
            "label": "created",
            "offset": 0,
            "slot": "10",
            "type": "t_bool"
          }
        ],
        "numberOfBytes": "352"
      },
      "t_uint128": {
        "encoding": "inplace",
        "label": "uint128",
        "numberOfBytes": "16"
      },
      "t_uint256": {
        "encoding": "inplace",
        "label": "uint256",
        "numberOfBytes": "32"
      }
    }
  }
}