{
  "address": "0xFD6D23eE2b6b136E34572fc80cbCd33E9787705e",
  "abi": [
    {
      "inputs": [
        {
          "internalType": "address",
          "name": "_usdcContract",
          "type": "address"
        },
        {
          "internalType": "address",
          "name": "_priceFeed",
          "type": "address"
        }
      ],
      "stateMutability": "payable",
      "type": "constructor"
    },
    {
      "anonymous": false,
      "inputs": [
        {
          "indexed": true,
          "internalType": "address",
          "name": "owner",
          "type": "address"
        },
        {
          "indexed": true,
          "internalType": "address",
          "name": "spender",
          "type": "address"
        },
        {
          "indexed": false,
          "internalType": "uint256",
          "name": "value",
          "type": "uint256"
        }
      ],
      "name": "Approval",
      "type": "event"
    },
    {
      "anonymous": false,
      "inputs": [
        {
          "indexed": true,
          "internalType": "address",
          "name": "from",
          "type": "address"
        },
        {
          "indexed": true,
          "internalType": "address",
          "name": "to",
          "type": "address"
        },
        {
          "indexed": false,
          "internalType": "uint256",
          "name": "value",
          "type": "uint256"
        }
      ],
      "name": "Transfer",
      "type": "event"
    },
    {
      "inputs": [
        {
          "internalType": "address",
          "name": "owner",
          "type": "address"
        },
        {
          "internalType": "address",
          "name": "spender",
          "type": "address"
        }
      ],
      "name": "allowance",
      "outputs": [
        {
          "internalType": "uint256",
          "name": "",
          "type": "uint256"
        }
      ],
      "stateMutability": "view",
      "type": "function"
    },
    {
      "inputs": [
        {
          "internalType": "address",
          "name": "spender",
          "type": "address"
        },
        {
          "internalType": "uint256",
          "name": "amount",
          "type": "uint256"
        }
      ],
      "name": "approve",
      "outputs": [
        {
          "internalType": "bool",
          "name": "",
          "type": "bool"
        }
      ],
      "stateMutability": "nonpayable",
      "type": "function"
    },
    {
      "inputs": [
        {
          "internalType": "address",
          "name": "account",
          "type": "address"
        }
      ],
      "name": "balanceOf",
      "outputs": [
        {
          "internalType": "uint256",
          "name": "",
          "type": "uint256"
        }
      ],
      "stateMutability": "view",
      "type": "function"
    },
    {
      "inputs": [],
      "name": "decimals",
      "outputs": [
        {
          "internalType": "uint8",
          "name": "",
          "type": "uint8"
        }
      ],
      "stateMutability": "view",
      "type": "function"
    },
    {
      "inputs": [
        {
          "internalType": "address",
          "name": "spender",
          "type": "address"
        },
        {
          "internalType": "uint256",
          "name": "subtractedValue",
          "type": "uint256"
        }
      ],
      "name": "decreaseAllowance",
      "outputs": [
        {
          "internalType": "bool",
          "name": "",
          "type": "bool"
        }
      ],
      "stateMutability": "nonpayable",
      "type": "function"
    },
    {
      "inputs": [
        {
          "internalType": "uint256",
          "name": "tokensAmount",
          "type": "uint256"
        }
      ],
      "name": "deposit",
      "outputs": [],
      "stateMutability": "payable",
      "type": "function"
    },
    {
      "inputs": [
        {
          "internalType": "address",
          "name": "spender",
          "type": "address"
        },
        {
          "internalType": "uint256",
          "name": "addedValue",
          "type": "uint256"
        }
      ],
      "name": "increaseAllowance",
      "outputs": [
        {
          "internalType": "bool",
          "name": "",
          "type": "bool"
        }
      ],
      "stateMutability": "nonpayable",
      "type": "function"
    },
    {
      "inputs": [],
      "name": "name",
      "outputs": [
        {
          "internalType": "string",
          "name": "",
          "type": "string"
        }
      ],
      "stateMutability": "view",
      "type": "function"
    },
    {
      "inputs": [],
      "name": "symbol",
      "outputs": [
        {
          "internalType": "string",
          "name": "",
          "type": "string"
        }
      ],
      "stateMutability": "view",
      "type": "function"
    },
    {
      "inputs": [],
      "name": "totalSupply",
      "outputs": [
        {
          "internalType": "uint256",
          "name": "",
          "type": "uint256"
        }
      ],
      "stateMutability": "view",
      "type": "function"
    },
    {
      "inputs": [
        {
          "internalType": "address",
          "name": "to",
          "type": "address"
        },
        {
          "internalType": "uint256",
          "name": "amount",
          "type": "uint256"
        }
      ],
      "name": "transfer",
      "outputs": [
        {
          "internalType": "bool",
          "name": "",
          "type": "bool"
        }
      ],
      "stateMutability": "nonpayable",
      "type": "function"
    },
    {
      "inputs": [
        {
          "internalType": "address",
          "name": "from",
          "type": "address"
        },
        {
          "internalType": "address",
          "name": "to",
          "type": "address"
        },
        {
          "internalType": "uint256",
          "name": "amount",
          "type": "uint256"
        }
      ],
      "name": "transferFrom",
      "outputs": [
        {
          "internalType": "bool",
          "name": "",
          "type": "bool"
        }
      ],
      "stateMutability": "nonpayable",
      "type": "function"
    },
    {
      "stateMutability": "payable",
      "type": "receive"
    }
  ],
  "transactionHash": "0x9647141bb85db2981c68b0a06813057bf47fd6d96dcad2d8437fc30500c88093",
  "args": [
    "0x413b1AfCa96a3df5A686d8BFBF93d30688a7f7D9",
    "0x5D42EBdBBa61412295D7b0302d6F50aC449Ddb4F"
  ],
  "numDeployments": 16,
  "solcInputHash": "c55439a913a83ec03f839935729c5ba6",
  "bytecode": "0x608060405260405162002029380380620020298339818101604052810190620000299190620001af565b6040518060400160405280600981526020017f457468546f5573646300000000000000000000000000000000000000000000008152506040518060400160405280600481526020017f45545543000000000000000000000000000000000000000000000000000000008152508160039081620000a6919062000470565b508060049081620000b8919062000470565b50505081600660006101000a81548173ffffffffffffffffffffffffffffffffffffffff021916908373ffffffffffffffffffffffffffffffffffffffff16021790555080600560006101000a81548173ffffffffffffffffffffffffffffffffffffffff021916908373ffffffffffffffffffffffffffffffffffffffff160217905550505062000557565b600080fd5b600073ffffffffffffffffffffffffffffffffffffffff82169050919050565b600062000177826200014a565b9050919050565b62000189816200016a565b81146200019557600080fd5b50565b600081519050620001a9816200017e565b92915050565b60008060408385031215620001c957620001c862000145565b5b6000620001d98582860162000198565b9250506020620001ec8582860162000198565b9150509250929050565b600081519050919050565b7f4e487b7100000000000000000000000000000000000000000000000000000000600052604160045260246000fd5b7f4e487b7100000000000000000000000000000000000000000000000000000000600052602260045260246000fd5b600060028204905060018216806200027857607f821691505b6020821081036200028e576200028d62000230565b5b50919050565b60008190508160005260206000209050919050565b60006020601f8301049050919050565b600082821b905092915050565b600060088302620002f87fffffffffffffffffffffffffffffffffffffffffffffffffffffffffffffffff82620002b9565b620003048683620002b9565b95508019841693508086168417925050509392505050565b6000819050919050565b6000819050919050565b6000620003516200034b62000345846200031c565b62000326565b6200031c565b9050919050565b6000819050919050565b6200036d8362000330565b620003856200037c8262000358565b848454620002c6565b825550505050565b600090565b6200039c6200038d565b620003a981848462000362565b505050565b5b81811015620003d157620003c560008262000392565b600181019050620003af565b5050565b601f8211156200042057620003ea8162000294565b620003f584620002a9565b8101602085101562000405578190505b6200041d6200041485620002a9565b830182620003ae565b50505b505050565b600082821c905092915050565b6000620004456000198460080262000425565b1980831691505092915050565b600062000460838362000432565b9150826002028217905092915050565b6200047b82620001f6565b67ffffffffffffffff81111562000497576200049662000201565b5b620004a382546200025f565b620004b0828285620003d5565b600060209050601f831160018114620004e85760008415620004d3578287015190505b620004df858262000452565b8655506200054f565b601f198416620004f88662000294565b60005b828110156200052257848901518255600182019150602085019450602081019050620004fb565b868310156200054257848901516200053e601f89168262000432565b8355505b6001600288020188555050505b505050505050565b611ac280620005676000396000f3fe6080604052600436106100ab5760003560e01c806370a082311161006457806370a08231146101ef57806395d89b411461022c578063a457c2d714610257578063a9059cbb14610294578063b6b55f25146102d1578063dd62ed3e146102ed576100b2565b806306fdde03146100b7578063095ea7b3146100e257806318160ddd1461011f57806323b872dd1461014a578063313ce5671461018757806339509351146101b2576100b2565b366100b257005b600080fd5b3480156100c357600080fd5b506100cc61032a565b6040516100d99190610fe1565b60405180910390f35b3480156100ee57600080fd5b506101096004803603810190610104919061109c565b6103bc565b60405161011691906110f7565b60405180910390f35b34801561012b57600080fd5b506101346103df565b6040516101419190611121565b60405180910390f35b34801561015657600080fd5b50610171600480360381019061016c919061113c565b6103e9565b60405161017e91906110f7565b60405180910390f35b34801561019357600080fd5b5061019c610418565b6040516101a991906111ab565b60405180910390f35b3480156101be57600080fd5b506101d960048036038101906101d4919061109c565b610421565b6040516101e691906110f7565b60405180910390f35b3480156101fb57600080fd5b50610216600480360381019061021191906111c6565b610458565b6040516102239190611121565b60405180910390f35b34801561023857600080fd5b506102416104a0565b60405161024e9190610fe1565b60405180910390f35b34801561026357600080fd5b5061027e6004803603810190610279919061109c565b610532565b60405161028b91906110f7565b60405180910390f35b3480156102a057600080fd5b506102bb60048036038101906102b6919061109c565b6105a9565b6040516102c891906110f7565b60405180910390f35b6102eb60048036038101906102e691906111f3565b6105cc565b005b3480156102f957600080fd5b50610314600480360381019061030f9190611220565b6109e4565b6040516103219190611121565b60405180910390f35b6060600380546103399061128f565b80601f01602080910402602001604051908101604052809291908181526020018280546103659061128f565b80156103b25780601f10610387576101008083540402835291602001916103b2565b820191906000526020600020905b81548152906001019060200180831161039557829003601f168201915b5050505050905090565b6000806103c7610a6b565b90506103d4818585610a73565b600191505092915050565b6000600254905090565b6000806103f4610a6b565b9050610401858285610c3c565b61040c858585610cc8565b60019150509392505050565b60006012905090565b60008061042c610a6b565b905061044d81858561043e85896109e4565b61044891906112ef565b610a73565b600191505092915050565b60008060008373ffffffffffffffffffffffffffffffffffffffff1673ffffffffffffffffffffffffffffffffffffffff168152602001908152602001600020549050919050565b6060600480546104af9061128f565b80601f01602080910402602001604051908101604052809291908181526020018280546104db9061128f565b80156105285780601f106104fd57610100808354040283529160200191610528565b820191906000526020600020905b81548152906001019060200180831161050b57829003601f168201915b5050505050905090565b60008061053d610a6b565b9050600061054b82866109e4565b905083811015610590576040517f08c379a000000000000000000000000000000000000000000000000000000000815260040161058790611395565b60405180910390fd5b61059d8286868403610a73565b60019250505092915050565b6000806105b4610a6b565b90506105c1818585610cc8565b600191505092915050565b80600660009054906101000a900473ffffffffffffffffffffffffffffffffffffffff1673ffffffffffffffffffffffffffffffffffffffff166370a08231336040518263ffffffff1660e01b815260040161062891906113c4565b602060405180830381865afa158015610645573d6000803e3d6000fd5b505050506040513d601f19601f8201168201806040525081019061066991906113f4565b10156106aa576040517f08c379a00000000000000000000000000000000000000000000000000000000081526004016106a19061146d565b60405180910390fd5b6000600560009054906101000a900473ffffffffffffffffffffffffffffffffffffffff1673ffffffffffffffffffffffffffffffffffffffff166341976e09600660009054906101000a900473ffffffffffffffffffffffffffffffffffffffff166040518263ffffffff1660e01b815260040161072991906113c4565b602060405180830381865afa158015610746573d6000803e3d6000fd5b505050506040513d601f19601f8201168201806040525081019061076a91906114c3565b90506000600560009054906101000a900473ffffffffffffffffffffffffffffffffffffffff1673ffffffffffffffffffffffffffffffffffffffff166341976e0973b06c856c8eabd1d8321b687e188204c1018bc4e56040518263ffffffff1660e01b81526004016107dd91906113c4565b602060405180830381865afa1580156107fa573d6000803e3d6000fd5b505050506040513d601f19601f8201168201806040525081019061081e91906114c3565b9050600034838361082f919061151f565b6108399190611550565b905060008183670de0b6b3a76400006108529190611550565b670de0b6b3a76400006108659190611550565b61086f919061151f565b905081670de0b6b3a7640000866108869190611550565b146108c6576040517f08c379a00000000000000000000000000000000000000000000000000000000081526004016108bd90611604565b60405180910390fd5b803414610908576040517f08c379a00000000000000000000000000000000000000000000000000000000081526004016108ff90611696565b60405180910390fd5b600660009054906101000a900473ffffffffffffffffffffffffffffffffffffffff1673ffffffffffffffffffffffffffffffffffffffff166323b872dd3330886040518463ffffffff1660e01b8152600401610967939291906116b6565b6020604051808303816000875af1158015610986573d6000803e3d6000fd5b505050506040513d601f19601f820116820180604052508101906109aa9190611719565b5034600760008282546109bd91906112ef565b9250508190555084600860008282546109d691906112ef565b925050819055505050505050565b6000600160008473ffffffffffffffffffffffffffffffffffffffff1673ffffffffffffffffffffffffffffffffffffffff16815260200190815260200160002060008373ffffffffffffffffffffffffffffffffffffffff1673ffffffffffffffffffffffffffffffffffffffff16815260200190815260200160002054905092915050565b600033905090565b600073ffffffffffffffffffffffffffffffffffffffff168373ffffffffffffffffffffffffffffffffffffffff1603610ae2576040517f08c379a0000000000000000000000000000000000000000000000000000000008152600401610ad9906117b8565b60405180910390fd5b600073ffffffffffffffffffffffffffffffffffffffff168273ffffffffffffffffffffffffffffffffffffffff1603610b51576040517f08c379a0000000000000000000000000000000000000000000000000000000008152600401610b489061184a565b60405180910390fd5b80600160008573ffffffffffffffffffffffffffffffffffffffff1673ffffffffffffffffffffffffffffffffffffffff16815260200190815260200160002060008473ffffffffffffffffffffffffffffffffffffffff1673ffffffffffffffffffffffffffffffffffffffff168152602001908152602001600020819055508173ffffffffffffffffffffffffffffffffffffffff168373ffffffffffffffffffffffffffffffffffffffff167f8c5be1e5ebec7d5bd14f71427d1e84f3dd0314c0f7b2291e5b200ac8c7c3b92583604051610c2f9190611121565b60405180910390a3505050565b6000610c4884846109e4565b90507fffffffffffffffffffffffffffffffffffffffffffffffffffffffffffffffff8114610cc25781811015610cb4576040517f08c379a0000000000000000000000000000000000000000000000000000000008152600401610cab906118b6565b60405180910390fd5b610cc18484848403610a73565b5b50505050565b600073ffffffffffffffffffffffffffffffffffffffff168373ffffffffffffffffffffffffffffffffffffffff1603610d37576040517f08c379a0000000000000000000000000000000000000000000000000000000008152600401610d2e90611948565b60405180910390fd5b600073ffffffffffffffffffffffffffffffffffffffff168273ffffffffffffffffffffffffffffffffffffffff1603610da6576040517f08c379a0000000000000000000000000000000000000000000000000000000008152600401610d9d906119da565b60405180910390fd5b610db1838383610f47565b60008060008573ffffffffffffffffffffffffffffffffffffffff1673ffffffffffffffffffffffffffffffffffffffff16815260200190815260200160002054905081811015610e37576040517f08c379a0000000000000000000000000000000000000000000000000000000008152600401610e2e90611a6c565b60405180910390fd5b8181036000808673ffffffffffffffffffffffffffffffffffffffff1673ffffffffffffffffffffffffffffffffffffffff16815260200190815260200160002081905550816000808573ffffffffffffffffffffffffffffffffffffffff1673ffffffffffffffffffffffffffffffffffffffff1681526020019081526020016000206000828254610eca91906112ef565b925050819055508273ffffffffffffffffffffffffffffffffffffffff168473ffffffffffffffffffffffffffffffffffffffff167fddf252ad1be2c89b69c2b068fc378daa952ba7f163c4a11628f55a4df523b3ef84604051610f2e9190611121565b60405180910390a3610f41848484610f4c565b50505050565b505050565b505050565b600081519050919050565b600082825260208201905092915050565b60005b83811015610f8b578082015181840152602081019050610f70565b60008484015250505050565b6000601f19601f8301169050919050565b6000610fb382610f51565b610fbd8185610f5c565b9350610fcd818560208601610f6d565b610fd681610f97565b840191505092915050565b60006020820190508181036000830152610ffb8184610fa8565b905092915050565b600080fd5b600073ffffffffffffffffffffffffffffffffffffffff82169050919050565b600061103382611008565b9050919050565b61104381611028565b811461104e57600080fd5b50565b6000813590506110608161103a565b92915050565b6000819050919050565b61107981611066565b811461108457600080fd5b50565b60008135905061109681611070565b92915050565b600080604083850312156110b3576110b2611003565b5b60006110c185828601611051565b92505060206110d285828601611087565b9150509250929050565b60008115159050919050565b6110f1816110dc565b82525050565b600060208201905061110c60008301846110e8565b92915050565b61111b81611066565b82525050565b60006020820190506111366000830184611112565b92915050565b60008060006060848603121561115557611154611003565b5b600061116386828701611051565b935050602061117486828701611051565b925050604061118586828701611087565b9150509250925092565b600060ff82169050919050565b6111a58161118f565b82525050565b60006020820190506111c0600083018461119c565b92915050565b6000602082840312156111dc576111db611003565b5b60006111ea84828501611051565b91505092915050565b60006020828403121561120957611208611003565b5b600061121784828501611087565b91505092915050565b6000806040838503121561123757611236611003565b5b600061124585828601611051565b925050602061125685828601611051565b9150509250929050565b7f4e487b7100000000000000000000000000000000000000000000000000000000600052602260045260246000fd5b600060028204905060018216806112a757607f821691505b6020821081036112ba576112b9611260565b5b50919050565b7f4e487b7100000000000000000000000000000000000000000000000000000000600052601160045260246000fd5b60006112fa82611066565b915061130583611066565b925082820190508082111561131d5761131c6112c0565b5b92915050565b7f45524332303a2064656372656173656420616c6c6f77616e63652062656c6f7760008201527f207a65726f000000000000000000000000000000000000000000000000000000602082015250565b600061137f602583610f5c565b915061138a82611323565b604082019050919050565b600060208201905081810360008301526113ae81611372565b9050919050565b6113be81611028565b82525050565b60006020820190506113d960008301846113b5565b92915050565b6000815190506113ee81611070565b92915050565b60006020828403121561140a57611409611003565b5b6000611418848285016113df565b91505092915050565b7f496e73756666696369656e742045524332302066756e64732e00000000000000600082015250565b6000611457601983610f5c565b915061146282611421565b602082019050919050565b600060208201905081810360008301526114868161144a565b9050919050565b6000819050919050565b6114a08161148d565b81146114ab57600080fd5b50565b6000815190506114bd81611497565b92915050565b6000602082840312156114d9576114d8611003565b5b60006114e7848285016114ae565b91505092915050565b7f4e487b7100000000000000000000000000000000000000000000000000000000600052601260045260246000fd5b600061152a82611066565b915061153583611066565b925082611545576115446114f0565b5b828204905092915050565b600061155b82611066565b915061156683611066565b925082820261157481611066565b9150828204841483151761158b5761158a6112c0565b5b5092915050565b7f5075742074686520617070726f70726961746520616d6f756e74206f6620555360008201527f444320666f72207468617420616d6f756e74206f66204554482e000000000000602082015250565b60006115ee603a83610f5c565b91506115f982611592565b604082019050919050565b6000602082019050818103600083015261161d816115e1565b9050919050565b7f5075742074686520617070726f70726961746520616d6f756e74206f6620455460008201527f4820666f72207468617420616d6f756e74206f6620555344432e000000000000602082015250565b6000611680603a83610f5c565b915061168b82611624565b604082019050919050565b600060208201905081810360008301526116af81611673565b9050919050565b60006060820190506116cb60008301866113b5565b6116d860208301856113b5565b6116e56040830184611112565b949350505050565b6116f6816110dc565b811461170157600080fd5b50565b600081519050611713816116ed565b92915050565b60006020828403121561172f5761172e611003565b5b600061173d84828501611704565b91505092915050565b7f45524332303a20617070726f76652066726f6d20746865207a65726f2061646460008201527f7265737300000000000000000000000000000000000000000000000000000000602082015250565b60006117a2602483610f5c565b91506117ad82611746565b604082019050919050565b600060208201905081810360008301526117d181611795565b9050919050565b7f45524332303a20617070726f766520746f20746865207a65726f20616464726560008201527f7373000000000000000000000000000000000000000000000000000000000000602082015250565b6000611834602283610f5c565b915061183f826117d8565b604082019050919050565b6000602082019050818103600083015261186381611827565b9050919050565b7f45524332303a20696e73756666696369656e7420616c6c6f77616e6365000000600082015250565b60006118a0601d83610f5c565b91506118ab8261186a565b602082019050919050565b600060208201905081810360008301526118cf81611893565b9050919050565b7f45524332303a207472616e736665722066726f6d20746865207a65726f20616460008201527f6472657373000000000000000000000000000000000000000000000000000000602082015250565b6000611932602583610f5c565b915061193d826118d6565b604082019050919050565b6000602082019050818103600083015261196181611925565b9050919050565b7f45524332303a207472616e7366657220746f20746865207a65726f206164647260008201527f6573730000000000000000000000000000000000000000000000000000000000602082015250565b60006119c4602383610f5c565b91506119cf82611968565b604082019050919050565b600060208201905081810360008301526119f3816119b7565b9050919050565b7f45524332303a207472616e7366657220616d6f756e742065786365656473206260008201527f616c616e63650000000000000000000000000000000000000000000000000000602082015250565b6000611a56602683610f5c565b9150611a61826119fa565b604082019050919050565b60006020820190508181036000830152611a8581611a49565b905091905056fea26469706673582212205f4c2a08979d33afc2fd03da7574c1b137e7212cda91bb178e0b32cc7f5b84d364736f6c63430008110033",
  "devdoc": {
    "kind": "dev",
    "methods": {
      "allowance(address,address)": {
        "details": "See {IERC20-allowance}."
      },
      "approve(address,uint256)": {
        "details": "See {IERC20-approve}. NOTE: If `amount` is the maximum `uint256`, the allowance is not updated on `transferFrom`. This is semantically equivalent to an infinite approval. Requirements: - `spender` cannot be the zero address."
      },
      "balanceOf(address)": {
        "details": "See {IERC20-balanceOf}."
      },
      "decimals()": {
        "details": "Returns the number of decimals used to get its user representation. For example, if `decimals` equals `2`, a balance of `505` tokens should be displayed to a user as `5.05` (`505 / 10 ** 2`). Tokens usually opt for a value of 18, imitating the relationship between Ether and Wei. This is the value {ERC20} uses, unless this function is overridden; NOTE: This information is only used for _display_ purposes: it in no way affects any of the arithmetic of the contract, including {IERC20-balanceOf} and {IERC20-transfer}."
      },
      "decreaseAllowance(address,uint256)": {
        "details": "Atomically decreases the allowance granted to `spender` by the caller. This is an alternative to {approve} that can be used as a mitigation for problems described in {IERC20-approve}. Emits an {Approval} event indicating the updated allowance. Requirements: - `spender` cannot be the zero address. - `spender` must have allowance for the caller of at least `subtractedValue`."
      },
      "increaseAllowance(address,uint256)": {
        "details": "Atomically increases the allowance granted to `spender` by the caller. This is an alternative to {approve} that can be used as a mitigation for problems described in {IERC20-approve}. Emits an {Approval} event indicating the updated allowance. Requirements: - `spender` cannot be the zero address."
      },
      "name()": {
        "details": "Returns the name of the token."
      },
      "symbol()": {
        "details": "Returns the symbol of the token, usually a shorter version of the name."
      },
      "totalSupply()": {
        "details": "See {IERC20-totalSupply}."
      },
      "transfer(address,uint256)": {
        "details": "See {IERC20-transfer}. Requirements: - `to` cannot be the zero address. - the caller must have a balance of at least `amount`."
      },
      "transferFrom(address,address,uint256)": {
        "details": "See {IERC20-transferFrom}. Emits an {Approval} event indicating the updated allowance. This is not required by the EIP. See the note at the beginning of {ERC20}. NOTE: Does not update the allowance if the current allowance is the maximum `uint256`. Requirements: - `from` and `to` cannot be the zero address. - `from` must have a balance of at least `amount`. - the caller must have allowance for ``from``'s tokens of at least `amount`."
      }
    },
    "version": 1
  },
  "userdoc": {
    "kind": "user",
    "methods": {},
    "version": 1
  },
  "storageLayout": {
    "storage": [
      {
        "astId": 118,
        "contract": "contracts/EthToUsdc.sol:EthToUsdc",
        "label": "_balances",
        "offset": 0,
        "slot": "0",
        "type": "t_mapping(t_address,t_uint256)"
      },
      {
        "astId": 124,
        "contract": "contracts/EthToUsdc.sol:EthToUsdc",
        "label": "_allowances",
        "offset": 0,
        "slot": "1",
        "type": "t_mapping(t_address,t_mapping(t_address,t_uint256))"
      },
      {
        "astId": 126,
        "contract": "contracts/EthToUsdc.sol:EthToUsdc",
        "label": "_totalSupply",
        "offset": 0,
        "slot": "2",
        "type": "t_uint256"
      },
      {
        "astId": 128,
        "contract": "contracts/EthToUsdc.sol:EthToUsdc",
        "label": "_name",
        "offset": 0,
        "slot": "3",
        "type": "t_string_storage"
      },
      {
        "astId": 130,
        "contract": "contracts/EthToUsdc.sol:EthToUsdc",
        "label": "_symbol",
        "offset": 0,
        "slot": "4",
        "type": "t_string_storage"
      },
      {
        "astId": 823,
        "contract": "contracts/EthToUsdc.sol:EthToUsdc",
        "label": "priceFeed",
        "offset": 0,
        "slot": "5",
        "type": "t_contract(PriceFeed)1008"
      },
      {
        "astId": 826,
        "contract": "contracts/EthToUsdc.sol:EthToUsdc",
        "label": "usdcContract",
        "offset": 0,
        "slot": "6",
        "type": "t_contract(ERC20)688"
      },
      {
        "astId": 828,
        "contract": "contracts/EthToUsdc.sol:EthToUsdc",
        "label": "ethPool",
        "offset": 0,
        "slot": "7",
        "type": "t_uint256"
      },
      {
        "astId": 830,
        "contract": "contracts/EthToUsdc.sol:EthToUsdc",
        "label": "tokenPool",
        "offset": 0,
        "slot": "8",
        "type": "t_uint256"
      }
    ],
    "types": {
      "t_address": {
        "encoding": "inplace",
        "label": "address",
        "numberOfBytes": "20"
      },
      "t_contract(ERC20)688": {
        "encoding": "inplace",
        "label": "contract ERC20",
        "numberOfBytes": "20"
      },
      "t_contract(PriceFeed)1008": {
        "encoding": "inplace",
        "label": "contract PriceFeed",
        "numberOfBytes": "20"
      },
      "t_mapping(t_address,t_mapping(t_address,t_uint256))": {
        "encoding": "mapping",
        "key": "t_address",
        "label": "mapping(address => mapping(address => uint256))",
        "numberOfBytes": "32",
        "value": "t_mapping(t_address,t_uint256)"
      },
      "t_mapping(t_address,t_uint256)": {
        "encoding": "mapping",
        "key": "t_address",
        "label": "mapping(address => uint256)",
        "numberOfBytes": "32",
        "value": "t_uint256"
      },
      "t_string_storage": {
        "encoding": "bytes",
        "label": "string",
        "numberOfBytes": "32"
      },
      "t_uint256": {
        "encoding": "inplace",
        "label": "uint256",
        "numberOfBytes": "32"
      }
    }
  }
}