{
  "address": "0xD0141E899a65C95a556fE2B27e5982A6DE7fDD7A",
  "abi": [
    {
      "inputs": [
        {
          "internalType": "address[]",
          "name": "_tokenPools",
          "type": "address[]"
        },
        {
          "internalType": "string[]",
          "name": "_tokenSymbols",
          "type": "string[]"
        },
        {
          "internalType": "address",
          "name": "_priceFeed",
          "type": "address"
        }
      ],
      "stateMutability": "nonpayable",
      "type": "constructor"
    },
    {
      "anonymous": false,
      "inputs": [
        {
          "indexed": true,
          "internalType": "address",
          "name": "owner",
          "type": "address"
        },
        {
          "indexed": true,
          "internalType": "address",
          "name": "spender",
          "type": "address"
        },
        {
          "indexed": false,
          "internalType": "uint256",
          "name": "value",
          "type": "uint256"
        }
      ],
      "name": "Approval",
      "type": "event"
    },
    {
      "anonymous": false,
      "inputs": [
        {
          "indexed": true,
          "internalType": "address",
          "name": "from",
          "type": "address"
        },
        {
          "indexed": true,
          "internalType": "address",
          "name": "to",
          "type": "address"
        },
        {
          "indexed": false,
          "internalType": "uint256",
          "name": "value",
          "type": "uint256"
        }
      ],
      "name": "Transfer",
      "type": "event"
    },
    {
      "inputs": [
        {
          "internalType": "string",
          "name": "_pair",
          "type": "string"
        },
        {
          "internalType": "address",
          "name": "_tokenContract",
          "type": "address"
        },
        {
          "internalType": "uint256",
          "name": "_token2Amount",
          "type": "uint256"
        }
      ],
      "name": "ERC20ToEthSwap",
      "outputs": [],
      "stateMutability": "nonpayable",
      "type": "function"
    },
    {
      "inputs": [
        {
          "internalType": "address",
          "name": "owner",
          "type": "address"
        },
        {
          "internalType": "address",
          "name": "spender",
          "type": "address"
        }
      ],
      "name": "allowance",
      "outputs": [
        {
          "internalType": "uint256",
          "name": "",
          "type": "uint256"
        }
      ],
      "stateMutability": "view",
      "type": "function"
    },
    {
      "inputs": [
        {
          "internalType": "address",
          "name": "spender",
          "type": "address"
        },
        {
          "internalType": "uint256",
          "name": "amount",
          "type": "uint256"
        }
      ],
      "name": "approve",
      "outputs": [
        {
          "internalType": "bool",
          "name": "",
          "type": "bool"
        }
      ],
      "stateMutability": "nonpayable",
      "type": "function"
    },
    {
      "inputs": [
        {
          "internalType": "address",
          "name": "account",
          "type": "address"
        }
      ],
      "name": "balanceOf",
      "outputs": [
        {
          "internalType": "uint256",
          "name": "",
          "type": "uint256"
        }
      ],
      "stateMutability": "view",
      "type": "function"
    },
    {
      "inputs": [],
      "name": "decimals",
      "outputs": [
        {
          "internalType": "uint8",
          "name": "",
          "type": "uint8"
        }
      ],
      "stateMutability": "view",
      "type": "function"
    },
    {
      "inputs": [
        {
          "internalType": "address",
          "name": "spender",
          "type": "address"
        },
        {
          "internalType": "uint256",
          "name": "subtractedValue",
          "type": "uint256"
        }
      ],
      "name": "decreaseAllowance",
      "outputs": [
        {
          "internalType": "bool",
          "name": "",
          "type": "bool"
        }
      ],
      "stateMutability": "nonpayable",
      "type": "function"
    },
    {
      "inputs": [
        {
          "internalType": "string",
          "name": "_pair",
          "type": "string"
        },
        {
          "internalType": "uint256",
          "name": "_tokenAmount",
          "type": "uint256"
        }
      ],
      "name": "deposit",
      "outputs": [],
      "stateMutability": "payable",
      "type": "function"
    },
    {
      "inputs": [
        {
          "internalType": "string",
          "name": "_pair",
          "type": "string"
        },
        {
          "internalType": "uint256",
          "name": "_tokenAmount",
          "type": "uint256"
        },
        {
          "internalType": "bool",
          "name": "ethToERC20",
          "type": "bool"
        }
      ],
      "name": "estimateEthToERC20Deposit",
      "outputs": [
        {
          "internalType": "uint256",
          "name": "",
          "type": "uint256"
        }
      ],
      "stateMutability": "view",
      "type": "function"
    },
    {
      "inputs": [
        {
          "internalType": "string",
          "name": "_pair",
          "type": "string"
        }
      ],
      "name": "ethToERC20Swap",
      "outputs": [],
      "stateMutability": "payable",
      "type": "function"
    },
    {
      "inputs": [],
      "name": "getContracts",
      "outputs": [
        {
          "internalType": "string[]",
          "name": "",
          "type": "string[]"
        }
      ],
      "stateMutability": "view",
      "type": "function"
    },
    {
      "inputs": [
        {
          "internalType": "string",
          "name": "_pair",
          "type": "string"
        }
      ],
      "name": "getPool",
      "outputs": [
        {
          "components": [
            {
              "internalType": "string",
              "name": "token1",
              "type": "string"
            },
            {
              "internalType": "string",
              "name": "token2",
              "type": "string"
            },
            {
              "internalType": "address",
              "name": "token1Con",
              "type": "address"
            },
            {
              "internalType": "address",
              "name": "token2Con",
              "type": "address"
            },
            {
              "internalType": "uint256",
              "name": "token1Amount",
              "type": "uint256"
            },
            {
              "internalType": "uint256",
              "name": "token2Amount",
              "type": "uint256"
            },
            {
              "internalType": "uint256",
              "name": "token1Seed",
              "type": "uint256"
            },
            {
              "internalType": "uint256",
              "name": "token2Seed",
              "type": "uint256"
            },
            {
              "internalType": "bool",
              "name": "created",
              "type": "bool"
            }
          ],
          "internalType": "struct EthToERC20.pairPool",
          "name": "",
          "type": "tuple"
        }
      ],
      "stateMutability": "view",
      "type": "function"
    },
    {
      "inputs": [
        {
          "internalType": "string",
          "name": "_pair",
          "type": "string"
        },
        {
          "internalType": "uint256",
          "name": "_tokenAmount",
          "type": "uint256"
        },
        {
          "internalType": "bool",
          "name": "ethToERC20",
          "type": "bool"
        }
      ],
      "name": "getRelativePrice",
      "outputs": [
        {
          "internalType": "uint256",
          "name": "",
          "type": "uint256"
        }
      ],
      "stateMutability": "view",
      "type": "function"
    },
    {
      "inputs": [
        {
          "internalType": "address",
          "name": "spender",
          "type": "address"
        },
        {
          "internalType": "uint256",
          "name": "addedValue",
          "type": "uint256"
        }
      ],
      "name": "increaseAllowance",
      "outputs": [
        {
          "internalType": "bool",
          "name": "",
          "type": "bool"
        }
      ],
      "stateMutability": "nonpayable",
      "type": "function"
    },
    {
      "inputs": [],
      "name": "name",
      "outputs": [
        {
          "internalType": "string",
          "name": "",
          "type": "string"
        }
      ],
      "stateMutability": "view",
      "type": "function"
    },
    {
      "inputs": [],
      "name": "symbol",
      "outputs": [
        {
          "internalType": "string",
          "name": "",
          "type": "string"
        }
      ],
      "stateMutability": "view",
      "type": "function"
    },
    {
      "inputs": [],
      "name": "totalSupply",
      "outputs": [
        {
          "internalType": "uint256",
          "name": "",
          "type": "uint256"
        }
      ],
      "stateMutability": "view",
      "type": "function"
    },
    {
      "inputs": [
        {
          "internalType": "address",
          "name": "to",
          "type": "address"
        },
        {
          "internalType": "uint256",
          "name": "amount",
          "type": "uint256"
        }
      ],
      "name": "transfer",
      "outputs": [
        {
          "internalType": "bool",
          "name": "",
          "type": "bool"
        }
      ],
      "stateMutability": "nonpayable",
      "type": "function"
    },
    {
      "inputs": [
        {
          "internalType": "address",
          "name": "from",
          "type": "address"
        },
        {
          "internalType": "address",
          "name": "to",
          "type": "address"
        },
        {
          "internalType": "uint256",
          "name": "amount",
          "type": "uint256"
        }
      ],
      "name": "transferFrom",
      "outputs": [
        {
          "internalType": "bool",
          "name": "",
          "type": "bool"
        }
      ],
      "stateMutability": "nonpayable",
      "type": "function"
    },
    {
      "stateMutability": "payable",
      "type": "receive"
    }
  ],
  "transactionHash": "0xbb3ea4a45db1354e40b9f3cc815426f233a9bf7bd5ad4535e1c977a6c4a2e862",
  "args": [
    [
      "0xD5ac451B0c50B9476107823Af206eD814a2e2580",
      "0xCace1b78160AE76398F486c8a18044da0d66d86D",
      "0xc96304e3c037f81dA488ed9dEa1D8F2a48278a75",
      "0xD5ac451B0c50B9476107823Af206eD814a2e2580",
      "0xc96304e3c037f81dA488ed9dEa1D8F2a48278a75",
      "0xCace1b78160AE76398F486c8a18044da0d66d86D"
    ],
    [
      "UTMC",
      "UCMC",
      "ETH",
      "UTMC",
      "ETH",
      "UCMC"
    ],
    "0x34B40BA116d5Dec75548a9e9A8f15411461E8c70"
  ],
  "numDeployments": 1,
  "solcInputHash": "906bea06602426cd3a3439d9b1e2a1cf",
  "bytecode": "0x60806040523480156200001157600080fd5b5060405162002d4838038062002d488339810160408190526200003491620004fb565b6040518060400160405280600a8152602001690457468546f45524332360b41b815250604051806040016040528060048152602001634545524360e01b81525081600390816200008591906200066c565b5060046200009482826200066c565b50505060005b835181101562000325576000848281518110620000bb57620000bb62000738565b60200260200101519050600085836001620000d791906200074e565b81518110620000ea57620000ea62000738565b6020026020010151905060008584815181106200010b576200010b62000738565b6020026020010151868560016200012391906200074e565b8151811062000136576200013662000738565b60200260200101516040516020016200015192919062000776565b60408051601f19818403018152919052600780546001810182556000919091529091507fa66cc928b5edb82af9bd49922954155ab7b0942694bea4ce44661d9a8736c68801620001a282826200066c565b50604051806101200160405280878681518110620001c457620001c462000738565b6020026020010151815260200187866001620001e191906200074e565b81518110620001f457620001f462000738565b60200260200101518152602001846001600160a01b03168152602001836001600160a01b031681526020016000815260200160008152602001600081526020016000815260200160011515815250600682604051620002549190620007b6565b908152604051908190036020019020815181906200027390826200066c565b50602082015160018201906200028a90826200066c565b506040820151600280830180546001600160a01b039384166001600160a01b0319918216179091556060850151600385018054919094169116179091556080830151600483015560a0830151600583015560c0830151600683015560e08301516007830155610100909201516008909101805491151560ff199092169190911790556200031d935091508390506200074e565b90506200009a565b50600580546001600160a01b0319166001600160a01b039290921691909117905550620007d49050565b634e487b7160e01b600052604160045260246000fd5b604051601f8201601f191681016001600160401b03811182821017156200039057620003906200034f565b604052919050565b60006001600160401b03821115620003b457620003b46200034f565b5060051b60200190565b80516001600160a01b0381168114620003d657600080fd5b919050565b60005b83811015620003f8578181015183820152602001620003de565b50506000910152565b6000601f83818401126200041457600080fd5b825160206200042d620004278362000398565b62000365565b82815260059290921b850181019181810190878411156200044d57600080fd5b8287015b84811015620004ef5780516001600160401b0380821115620004735760008081fd5b818a0191508a603f830112620004895760008081fd5b85820151604082821115620004a257620004a26200034f565b620004b5828b01601f1916890162000365565b92508183528c81838601011115620004cd5760008081fd5b620004de82898501838701620003db565b505084525091830191830162000451565b50979650505050505050565b6000806000606084860312156200051157600080fd5b83516001600160401b03808211156200052957600080fd5b818601915086601f8301126200053e57600080fd5b8151602062000551620004278362000398565b82815260059290921b8401810191818101908a8411156200057157600080fd5b948201945b838610156200059a576200058a86620003be565b8252948201949082019062000576565b91890151919750909350505080821115620005b457600080fd5b50620005c38682870162000401565b925050620005d460408501620003be565b90509250925092565b600181811c90821680620005f257607f821691505b6020821081036200061357634e487b7160e01b600052602260045260246000fd5b50919050565b601f8211156200066757600081815260208120601f850160051c81016020861015620006425750805b601f850160051c820191505b8181101562000663578281556001016200064e565b5050505b505050565b81516001600160401b038111156200068857620006886200034f565b620006a081620006998454620005dd565b8462000619565b602080601f831160018114620006d85760008415620006bf5750858301515b600019600386901b1c1916600185901b17855562000663565b600085815260208120601f198616915b828110156200070957888601518255948401946001909101908401620006e8565b5085821015620007285787850151600019600388901b60f8161c191681555b5050505050600190811b01905550565b634e487b7160e01b600052603260045260246000fd5b808201808211156200077057634e487b7160e01b600052601160045260246000fd5b92915050565b600083516200078a818460208801620003db565b602f60f81b9083019081528351620007aa816001840160208801620003db565b01600101949350505050565b60008251620007ca818460208701620003db565b9190910192915050565b61256480620007e46000396000f3fe6080604052600436106100dd5760003560e01c806306fdde03146100e9578063095ea7b31461011457806318160ddd1461014457806323b872dd14610163578063313ce56714610183578063395093511461019f57806341d7b026146101bf57806343c69239146101ec578063507b8ccf1461020c5780635c7a21061461022e57806370a08231146102415780638e27d7191461027757806395d89b411461028a578063a457c2d71461029f578063a9059cbb146102bf578063c3a2a93a146102df578063ca28c78514610301578063dd62ed3e1461032157600080fd5b366100e457005b600080fd5b3480156100f557600080fd5b506100fe610341565b60405161010b9190611ec2565b60405180910390f35b34801561012057600080fd5b5061013461012f366004611ef1565b6103d3565b604051901515815260200161010b565b34801561015057600080fd5b506002545b60405190815260200161010b565b34801561016f57600080fd5b5061013461017e366004611f1b565b6103ed565b34801561018f57600080fd5b506040516012815260200161010b565b3480156101ab57600080fd5b506101346101ba366004611ef1565b610413565b3480156101cb57600080fd5b506101df6101da366004611ff9565b610435565b60405161010b9190612042565b3480156101f857600080fd5b50610155610207366004612101565b610644565b34801561021857600080fd5b5061022c61022736600461215b565b610a03565b005b61022c61023c366004611ff9565b610e3d565b34801561024d57600080fd5b5061015561025c3660046121a1565b6001600160a01b031660009081526020819052604090205490565b61022c6102853660046121bc565b6111e4565b34801561029657600080fd5b506100fe611486565b3480156102ab57600080fd5b506101346102ba366004611ef1565b611495565b3480156102cb57600080fd5b506101346102da366004611ef1565b61151b565b3480156102eb57600080fd5b506102f4611529565b60405161010b9190612200565b34801561030d57600080fd5b5061015561031c366004612101565b611602565b34801561032d57600080fd5b5061015561033c366004612262565b611aa9565b60606003805461035090612295565b80601f016020809104026020016040519081016040528092919081815260200182805461037c90612295565b80156103c95780601f1061039e576101008083540402835291602001916103c9565b820191906000526020600020905b8154815290600101906020018083116103ac57829003601f168201915b5050505050905090565b6000336103e1818585611ad4565b60019150505b92915050565b6000336103fb858285611bf8565b610406858585611c72565b60019150505b9392505050565b6000336103e18185856104268383611aa9565b61043091906122e5565b611ad4565b610498604051806101200160405280606081526020016060815260200160006001600160a01b0316815260200160006001600160a01b03168152602001600081526020016000815260200160008152602001600081526020016000151581525090565b6006826040516104a891906122f8565b9081526020016040518091039020604051806101200160405290816000820180546104d290612295565b80601f01602080910402602001604051908101604052809291908181526020018280546104fe90612295565b801561054b5780601f106105205761010080835404028352916020019161054b565b820191906000526020600020905b81548152906001019060200180831161052e57829003601f168201915b5050505050815260200160018201805461056490612295565b80601f016020809104026020016040519081016040528092919081815260200182805461059090612295565b80156105dd5780601f106105b2576101008083540402835291602001916105dd565b820191906000526020600020905b8154815290600101906020018083116105c057829003601f168201915b505050918352505060028201546001600160a01b03908116602083015260038301541660408201526004820154606082015260058201546080820152600682015460a0820152600782015460c082015260089091015460ff16151560e09091015292915050565b60008060068560405161065791906122f8565b90815260200160405180910390206040518061012001604052908160008201805461068190612295565b80601f01602080910402602001604051908101604052809291908181526020018280546106ad90612295565b80156106fa5780601f106106cf576101008083540402835291602001916106fa565b820191906000526020600020905b8154815290600101906020018083116106dd57829003601f168201915b5050505050815260200160018201805461071390612295565b80601f016020809104026020016040519081016040528092919081815260200182805461073f90612295565b801561078c5780601f106107615761010080835404028352916020019161078c565b820191906000526020600020905b81548152906001019060200180831161076f57829003601f168201915b505050918352505060028201546001600160a01b03908116602083015260038301541660408201526004820154606082015260058201546080820152600682015460a0820152600782015460c082015260089091015460ff16151560e09091015290506107f885611e40565b61091e578261088e5760055460608201516040516341976e0960e01b81526001600160a01b03909216916341976e099161083491600401612314565b602060405180830381865afa158015610851573d6000803e3d6000fd5b505050506040513d601f19601f820116820180604052508101906108759190612328565b6108899069021e19e0c9bab2400000612341565b610916565b60055460408083015190516341976e0960e01b81526001600160a01b03909216916341976e09916108c191600401612314565b602060405180830381865afa1580156108de573d6000803e3d6000fd5b505050506040513d601f19601f820116820180604052508101906109029190612328565b6109169069021e19e0c9bab2400000612341565b91505061040c565b600061092c6101f486612358565b905060008260a0015183608001516109449190612341565b90506000856109775782878560a0015161095e91906122e5565b610968919061237a565b6109729083612358565b610987565b86846080015161098791906122e5565b90506000866109a557878560a001516109a091906122e5565b6109ca565b838886608001516109b691906122e5565b6109c0919061237a565b6109ca9084612358565b9050866109e6578185608001516109e1919061237a565b6109f6565b808560a001516109f6919061237a565b9998505050505050505050565b82600681604051610a1491906122f8565b9081526040519081900360200190206008015460ff16610a4f5760405162461bcd60e51b8152600401610a469061238d565b60405180910390fd5b6000600685604051610a6191906122f8565b908152602001604051809103902060405180610120016040529081600082018054610a8b90612295565b80601f0160208091040260200160405190810160405280929190818152602001828054610ab790612295565b8015610b045780601f10610ad957610100808354040283529160200191610b04565b820191906000526020600020905b815481529060010190602001808311610ae757829003601f168201915b50505050508152602001600182018054610b1d90612295565b80601f0160208091040260200160405190810160405280929190818152602001828054610b4990612295565b8015610b965780601f10610b6b57610100808354040283529160200191610b96565b820191906000526020600020905b815481529060010190602001808311610b7957829003601f168201915b505050918352505060028201546001600160a01b03908116602083015260038301541660408201526004820154606082015260058201546080820152600682015460a0820152600782015460c082015260089091015460ff16151560e09091015290506000610c076101f485612358565b905060008260a001518360800151610c1f9190612341565b90506000858460a00151610c3391906122e5565b90506000610c41848361237a565b610c4b9084612358565b90506000818660800151610c5f919061237a565b6080870183905260a087018490526040519091508690600690610c83908d906122f8565b90815260405190819003602001902081518190610ca0908261242e565b5060208201516001820190610cb5908261242e565b506040828101516002830180546001600160a01b03199081166001600160a01b03938416179091556060850151600385018054909216908316179055608084015160048085019190915560a0850151600585015560c0850151600685015560e08501516007850155610100909401516008909301805460ff191693151593909317909255516323b872dd60e01b8152908b16916323b872dd91610d5e91339130918e91016124ed565b6020604051808303816000875af1158015610d7d573d6000803e3d6000fd5b505050506040513d601f19601f82011682018060405250810190610da19190612511565b50604051600090339083908381818185875af1925050503d8060008114610de4576040519150601f19603f3d011682016040523d82523d6000602084013e610de9565b606091505b5050905080610e305760405162461bcd60e51b815260206004820152601360248201527221b7bab632103737ba1039b2b7321032ba341760691b6044820152606401610a46565b5050505050505050505050565b80600681604051610e4e91906122f8565b9081526040519081900360200190206008015460ff16610e805760405162461bcd60e51b8152600401610a469061238d565b6000600683604051610e9291906122f8565b908152602001604051809103902060405180610120016040529081600082018054610ebc90612295565b80601f0160208091040260200160405190810160405280929190818152602001828054610ee890612295565b8015610f355780601f10610f0a57610100808354040283529160200191610f35565b820191906000526020600020905b815481529060010190602001808311610f1857829003601f168201915b50505050508152602001600182018054610f4e90612295565b80601f0160208091040260200160405190810160405280929190818152602001828054610f7a90612295565b8015610fc75780601f10610f9c57610100808354040283529160200191610fc7565b820191906000526020600020905b815481529060010190602001808311610faa57829003601f168201915b505050918352505060028201546001600160a01b03908116602083015260038301541660408201526004820154606082015260058201546080820152600682015460a0820152600782015460c082015260089091015460ff16151560e090910152905060006110386101f434612358565b905060008260a0015183608001516110509190612341565b9050600034846080015161106491906122e5565b90506000611072848361237a565b61107c9084612358565b90506000818660a00151611090919061237a565b6080870184905260a0870183905260405190915086906006906110b4908b906122f8565b908152604051908190036020019020815181906110d1908261242e565b50602082015160018201906110e6908261242e565b506040828101516002830180546001600160a01b03199081166001600160a01b039384161790915560608086015160038601805490931690841617909155608085015160048086019190915560a0860151600586015560c0860151600686015560e08601516007860155610100909501516008909401805460ff19169415159490941790935591890151905163a9059cbb60e01b8152339381019390935260248301849052169063a9059cbb906044016020604051808303816000875af11580156111b5573d6000803e3d6000fd5b505050506040513d601f19601f820116820180604052508101906111d99190612511565b505050505050505050565b816006816040516111f591906122f8565b9081526040519081900360200190206008015460ff166112275760405162461bcd60e51b8152600401610a469061238d565b60068360405161123791906122f8565b908152604051908190036020018120600301546370a0823160e01b82526001600160a01b0316908390819083906370a0823190611278903390600401612314565b602060405180830381865afa158015611295573d6000803e3d6000fd5b505050506040513d601f19601f820116820180604052508101906112b99190612328565b10156113035760405162461bcd60e51b815260206004820152601960248201527824b739bab33334b1b4b2b73a1022a921991810333ab732399760391b6044820152606401610a46565b600060068660405161131591906122f8565b908152604051908190036020018120600301546323b872dd60e01b82526001600160a01b0316915081906323b872dd9061135790339030908a906004016124ed565b6020604051808303816000875af1158015611376573d6000803e3d6000fd5b505050506040513d601f19601f8201168201806040525081019061139a9190612511565b50346006876040516113ac91906122f8565b908152602001604051809103902060040160008282546113cc91906122e5565b92505081905550846006876040516113e491906122f8565b9081526020016040518091039020600501600082825461140491906122e5565b909155505060405160069061141a9088906122f8565b90815260200160405180910390206006015460000361147e573460068760405161144491906122f8565b9081526020016040518091039020600601819055508460068760405161146a91906122f8565b908152604051908190036020019020600701555b505050505050565b60606004805461035090612295565b600033816114a38286611aa9565b9050838110156115035760405162461bcd60e51b815260206004820152602560248201527f45524332303a2064656372656173656420616c6c6f77616e63652062656c6f77604482015264207a65726f60d81b6064820152608401610a46565b6115108286868403611ad4565b506001949350505050565b6000336103e1818585611c72565b60606007805480602002602001604051908101604052809291908181526020016000905b828210156115f957838290600052602060002001805461156c90612295565b80601f016020809104026020016040519081016040528092919081815260200182805461159890612295565b80156115e55780601f106115ba576101008083540402835291602001916115e5565b820191906000526020600020905b8154815290600101906020018083116115c857829003601f168201915b50505050508152602001906001019061154d565b50505050905090565b60008060068560405161161591906122f8565b90815260200160405180910390206040518061012001604052908160008201805461163f90612295565b80601f016020809104026020016040519081016040528092919081815260200182805461166b90612295565b80156116b85780601f1061168d576101008083540402835291602001916116b8565b820191906000526020600020905b81548152906001019060200180831161169b57829003601f168201915b505050505081526020016001820180546116d190612295565b80601f01602080910402602001604051908101604052809291908181526020018280546116fd90612295565b801561174a5780601f1061171f5761010080835404028352916020019161174a565b820191906000526020600020905b81548152906001019060200180831161172d57829003601f168201915b505050918352505060028201546001600160a01b03908116602083015260038301541660408201526004820154606082015260058201546080820152600682015460a0820152600782015460c082015260089091015460ff16151560e09091015290506117b685611e40565b6119db57826118cd5760055460408083015190516341976e0960e01b815286926001600160a01b0316916341976e09916117f39190600401612314565b602060405180830381865afa158015611810573d6000803e3d6000fd5b505050506040513d601f19601f820116820180604052508101906118349190612328565b60055460608401516040516341976e0960e01b81526001600160a01b03909216916341976e099161186791600401612314565b602060405180830381865afa158015611884573d6000803e3d6000fd5b505050506040513d601f19601f820116820180604052508101906118a89190612328565b6118b990662386f26fc10000612341565b6118c39190612358565b6108899190612341565b60055460608201516040516341976e0960e01b815286926001600160a01b0316916341976e09916119019190600401612314565b602060405180830381865afa15801561191e573d6000803e3d6000fd5b505050506040513d601f19601f820116820180604052508101906119429190612328565b60055460408085015190516341976e0960e01b81526001600160a01b03909216916341976e099161197591600401612314565b602060405180830381865afa158015611992573d6000803e3d6000fd5b505050506040513d601f19601f820116820180604052508101906119b69190612328565b6119c790662386f26fc10000612341565b6119d19190612358565b6109169190612341565b8215611a545760008160c001518260e00151662386f26fc100006119ff9190612341565b611a099190612358565b90506000858360800151611a1d91906122e5565b90508260a00151662386f26fc10000611a369190612341565b611a408383612341565b611a4a919061237a565b935050505061040c565b60008160e001518260c00151662386f26fc10000611a729190612341565b611a7c9190612358565b90506000858360a00151611a9091906122e5565b90508260800151662386f26fc10000611a369190612341565b6001600160a01b03918216600090815260016020908152604080832093909416825291909152205490565b6001600160a01b038316611b365760405162461bcd60e51b8152602060048201526024808201527f45524332303a20617070726f76652066726f6d20746865207a65726f206164646044820152637265737360e01b6064820152608401610a46565b6001600160a01b038216611b975760405162461bcd60e51b815260206004820152602260248201527f45524332303a20617070726f766520746f20746865207a65726f206164647265604482015261737360f01b6064820152608401610a46565b6001600160a01b0383811660008181526001602090815260408083209487168084529482529182902085905590518481527f8c5be1e5ebec7d5bd14f71427d1e84f3dd0314c0f7b2291e5b200ac8c7c3b925910160405180910390a3505050565b6000611c048484611aa9565b90506000198114611c6c5781811015611c5f5760405162461bcd60e51b815260206004820152601d60248201527f45524332303a20696e73756666696369656e7420616c6c6f77616e63650000006044820152606401610a46565b611c6c8484848403611ad4565b50505050565b6001600160a01b038316611cd65760405162461bcd60e51b815260206004820152602560248201527f45524332303a207472616e736665722066726f6d20746865207a65726f206164604482015264647265737360d81b6064820152608401610a46565b6001600160a01b038216611d385760405162461bcd60e51b815260206004820152602360248201527f45524332303a207472616e7366657220746f20746865207a65726f206164647260448201526265737360e81b6064820152608401610a46565b6001600160a01b03831660009081526020819052604090205481811015611db05760405162461bcd60e51b815260206004820152602660248201527f45524332303a207472616e7366657220616d6f756e7420657863656564732062604482015265616c616e636560d01b6064820152608401610a46565b6001600160a01b03808516600090815260208190526040808220858503905591851681529081208054849290611de79084906122e5565b92505081905550826001600160a01b0316846001600160a01b03167fddf252ad1be2c89b69c2b068fc378daa952ba7f163c4a11628f55a4df523b3ef84604051611e3391815260200190565b60405180910390a3611c6c565b6000600682604051611e5291906122f8565b90815260405190819003602001902060060154151592915050565b505050565b60005b83811015611e8d578181015183820152602001611e75565b50506000910152565b60008151808452611eae816020860160208601611e72565b601f01601f19169290920160200192915050565b60208152600061040c6020830184611e96565b80356001600160a01b0381168114611eec57600080fd5b919050565b60008060408385031215611f0457600080fd5b611f0d83611ed5565b946020939093013593505050565b600080600060608486031215611f3057600080fd5b611f3984611ed5565b9250611f4760208501611ed5565b9150604084013590509250925092565b634e487b7160e01b600052604160045260246000fd5b600082601f830112611f7e57600080fd5b81356001600160401b0380821115611f9857611f98611f57565b604051601f8301601f19908116603f01168101908282118183101715611fc057611fc0611f57565b81604052838152866020858801011115611fd957600080fd5b836020870160208301376000602085830101528094505050505092915050565b60006020828403121561200b57600080fd5b81356001600160401b0381111561202157600080fd5b61202d84828501611f6d565b949350505050565b6001600160a01b03169052565b6020815260008251610120806020850152612061610140850183611e96565b91506020850151601f1985840301604086015261207e8382611e96565b92505060408501516120936060860182612035565b5060608501516120a66080860182612035565b50608085015160a085015260a085015160c085015260c085015160e085015260e08501516101008181870152808701519150506120e68286018215159052565b5090949350505050565b80151581146120fe57600080fd5b50565b60008060006060848603121561211657600080fd5b83356001600160401b0381111561212c57600080fd5b61213886828701611f6d565b935050602084013591506040840135612150816120f0565b809150509250925092565b60008060006060848603121561217057600080fd5b83356001600160401b0381111561218657600080fd5b61219286828701611f6d565b935050611f4760208501611ed5565b6000602082840312156121b357600080fd5b61040c82611ed5565b600080604083850312156121cf57600080fd5b82356001600160401b038111156121e557600080fd5b6121f185828601611f6d565b95602094909401359450505050565b6000602080830181845280855180835260408601915060408160051b870101925083870160005b8281101561225557603f19888603018452612243858351611e96565b94509285019290850190600101612227565b5092979650505050505050565b6000806040838503121561227557600080fd5b61227e83611ed5565b915061228c60208401611ed5565b90509250929050565b600181811c908216806122a957607f821691505b6020821081036122c957634e487b7160e01b600052602260045260246000fd5b50919050565b634e487b7160e01b600052601160045260246000fd5b808201808211156103e7576103e76122cf565b6000825161230a818460208701611e72565b9190910192915050565b6001600160a01b0391909116815260200190565b60006020828403121561233a57600080fd5b5051919050565b80820281158282048414176103e7576103e76122cf565b60008261237557634e487b7160e01b600052601260045260246000fd5b500490565b818103818111156103e7576103e76122cf565b6020808252603b908201527f5468657265206973206e6f207375636820746f6b656e20636f6e74726163742060408201527a2ca2aa103232b83637bcb2b21034b71037bab91039bcb9ba32b69760291b606082015260800190565b601f821115611e6d57600081815260208120601f850160051c8101602086101561240f5750805b601f850160051c820191505b8181101561147e5782815560010161241b565b81516001600160401b0381111561244757612447611f57565b61245b816124558454612295565b846123e8565b602080601f83116001811461249057600084156124785750858301515b600019600386901b1c1916600185901b17855561147e565b600085815260208120601f198616915b828110156124bf578886015182559484019460019091019084016124a0565b50858210156124dd5787850151600019600388901b60f8161c191681555b5050505050600190811b01905550565b6001600160a01b039384168152919092166020820152604081019190915260600190565b60006020828403121561252357600080fd5b815161040c816120f056fea2646970667358221220d310f964dbc1f899bbda2dff2d419a11b5b464cbe364f998cf0918b746c929ca64736f6c63430008110033",
  "devdoc": {
    "kind": "dev",
    "methods": {
      "allowance(address,address)": {
        "details": "See {IERC20-allowance}."
      },
      "approve(address,uint256)": {
        "details": "See {IERC20-approve}. NOTE: If `amount` is the maximum `uint256`, the allowance is not updated on `transferFrom`. This is semantically equivalent to an infinite approval. Requirements: - `spender` cannot be the zero address."
      },
      "balanceOf(address)": {
        "details": "See {IERC20-balanceOf}."
      },
      "decimals()": {
        "details": "Returns the number of decimals used to get its user representation. For example, if `decimals` equals `2`, a balance of `505` tokens should be displayed to a user as `5.05` (`505 / 10 ** 2`). Tokens usually opt for a value of 18, imitating the relationship between Ether and Wei. This is the value {ERC20} uses, unless this function is overridden; NOTE: This information is only used for _display_ purposes: it in no way affects any of the arithmetic of the contract, including {IERC20-balanceOf} and {IERC20-transfer}."
      },
      "decreaseAllowance(address,uint256)": {
        "details": "Atomically decreases the allowance granted to `spender` by the caller. This is an alternative to {approve} that can be used as a mitigation for problems described in {IERC20-approve}. Emits an {Approval} event indicating the updated allowance. Requirements: - `spender` cannot be the zero address. - `spender` must have allowance for the caller of at least `subtractedValue`."
      },
      "increaseAllowance(address,uint256)": {
        "details": "Atomically increases the allowance granted to `spender` by the caller. This is an alternative to {approve} that can be used as a mitigation for problems described in {IERC20-approve}. Emits an {Approval} event indicating the updated allowance. Requirements: - `spender` cannot be the zero address."
      },
      "name()": {
        "details": "Returns the name of the token."
      },
      "symbol()": {
        "details": "Returns the symbol of the token, usually a shorter version of the name."
      },
      "totalSupply()": {
        "details": "See {IERC20-totalSupply}."
      },
      "transfer(address,uint256)": {
        "details": "See {IERC20-transfer}. Requirements: - `to` cannot be the zero address. - the caller must have a balance of at least `amount`."
      },
      "transferFrom(address,address,uint256)": {
        "details": "See {IERC20-transferFrom}. Emits an {Approval} event indicating the updated allowance. This is not required by the EIP. See the note at the beginning of {ERC20}. NOTE: Does not update the allowance if the current allowance is the maximum `uint256`. Requirements: - `from` and `to` cannot be the zero address. - `from` must have a balance of at least `amount`. - the caller must have allowance for ``from``'s tokens of at least `amount`."
      }
    },
    "version": 1
  },
  "userdoc": {
    "kind": "user",
    "methods": {},
    "version": 1
  },
  "storageLayout": {
    "storage": [
      {
        "astId": 118,
        "contract": "contracts/EthToERC20.sol:EthToERC20",
        "label": "_balances",
        "offset": 0,
        "slot": "0",
        "type": "t_mapping(t_address,t_uint256)"
      },
      {
        "astId": 124,
        "contract": "contracts/EthToERC20.sol:EthToERC20",
        "label": "_allowances",
        "offset": 0,
        "slot": "1",
        "type": "t_mapping(t_address,t_mapping(t_address,t_uint256))"
      },
      {
        "astId": 126,
        "contract": "contracts/EthToERC20.sol:EthToERC20",
        "label": "_totalSupply",
        "offset": 0,
        "slot": "2",
        "type": "t_uint256"
      },
      {
        "astId": 128,
        "contract": "contracts/EthToERC20.sol:EthToERC20",
        "label": "_name",
        "offset": 0,
        "slot": "3",
        "type": "t_string_storage"
      },
      {
        "astId": 130,
        "contract": "contracts/EthToERC20.sol:EthToERC20",
        "label": "_symbol",
        "offset": 0,
        "slot": "4",
        "type": "t_string_storage"
      },
      {
        "astId": 823,
        "contract": "contracts/EthToERC20.sol:EthToERC20",
        "label": "priceFeed",
        "offset": 0,
        "slot": "5",
        "type": "t_contract(PriceFeed)1602"
      },
      {
        "astId": 828,
        "contract": "contracts/EthToERC20.sol:EthToERC20",
        "label": "tokenPools",
        "offset": 0,
        "slot": "6",
        "type": "t_mapping(t_string_memory_ptr,t_struct(pairPool)850_storage)"
      },
      {
        "astId": 831,
        "contract": "contracts/EthToERC20.sol:EthToERC20",
        "label": "contracts",
        "offset": 0,
        "slot": "7",
        "type": "t_array(t_string_storage)dyn_storage"
      }
    ],
    "types": {
      "t_address": {
        "encoding": "inplace",
        "label": "address",
        "numberOfBytes": "20"
      },
      "t_array(t_string_storage)dyn_storage": {
        "base": "t_string_storage",
        "encoding": "dynamic_array",
        "label": "string[]",
        "numberOfBytes": "32"
      },
      "t_bool": {
        "encoding": "inplace",
        "label": "bool",
        "numberOfBytes": "1"
      },
      "t_contract(PriceFeed)1602": {
        "encoding": "inplace",
        "label": "contract PriceFeed",
        "numberOfBytes": "20"
      },
      "t_mapping(t_address,t_mapping(t_address,t_uint256))": {
        "encoding": "mapping",
        "key": "t_address",
        "label": "mapping(address => mapping(address => uint256))",
        "numberOfBytes": "32",
        "value": "t_mapping(t_address,t_uint256)"
      },
      "t_mapping(t_address,t_uint256)": {
        "encoding": "mapping",
        "key": "t_address",
        "label": "mapping(address => uint256)",
        "numberOfBytes": "32",
        "value": "t_uint256"
      },
      "t_mapping(t_string_memory_ptr,t_struct(pairPool)850_storage)": {
        "encoding": "mapping",
        "key": "t_string_memory_ptr",
        "label": "mapping(string => struct EthToERC20.pairPool)",
        "numberOfBytes": "32",
        "value": "t_struct(pairPool)850_storage"
      },
      "t_string_memory_ptr": {
        "encoding": "bytes",
        "label": "string",
        "numberOfBytes": "32"
      },
      "t_string_storage": {
        "encoding": "bytes",
        "label": "string",
        "numberOfBytes": "32"
      },
      "t_struct(pairPool)850_storage": {
        "encoding": "inplace",
        "label": "struct EthToERC20.pairPool",
        "members": [
          {
            "astId": 833,
            "contract": "contracts/EthToERC20.sol:EthToERC20",
            "label": "token1",
            "offset": 0,
            "slot": "0",
            "type": "t_string_storage"
          },
          {
            "astId": 835,
            "contract": "contracts/EthToERC20.sol:EthToERC20",
            "label": "token2",
            "offset": 0,
            "slot": "1",
            "type": "t_string_storage"
          },
          {
            "astId": 837,
            "contract": "contracts/EthToERC20.sol:EthToERC20",
            "label": "token1Con",
            "offset": 0,
            "slot": "2",
            "type": "t_address"
          },
          {
            "astId": 839,
            "contract": "contracts/EthToERC20.sol:EthToERC20",
            "label": "token2Con",
            "offset": 0,
            "slot": "3",
            "type": "t_address"
          },
          {
            "astId": 841,
            "contract": "contracts/EthToERC20.sol:EthToERC20",
            "label": "token1Amount",
            "offset": 0,
            "slot": "4",
            "type": "t_uint256"
          },
          {
            "astId": 843,
            "contract": "contracts/EthToERC20.sol:EthToERC20",
            "label": "token2Amount",
            "offset": 0,
            "slot": "5",
            "type": "t_uint256"
          },
          {
            "astId": 845,
            "contract": "contracts/EthToERC20.sol:EthToERC20",
            "label": "token1Seed",
            "offset": 0,
            "slot": "6",
            "type": "t_uint256"
          },
          {
            "astId": 847,
            "contract": "contracts/EthToERC20.sol:EthToERC20",
            "label": "token2Seed",
            "offset": 0,
            "slot": "7",
            "type": "t_uint256"
          },
          {
            "astId": 849,
            "contract": "contracts/EthToERC20.sol:EthToERC20",
            "label": "created",
            "offset": 0,
            "slot": "8",
            "type": "t_bool"
          }
        ],
        "numberOfBytes": "288"
      },
      "t_uint256": {
        "encoding": "inplace",
        "label": "uint256",
        "numberOfBytes": "32"
      }
    }
  }
}