{
  "address": "0x572316aC11CB4bc5daf6BDae68f43EA3CCE3aE0e",
  "abi": [
    {
      "inputs": [
        {
          "internalType": "address",
          "name": "_usdcContract",
          "type": "address"
        },
        {
          "internalType": "address",
          "name": "_priceFeed",
          "type": "address"
        }
      ],
      "stateMutability": "payable",
      "type": "constructor"
    },
    {
      "anonymous": false,
      "inputs": [
        {
          "indexed": true,
          "internalType": "address",
          "name": "owner",
          "type": "address"
        },
        {
          "indexed": true,
          "internalType": "address",
          "name": "spender",
          "type": "address"
        },
        {
          "indexed": false,
          "internalType": "uint256",
          "name": "value",
          "type": "uint256"
        }
      ],
      "name": "Approval",
      "type": "event"
    },
    {
      "anonymous": false,
      "inputs": [
        {
          "indexed": true,
          "internalType": "address",
          "name": "from",
          "type": "address"
        },
        {
          "indexed": true,
          "internalType": "address",
          "name": "to",
          "type": "address"
        },
        {
          "indexed": false,
          "internalType": "uint256",
          "name": "value",
          "type": "uint256"
        }
      ],
      "name": "Transfer",
      "type": "event"
    },
    {
      "inputs": [
        {
          "internalType": "address",
          "name": "owner",
          "type": "address"
        },
        {
          "internalType": "address",
          "name": "spender",
          "type": "address"
        }
      ],
      "name": "allowance",
      "outputs": [
        {
          "internalType": "uint256",
          "name": "",
          "type": "uint256"
        }
      ],
      "stateMutability": "view",
      "type": "function"
    },
    {
      "inputs": [
        {
          "internalType": "address",
          "name": "spender",
          "type": "address"
        },
        {
          "internalType": "uint256",
          "name": "amount",
          "type": "uint256"
        }
      ],
      "name": "approve",
      "outputs": [
        {
          "internalType": "bool",
          "name": "",
          "type": "bool"
        }
      ],
      "stateMutability": "nonpayable",
      "type": "function"
    },
    {
      "inputs": [
        {
          "internalType": "address",
          "name": "account",
          "type": "address"
        }
      ],
      "name": "balanceOf",
      "outputs": [
        {
          "internalType": "uint256",
          "name": "",
          "type": "uint256"
        }
      ],
      "stateMutability": "view",
      "type": "function"
    },
    {
      "inputs": [],
      "name": "decimals",
      "outputs": [
        {
          "internalType": "uint8",
          "name": "",
          "type": "uint8"
        }
      ],
      "stateMutability": "view",
      "type": "function"
    },
    {
      "inputs": [
        {
          "internalType": "address",
          "name": "spender",
          "type": "address"
        },
        {
          "internalType": "uint256",
          "name": "subtractedValue",
          "type": "uint256"
        }
      ],
      "name": "decreaseAllowance",
      "outputs": [
        {
          "internalType": "bool",
          "name": "",
          "type": "bool"
        }
      ],
      "stateMutability": "nonpayable",
      "type": "function"
    },
    {
      "inputs": [
        {
          "internalType": "uint256",
          "name": "tokensAmount",
          "type": "uint256"
        }
      ],
      "name": "deposit",
      "outputs": [],
      "stateMutability": "payable",
      "type": "function"
    },
    {
      "inputs": [
        {
          "internalType": "address",
          "name": "spender",
          "type": "address"
        },
        {
          "internalType": "uint256",
          "name": "addedValue",
          "type": "uint256"
        }
      ],
      "name": "increaseAllowance",
      "outputs": [
        {
          "internalType": "bool",
          "name": "",
          "type": "bool"
        }
      ],
      "stateMutability": "nonpayable",
      "type": "function"
    },
    {
      "inputs": [],
      "name": "name",
      "outputs": [
        {
          "internalType": "string",
          "name": "",
          "type": "string"
        }
      ],
      "stateMutability": "view",
      "type": "function"
    },
    {
      "inputs": [],
      "name": "symbol",
      "outputs": [
        {
          "internalType": "string",
          "name": "",
          "type": "string"
        }
      ],
      "stateMutability": "view",
      "type": "function"
    },
    {
      "inputs": [],
      "name": "test",
      "outputs": [],
      "stateMutability": "nonpayable",
      "type": "function"
    },
    {
      "inputs": [],
      "name": "totalSupply",
      "outputs": [
        {
          "internalType": "uint256",
          "name": "",
          "type": "uint256"
        }
      ],
      "stateMutability": "view",
      "type": "function"
    },
    {
      "inputs": [
        {
          "internalType": "address",
          "name": "to",
          "type": "address"
        },
        {
          "internalType": "uint256",
          "name": "amount",
          "type": "uint256"
        }
      ],
      "name": "transfer",
      "outputs": [
        {
          "internalType": "bool",
          "name": "",
          "type": "bool"
        }
      ],
      "stateMutability": "nonpayable",
      "type": "function"
    },
    {
      "inputs": [
        {
          "internalType": "address",
          "name": "from",
          "type": "address"
        },
        {
          "internalType": "address",
          "name": "to",
          "type": "address"
        },
        {
          "internalType": "uint256",
          "name": "amount",
          "type": "uint256"
        }
      ],
      "name": "transferFrom",
      "outputs": [
        {
          "internalType": "bool",
          "name": "",
          "type": "bool"
        }
      ],
      "stateMutability": "nonpayable",
      "type": "function"
    },
    {
      "stateMutability": "payable",
      "type": "receive"
    }
  ],
  "transactionHash": "0x5290545d7f6a1230b0c629d1a5ca9d00efa16b7b1ff30f4308f0449effd0e474",
  "args": [
    "0xe38b6847E611e942E6c80eD89aE867F522402e80",
    "0x2c8ED11fd7A058096F2e5828799c68BE88744E2F"
  ],
  "numDeployments": 1,
  "solcInputHash": "1f4b83251928150433eaf333e18a71b9",
  "bytecode": "0x60806040526040516200233a3803806200233a8339818101604052810190620000299190620001af565b6040518060400160405280600981526020017f457468546f5573646300000000000000000000000000000000000000000000008152506040518060400160405280600481526020017f45545543000000000000000000000000000000000000000000000000000000008152508160039081620000a6919062000470565b508060049081620000b8919062000470565b50505081600660006101000a81548173ffffffffffffffffffffffffffffffffffffffff021916908373ffffffffffffffffffffffffffffffffffffffff16021790555080600560006101000a81548173ffffffffffffffffffffffffffffffffffffffff021916908373ffffffffffffffffffffffffffffffffffffffff160217905550505062000557565b600080fd5b600073ffffffffffffffffffffffffffffffffffffffff82169050919050565b600062000177826200014a565b9050919050565b62000189816200016a565b81146200019557600080fd5b50565b600081519050620001a9816200017e565b92915050565b60008060408385031215620001c957620001c862000145565b5b6000620001d98582860162000198565b9250506020620001ec8582860162000198565b9150509250929050565b600081519050919050565b7f4e487b7100000000000000000000000000000000000000000000000000000000600052604160045260246000fd5b7f4e487b7100000000000000000000000000000000000000000000000000000000600052602260045260246000fd5b600060028204905060018216806200027857607f821691505b6020821081036200028e576200028d62000230565b5b50919050565b60008190508160005260206000209050919050565b60006020601f8301049050919050565b600082821b905092915050565b600060088302620002f87fffffffffffffffffffffffffffffffffffffffffffffffffffffffffffffffff82620002b9565b620003048683620002b9565b95508019841693508086168417925050509392505050565b6000819050919050565b6000819050919050565b6000620003516200034b62000345846200031c565b62000326565b6200031c565b9050919050565b6000819050919050565b6200036d8362000330565b620003856200037c8262000358565b848454620002c6565b825550505050565b600090565b6200039c6200038d565b620003a981848462000362565b505050565b5b81811015620003d157620003c560008262000392565b600181019050620003af565b5050565b601f8211156200042057620003ea8162000294565b620003f584620002a9565b8101602085101562000405578190505b6200041d6200041485620002a9565b830182620003ae565b50505b505050565b600082821c905092915050565b6000620004456000198460080262000425565b1980831691505092915050565b600062000460838362000432565b9150826002028217905092915050565b6200047b82620001f6565b67ffffffffffffffff81111562000497576200049662000201565b5b620004a382546200025f565b620004b0828285620003d5565b600060209050601f831160018114620004e85760008415620004d3578287015190505b620004df858262000452565b8655506200054f565b601f198416620004f88662000294565b60005b828110156200052257848901518255600182019150602085019450602081019050620004fb565b868310156200054257848901516200053e601f89168262000432565b8355505b6001600288020188555050505b505050505050565b611dd380620005676000396000f3fe6080604052600436106100c65760003560e01c806370a082311161007f578063a9059cbb11610059578063a9059cbb146102af578063b6b55f25146102ec578063dd62ed3e14610308578063f8a8fd6d14610345576100cd565b806370a082311461020a57806395d89b4114610247578063a457c2d714610272576100cd565b806306fdde03146100d2578063095ea7b3146100fd57806318160ddd1461013a57806323b872dd14610165578063313ce567146101a257806339509351146101cd576100cd565b366100cd57005b600080fd5b3480156100de57600080fd5b506100e761035c565b6040516100f4919061124d565b60405180910390f35b34801561010957600080fd5b50610124600480360381019061011f9190611308565b6103ee565b6040516101319190611363565b60405180910390f35b34801561014657600080fd5b5061014f610411565b60405161015c919061138d565b60405180910390f35b34801561017157600080fd5b5061018c600480360381019061018791906113a8565b61041b565b6040516101999190611363565b60405180910390f35b3480156101ae57600080fd5b506101b7610455565b6040516101c49190611417565b60405180910390f35b3480156101d957600080fd5b506101f460048036038101906101ef9190611308565b61045e565b6040516102019190611363565b60405180910390f35b34801561021657600080fd5b50610231600480360381019061022c9190611432565b610495565b60405161023e919061138d565b60405180910390f35b34801561025357600080fd5b5061025c6104dd565b604051610269919061124d565b60405180910390f35b34801561027e57600080fd5b5061029960048036038101906102949190611308565b61056f565b6040516102a69190611363565b60405180910390f35b3480156102bb57600080fd5b506102d660048036038101906102d19190611308565b6105e6565b6040516102e39190611363565b60405180910390f35b6103066004803603810190610301919061145f565b610609565b005b34801561031457600080fd5b5061032f600480360381019061032a919061148c565b610a4c565b60405161033c919061138d565b60405180910390f35b34801561035157600080fd5b5061035a610ad3565b005b60606003805461036b906114fb565b80601f0160208091040260200160405190810160405280929190818152602001828054610397906114fb565b80156103e45780601f106103b9576101008083540402835291602001916103e4565b820191906000526020600020905b8154815290600101906020018083116103c757829003601f168201915b5050505050905090565b6000806103f9610b79565b9050610406818585610b81565b600191505092915050565b6000600254905090565b60006104278484610d4a565b6000610431610b79565b905061043e858285610de6565b610449858585610e72565b60019150509392505050565b60006012905090565b600080610469610b79565b905061048a81858561047b8589610a4c565b610485919061155b565b610b81565b600191505092915050565b60008060008373ffffffffffffffffffffffffffffffffffffffff1673ffffffffffffffffffffffffffffffffffffffff168152602001908152602001600020549050919050565b6060600480546104ec906114fb565b80601f0160208091040260200160405190810160405280929190818152602001828054610518906114fb565b80156105655780601f1061053a57610100808354040283529160200191610565565b820191906000526020600020905b81548152906001019060200180831161054857829003601f168201915b5050505050905090565b60008061057a610b79565b905060006105888286610a4c565b9050838110156105cd576040517f08c379a00000000000000000000000000000000000000000000000000000000081526004016105c490611601565b60405180910390fd5b6105da8286868403610b81565b60019250505092915050565b6000806105f1610b79565b90506105fe818585610e72565b600191505092915050565b80600660009054906101000a900473ffffffffffffffffffffffffffffffffffffffff1673ffffffffffffffffffffffffffffffffffffffff166370a08231336040518263ffffffff1660e01b81526004016106659190611630565b602060405180830381865afa158015610682573d6000803e3d6000fd5b505050506040513d601f19601f820116820180604052508101906106a69190611660565b10156106e7576040517f08c379a00000000000000000000000000000000000000000000000000000000081526004016106de906116d9565b60405180910390fd5b610712600660009054906101000a900473ffffffffffffffffffffffffffffffffffffffff166110f1565b6000600560009054906101000a900473ffffffffffffffffffffffffffffffffffffffff1673ffffffffffffffffffffffffffffffffffffffff166341976e09600660009054906101000a900473ffffffffffffffffffffffffffffffffffffffff166040518263ffffffff1660e01b81526004016107919190611630565b602060405180830381865afa1580156107ae573d6000803e3d6000fd5b505050506040513d601f19601f820116820180604052508101906107d2919061172f565b90506000600560009054906101000a900473ffffffffffffffffffffffffffffffffffffffff1673ffffffffffffffffffffffffffffffffffffffff166341976e0973b06c856c8eabd1d8321b687e188204c1018bc4e56040518263ffffffff1660e01b81526004016108459190611630565b602060405180830381865afa158015610862573d6000803e3d6000fd5b505050506040513d601f19601f82011682018060405250810190610886919061172f565b90506000348383610897919061178b565b6108a191906117bc565b905060008183670de0b6b3a76400006108ba91906117bc565b670de0b6b3a76400006108cd91906117bc565b6108d7919061178b565b905081670de0b6b3a7640000866108ee91906117bc565b1461092e576040517f08c379a000000000000000000000000000000000000000000000000000000000815260040161092590611870565b60405180910390fd5b803414610970576040517f08c379a000000000000000000000000000000000000000000000000000000000815260040161096790611902565b60405180910390fd5b600660009054906101000a900473ffffffffffffffffffffffffffffffffffffffff1673ffffffffffffffffffffffffffffffffffffffff166323b872dd3330886040518463ffffffff1660e01b81526004016109cf93929190611922565b6020604051808303816000875af11580156109ee573d6000803e3d6000fd5b505050506040513d601f19601f82011682018060405250810190610a129190611985565b503460076000828254610a25919061155b565b925050819055508460086000828254610a3e919061155b565b925050819055505050505050565b6000600160008473ffffffffffffffffffffffffffffffffffffffff1673ffffffffffffffffffffffffffffffffffffffff16815260200190815260200160002060008373ffffffffffffffffffffffffffffffffffffffff1673ffffffffffffffffffffffffffffffffffffffff16815260200190815260200160002054905092915050565b600660009054906101000a900473ffffffffffffffffffffffffffffffffffffffff1673ffffffffffffffffffffffffffffffffffffffff166323b872dd333060646040518463ffffffff1660e01b8152600401610b33939291906119f7565b6020604051808303816000875af1158015610b52573d6000803e3d6000fd5b505050506040513d601f19601f82011682018060405250810190610b769190611985565b50565b600033905090565b600073ffffffffffffffffffffffffffffffffffffffff168373ffffffffffffffffffffffffffffffffffffffff1603610bf0576040517f08c379a0000000000000000000000000000000000000000000000000000000008152600401610be790611aa0565b60405180910390fd5b600073ffffffffffffffffffffffffffffffffffffffff168273ffffffffffffffffffffffffffffffffffffffff1603610c5f576040517f08c379a0000000000000000000000000000000000000000000000000000000008152600401610c5690611b32565b60405180910390fd5b80600160008573ffffffffffffffffffffffffffffffffffffffff1673ffffffffffffffffffffffffffffffffffffffff16815260200190815260200160002060008473ffffffffffffffffffffffffffffffffffffffff1673ffffffffffffffffffffffffffffffffffffffff168152602001908152602001600020819055508173ffffffffffffffffffffffffffffffffffffffff168373ffffffffffffffffffffffffffffffffffffffff167f8c5be1e5ebec7d5bd14f71427d1e84f3dd0314c0f7b2291e5b200ac8c7c3b92583604051610d3d919061138d565b60405180910390a3505050565b610de28282604051602401610d60929190611b52565b6040516020818303038152906040527fdaf0d4aa000000000000000000000000000000000000000000000000000000007bffffffffffffffffffffffffffffffffffffffffffffffffffffffff19166020820180517bffffffffffffffffffffffffffffffffffffffffffffffffffffffff838183161783525050505061118a565b5050565b6000610df28484610a4c565b90507fffffffffffffffffffffffffffffffffffffffffffffffffffffffffffffffff8114610e6c5781811015610e5e576040517f08c379a0000000000000000000000000000000000000000000000000000000008152600401610e5590611bc7565b60405180910390fd5b610e6b8484848403610b81565b5b50505050565b600073ffffffffffffffffffffffffffffffffffffffff168373ffffffffffffffffffffffffffffffffffffffff1603610ee1576040517f08c379a0000000000000000000000000000000000000000000000000000000008152600401610ed890611c59565b60405180910390fd5b600073ffffffffffffffffffffffffffffffffffffffff168273ffffffffffffffffffffffffffffffffffffffff1603610f50576040517f08c379a0000000000000000000000000000000000000000000000000000000008152600401610f4790611ceb565b60405180910390fd5b610f5b8383836111b3565b60008060008573ffffffffffffffffffffffffffffffffffffffff1673ffffffffffffffffffffffffffffffffffffffff16815260200190815260200160002054905081811015610fe1576040517f08c379a0000000000000000000000000000000000000000000000000000000008152600401610fd890611d7d565b60405180910390fd5b8181036000808673ffffffffffffffffffffffffffffffffffffffff1673ffffffffffffffffffffffffffffffffffffffff16815260200190815260200160002081905550816000808573ffffffffffffffffffffffffffffffffffffffff1673ffffffffffffffffffffffffffffffffffffffff1681526020019081526020016000206000828254611074919061155b565b925050819055508273ffffffffffffffffffffffffffffffffffffffff168473ffffffffffffffffffffffffffffffffffffffff167fddf252ad1be2c89b69c2b068fc378daa952ba7f163c4a11628f55a4df523b3ef846040516110d8919061138d565b60405180910390a36110eb8484846111b8565b50505050565b611187816040516024016111059190611630565b6040516020818303038152906040527f2c2ecbc2000000000000000000000000000000000000000000000000000000007bffffffffffffffffffffffffffffffffffffffffffffffffffffffff19166020820180517bffffffffffffffffffffffffffffffffffffffffffffffffffffffff838183161783525050505061118a565b50565b60008151905060006a636f6e736f6c652e6c6f679050602083016000808483855afa5050505050565b505050565b505050565b600081519050919050565b600082825260208201905092915050565b60005b838110156111f75780820151818401526020810190506111dc565b60008484015250505050565b6000601f19601f8301169050919050565b600061121f826111bd565b61122981856111c8565b93506112398185602086016111d9565b61124281611203565b840191505092915050565b600060208201905081810360008301526112678184611214565b905092915050565b600080fd5b600073ffffffffffffffffffffffffffffffffffffffff82169050919050565b600061129f82611274565b9050919050565b6112af81611294565b81146112ba57600080fd5b50565b6000813590506112cc816112a6565b92915050565b6000819050919050565b6112e5816112d2565b81146112f057600080fd5b50565b600081359050611302816112dc565b92915050565b6000806040838503121561131f5761131e61126f565b5b600061132d858286016112bd565b925050602061133e858286016112f3565b9150509250929050565b60008115159050919050565b61135d81611348565b82525050565b60006020820190506113786000830184611354565b92915050565b611387816112d2565b82525050565b60006020820190506113a2600083018461137e565b92915050565b6000806000606084860312156113c1576113c061126f565b5b60006113cf868287016112bd565b93505060206113e0868287016112bd565b92505060406113f1868287016112f3565b9150509250925092565b600060ff82169050919050565b611411816113fb565b82525050565b600060208201905061142c6000830184611408565b92915050565b6000602082840312156114485761144761126f565b5b6000611456848285016112bd565b91505092915050565b6000602082840312156114755761147461126f565b5b6000611483848285016112f3565b91505092915050565b600080604083850312156114a3576114a261126f565b5b60006114b1858286016112bd565b92505060206114c2858286016112bd565b9150509250929050565b7f4e487b7100000000000000000000000000000000000000000000000000000000600052602260045260246000fd5b6000600282049050600182168061151357607f821691505b602082108103611526576115256114cc565b5b50919050565b7f4e487b7100000000000000000000000000000000000000000000000000000000600052601160045260246000fd5b6000611566826112d2565b9150611571836112d2565b92508282019050808211156115895761158861152c565b5b92915050565b7f45524332303a2064656372656173656420616c6c6f77616e63652062656c6f7760008201527f207a65726f000000000000000000000000000000000000000000000000000000602082015250565b60006115eb6025836111c8565b91506115f68261158f565b604082019050919050565b6000602082019050818103600083015261161a816115de565b9050919050565b61162a81611294565b82525050565b60006020820190506116456000830184611621565b92915050565b60008151905061165a816112dc565b92915050565b6000602082840312156116765761167561126f565b5b60006116848482850161164b565b91505092915050565b7f496e73756666696369656e742045524332302066756e64732e00000000000000600082015250565b60006116c36019836111c8565b91506116ce8261168d565b602082019050919050565b600060208201905081810360008301526116f2816116b6565b9050919050565b6000819050919050565b61170c816116f9565b811461171757600080fd5b50565b60008151905061172981611703565b92915050565b6000602082840312156117455761174461126f565b5b60006117538482850161171a565b91505092915050565b7f4e487b7100000000000000000000000000000000000000000000000000000000600052601260045260246000fd5b6000611796826112d2565b91506117a1836112d2565b9250826117b1576117b061175c565b5b828204905092915050565b60006117c7826112d2565b91506117d2836112d2565b92508282026117e0816112d2565b915082820484148315176117f7576117f661152c565b5b5092915050565b7f5075742074686520617070726f70726961746520616d6f756e74206f6620555360008201527f444320666f72207468617420616d6f756e74206f66204554482e000000000000602082015250565b600061185a603a836111c8565b9150611865826117fe565b604082019050919050565b600060208201905081810360008301526118898161184d565b9050919050565b7f5075742074686520617070726f70726961746520616d6f756e74206f6620455460008201527f4820666f72207468617420616d6f756e74206f6620555344432e000000000000602082015250565b60006118ec603a836111c8565b91506118f782611890565b604082019050919050565b6000602082019050818103600083015261191b816118df565b9050919050565b60006060820190506119376000830186611621565b6119446020830185611621565b611951604083018461137e565b949350505050565b61196281611348565b811461196d57600080fd5b50565b60008151905061197f81611959565b92915050565b60006020828403121561199b5761199a61126f565b5b60006119a984828501611970565b91505092915050565b6000819050919050565b6000819050919050565b60006119e16119dc6119d7846119b2565b6119bc565b6112d2565b9050919050565b6119f1816119c6565b82525050565b6000606082019050611a0c6000830186611621565b611a196020830185611621565b611a2660408301846119e8565b949350505050565b7f45524332303a20617070726f76652066726f6d20746865207a65726f2061646460008201527f7265737300000000000000000000000000000000000000000000000000000000602082015250565b6000611a8a6024836111c8565b9150611a9582611a2e565b604082019050919050565b60006020820190508181036000830152611ab981611a7d565b9050919050565b7f45524332303a20617070726f766520746f20746865207a65726f20616464726560008201527f7373000000000000000000000000000000000000000000000000000000000000602082015250565b6000611b1c6022836111c8565b9150611b2782611ac0565b604082019050919050565b60006020820190508181036000830152611b4b81611b0f565b9050919050565b6000604082019050611b676000830185611621565b611b746020830184611621565b9392505050565b7f45524332303a20696e73756666696369656e7420616c6c6f77616e6365000000600082015250565b6000611bb1601d836111c8565b9150611bbc82611b7b565b602082019050919050565b60006020820190508181036000830152611be081611ba4565b9050919050565b7f45524332303a207472616e736665722066726f6d20746865207a65726f20616460008201527f6472657373000000000000000000000000000000000000000000000000000000602082015250565b6000611c436025836111c8565b9150611c4e82611be7565b604082019050919050565b60006020820190508181036000830152611c7281611c36565b9050919050565b7f45524332303a207472616e7366657220746f20746865207a65726f206164647260008201527f6573730000000000000000000000000000000000000000000000000000000000602082015250565b6000611cd56023836111c8565b9150611ce082611c79565b604082019050919050565b60006020820190508181036000830152611d0481611cc8565b9050919050565b7f45524332303a207472616e7366657220616d6f756e742065786365656473206260008201527f616c616e63650000000000000000000000000000000000000000000000000000602082015250565b6000611d676026836111c8565b9150611d7282611d0b565b604082019050919050565b60006020820190508181036000830152611d9681611d5a565b905091905056fea264697066735822122054f81e89952a8c985e25b17c3a1c690e9f74e1dc547f6ca64334289807d0955964736f6c63430008110033",
  "devdoc": {
    "kind": "dev",
    "methods": {
      "allowance(address,address)": {
        "details": "See {IERC20-allowance}."
      },
      "approve(address,uint256)": {
        "details": "See {IERC20-approve}. NOTE: If `amount` is the maximum `uint256`, the allowance is not updated on `transferFrom`. This is semantically equivalent to an infinite approval. Requirements: - `spender` cannot be the zero address."
      },
      "balanceOf(address)": {
        "details": "See {IERC20-balanceOf}."
      },
      "decimals()": {
        "details": "Returns the number of decimals used to get its user representation. For example, if `decimals` equals `2`, a balance of `505` tokens should be displayed to a user as `5.05` (`505 / 10 ** 2`). Tokens usually opt for a value of 18, imitating the relationship between Ether and Wei. This is the value {ERC20} uses, unless this function is overridden; NOTE: This information is only used for _display_ purposes: it in no way affects any of the arithmetic of the contract, including {IERC20-balanceOf} and {IERC20-transfer}."
      },
      "decreaseAllowance(address,uint256)": {
        "details": "Atomically decreases the allowance granted to `spender` by the caller. This is an alternative to {approve} that can be used as a mitigation for problems described in {IERC20-approve}. Emits an {Approval} event indicating the updated allowance. Requirements: - `spender` cannot be the zero address. - `spender` must have allowance for the caller of at least `subtractedValue`."
      },
      "increaseAllowance(address,uint256)": {
        "details": "Atomically increases the allowance granted to `spender` by the caller. This is an alternative to {approve} that can be used as a mitigation for problems described in {IERC20-approve}. Emits an {Approval} event indicating the updated allowance. Requirements: - `spender` cannot be the zero address."
      },
      "name()": {
        "details": "Returns the name of the token."
      },
      "symbol()": {
        "details": "Returns the symbol of the token, usually a shorter version of the name."
      },
      "totalSupply()": {
        "details": "See {IERC20-totalSupply}."
      },
      "transfer(address,uint256)": {
        "details": "See {IERC20-transfer}. Requirements: - `to` cannot be the zero address. - the caller must have a balance of at least `amount`."
      },
      "transferFrom(address,address,uint256)": {
        "details": "See {IERC20-transferFrom}. Emits an {Approval} event indicating the updated allowance. This is not required by the EIP. See the note at the beginning of {ERC20}. NOTE: Does not update the allowance if the current allowance is the maximum `uint256`. Requirements: - `from` and `to` cannot be the zero address. - `from` must have a balance of at least `amount`. - the caller must have allowance for ``from``'s tokens of at least `amount`."
      }
    },
    "version": 1
  },
  "userdoc": {
    "kind": "user",
    "methods": {},
    "version": 1
  },
  "storageLayout": {
    "storage": [
      {
        "astId": 119,
        "contract": "contracts/EthToUsdc.sol:EthToUsdc",
        "label": "_balances",
        "offset": 0,
        "slot": "0",
        "type": "t_mapping(t_address,t_uint256)"
      },
      {
        "astId": 125,
        "contract": "contracts/EthToUsdc.sol:EthToUsdc",
        "label": "_allowances",
        "offset": 0,
        "slot": "1",
        "type": "t_mapping(t_address,t_mapping(t_address,t_uint256))"
      },
      {
        "astId": 127,
        "contract": "contracts/EthToUsdc.sol:EthToUsdc",
        "label": "_totalSupply",
        "offset": 0,
        "slot": "2",
        "type": "t_uint256"
      },
      {
        "astId": 129,
        "contract": "contracts/EthToUsdc.sol:EthToUsdc",
        "label": "_name",
        "offset": 0,
        "slot": "3",
        "type": "t_string_storage"
      },
      {
        "astId": 131,
        "contract": "contracts/EthToUsdc.sol:EthToUsdc",
        "label": "_symbol",
        "offset": 0,
        "slot": "4",
        "type": "t_string_storage"
      },
      {
        "astId": 831,
        "contract": "contracts/EthToUsdc.sol:EthToUsdc",
        "label": "priceFeed",
        "offset": 0,
        "slot": "5",
        "type": "t_contract(PriceFeed)1041"
      },
      {
        "astId": 834,
        "contract": "contracts/EthToUsdc.sol:EthToUsdc",
        "label": "usdcContract",
        "offset": 0,
        "slot": "6",
        "type": "t_contract(ERC20)696"
      },
      {
        "astId": 836,
        "contract": "contracts/EthToUsdc.sol:EthToUsdc",
        "label": "ethPool",
        "offset": 0,
        "slot": "7",
        "type": "t_uint256"
      },
      {
        "astId": 838,
        "contract": "contracts/EthToUsdc.sol:EthToUsdc",
        "label": "tokenPool",
        "offset": 0,
        "slot": "8",
        "type": "t_uint256"
      }
    ],
    "types": {
      "t_address": {
        "encoding": "inplace",
        "label": "address",
        "numberOfBytes": "20"
      },
      "t_contract(ERC20)696": {
        "encoding": "inplace",
        "label": "contract ERC20",
        "numberOfBytes": "20"
      },
      "t_contract(PriceFeed)1041": {
        "encoding": "inplace",
        "label": "contract PriceFeed",
        "numberOfBytes": "20"
      },
      "t_mapping(t_address,t_mapping(t_address,t_uint256))": {
        "encoding": "mapping",
        "key": "t_address",
        "label": "mapping(address => mapping(address => uint256))",
        "numberOfBytes": "32",
        "value": "t_mapping(t_address,t_uint256)"
      },
      "t_mapping(t_address,t_uint256)": {
        "encoding": "mapping",
        "key": "t_address",
        "label": "mapping(address => uint256)",
        "numberOfBytes": "32",
        "value": "t_uint256"
      },
      "t_string_storage": {
        "encoding": "bytes",
        "label": "string",
        "numberOfBytes": "32"
      },
      "t_uint256": {
        "encoding": "inplace",
        "label": "uint256",
        "numberOfBytes": "32"
      }
    }
  }
}