{
  "address": "0x2c8ED11fd7A058096F2e5828799c68BE88744E2F",
  "abi": [
    {
      "inputs": [
        {
          "internalType": "address",
          "name": "_tokenContract",
          "type": "address"
        },
        {
          "internalType": "address",
          "name": "_tokenAggregator",
          "type": "address"
        }
      ],
      "name": "addPriceAggregator",
      "outputs": [],
      "stateMutability": "nonpayable",
      "type": "function"
    },
    {
      "inputs": [
        {
          "internalType": "address",
          "name": "_tokenContract",
          "type": "address"
        }
      ],
      "name": "getPrice",
      "outputs": [
        {
          "internalType": "int256",
          "name": "",
          "type": "int256"
        }
      ],
      "stateMutability": "view",
      "type": "function"
    }
  ],
  "transactionHash": "0x21c912323732e48f7f441cc3f4c7f10135b17b8a6b4cef50937b5b6776353973",
  "args": [],
  "numDeployments": 1,
  "solcInputHash": "56d6da842bc8ae82cc4092bfefbe74cc",
  "bytecode": "0x608060405234801561001057600080fd5b50610440806100206000396000f3fe608060405234801561001057600080fd5b50600436106100365760003560e01c806341976e091461003b5780636092e8051461006b575b600080fd5b6100556004803603810190610050919061024a565b610087565b6040516100629190610290565b60405180910390f35b610085600480360381019061008091906102ab565b610166565b005b6000806000808473ffffffffffffffffffffffffffffffffffffffff1673ffffffffffffffffffffffffffffffffffffffff16815260200190815260200160002060009054906101000a900473ffffffffffffffffffffffffffffffffffffffff1673ffffffffffffffffffffffffffffffffffffffff1663feaf968c6040518163ffffffff1660e01b815260040160a060405180830381865afa158015610133573d6000803e3d6000fd5b505050506040513d601f19601f82011682018060405250810190610157919061038f565b50505091505080915050919050565b806000808473ffffffffffffffffffffffffffffffffffffffff1673ffffffffffffffffffffffffffffffffffffffff16815260200190815260200160002060006101000a81548173ffffffffffffffffffffffffffffffffffffffff021916908373ffffffffffffffffffffffffffffffffffffffff1602179055505050565b600080fd5b600073ffffffffffffffffffffffffffffffffffffffff82169050919050565b6000610217826101ec565b9050919050565b6102278161020c565b811461023257600080fd5b50565b6000813590506102448161021e565b92915050565b6000602082840312156102605761025f6101e7565b5b600061026e84828501610235565b91505092915050565b6000819050919050565b61028a81610277565b82525050565b60006020820190506102a56000830184610281565b92915050565b600080604083850312156102c2576102c16101e7565b5b60006102d085828601610235565b92505060206102e185828601610235565b9150509250929050565b600069ffffffffffffffffffff82169050919050565b61030a816102eb565b811461031557600080fd5b50565b60008151905061032781610301565b92915050565b61033681610277565b811461034157600080fd5b50565b6000815190506103538161032d565b92915050565b6000819050919050565b61036c81610359565b811461037757600080fd5b50565b60008151905061038981610363565b92915050565b600080600080600060a086880312156103ab576103aa6101e7565b5b60006103b988828901610318565b95505060206103ca88828901610344565b94505060406103db8882890161037a565b93505060606103ec8882890161037a565b92505060806103fd88828901610318565b915050929550929590935056fea26469706673582212203f6806dd321397b4037f7ad64217c92669f989aeb4f9f852a7adc5e0579cf45364736f6c63430008110033",
  "devdoc": {
    "kind": "dev",
    "methods": {},
    "version": 1
  },
  "userdoc": {
    "kind": "user",
    "methods": {},
    "version": 1
  },
  "storageLayout": {
    "storage": [
      {
        "astId": 1179,
        "contract": "contracts/PriceFeed.sol:PriceFeed",
        "label": "priceFeeds",
        "offset": 0,
        "slot": "0",
        "type": "t_mapping(t_address,t_contract(AggregatorV3Interface)102)"
      }
    ],
    "types": {
      "t_address": {
        "encoding": "inplace",
        "label": "address",
        "numberOfBytes": "20"
      },
      "t_contract(AggregatorV3Interface)102": {
        "encoding": "inplace",
        "label": "contract AggregatorV3Interface",
        "numberOfBytes": "20"
      },
      "t_mapping(t_address,t_contract(AggregatorV3Interface)102)": {
        "encoding": "mapping",
        "key": "t_address",
        "label": "mapping(address => contract AggregatorV3Interface)",
        "numberOfBytes": "32",
        "value": "t_contract(AggregatorV3Interface)102"
      }
    }
  }
}