{
  "address": "0x5FC8d32690cc91D4c39d9d3abcBD16989F875707",
  "abi": [
    {
      "inputs": [
        {
          "internalType": "address[]",
          "name": "_tokenContracts",
          "type": "address[]"
        },
        {
          "internalType": "address[]",
          "name": "_tokenAggregators",
          "type": "address[]"
        }
      ],
      "stateMutability": "nonpayable",
      "type": "constructor"
    },
    {
      "inputs": [
        {
          "internalType": "address",
          "name": "_tokenContract",
          "type": "address"
        }
      ],
      "name": "getPrice",
      "outputs": [
        {
          "internalType": "uint256",
          "name": "",
          "type": "uint256"
        }
      ],
      "stateMutability": "view",
      "type": "function"
    }
  ],
  "transactionHash": "0x168d4214cd2c73a167ebdaf3c269c3c9cd0b4a3b3a1e295f47a3a73ffdc56d61",
  "args": [
    [
      "0x5FbDB2315678afecb367f032d93F642f64180aa3",
      "0xe7f1725E7734CE288F8367e1Bb143E90bb3F0512",
      "0xDc64a140Aa3E981100a9becA4E685f962f0cF6C9"
    ],
    [
      "0x9fE46736679d2D9a65F0992F2272dE9f3c7fa6e0",
      "0xCf7Ed3AccA5a467e9e704C703E8D87F634fB0Fc9",
      "0xDc64a140Aa3E981100a9becA4E685f962f0cF6C9"
    ]
  ],
  "numDeployments": 1,
  "solcInputHash": "46d5ee0db8bf6d3a7c95c40c425bb9d3",
  "bytecode": "0x608060405234801561001057600080fd5b5060405161047238038061047283398101604081905261002f91610212565b80518251146100aa5760405162461bcd60e51b815260206004820152603c60248201527f4d69736d6174636820696e20616d6f756e74206f6620746f6b656e20636f6e7460448201527f726163747320616e6420746f6b656e2061676772656761746f72732e00000000606482015260840160405180910390fd5b60005b82518110156101375760008382815181106100ca576100ca610275565b6020026020010151905060008383815181106100e8576100e8610275565b6020908102919091018101516001600160a01b03938416600090815291829052604090912080546001600160a01b0319169390911692909217909155508061012f8161028b565b9150506100ad565b5050506102b2565b634e487b7160e01b600052604160045260246000fd5b80516001600160a01b038116811461016c57600080fd5b919050565b600082601f83011261018257600080fd5b815160206001600160401b038083111561019e5761019e61013f565b8260051b604051601f19603f830116810181811084821117156101c3576101c361013f565b6040529384528581018301938381019250878511156101e157600080fd5b83870191505b84821015610207576101f882610155565b835291830191908301906101e7565b979650505050505050565b6000806040838503121561022557600080fd5b82516001600160401b038082111561023c57600080fd5b61024886838701610171565b9350602085015191508082111561025e57600080fd5b5061026b85828601610171565b9150509250929050565b634e487b7160e01b600052603260045260246000fd5b6000600182016102ab57634e487b7160e01b600052601160045260246000fd5b5060010190565b6101b1806102c16000396000f3fe608060405234801561001057600080fd5b506004361061002b5760003560e01c806341976e0914610030575b600080fd5b61004361003e3660046100df565b610055565b60405190815260200160405180910390f35b6001600160a01b03808216600090815260208190526040808220548151633fabe5a360e21b815291519293849391169163feaf968c9160048083019260a09291908290030181865afa1580156100af573d6000803e3d6000fd5b505050506040513d601f19601f820116820180604052508101906100d3919061012b565b50919695505050505050565b6000602082840312156100f157600080fd5b81356001600160a01b038116811461010857600080fd5b9392505050565b80516001600160501b038116811461012657600080fd5b919050565b600080600080600060a0868803121561014357600080fd5b61014c8661010f565b945060208601519350604086015192506060860151915061016f6080870161010f565b9050929550929590935056fea2646970667358221220956f57cd21bf901c58afc54f7317840d81599890735e37f9a07d8d6fd35c2df864736f6c63430008110033",
  "devdoc": {
    "kind": "dev",
    "methods": {},
    "version": 1
  },
  "userdoc": {
    "kind": "user",
    "methods": {},
    "version": 1
  },
  "storageLayout": {
    "storage": [
      {
        "astId": 1793,
        "contract": "contracts/PriceFeed.sol:PriceFeed",
        "label": "priceFeeds",
        "offset": 0,
        "slot": "0",
        "type": "t_mapping(t_address,t_contract(AggregatorV3Interface)102)"
      }
    ],
    "types": {
      "t_address": {
        "encoding": "inplace",
        "label": "address",
        "numberOfBytes": "20"
      },
      "t_contract(AggregatorV3Interface)102": {
        "encoding": "inplace",
        "label": "contract AggregatorV3Interface",
        "numberOfBytes": "20"
      },
      "t_mapping(t_address,t_contract(AggregatorV3Interface)102)": {
        "encoding": "mapping",
        "key": "t_address",
        "label": "mapping(address => contract AggregatorV3Interface)",
        "numberOfBytes": "32",
        "value": "t_contract(AggregatorV3Interface)102"
      }
    }
  }
}