{
  "address": "0x86A2EE8FAf9A840F7a2c64CA3d51209F9A02081D",
  "abi": [
    {
      "inputs": [
        {
          "internalType": "uint8",
          "name": "_decimals",
          "type": "uint8"
        },
        {
          "internalType": "int256",
          "name": "_initialAnswer",
          "type": "int256"
        }
      ],
      "stateMutability": "nonpayable",
      "type": "constructor"
    },
    {
      "anonymous": false,
      "inputs": [
        {
          "indexed": true,
          "internalType": "int256",
          "name": "current",
          "type": "int256"
        },
        {
          "indexed": true,
          "internalType": "uint256",
          "name": "roundId",
          "type": "uint256"
        },
        {
          "indexed": false,
          "internalType": "uint256",
          "name": "updatedAt",
          "type": "uint256"
        }
      ],
      "name": "AnswerUpdated",
      "type": "event"
    },
    {
      "anonymous": false,
      "inputs": [
        {
          "indexed": true,
          "internalType": "uint256",
          "name": "roundId",
          "type": "uint256"
        },
        {
          "indexed": true,
          "internalType": "address",
          "name": "startedBy",
          "type": "address"
        },
        {
          "indexed": false,
          "internalType": "uint256",
          "name": "startedAt",
          "type": "uint256"
        }
      ],
      "name": "NewRound",
      "type": "event"
    },
    {
      "inputs": [],
      "name": "decimals",
      "outputs": [
        {
          "internalType": "uint8",
          "name": "",
          "type": "uint8"
        }
      ],
      "stateMutability": "view",
      "type": "function"
    },
    {
      "inputs": [],
      "name": "description",
      "outputs": [
        {
          "internalType": "string",
          "name": "",
          "type": "string"
        }
      ],
      "stateMutability": "pure",
      "type": "function"
    },
    {
      "inputs": [
        {
          "internalType": "uint256",
          "name": "",
          "type": "uint256"
        }
      ],
      "name": "getAnswer",
      "outputs": [
        {
          "internalType": "int256",
          "name": "",
          "type": "int256"
        }
      ],
      "stateMutability": "view",
      "type": "function"
    },
    {
      "inputs": [
        {
          "internalType": "uint80",
          "name": "_roundId",
          "type": "uint80"
        }
      ],
      "name": "getRoundData",
      "outputs": [
        {
          "internalType": "uint80",
          "name": "roundId",
          "type": "uint80"
        },
        {
          "internalType": "int256",
          "name": "answer",
          "type": "int256"
        },
        {
          "internalType": "uint256",
          "name": "startedAt",
          "type": "uint256"
        },
        {
          "internalType": "uint256",
          "name": "updatedAt",
          "type": "uint256"
        },
        {
          "internalType": "uint80",
          "name": "answeredInRound",
          "type": "uint80"
        }
      ],
      "stateMutability": "view",
      "type": "function"
    },
    {
      "inputs": [
        {
          "internalType": "uint256",
          "name": "",
          "type": "uint256"
        }
      ],
      "name": "getTimestamp",
      "outputs": [
        {
          "internalType": "uint256",
          "name": "",
          "type": "uint256"
        }
      ],
      "stateMutability": "view",
      "type": "function"
    },
    {
      "inputs": [],
      "name": "latestAnswer",
      "outputs": [
        {
          "internalType": "int256",
          "name": "",
          "type": "int256"
        }
      ],
      "stateMutability": "view",
      "type": "function"
    },
    {
      "inputs": [],
      "name": "latestRound",
      "outputs": [
        {
          "internalType": "uint256",
          "name": "",
          "type": "uint256"
        }
      ],
      "stateMutability": "view",
      "type": "function"
    },
    {
      "inputs": [],
      "name": "latestRoundData",
      "outputs": [
        {
          "internalType": "uint80",
          "name": "roundId",
          "type": "uint80"
        },
        {
          "internalType": "int256",
          "name": "answer",
          "type": "int256"
        },
        {
          "internalType": "uint256",
          "name": "startedAt",
          "type": "uint256"
        },
        {
          "internalType": "uint256",
          "name": "updatedAt",
          "type": "uint256"
        },
        {
          "internalType": "uint80",
          "name": "answeredInRound",
          "type": "uint80"
        }
      ],
      "stateMutability": "view",
      "type": "function"
    },
    {
      "inputs": [],
      "name": "latestTimestamp",
      "outputs": [
        {
          "internalType": "uint256",
          "name": "",
          "type": "uint256"
        }
      ],
      "stateMutability": "view",
      "type": "function"
    },
    {
      "inputs": [
        {
          "internalType": "int256",
          "name": "_answer",
          "type": "int256"
        }
      ],
      "name": "updateAnswer",
      "outputs": [],
      "stateMutability": "nonpayable",
      "type": "function"
    },
    {
      "inputs": [
        {
          "internalType": "uint80",
          "name": "_roundId",
          "type": "uint80"
        },
        {
          "internalType": "int256",
          "name": "_answer",
          "type": "int256"
        },
        {
          "internalType": "uint256",
          "name": "_timestamp",
          "type": "uint256"
        },
        {
          "internalType": "uint256",
          "name": "_startedAt",
          "type": "uint256"
        }
      ],
      "name": "updateRoundData",
      "outputs": [],
      "stateMutability": "nonpayable",
      "type": "function"
    },
    {
      "inputs": [],
      "name": "version",
      "outputs": [
        {
          "internalType": "uint256",
          "name": "",
          "type": "uint256"
        }
      ],
      "stateMutability": "view",
      "type": "function"
    }
  ],
  "transactionHash": "0xbffa386591a2436e478e20eb20ad71fc007aa0d442a39aeada17f701d6644dd0",
  "args": [
    18,
    1
  ],
  "numDeployments": 1,
  "solcInputHash": "4b5819992c2da1c73367b63340d46447",
  "bytecode": "0x608060405234801561001057600080fd5b5060405161053c38038061053c83398101604081905261002f916100a4565b6000805460ff191660ff84161790556100478161004e565b50506100ff565b60018190554260025560038054906000610067836100d8565b9091555050600380546000908152600460209081526040808320949094558254825260058152838220429081905592548252600690529190912055565b600080604083850312156100b757600080fd5b825160ff811681146100c857600080fd5b6020939093015192949293505050565b6000600182016100f857634e487b7160e01b600052601160045260246000fd5b5060010190565b61042e8061010e6000396000f3fe608060405234801561001057600080fd5b50600436106100b45760003560e01c80638205bf6a116100715780638205bf6a1461019e5780639a6fc8f5146101a7578063a87a20ce1461021f578063b5ab58dc14610232578063b633620c14610252578063feaf968c1461027257600080fd5b8063313ce567146100b95780634aa2011f146100dd57806350d25bcd1461013757806354fd4d501461014e578063668a0f02146101565780637284e4161461015f575b600080fd5b6000546100c69060ff1681565b60405160ff90911681526020015b60405180910390f35b6101356100eb36600461030f565b6001600160501b0390931660038181556001849055600283905560009182526004602090815260408084209590955581548352600581528483209390935554815260069091522055565b005b61014060015481565b6040519081526020016100d4565b610140600081565b61014060035481565b604080518082018252601f81527f76302e382f74657374732f4d6f636b563341676772656761746f722e736f6c00602082015290516100d49190610348565b61014060025481565b6101eb6101b5366004610396565b6001600160501b038116600090815260046020908152604080832054600683528184205460059093529220549293919290918490565b604080516001600160501b03968716815260208101959095528401929092526060830152909116608082015260a0016100d4565b61013561022d3660046103b8565b61029d565b6101406102403660046103b8565b60046020526000908152604090205481565b6101406102603660046103b8565b60056020526000908152604090205481565b60035460008181526004602090815260408083205460068352818420546005909352922054836101eb565b600181905542600255600380549060006102b6836103d1565b9091555050600380546000908152600460209081526040808320949094558254825260058152838220429081905592548252600690529190912055565b80356001600160501b038116811461030a57600080fd5b919050565b6000806000806080858703121561032557600080fd5b61032e856102f3565b966020860135965060408601359560600135945092505050565b600060208083528351808285015260005b8181101561037557858101830151858201604001528201610359565b506000604082860101526040601f19601f8301168501019250505092915050565b6000602082840312156103a857600080fd5b6103b1826102f3565b9392505050565b6000602082840312156103ca57600080fd5b5035919050565b6000600182016103f157634e487b7160e01b600052601160045260246000fd5b506001019056fea2646970667358221220e9511472f8b3eacf75054d2aa7c07313d19e083c70cb9335875b78026583224064736f6c63430008110033",
  "devdoc": {
    "kind": "dev",
    "methods": {},
    "title": "MockV3Aggregator",
    "version": 1
  },
  "userdoc": {
    "kind": "user",
    "methods": {},
    "notice": "Based on the FluxAggregator contractUse this contract when you need to test other contract's ability to read data from an aggregator contract, but how the aggregator got its answer is unimportant",
    "version": 1
  },
  "storageLayout": {
    "storage": [
      {
        "astId": 1607,
        "contract": "contracts/UsdtMock.sol:UsdtMock",
        "label": "decimals",
        "offset": 0,
        "slot": "0",
        "type": "t_uint8"
      },
      {
        "astId": 1610,
        "contract": "contracts/UsdtMock.sol:UsdtMock",
        "label": "latestAnswer",
        "offset": 0,
        "slot": "1",
        "type": "t_int256"
      },
      {
        "astId": 1613,
        "contract": "contracts/UsdtMock.sol:UsdtMock",
        "label": "latestTimestamp",
        "offset": 0,
        "slot": "2",
        "type": "t_uint256"
      },
      {
        "astId": 1616,
        "contract": "contracts/UsdtMock.sol:UsdtMock",
        "label": "latestRound",
        "offset": 0,
        "slot": "3",
        "type": "t_uint256"
      },
      {
        "astId": 1621,
        "contract": "contracts/UsdtMock.sol:UsdtMock",
        "label": "getAnswer",
        "offset": 0,
        "slot": "4",
        "type": "t_mapping(t_uint256,t_int256)"
      },
      {
        "astId": 1626,
        "contract": "contracts/UsdtMock.sol:UsdtMock",
        "label": "getTimestamp",
        "offset": 0,
        "slot": "5",
        "type": "t_mapping(t_uint256,t_uint256)"
      },
      {
        "astId": 1630,
        "contract": "contracts/UsdtMock.sol:UsdtMock",
        "label": "getStartedAt",
        "offset": 0,
        "slot": "6",
        "type": "t_mapping(t_uint256,t_uint256)"
      }
    ],
    "types": {
      "t_int256": {
        "encoding": "inplace",
        "label": "int256",
        "numberOfBytes": "32"
      },
      "t_mapping(t_uint256,t_int256)": {
        "encoding": "mapping",
        "key": "t_uint256",
        "label": "mapping(uint256 => int256)",
        "numberOfBytes": "32",
        "value": "t_int256"
      },
      "t_mapping(t_uint256,t_uint256)": {
        "encoding": "mapping",
        "key": "t_uint256",
        "label": "mapping(uint256 => uint256)",
        "numberOfBytes": "32",
        "value": "t_uint256"
      },
      "t_uint256": {
        "encoding": "inplace",
        "label": "uint256",
        "numberOfBytes": "32"
      },
      "t_uint8": {
        "encoding": "inplace",
        "label": "uint8",
        "numberOfBytes": "1"
      }
    }
  }
}